{
  "address": "0xCE07f33831D2a36e4935eA6a8Ff6059f49Fa52Da",
  "abi": [
    {
      "inputs": [
        {
          "internalType": "address",
          "name": "intialYarRequest",
          "type": "address"
        },
        {
          "internalType": "address",
          "name": "intialYarResponse",
          "type": "address"
        }
      ],
      "stateMutability": "nonpayable",
      "type": "constructor"
    },
    {
      "inputs": [],
      "name": "bridgedTokenImplementation",
      "outputs": [
        {
          "internalType": "address",
          "name": "",
          "type": "address"
        }
      ],
      "stateMutability": "view",
      "type": "function"
    },
    {
      "inputs": [],
      "name": "chainId",
      "outputs": [
        {
          "internalType": "uint256",
          "name": "",
          "type": "uint256"
        }
      ],
      "stateMutability": "view",
      "type": "function"
    },
    {
      "inputs": [
        {
          "internalType": "uint256",
          "name": "originalChainId",
          "type": "uint256"
        },
        {
          "internalType": "bytes",
          "name": "originalToken",
          "type": "bytes"
        }
      ],
      "name": "getBridgedTokenAddress",
      "outputs": [
        {
          "internalType": "address",
          "name": "",
          "type": "address"
        }
      ],
      "stateMutability": "view",
      "type": "function"
    },
    {
      "inputs": [
        {
          "internalType": "uint256",
          "name": "_chainId",
          "type": "uint256"
        }
      ],
      "name": "getPeer",
      "outputs": [
        {
          "internalType": "address",
          "name": "",
          "type": "address"
        }
      ],
      "stateMutability": "view",
      "type": "function"
    },
    {
      "inputs": [
        {
          "internalType": "uint256",
          "name": "originalChainId",
          "type": "uint256"
        },
        {
          "internalType": "address",
          "name": "token1155",
          "type": "address"
        }
      ],
      "name": "getTokenAddress",
      "outputs": [
        {
          "internalType": "address",
          "name": "",
          "type": "address"
        }
      ],
      "stateMutability": "view",
      "type": "function"
    },
    {
      "inputs": [
        {
          "internalType": "address",
          "name": "bridgedToken",
          "type": "address"
        }
      ],
      "name": "isBridgedToken",
      "outputs": [
        {
          "internalType": "bool",
          "name": "exists",
          "type": "bool"
        }
      ],
      "stateMutability": "view",
      "type": "function"
    },
    {
      "inputs": [
        {
          "internalType": "address",
          "name": "_issuedToken",
          "type": "address"
        }
      ],
      "name": "isIssuedTokenPublished",
      "outputs": [
        {
          "internalType": "bool",
          "name": "",
          "type": "bool"
        }
      ],
      "stateMutability": "view",
      "type": "function"
    },
    {
      "inputs": [
        {
          "internalType": "address",
          "name": "",
          "type": "address"
        }
      ],
      "name": "issuedTokens",
      "outputs": [
        {
          "internalType": "bool",
          "name": "",
          "type": "bool"
        }
      ],
      "stateMutability": "view",
      "type": "function"
    },
    {
      "inputs": [
        {
          "internalType": "address",
          "name": "",
          "type": "address"
        },
        {
          "internalType": "address",
          "name": "",
          "type": "address"
        },
        {
          "internalType": "uint256[]",
          "name": "",
          "type": "uint256[]"
        },
        {
          "internalType": "uint256[]",
          "name": "",
          "type": "uint256[]"
        },
        {
          "internalType": "bytes",
          "name": "",
          "type": "bytes"
        }
      ],
      "name": "onERC1155BatchReceived",
      "outputs": [
        {
          "internalType": "bytes4",
          "name": "",
          "type": "bytes4"
        }
      ],
      "stateMutability": "pure",
      "type": "function"
    },
    {
      "inputs": [
        {
          "internalType": "address",
          "name": "",
          "type": "address"
        },
        {
          "internalType": "address",
          "name": "",
          "type": "address"
        },
        {
          "internalType": "uint256",
          "name": "",
          "type": "uint256"
        },
        {
          "internalType": "uint256",
          "name": "",
          "type": "uint256"
        },
        {
          "internalType": "bytes",
          "name": "",
          "type": "bytes"
        }
      ],
      "name": "onERC1155Received",
      "outputs": [
        {
          "internalType": "bytes4",
          "name": "",
          "type": "bytes4"
        }
      ],
      "stateMutability": "pure",
      "type": "function"
    },
    {
      "inputs": [],
      "name": "owner",
      "outputs": [
        {
          "internalType": "address",
          "name": "",
          "type": "address"
        }
      ],
      "stateMutability": "view",
      "type": "function"
    },
    {
      "inputs": [
        {
          "internalType": "uint256",
          "name": "chainId",
          "type": "uint256"
        }
      ],
      "name": "peers",
      "outputs": [
        {
          "internalType": "address",
          "name": "peer",
          "type": "address"
        }
      ],
      "stateMutability": "view",
      "type": "function"
    },
    {
      "inputs": [
        {
          "internalType": "uint256",
          "name": "newChainId",
          "type": "uint256"
        },
        {
          "internalType": "address",
          "name": "newPeer",
          "type": "address"
        }
      ],
      "name": "setPeer",
      "outputs": [],
      "stateMutability": "nonpayable",
      "type": "function"
    },
    {
      "inputs": [
        {
          "internalType": "bytes4",
          "name": "interfaceID",
          "type": "bytes4"
        }
      ],
      "name": "supportsInterface",
      "outputs": [
        {
          "internalType": "bool",
          "name": "",
          "type": "bool"
        }
      ],
      "stateMutability": "pure",
      "type": "function"
    },
    {
      "inputs": [
        {
          "internalType": "uint256",
          "name": "originalChainId",
          "type": "uint256"
        },
        {
          "internalType": "bytes",
          "name": "originalToken",
          "type": "bytes"
        },
        {
          "internalType": "uint256",
          "name": "tokenId",
          "type": "uint256"
        },
        {
          "internalType": "uint256",
          "name": "amount",
          "type": "uint256"
        },
        {
          "internalType": "string",
          "name": "uri",
          "type": "string"
        },
        {
          "internalType": "address",
          "name": "recipient",
          "type": "address"
        }
      ],
      "name": "transferFrom",
      "outputs": [],
      "stateMutability": "nonpayable",
      "type": "function"
    },
    {
      "inputs": [
        {
          "internalType": "uint256",
          "name": "originalChainId",
          "type": "uint256"
        },
        {
          "internalType": "bytes",
          "name": "originalToken",
          "type": "bytes"
        },
        {
          "internalType": "uint256[]",
          "name": "tokenIds",
          "type": "uint256[]"
        },
        {
          "internalType": "uint256[]",
          "name": "amounts",
          "type": "uint256[]"
        },
        {
          "internalType": "string[]",
          "name": "uris",
          "type": "string[]"
        },
        {
          "internalType": "address",
          "name": "recipient",
          "type": "address"
        }
      ],
      "name": "transferFromBatch",
      "outputs": [],
      "stateMutability": "nonpayable",
      "type": "function"
    },
    {
      "inputs": [
        {
          "internalType": "address",
          "name": "token1155",
          "type": "address"
        },
        {
          "internalType": "uint256",
          "name": "tokenId",
          "type": "uint256"
        },
        {
          "internalType": "uint256",
          "name": "amount",
          "type": "uint256"
        },
        {
          "internalType": "uint256",
          "name": "targetChainId",
          "type": "uint256"
        },
        {
          "internalType": "address",
          "name": "recipient",
          "type": "address"
        }
      ],
      "name": "transferTo",
      "outputs": [
        {
          "components": [
            {
              "internalType": "uint256",
              "name": "initialChainId",
              "type": "uint256"
            },
            {
              "internalType": "address",
              "name": "sender",
              "type": "address"
            },
            {
              "internalType": "address",
              "name": "payer",
              "type": "address"
            },
            {
              "internalType": "uint256",
              "name": "targetChainId",
              "type": "uint256"
            },
            {
              "internalType": "address",
              "name": "target",
              "type": "address"
            },
            {
              "internalType": "uint256",
              "name": "value",
              "type": "uint256"
            },
            {
              "internalType": "bytes",
              "name": "data",
              "type": "bytes"
            },
            {
              "internalType": "uint256",
              "name": "_nonce",
              "type": "uint256"
            }
          ],
          "internalType": "struct YarLib.YarTX",
          "name": "",
          "type": "tuple"
        }
      ],
      "stateMutability": "nonpayable",
      "type": "function"
    },
    {
      "inputs": [
        {
          "internalType": "address",
          "name": "token1155",
          "type": "address"
        },
        {
          "internalType": "uint256[]",
          "name": "tokenIds",
          "type": "uint256[]"
        },
        {
          "internalType": "uint256[]",
          "name": "amounts",
          "type": "uint256[]"
        },
        {
          "internalType": "uint256",
          "name": "targetChainId",
          "type": "uint256"
        },
        {
          "internalType": "address",
          "name": "recipient",
          "type": "address"
        }
      ],
      "name": "transferToBatch",
      "outputs": [
        {
          "components": [
            {
              "internalType": "uint256",
              "name": "initialChainId",
              "type": "uint256"
            },
            {
              "internalType": "address",
              "name": "sender",
              "type": "address"
            },
            {
              "internalType": "address",
              "name": "payer",
              "type": "address"
            },
            {
              "internalType": "uint256",
              "name": "targetChainId",
              "type": "uint256"
            },
            {
              "internalType": "address",
              "name": "target",
              "type": "address"
            },
            {
              "internalType": "uint256",
              "name": "value",
              "type": "uint256"
            },
            {
              "internalType": "bytes",
              "name": "data",
              "type": "bytes"
            },
            {
              "internalType": "uint256",
              "name": "_nonce",
              "type": "uint256"
            }
          ],
          "internalType": "struct YarLib.YarTX",
          "name": "",
          "type": "tuple"
        }
      ],
      "stateMutability": "nonpayable",
      "type": "function"
    },
    {
      "inputs": [],
      "name": "yarRequest",
      "outputs": [
        {
          "internalType": "address",
          "name": "",
          "type": "address"
        }
      ],
      "stateMutability": "view",
      "type": "function"
    },
    {
      "inputs": [],
      "name": "yarResponse",
      "outputs": [
        {
          "internalType": "address",
          "name": "",
          "type": "address"
        }
      ],
      "stateMutability": "view",
      "type": "function"
    }
  ],
  "transactionHash": "0x1e228876a227058cc8f678debcf5fcd5d416db552c3d8d19caebb081abcd8580",
  "args": [
    "0x24e03AbB3f168a4deD0171060eFDB9a170bE193d",
    "0xAB4435F7E8a5C50798EBF367217cfba3Bb2DF7cb"
  ],
  "numDeployments": 1,
  "solcInputHash": "de8fcd0d37e6f0214c5cc515747ebade",
  "bytecode": "0x60803462000101576001600160401b03601f6200432138819003918201601f191684019183831185841017620000eb57808592604094855283398101031262000101576200005b6020620000538462000106565b930162000106565b600280546001600160a01b03199081166001600160a01b0395861617909155600380548216928516929092179091556040519092916122fe9081830190811183821017620000eb57829162002023833903906000f08015620000df57168160045416176004554660015533906000541617600055604051611f0790816200011c8239f35b6040513d6000823e3d90fd5b634e487b7160e01b600052604160045260246000fd5b600080fd5b51906001600160a01b0382168203620001015756fe608080604052600436101561001357600080fd5b600090813560e01c90816301ffc9a7146113495750806319982cfd1461108c57806335752ba114610f6d578063457322b9146102ae57806346172fc514610f2e57806367ebb6b214610efd5780637078944c14610ed45780638069c49714610e4b578063833ddeb914610c44578063869d8cd9146109165780638a0f6873146103325780638da5cb5b1461030b5780639a8a0592146102ed578063a0b498a4146102ae578063bc197c811461021e578063be4f3e8f146101eb578063c287e578146101ac578063e6a1496d14610183578063f23a6e61146101285763f4100f00146100fd57600080fd5b346101255780600319360112610125576002546040516001600160a01b039091168152602090f35b80fd5b50346101255760a036600319011261012557610142611538565b5061014b611522565b506084356001600160401b03811161017f5761016b90369060040161139e565b505060405163f23a6e6160e01b8152602090f35b5080fd5b50346101255780600319360112610125576003546040516001600160a01b039091168152602090f35b50346101255760203660031901126101255760209060ff906040906001600160a01b036101d7611538565b168152600584522054166040519015158152f35b503461012557602036600319011261012557602090600435815260078252604060018060a01b0391205416604051908152f35b50346101255760a036600319011261012557610238611538565b50610241611522565b506001600160401b036044358181116102aa576102629036906004016114dc565b50506064358181116102aa5761027c9036906004016114dc565b505060843590811161017f5761029690369060040161139e565b505060405163bc197c8160e01b8152602090f35b8280fd5b50346101255760203660031901126101255760209060ff906040906001600160a01b036102d9611538565b168152600684522054166040519015158152f35b50346101255780600319360112610125576020600154604051908152f35b5034610125578060031936011261012557546040516001600160a01b039091168152602090f35b50346101255760a03660031901126101255761034c611538565b6001600160401b03906024358281116109125761036d90369060040161147e565b916044359081116109125761038690369060040161147e565b9161038f61154e565b90610398611641565b5080519283156108c1578451840361086357855b8481106107ec57506001600160a01b03811686526005602052604086205460ff169485156107e3576040516306bc461b60e11b81526020816004816001600160a01b0387165afa9081156107785788916107ac575b50955b1561078357604051630e7c1cb560e01b815287816004816001600160a01b0387165afa908115610778578891610756575b509187905b61044387611467565b966104516040519889611446565b80885261045d81611467565b835b601f1982018110610740575050825b8181106106985750506001600160a01b0381163b1561017f57816040518092631759616b60e11b82528183816104aa898c30336004860161187c565b03926001600160a01b03165af1801561068d57610675575b5050610521906105116104fe604098969498979597519889976319982cfd60e01b60208a0152602489015260c0604489015260e4880190611587565b6023199788888303016064890152611848565b9086868303016084870152611848565b938385030160a4840152815180855260208501946020808360051b83010194019588915b83831061064257505050506001600160a01b031660c483015203601f1981018352610571915082611446565b600154906064356105818161161c565b906040519361058f856113f4565b8452306020850152336040850152606084015260018060a01b031660808301528260a083015260c08201528160e082015260018060a01b0360025416918060405180946334db7e0560e21b82528183816105ec88600483016115ac565b03925af19283156106355761060e93610612575b5050604051918291826115ac565b0390f35b61062d913d8091833e6106258183611446565b81019061174f565b503880610600565b50604051903d90823e3d90fd5b919395509193602080610661600193601f198682030187528a51611587565b980193019301909287959396949296610545565b61067e906113cb565b6106895786386104c2565b8680fd5b6040513d84823e3d90fd5b610708919293506106a9818861181e565b516040516303a24d0760e21b815260048101919091528b816024816001600160a01b0389165afa8c918161071b575b5061071157506040516106ea8161142b565b8b81526106f7828b61181e565b52610702818a61181e565b506117f9565b9089929161046e565b6106f7828b61181e565b6107399192508d3d8091833e6107318183611446565b810190611705565b90386106d8565b60606020828c018101919091528c95500161045f565b61077291503d808a833e61076a8183611446565b8101906116e0565b38610435565b6040513d8a823e3d90fd5b6040516001600160a01b03831660208083019190915281526107a481611410565b91879061043a565b90506020813d6020116107db575b816107c760209383611446565b810103126107d6575138610401565b600080fd5b3d91506107ba565b60015495610404565b6107f6818761181e565b511561080a57610805906117f9565b6103ac565b60405162461bcd60e51b815260206004820152602b60248201527f427269646765455243313135353a20616d6f756e747320636f6e7461696e732060448201526a7a65726f2076616c75652160a81b6064820152608490fd5b60405162461bcd60e51b815260206004820152603060248201527f427269646765455243313135353a20746f6b656e4964732e6c656e677468202160448201526f07a40c2dadeeadce8e65cd8cadccee8d60831b6064820152608490fd5b60405162461bcd60e51b815260206004820152602360248201527f427269646765455243313135353a20746f6b656e4964732e6c656e677468203d60448201526203d20360ec1b6064820152608490fd5b8380fd5b50346101255760a036600319011261012557610930611538565b6064359060443560243561094261154e565b61094a611641565b508215610bea576001600160a01b039384168087526005602090815260408820549192909160ff16908115610be1576040516306bc461b60e11b81528381600481885afa908115610b8f578a91610bb4575b50915b15610b9a57604051630e7c1cb560e01b81528981600481885afa908115610b8f578a91610b75575b50955b6040516303a24d0760e21b8152600481018790528a81602481895afa8b9181610b58575b50610b525750604051610a008161142b565b8a8152905b8a863b1561012557604051637921219560e11b8152336004820152306024820152604481018990526064810183905260a06084820152600060a4820152968190889060c490829084905af1968715610635578a97610b31575b50508596610ac8959692610ab392610a976040519b8c9863833ddeb960e01b8c8b015260248a015260c060448a015260e4890190611587565b92606488015260848701526023198683030160a4870152611587565b911660c483015203601f198101855284611446565b60015494610ad58161161c565b9160405196610ae3886113f4565b8752309087015233604087015260608601521660808401528360a084015260c08301528260e083015260025416918060405180946334db7e0560e21b82528183816105ec88600483016115ac565b610b3f9192989697506113cb565b610b4e57879493958a38610a5e565b8980fd5b90610a05565b610b6e9192508c3d8091833e6107318183611446565b90386109ee565b610b8991503d808c833e61076a8183611446565b386109c7565b6040513d8c823e3d90fd5b6040518484820152838152610bae81611410565b956109ca565b90508381813d8311610bda575b610bcb8183611446565b810103126107d657513861099c565b503d610bc1565b6001549161099f565b60405162461bcd60e51b815260206004820152602c60248201527f427269646765455243313135353a205f616d6f756e747320636f6e7461696e7360448201526b207a65726f2076616c75652160a01b6064820152608490fd5b50346101255760c036600319011261012557806001600160401b03600435602435828111610e4657610c7a90369060040161139e565b9092604435926064359160843590811161068957610c9c90369060040161139e565b959093610ca761150c565b9460018060a01b039360048a8660035416610cc38133146118ca565b60405163f0db1fbf60e01b815292839182905afa8015610e3b57610d03918c91610e21575b5086806020610cf7845161161c565b9301511691161461190a565b6001548103610d99575050610d1f929394959650810190611963565b16803b15610d9557604051637921219560e11b81523060048201526001600160a01b0390931660248401526044830193909352606482015260a06084820152600060a4820152908290829081838160c481015b03925af1801561068d57610d8557505080f35b610d8e906113cb565b6101255780f35b8480fd5b9092949796959184610dac828885611ac5565b1695868b52600660205260ff60408c20541615610e0f575b505050833b15610e0b57610d728896928793604051998a988997889663bb7fde7160e01b885216600487015260248601526044850152608060648501526084840191611942565b8780fd5b610e1892611982565b50388080610dc4565b610e3591503d808e833e6106258183611446565b38610ce8565b6040513d8d823e3d90fd5b505050fd5b503461012557604036600319011261012557610e65611522565b81546001600160a01b039081163303610ea157600435835260076020526040832091166bffffffffffffffffffffffff60a01b82541617905580f35b60405162461bcd60e51b815260206004820152600b60248201526a6f6e6c79206f776e65722160a81b6044820152606490fd5b50346101255780600319360112610125576004546040516001600160a01b039091168152602090f35b5034610125576020366003190112610125576020610f1c60043561161c565b6040516001600160a01b039091168152f35b503461012557604036600319011261012557602435906001600160401b038211610125576020610f1c610f64366004860161139e565b90600435611ac5565b503461012557604036600319011261012557610f87611522565b6040516001600160a01b039182166020808301918252808352929190610fac82611410565b610fdc604080518093610fcd88830196600435885251809285850190611564565b81010386810184520182611446565b51902061107261108061034d604051610ff787830182611446565b81815286810191611b85833961102b87604051809361101e83830196879251928391611564565b8101038084520182611446565b5190206040516001600160f81b03198782019081523060601b6bffffffffffffffffffffffff19166001820152601581019590955260358501919091529182906055850190565b03601f198101835282611446565b51902016604051908152f35b5034610125578060031960c036820112611346576001600160401b03600435602435828111610d95576110c390369060040161139e565b9390604435848111610689576110dd90369060040161147e565b94606435858111610e0b576110f690369060040161147e565b936084358681116113425761110f9036906004016114dc565b600461111c93929361150c565b9860018060a01b03978c89600354166111368133146118ca565b60405163f0db1fbf60e01b815294859182905afa928315611337578d9361131a575b50611177611166845161161c565b8a806020809701511691161461190a565b600194855481146000146111c657505050505050509061119991810190611963565b16803b15610d9557610d729385809460405196879586948593631759616b60e11b8552306004860161187c565b919690959a9c9b94999398929760ff6040856111e3858588611ac5565b169e8f815260068c5220541615611308575b505050893b1561130457999794918b999794969391611239611249926040519d8e9c8d63a55784ef60e01b90521660048d0152608060248d015260848c0190611848565b90838b83030160448c0152611848565b90888203016064890152828152818101828460051b83010196868b935b868510611298575050505050505050508383809203925af1801561068d5761128c575080f35b611295906113cb565b80f35b9295989194979a509295989a50601f198282030185528935601e19843603018112156113005783018781019190358581116112fc5780360383136112fc576112e4899283928d95611942565b9b019501950191928b99979496938d9b999692611266565b8e80fd5b8d80fd5b8b80fd5b61131192611982565b503880806111f5565b6113309193508d3d8091833e6106258183611446565b9138611158565b6040513d8f823e3d90fd5b8880fd5b50fd5b90503461017f57602036600319011261017f5760043563ffffffff60e01b81168091036102aa576020925063d6c0879d60e01b811490811561138d575b5015158152f35b6303a24d0760e21b14905038611386565b9181601f840112156107d6578235916001600160401b0383116107d657602083818601950101116107d657565b6001600160401b0381116113de57604052565b634e487b7160e01b600052604160045260246000fd5b61010081019081106001600160401b038211176113de57604052565b604081019081106001600160401b038211176113de57604052565b602081019081106001600160401b038211176113de57604052565b90601f801991011681019081106001600160401b038211176113de57604052565b6001600160401b0381116113de5760051b60200190565b81601f820112156107d65780359161149583611467565b926114a36040519485611446565b808452602092838086019260051b8201019283116107d6578301905b8282106114cd575050505090565b813581529083019083016114bf565b9181601f840112156107d6578235916001600160401b0383116107d6576020808501948460051b0101116107d657565b60a435906001600160a01b03821682036107d657565b602435906001600160a01b03821682036107d657565b600435906001600160a01b03821682036107d657565b608435906001600160a01b03821682036107d657565b60005b8381106115775750506000910152565b8181015183820152602001611567565b906020916115a081518092818552858086019101611564565b601f01601f1916010190565b602081528151602082015260018060a01b038060208401511660408301528060408401511660608301526060830151608083015260808301511660a082015260a082015160c082015260c082015160e0611613610100928383860152610120850190611587565b93015191015290565b6000908152600760205260409020546001600160a01b03168061163e57503090565b90565b6040519061164e826113f4565b8160e06000918281528260208201528260408201528260608201528260808201528260a0820152606060c08201520152565b909291926001600160401b0381116113de57604051916116aa601f8301601f191660200184611446565b8294828452828201116107d65760206116c4930190611564565b565b9080601f830112156107d657815161163e92602001611680565b906020828203126107d65781516001600160401b0381116107d65761163e92016116c6565b6020818303126107d6578051906001600160401b0382116107d657019080601f830112156107d657815161163e92602001611680565b51906001600160a01b03821682036107d657565b906020828203126107d65781516001600160401b03928382116107d65701610100818303126107d65760405192611785846113f4565b815184526117956020830161173b565b60208501526117a66040830161173b565b6040850152606082015160608501526117c16080830161173b565b608085015260a082015160a085015260c08201519081116107d65760e0926117ea9183016116c6565b60c0840152015160e082015290565b60001981146118085760010190565b634e487b7160e01b600052601160045260246000fd5b80518210156118325760209160051b010190565b634e487b7160e01b600052603260045260246000fd5b90815180825260208080930193019160005b828110611868575050505090565b83518552938101939281019260010161185a565b926118ab90602095926118b99460018060a01b038092168752168686015260a0604086015260a0850190611848565b908382036060850152611848565b906080818303910152600081520190565b156118d157565b60405162461bcd60e51b81526020600482015260116024820152704f6e6c7920596172526573706f6e73652160781b6044820152606490fd5b1561191157565b60405162461bcd60e51b81526020600482015260096024820152686e6f7420706565722160b81b6044820152606490fd5b908060209392818452848401376000828201840152601f01601f1916010190565b908160209103126107d657356001600160a01b03811681036107d65790565b9190604091825191602083016000938682528383878301376119b586828681018883820152036020810184520182611446565b519020845161034d808201908282106001600160401b03831117611ab157908291611b858339039085f5948515611aa757611a3290611a2460018060a01b038098169760045416938751958693633b7451b360e21b602086015260248501528860448501526064840191611942565b03601f198101845283611446565b843b156102aa57611a659183918551938492839263c0d91eaf60e01b845260048401528760248401526044830190611587565b038183885af18015611a9d57611a8e575b50828152600560205220805460ff1916600117905590565b611a97906113cb565b38611a76565b83513d84823e3d90fd5b84513d85823e3d90fd5b634e487b7160e01b87526041600452602487fd5b611b7490604093611af78580518381946020988984019788528484013781016000838201520386810184520182611446565b51902091611a2461034d8551611b0f84830182611446565b81815283810191611b858339611b35848851809361101e83830196879251928391611564565b51902094519485928301943086916055939160ff60f81b84526bffffffffffffffffffffffff199060601b166001840152601583015260358201520190565b905190206001600160a01b03169056fe6080806040523461001657610331908161001c8239f35b600080fdfe60806040526004361061010f576000803560e01c63c0d91eaf14610023575061010f565b346100af5760403660031901126100af576004356001600160a01b03811681036100a75760243567ffffffffffffffff81116100ab57366023820112156100ab578060040135918361007c610077856100f3565b6100c8565b9284845236602486830101116100a757846100a495602460209301838701378401015261015b565b80f35b5080fd5b8280fd5b80fd5b634e487b7160e01b600052604160045260246000fd5b6040519190601f01601f1916820167ffffffffffffffff8111838210176100ee57604052565b6100b2565b67ffffffffffffffff81116100ee57601f01601f191660200190565b7f360894a13ba1a3210667c828492db98dca3e2076cc3735a920a3ca505d382bbc54600090819081906001600160a01b0316368280378136915af43d82803e15610157573d90f35b3d90fd5b9060005460ff81166102295760ff1916600117600055813b15610208577f360894a13ba1a3210667c828492db98dca3e2076cc3735a920a3ca505d382bbc80546001600160a01b0319166001600160a01b0384169081179091557fbc7cd75a20ee27fd9adebab32041f755214dbc6bffa90cc0225b39da2e5c2d3b600080a28051156101ed576101ea9161025d565b50565b5050346101f657565b60405163b398979f60e01b8152600490fd5b604051634c9c8ce360e01b81526001600160a01b0383166004820152602490fd5b60405162461bcd60e51b815260206004820152600c60248201526b616c7265616479496e69742160a01b6044820152606490fd5b60008061029193602081519101845af43d15610294573d91610281610077846100f3565b9283523d6000602085013e610298565b90565b6060915b906102bf57508051156102ad57805190602001fd5b604051630a12f52160e11b8152600490fd5b815115806102f2575b6102d0575090565b604051639996b31560e01b81526001600160a01b039091166004820152602490fd5b50803b156102c856fea26469706673582212205fb5b3fd0b782fefb444dd4c47a4f2c868dd4ccdf77f3309a367a15468e9079c64736f6c63430008140033a2646970667358221220f8656c7c2c86d077d1a448750ac89a3d51064cd02d19fc056a315fd756bd112264736f6c6343000814003360808060405234610016576122e2908161001c8239f35b600080fdfe6080604052600436101561001257600080fd5b60003560e01c8062fdd58e1461017657806301ffc9a7146101715780630d1ac6f81461016c5780630d788c36146101675780630e7c1cb5146101625780630e89341c1461015d5780631d8aca74146101585780632eb2c2d6146101535780634e1273f41461014e5780636b20c45414610149578063715018a6146101445780638da5cb5b1461013f57806396d7e2291461013a578063989ee11a14610135578063a22cb46514610130578063a55784ef1461012b578063bb7fde7114610126578063e985e9c514610121578063edd146cc1461011c578063f242432a14610117578063f2fde38b146101125763f5298aca1461010d57600080fd5b610fe9565b610fc0565b610f18565b610dd3565b610d96565b610d31565b610c42565b610bab565b610b72565b610a99565b610a01565b610993565b6108f9565b610840565b610712565b61065b565b610592565b61054a565b6103f7565b610378565b61023e565b6101c0565b600435906001600160a01b038216820361019157565b600080fd5b602435906001600160a01b038216820361019157565b35906001600160a01b038216820361019157565b346101915760403660031901126101915760206102236101de61017b565b6024356000527f88be536d5240c274a3b1d3a1be54482fd9caa294f08c62a7cde569f49a3c4500835260406000209060018060a01b0316600052602052604060002090565b54604051908152f35b6001600160e01b031981160361019157565b3461019157602036600319011261019157602060043561025d8161022c565b63ffffffff60e01b16636cdb3d1360e11b811490811561029b575b811561028a575b506040519015158152f35b6301ffc9a760e01b1490503861027f565b6303a24d0760e21b81149150610278565b634e487b7160e01b600052604160045260246000fd5b602081019081106001600160401b038211176102dd57604052565b6102ac565b90601f801991011681019081106001600160401b038211176102dd57604052565b6001600160401b0381116102dd5760051b60200190565b81601f820112156101915780359161033183610303565b9261033f60405194856102e2565b808452602092838086019260051b820101928311610191578301905b828210610369575050505090565b8135815290830190830161035b565b346101915760803660031901126101915761039161017b565b610399610196565b6001600160401b039190604435838111610191576103bb90369060040161031a565b606435938411610191576103d66103f594369060040161031a565b916103df61105a565b604051936103ec856102c2565b600085526117e6565b005b34610191576000366003190112610191576020600054604051908152f35b90600182811c92168015610445575b602083101461042f57565b634e487b7160e01b600052602260045260246000fd5b91607f1691610424565b6040519060008260019182549261046584610415565b808452938181169081156104e8575060011461048b575b50610489925003836102e2565b565b600081815291507fb10e2d527612073b26eecdfd717e6a320cf44b4afac2b0732d9fcbe2b7fa0cf65b8483106104cd575061048993505081016020013861047c565b81935090816020925483858a010152019101909185926104b4565b90506020925061048994915060ff191682840152151560051b8201013861047c565b919082519283825260005b848110610536575050826000602080949584010152601f8019910116010190565b602081830181015184830182015201610515565b346101915760003660031901126101915761057a61056661044f565b60405191829160208352602083019061050a565b0390f35b90602061058f92818152019061050a565b90565b346101915760208060031936011261019157600090600435825260028152604082209060405191838154906105c682610415565b8086529260019280841690811561063757506001146105fc575b61057a866105f0818a03826102e2565b6040519182918261057e565b9080949650528483205b828410610624575050508161057a936105f0928201019338806105e0565b8054858501870152928501928101610606565b60ff19168787015250505050151560051b82010191506105f08161057a38806105e0565b34610191576080366003190112610191576103f561067761017b565b61067f610196565b61068761105a565b60405191610694836102c2565b6000835260643591604435916112b9565b6001600160401b0381116102dd57601f01601f191660200190565b9291926106cc826106a5565b916106da60405193846102e2565b829481845281830111610191578281602093846000960137010152565b9080601f830112156101915781602061058f933591016106c0565b346101915760a03660031901126101915761072b61017b565b610733610196565b6001600160401b036044358181116101915761075390369060040161031a565b6064358281116101915761076b90369060040161031a565b91608435908111610191576107849036906004016106f7565b926001600160a01b038516331415806107cc575b6107a5576103f5946117e6565b60405163711bec9160e11b81523360048201526001600160a01b0386166024820152604490fd5b5060ff6107f3336107dc88611136565b9060018060a01b0316600052602052604060002090565b541615610798565b90815180825260208080930193019160005b82811061081b575050505090565b83518552938101939281019260010161080d565b90602061058f9281815201906107fb565b34610191576040366003190112610191576004356001600160401b03808211610191573660238301121561019157816004013561087c81610303565b9261088a60405194856102e2565b81845260209160248386019160051b8301019136831161019157602401905b8282106108e257856024358681116101915761057a916108d06108d692369060040161031a565b9061120e565b6040519182918261082f565b8380916108ee846101ac565b8152019101906108a9565b346101915760603660031901126101915761091261017b565b6001600160401b036024358181116101915761093290369060040161031a565b906044359081116101915761094b90369060040161031a565b9061095461105a565b6001600160a01b0383161561097b576103f5926000604051610975816102c2565b52611321565b604051626a0d4560e21b815260006004820152602490fd5b34610191576000806003193601126109fe576109ad61105a565b60008051602061226d83398151915280546001600160a01b0319811690915581906001600160a01b03167f8be0079c531659141344cd1fd0a4f28419497f9722a3daafe3b4186f6b6457e08280a380f35b80fd5b346101915760003660031901126101915760008051602061226d833981519152546040516001600160a01b039091168152602090f35b602080820190808352835180925260408301928160408460051b8301019501936000915b848310610a6b5750505050505090565b9091929394958480610a89600193603f198682030187528a5161050a565b9801930193019194939290610a5b565b3461019157602080600319360112610191576004356001600160401b03811161019157610aca90369060040161031a565b805190610ad682610303565b92610ae460405194856102e2565b828452601f19610af384610303565b0160005b818110610b635750505060005b828110610b19576040518061057a8682610a37565b80610b43610b3e610b2d610b5e94866111e4565b516000526002602052604060002090565b611b43565b610b4d82876111e4565b52610b5881866111e4565b506111d0565b610b04565b60608682018401528201610af7565b3461019157600036600319011261019157600054610b8e61044f565b9061057a604051928392835260406020840152604083019061050a565b3461019157604036600319011261019157610bc461017b565b602435801515809103610191576001600160a01b038216918215610c2a57610bef906107dc33611136565b60ff1981541660ff83161790556040519081527f17307eab39ab6107e8899845ad3d59bd9653f200f220920489ca2b5937696c3160203392a3005b60405162ced3e160e81b815260006004820152602490fd5b3461019157608036600319011261019157610c5b61017b565b6001600160401b03906024803583811161019157610c7d90369060040161031a565b604492833585811161019157610c9790369060040161031a565b92606435908682116101915736602383011215610191578160040135610cbc81610303565b96610cca60405198896102e2565b818852602098838a8a019360051b8601019436861161019157848101935b868510610cfb576103f58b8b8b8b61218b565b843583811161019157820136604382011215610191578c91610d2683923690888b82013591016106c0565b815201940193610ce8565b3461019157608036600319011261019157610d4a61017b565b606435906001600160401b039081831161019157366023840112156101915782600401359182116101915736602483850101116101915760246103f59301906044359060243590612049565b3461019157604036600319011261019157602060ff610dc7610db661017b565b6107dc610dc1610196565b91611136565b54166040519015158152f35b34610191576040366003190112610191576001600160401b0360243581811161019157610e049036906004016106f7565b60008051602061228d833981519152549160ff8360401c1615921680159081610f10575b6001149081610f06575b159081610efd575b50610eeb5760008051602061228d833981519152805467ffffffffffffffff19166001179055610e729082610ec1575b600435611df5565b610e7857005b60008051602061228d833981519152805460ff60401b19169055604051600181527fc7f505b2f371ae2175ee4913f4499e1f2633a7b5936321eed1cdaeb6115181d290602090a1005b60008051602061228d833981519152805460ff60401b191668010000000000000000179055610e6a565b60405163f92ee8a960e01b8152600490fd5b90501538610e3a565b303b159150610e32565b839150610e28565b346101915760a036600319011261019157610f3161017b565b610f39610196565b6084356001600160401b03811161019157610f589036906004016106f7565b906001600160a01b03831633141580610fa8575b610f81576103f59260643591604435916112b9565b60405163711bec9160e11b81523360048201526001600160a01b0384166024820152604490fd5b5060ff610fb8336107dc86611136565b541615610f6c565b34610191576020366003190112610191576103f5610fdc61017b565b610fe461105a565b611093565b346101915760603660031901126101915761100261017b565b61100a61105a565b6001600160a01b0381161561097b576103f59061104b6044356024359160405192600184526020840152604083019160018352606084015260808301604052565b916000604051610975816102c2565b60008051602061226d833981519152546001600160a01b0316330361107b57565b60405163118cdaa760e01b8152336004820152602490fd5b6001600160a01b039081169081156110ee5760008051602061226d83398151915280546001600160a01b031981168417909155167f8be0079c531659141344cd1fd0a4f28419497f9722a3daafe3b4186f6b6457e0600080a3565b604051631e4fbdf760e01b815260006004820152602490fd5b6000527f88be536d5240c274a3b1d3a1be54482fd9caa294f08c62a7cde569f49a3c4500602052604060002090565b6001600160a01b031660009081527f88be536d5240c274a3b1d3a1be54482fd9caa294f08c62a7cde569f49a3c45016020526040902090565b6111b6916000527f88be536d5240c274a3b1d3a1be54482fd9caa294f08c62a7cde569f49a3c450060205260406000209060018060a01b0316600052602052604060002090565b5490565b634e487b7160e01b600052601160045260246000fd5b60001981146111df5760010190565b6111ba565b80518210156111f85760209160051b010190565b634e487b7160e01b600052603260045260246000fd5b9190918051835180820361129757505080519061122a82610303565b9161123860405193846102e2565b808352611247601f1991610303565b0190602091368385013760005b815181101561128f578061127a61128a9260051b85808287010151918a0101519061116f565b61128482876111e4565b526111d0565b611254565b509193505050565b604051635b05999160e01b815260048101919091526024810191909152604490fd5b92939290916001600160a01b03808416156113085782161561097b576104899461130060405192600184526020840152604083019160018352606084015260808301604052565b9290916115d7565b604051632bfa23e760e11b815260006004820152602490fd5b929190805182519081810361129757505060005b81518110156113d957600581901b82810160209081015191850101516001600160a01b038716611370575b505061136b906111d0565b611335565b61137d876107dc84611107565b548181106113a257876107dc61136b95949361139a930393611107565b559038611360565b6040516303dee4c560e01b81526001600160a01b038916600482015260248101919091526044810182905260648101839052608490fd5b509060009293916001815114841461143a576020908101519181015160408051938452918301526001600160a01b039092169133917fc3d58168c5ae7397731d063d5bbf3d657854427343f4c083240f7aacaa2d0f6291819081015b0390a4565b6040516001600160a01b039093169233927f4a39dc06d4c0dbc64b70af90fd698a233a518aa5d07e595d983b8c0526c8f7fb92829161143591836117c1565b90805183519081810361129757505060005b81518110156114ec57600581901b82810160209081015191860101516114c5929185906001600160a01b0382166114ca575b5050506111d0565b61148b565b6114e2916107dc6114da92611107565b9182546117b4565b90553884816114bd565b5080519193929160010361158e576020818101518382015160408051928352928201526001600160a01b0386169160009133917fc3d58168c5ae7397731d063d5bbf3d657854427343f4c083240f7aacaa2d0f6291a45b6001600160a01b038416611558575b50505050565b805160010361157f57906020806115769593015191015191336118c6565b38808080611552565b6115899333611ad7565b611576565b6040516001600160a01b0385169060009033907f4a39dc06d4c0dbc64b70af90fd698a233a518aa5d07e595d983b8c0526c8f7fb90806115cf8888836117c1565b0390a4611543565b94919091815184519081810361129757505060005b82518110156116be57600581901b83810160209081015191870101516001600160a01b03929186908a851661164d575b61162e948216611633575050506111d0565b6115ec565b611643916107dc6114da92611107565b90553885816114bd565b919293905061165f8a6107dc84611107565b54838110611687579187918461162e9695940361167f8d6107dc85611107565b55945061161c565b6040516303dee4c560e01b81526001600160a01b038c16600482015260248101919091526044810184905260648101839052608490fd5b509491939290936001855114600014611769576020858101518382015160408051928352928201526001600160a01b03838116929086169133917fc3d58168c5ae7397731d063d5bbf3d657854427343f4c083240f7aacaa2d0f6291a45b6001600160a01b038116611732575b5050505050565b84516001036117585760208061174e96015192015192336119c0565b388080808061172b565b61176494919233611b0c565b61174e565b6040516001600160a01b03828116919085169033907f4a39dc06d4c0dbc64b70af90fd698a233a518aa5d07e595d983b8c0526c8f7fb90806117ac888c836117c1565b0390a461171c565b919082018092116111df57565b90916117d861058f936040845260408401906107fb565b9160208184039101526107fb565b939291906001600160a01b03808216156113085785161561097b57610489946115d7565b90816020910312610191575161058f8161022c565b909260a09261058f9594600180861b031683526000602084015260408301526060820152816080820152019061050a565b919261058f95949160a094600180871b03809216855216602084015260408301526060820152816080820152019061050a565b60405190611890826102c2565b60008252565b3d156118c1573d906118a7826106a5565b916118b560405193846102e2565b82523d6000602084013e565b606090565b9293919093843b6118d8575050505050565b6020916118fb604051948593849363f23a6e6160e01b988986526004860161181f565b038160006001600160a01b0388165af160009181611990575b506119535782611922611896565b805191908261194c57604051632bfa23e760e11b81526001600160a01b0383166004820152602490fd5b9050602001fd5b6001600160e01b0319160361196d5750388080808061172b565b604051632bfa23e760e11b81526001600160a01b03919091166004820152602490fd5b6119b291925060203d81116119b9575b6119aa81836102e2565b81019061180a565b9038611914565b503d6119a0565b939290949194853b6119d5575b505050505050565b6119f8602093604051958694859463f23a6e6160e01b998a875260048701611850565b038160006001600160a01b0388165af160009181611a3a575b50611a1f5782611922611896565b6001600160e01b0319160361196d57503880808080806119cd565b611a5391925060203d81116119b9576119aa81836102e2565b9038611a11565b92611a8961058f9593611a979360018060a01b031686526000602087015260a0604087015260a08601906107fb565b9084820360608601526107fb565b91608081840391015261050a565b939061058f9593611a8991611a979460018060a01b03809216885216602087015260a0604087015260a08601906107fb565b9293919093843b611ae9575050505050565b6020916118fb604051948593849363bc197c8160e01b9889865260048601611a5a565b939290949194853b611b2057505050505050565b6119f8602093604051958694859463bc197c8160e01b998a875260048701611aa5565b9060405191826000825492611b5784610415565b908184526001948581169081600014611bc45750600114611b81575b5050610489925003836102e2565b9093915060005260209081600020936000915b818310611bac57505061048993508201013880611b73565b85548884018501529485019487945091830191611b94565b91505061048994506020925060ff191682840152151560051b8201013880611b73565b818110611bf2575050565b60008155600101611be7565b90601f8211611c0b575050565b610489917f88be536d5240c274a3b1d3a1be54482fd9caa294f08c62a7cde569f49a3c45026000527ff429cb5e2ec84cbb765e76b31964a56ccde03e7a6122d6cc4afb19edc55edeed906020601f840160051c83019310611c74575b601f0160051c0190611be7565b9091508190611c67565b90601f8211611c8b575050565b6104899160016000527fb10e2d527612073b26eecdfd717e6a320cf44b4afac2b0732d9fcbe2b7fa0cf6906020601f840160051c83019310611c7457601f0160051c0190611be7565b9190601f8111611ce357505050565b610489926000526020600020906020601f840160051c83019310611c7457601f0160051c0190611be7565b9081516001600160401b0381116102dd57600190611d3581611d308454610415565b611c7e565b602080601f8311600114611d70575081929394600092611d65575b5050600019600383901b1c191690821b179055565b015190503880611d50565b90601f19831695611da360016000527fb10e2d527612073b26eecdfd717e6a320cf44b4afac2b0732d9fcbe2b7fa0cf690565b926000905b888210611dde5750508385969710611dc5575b505050811b019055565b015160001960f88460031b161c19169055388080611dbb565b808785968294968601518155019501930190611da8565b919060405192611e04846102c2565b60008452611e10611f66565b611e18611f66565b83516001600160401b0381116102dd577f88be536d5240c274a3b1d3a1be54482fd9caa294f08c62a7cde569f49a3c450290611e5d81611e588454610415565b611bfe565b602080601f8311600114611eac575081906104899697600092611ea1575b50508160011b916000199060031b1c19161790555b611e9933611f56565b600055611d0e565b015190503880611e7b565b7f88be536d5240c274a3b1d3a1be54482fd9caa294f08c62a7cde569f49a3c45026000529196601f1988167ff429cb5e2ec84cbb765e76b31964a56ccde03e7a6122d6cc4afb19edc55edeed936000905b828210611f3e575050916001939189610489999a9410611f25575b505050811b019055611e90565b015160001960f88460031b161c19169055388080611f18565b80600186978294978701518155019601940190611efd565b61048990611f62611f66565b610fe45b60ff60008051602061228d8339815191525460401c1615611f8357565b604051631afcd79f60e31b8152600490fd5b91909182516001600160401b0381116102dd57611fbc81611fb68454610415565b84611cd4565b602080601f8311600114611ff8575081929394600092611fed575b50508160011b916000199060031b1c1916179055565b015190503880611fd7565b90601f1983169561200e85600052602060002090565b926000905b88821061203157505083600195969710611dc557505050811b019055565b80600185968294968601518155019501930190612013565b9294939461205561105a565b816000526020600281526040600020916001600160401b0388116102dd57612087886120818554610415565b85611cd4565b600091601f89116001146120d4575096809161048997986000926120c9575b50508160011b916000199060031b1c19161790555b6120c3611883565b92612147565b0135905038806120a6565b91601f1989166120e985600052602060002090565b9382905b82821061212f57505091600193918a6104899a9b9410612115575b505050811b0190556120bb565b0135600019600384901b60f8161c19169055388080612108565b806001859782949688013581550196019301906120ed565b919291906001600160a01b03821615611308576104899361218560405192600184526020840152604083019160018352606084015260808301604052565b91611479565b919093929361219861105a565b80518551036121f157805160005b8181106121c35750506104899394506121bd611883565b92612251565b806121e76121d46121ec938a6111e4565b516121e2610b2d84886111e4565b611f95565b6111d0565b6121a6565b60405162461bcd60e51b815260206004820152603260248201527f497373756564455243313135353a205f746f6b656e49647320616e64205f75726044820152710d2e640d8cadccee8d040dad2e6dac2e8c6d60731b6064820152608490fd5b9291906001600160a01b03841615611308576104899361147956fe9016d09d72d40fdae2fd8ceac6b6234c7706214fd39c1cd1e609a0528c199300f0c57e16840df040f15088dc2f81fe391c3923bec73e23a9662efc9c229c6a00a2646970667358221220109d1599734a387bc7b6d18b06db0a734722a5664394e6f4bc2041e180c687a864736f6c63430008140033",
  "devdoc": {
    "kind": "dev",
    "methods": {},
    "version": 1
  },
  "userdoc": {
    "kind": "user",
    "methods": {},
    "version": 1
  },
  "storageLayout": {
    "storage": [
      {
        "astId": 6370,
        "contract": "contracts/apps/bridge1155/YarBridge1155.sol:YarBridge1155",
        "label": "owner",
        "offset": 0,
        "slot": "0",
        "type": "t_address"
      },
      {
        "astId": 6372,
        "contract": "contracts/apps/bridge1155/YarBridge1155.sol:YarBridge1155",
        "label": "chainId",
        "offset": 0,
        "slot": "1",
        "type": "t_uint256"
      },
      {
        "astId": 6374,
        "contract": "contracts/apps/bridge1155/YarBridge1155.sol:YarBridge1155",
        "label": "yarRequest",
        "offset": 0,
        "slot": "2",
        "type": "t_address"
      },
      {
        "astId": 6376,
        "contract": "contracts/apps/bridge1155/YarBridge1155.sol:YarBridge1155",
        "label": "yarResponse",
        "offset": 0,
        "slot": "3",
        "type": "t_address"
      },
      {
        "astId": 6378,
        "contract": "contracts/apps/bridge1155/YarBridge1155.sol:YarBridge1155",
        "label": "bridgedTokenImplementation",
        "offset": 0,
        "slot": "4",
        "type": "t_address"
      },
      {
        "astId": 6382,
        "contract": "contracts/apps/bridge1155/YarBridge1155.sol:YarBridge1155",
        "label": "isBridgedToken",
        "offset": 0,
        "slot": "5",
        "type": "t_mapping(t_address,t_bool)"
      },
      {
        "astId": 6386,
        "contract": "contracts/apps/bridge1155/YarBridge1155.sol:YarBridge1155",
        "label": "issuedTokens",
        "offset": 0,
        "slot": "6",
        "type": "t_mapping(t_address,t_bool)"
      },
      {
        "astId": 6402,
        "contract": "contracts/apps/bridge1155/YarBridge1155.sol:YarBridge1155",
        "label": "peers",
        "offset": 0,
        "slot": "7",
        "type": "t_mapping(t_uint256,t_address)"
      }
    ],
    "types": {
      "t_address": {
        "encoding": "inplace",
        "label": "address",
        "numberOfBytes": "20"
      },
      "t_bool": {
        "encoding": "inplace",
        "label": "bool",
        "numberOfBytes": "1"
      },
      "t_mapping(t_address,t_bool)": {
        "encoding": "mapping",
        "key": "t_address",
        "label": "mapping(address => bool)",
        "numberOfBytes": "32",
        "value": "t_bool"
      },
      "t_mapping(t_uint256,t_address)": {
        "encoding": "mapping",
        "key": "t_uint256",
        "label": "mapping(uint256 => address)",
        "numberOfBytes": "32",
        "value": "t_address"
      },
      "t_uint256": {
        "encoding": "inplace",
        "label": "uint256",
        "numberOfBytes": "32"
      }
    }
  }
}