{
  "address": "0x2D7490bC1813c808ac04f1FcB065BEaf7bfeC44d",
  "abi": [
    {
      "inputs": [
        {
          "internalType": "address",
          "name": "intialYarRequest",
          "type": "address"
        },
        {
          "internalType": "address",
          "name": "intialYarResponse",
          "type": "address"
        }
      ],
      "stateMutability": "nonpayable",
      "type": "constructor"
    },
    {
      "inputs": [],
      "name": "bridgedTokenImplementation",
      "outputs": [
        {
          "internalType": "address",
          "name": "",
          "type": "address"
        }
      ],
      "stateMutability": "view",
      "type": "function"
    },
    {
      "inputs": [],
      "name": "chainId",
      "outputs": [
        {
          "internalType": "uint256",
          "name": "",
          "type": "uint256"
        }
      ],
      "stateMutability": "view",
      "type": "function"
    },
    {
      "inputs": [
        {
          "internalType": "uint256",
          "name": "originalChainId",
          "type": "uint256"
        },
        {
          "internalType": "bytes",
          "name": "originalToken",
          "type": "bytes"
        }
      ],
      "name": "getBridgedTokenAddress",
      "outputs": [
        {
          "internalType": "address",
          "name": "",
          "type": "address"
        }
      ],
      "stateMutability": "view",
      "type": "function"
    },
    {
      "inputs": [
        {
          "internalType": "uint256",
          "name": "_chainId",
          "type": "uint256"
        }
      ],
      "name": "getPeer",
      "outputs": [
        {
          "internalType": "address",
          "name": "",
          "type": "address"
        }
      ],
      "stateMutability": "view",
      "type": "function"
    },
    {
      "inputs": [
        {
          "internalType": "uint256",
          "name": "originalChainId",
          "type": "uint256"
        },
        {
          "internalType": "address",
          "name": "token721",
          "type": "address"
        }
      ],
      "name": "getTokenAddress",
      "outputs": [
        {
          "internalType": "address",
          "name": "",
          "type": "address"
        }
      ],
      "stateMutability": "view",
      "type": "function"
    },
    {
      "inputs": [
        {
          "internalType": "address",
          "name": "bridgedToken",
          "type": "address"
        }
      ],
      "name": "isBridgedToken",
      "outputs": [
        {
          "internalType": "bool",
          "name": "exists",
          "type": "bool"
        }
      ],
      "stateMutability": "view",
      "type": "function"
    },
    {
      "inputs": [
        {
          "internalType": "address",
          "name": "_issuedToken",
          "type": "address"
        }
      ],
      "name": "isIssuedTokenPublished",
      "outputs": [
        {
          "internalType": "bool",
          "name": "",
          "type": "bool"
        }
      ],
      "stateMutability": "view",
      "type": "function"
    },
    {
      "inputs": [
        {
          "internalType": "address",
          "name": "",
          "type": "address"
        }
      ],
      "name": "issuedTokens",
      "outputs": [
        {
          "internalType": "bool",
          "name": "",
          "type": "bool"
        }
      ],
      "stateMutability": "view",
      "type": "function"
    },
    {
      "inputs": [
        {
          "internalType": "address",
          "name": "",
          "type": "address"
        },
        {
          "internalType": "address",
          "name": "",
          "type": "address"
        },
        {
          "internalType": "uint256",
          "name": "",
          "type": "uint256"
        },
        {
          "internalType": "bytes",
          "name": "",
          "type": "bytes"
        }
      ],
      "name": "onERC721Received",
      "outputs": [
        {
          "internalType": "bytes4",
          "name": "",
          "type": "bytes4"
        }
      ],
      "stateMutability": "pure",
      "type": "function"
    },
    {
      "inputs": [],
      "name": "owner",
      "outputs": [
        {
          "internalType": "address",
          "name": "",
          "type": "address"
        }
      ],
      "stateMutability": "view",
      "type": "function"
    },
    {
      "inputs": [
        {
          "internalType": "uint256",
          "name": "chainId",
          "type": "uint256"
        }
      ],
      "name": "peers",
      "outputs": [
        {
          "internalType": "address",
          "name": "peer",
          "type": "address"
        }
      ],
      "stateMutability": "view",
      "type": "function"
    },
    {
      "inputs": [
        {
          "internalType": "uint256",
          "name": "newChainId",
          "type": "uint256"
        },
        {
          "internalType": "address",
          "name": "newPeer",
          "type": "address"
        }
      ],
      "name": "setPeer",
      "outputs": [],
      "stateMutability": "nonpayable",
      "type": "function"
    },
    {
      "inputs": [
        {
          "internalType": "uint256",
          "name": "originalChainId",
          "type": "uint256"
        },
        {
          "internalType": "bytes",
          "name": "originalToken",
          "type": "bytes"
        },
        {
          "internalType": "uint256",
          "name": "tokenId",
          "type": "uint256"
        },
        {
          "internalType": "string",
          "name": "tokenName",
          "type": "string"
        },
        {
          "internalType": "string",
          "name": "tokenSymbol",
          "type": "string"
        },
        {
          "internalType": "string",
          "name": "tokenUri",
          "type": "string"
        },
        {
          "internalType": "address",
          "name": "recipient",
          "type": "address"
        }
      ],
      "name": "transferFrom",
      "outputs": [],
      "stateMutability": "nonpayable",
      "type": "function"
    },
    {
      "inputs": [
        {
          "internalType": "address",
          "name": "token721",
          "type": "address"
        },
        {
          "internalType": "uint256",
          "name": "tokenId",
          "type": "uint256"
        },
        {
          "internalType": "uint256",
          "name": "targetChainId",
          "type": "uint256"
        },
        {
          "internalType": "address",
          "name": "recipient",
          "type": "address"
        }
      ],
      "name": "transferTo",
      "outputs": [
        {
          "components": [
            {
              "internalType": "uint256",
              "name": "initialChainId",
              "type": "uint256"
            },
            {
              "internalType": "address",
              "name": "sender",
              "type": "address"
            },
            {
              "internalType": "address",
              "name": "payer",
              "type": "address"
            },
            {
              "internalType": "uint256",
              "name": "targetChainId",
              "type": "uint256"
            },
            {
              "internalType": "address",
              "name": "target",
              "type": "address"
            },
            {
              "internalType": "uint256",
              "name": "value",
              "type": "uint256"
            },
            {
              "internalType": "bytes",
              "name": "data",
              "type": "bytes"
            },
            {
              "internalType": "uint256",
              "name": "_nonce",
              "type": "uint256"
            }
          ],
          "internalType": "struct YarLib.YarTX",
          "name": "",
          "type": "tuple"
        }
      ],
      "stateMutability": "nonpayable",
      "type": "function"
    },
    {
      "inputs": [],
      "name": "yarRequest",
      "outputs": [
        {
          "internalType": "address",
          "name": "",
          "type": "address"
        }
      ],
      "stateMutability": "view",
      "type": "function"
    },
    {
      "inputs": [],
      "name": "yarResponse",
      "outputs": [
        {
          "internalType": "address",
          "name": "",
          "type": "address"
        }
      ],
      "stateMutability": "view",
      "type": "function"
    }
  ],
  "transactionHash": "0xb78e6eb0816020c9b4d932ce585b19fe4b8460ca738b83cd62086bd894cd442a",
  "args": [
    "0x24e03AbB3f168a4deD0171060eFDB9a170bE193d",
    "0xAB4435F7E8a5C50798EBF367217cfba3Bb2DF7cb"
  ],
  "numDeployments": 1,
  "solcInputHash": "e7c70d398650f72efab32d48083fc2c0",
  "bytecode": "0x6080346100f8576001600160401b03601f6200364538819003918201601f1916840191838311858410176100e25780859260409485528339810103126100f857610054602061004d846100fd565b93016100fd565b600280546001600160a01b03199081166001600160a01b039586161790915560038054821692851692909217909155604051909291611ff590818301908111838210176100e257829162001650833903906000f080156100d65716816004541617600455466001553390600054161760005560405161153e9081620001128239f35b6040513d6000823e3d90fd5b634e487b7160e01b600052604160045260246000fd5b600080fd5b51906001600160a01b03821682036100f85756fe608080604052600436101561001357600080fd5b600090813560e01c9081630a4c6b7e1461092d57508063150b7a02146108d657806335752ba1146107b7578063457322b91461061157806346172fc51461077857806367ebb6b2146107475780637078944c1461071e5780638069c497146106955780638da5cb5b1461066e5780639a8a059214610650578063a0b498a414610611578063be4f3e8f146105de578063c287e5781461059f578063e5216cb714610125578063e6a1496d146100fc5763f4100f00146100d157600080fd5b346100f957806003193601126100f9576002546040516001600160a01b039091168152602090f35b80fd5b50346100f957806003193601126100f9576003546040516001600160a01b039091168152602090f35b50346100f95760e03660031901126100f9576024356001600160401b03811161059b57610156903690600401610e59565b91906064356001600160401b03811161059757610177903690600401610f3d565b926084356001600160401b03811161059357610197903690600401610f3d565b60a4356001600160401b0381116104c5576101b6903690600401610f3d565b60c435956001600160a01b038716870361058e576003546001600160a01b03163381900361055557866004916040519283809263f0db1fbf60e01b82525afa90811561054a578791610528575b5061020e8151610f84565b6020909101516001600160a01b039081169116036104f757600154600435036102c65750505090602081849593810103126102c257356001600160a01b038116908190036102c257803b156102c257604051632142170760e11b81523060048201526001600160a01b039092166024830152604480359083015282908290818381606481015b03925af180156102b7576102a757505080f35b6102b090610eb8565b6100f95780f35b6040513d84823e3d90fd5b5050fd5b9195929091906001600160a01b036102e182876004356110ee565b1694858752600660205260ff6040882054161561034b575b505050839450823b1561034657610294928492836040518096819582946334ff261960e21b845260018060a01b031660048401526044356024840152606060448401526064830190610dc4565b505050fd5b604051602081019060043582528383604083013761037b6040828681018c83820152036020810184520182610f01565b51902097604051988961034d8101106001600160401b0361034d8c0111176104e357889961034d6111bc82398061034d810103908af59081156104d857889261043e601f9261042c61044a9560018060a01b03169860c48960018060a01b0360045416996040519b8c98634616cac160e01b60208b015260043560248b0152608060448b01528160a48b0152848a013782828901015287199788910116860160a08782030160648801520190610dc4565b83810360231901608485015290610dc4565b03908101845283610f01565b823b156104d45761047f918791604051938492839263c0d91eaf60e01b84526004840152604060248401526044830190610dc4565b038183865af19081156104c95786916104b1575b5052600560205260408420805460ff191660011790553880806102f9565b6104ba90610eb8565b6104c5578438610493565b8480fd5b6040513d88823e3d90fd5b8680fd5b6040513d8a823e3d90fd5b634e487b7160e01b89526041600452602489fd5b60405162461bcd60e51b81526020600482015260096024820152686e6f7420706565722160b81b6044820152606490fd5b61054491503d8089833e61053c8183610f01565b810190611044565b38610203565b6040513d89823e3d90fd5b60405162461bcd60e51b81526020600482015260116024820152704f6e6c7920596172526573706f6e73652160781b6044820152606490fd5b600080fd5b8380fd5b8280fd5b5080fd5b50346100f95760203660031901126100f95760209060ff906040906001600160a01b036105ca610d75565b168152600584522054166040519015158152f35b50346100f95760203660031901126100f957602090600435815260078252604060018060a01b0391205416604051908152f35b50346100f95760203660031901126100f95760209060ff906040906001600160a01b0361063c610d75565b168152600684522054166040519015158152f35b50346100f957806003193601126100f9576020600154604051908152f35b50346100f957806003193601126100f957546040516001600160a01b039091168152602090f35b50346100f95760403660031901126100f9576106af610d8b565b81546001600160a01b0390811633036106eb57600435835260076020526040832091166bffffffffffffffffffffffff60a01b82541617905580f35b60405162461bcd60e51b815260206004820152600b60248201526a6f6e6c79206f776e65722160a81b6044820152606490fd5b50346100f957806003193601126100f9576004546040516001600160a01b039091168152602090f35b50346100f95760203660031901126100f9576020610766600435610f84565b6040516001600160a01b039091168152f35b50346100f95760403660031901126100f957602435906001600160401b0382116100f95760206107666107ae3660048601610e59565b906004356110ee565b50346100f95760403660031901126100f9576107d1610d8b565b6040516001600160a01b0391821660208083019182528083529291906107f682610ee6565b61082660408051809361081788830196600435885251809285850190610da1565b81010386810184520182610f01565b5190206108bc6108ca61034d60405161084187830182610f01565b818152868101916111bc833961087587604051809361086883830196879251928391610da1565b8101038084520182610f01565b5190206040516001600160f81b03198782019081523060601b6bffffffffffffffffffffffff19166001820152601581019590955260358501919091529182906055850190565b03601f198101835282610f01565b51902016604051908152f35b50346100f95760803660031901126100f9576108f0610d75565b506108f9610d8b565b506064356001600160401b03811161059b57610919903690600401610e59565b5050604051630a85bd0160e11b8152602090f35b90503461059b57608036600319011261059b57610948610d75565b6001600160a01b0390602435906064358381169190829003610d7157839061096f86610e86565b8686528660e060209782898201528260408201528260608201528260808201528260a0820152606060c0820152015216916040516306fdde0360e01b81528681600481875afa879181610d55575b50610d4f57506040516109cf81610ecb565b868152905b6040516395d89b4160e01b81528781600481885afa889181610d33575b50610d2e5750604051610a0381610ecb565b8781525b60405163c87b56dd60e01b8152600481018390528881602481895afa899181610d0a575b50610d045750604051610a3d81610ecb565b888152915b85895260058852604089205460ff16958615610cfb576040516306bc461b60e11b81528981600481855afa908115610c61578b91610cce575b50965b15610cb457604051630e7c1cb560e01b81528a81600481855afa908115610c61578b91610c70575b50905b803b15610c6c57604051632142170760e11b815233600482015230602482015260448101849052908b908290606490829084905af18015610c6157610c30575b5092610b52610b6193610b428b9794610b29610b759a986040519c8d9b63e5216cb760e01b908d015260248c015260e060448c01526101048b0190610dc4565b9060648a015260231995868a83030160848b0152610dc4565b90848883030160a4890152610dc4565b918583030160c4860152610dc4565b9060e483015203601f198101835282610f01565b8160015493604435610b8681610f84565b9160405196610b9488610e86565b8752309087015233604087015260608601521660808401528360a084015260c08301528260e083015260025416918060405180946334db7e0560e21b8252818381610be28860048301610de9565b03925af1928315610c2357610c0493610c08575b505060405191829182610de9565b0390f35b610c1b913d8091833e61053c8183610f01565b503880610bf6565b50604051903d90823e3d90fd5b610b6193610b428b9794610b29610b759a98959e610c50610b5296610eb8565b9e95989a5050949750509350610ae9565b6040513d8d823e3d90fd5b8a80fd5b90503d808c833e610c818183610f01565b81018a82820312610cb05781516001600160401b038111610cac57610ca69201611016565b38610aa6565b8c80fd5b8b80fd5b604051818a820152898152610cc881610ee6565b90610aa9565b90508981813d8311610cf4575b610ce58183610f01565b81010312610c6c575138610a7b565b503d610cdb565b60015496610a7e565b91610a42565b610d279192503d808c833e610d1f8183610f01565b810190610fe0565b9038610a2b565b610a07565b610d489192503d808b833e610d1f8183610f01565b90386109f1565b906109d4565b610d6a9192503d808a833e610d1f8183610f01565b90386109bd565b8580fd5b600435906001600160a01b038216820361058e57565b602435906001600160a01b038216820361058e57565b60005b838110610db45750506000910152565b8181015183820152602001610da4565b90602091610ddd81518092818552858086019101610da1565b601f01601f1916010190565b602081528151602082015260018060a01b038060208401511660408301528060408401511660608301526060830151608083015260808301511660a082015260a082015160c082015260c082015160e0610e50610100928383860152610120850190610dc4565b93015191015290565b9181601f8401121561058e578235916001600160401b03831161058e576020838186019501011161058e57565b61010081019081106001600160401b03821117610ea257604052565b634e487b7160e01b600052604160045260246000fd5b6001600160401b038111610ea257604052565b602081019081106001600160401b03821117610ea257604052565b604081019081106001600160401b03821117610ea257604052565b90601f801991011681019081106001600160401b03821117610ea257604052565b6001600160401b038111610ea257601f01601f191660200190565b81601f8201121561058e57803590610f5482610f22565b92610f626040519485610f01565b8284526020838301011161058e57816000926020809301838601378301015290565b6000908152600760205260409020546001600160a01b031680610fa657503090565b90565b90929192610fb681610f22565b91610fc46040519384610f01565b82948284528282011161058e576020610fde930190610da1565b565b60208183031261058e578051906001600160401b03821161058e57019080601f8301121561058e578151610fa692602001610fa9565b9080601f8301121561058e578151610fa692602001610fa9565b51906001600160a01b038216820361058e57565b9060208282031261058e5781516001600160401b039283821161058e57016101008183031261058e576040519261107a84610e86565b8151845261108a60208301611030565b602085015261109b60408301611030565b6040850152606082015160608501526110b660808301611030565b608085015260a082015160a085015260c082015190811161058e5760e0926110df918301611016565b60c0840152015160e082015290565b6111ab906040936111208580518381946020988984019788528484013781016000838201520386810184520182610f01565b5190209161119d61034d855161113884830182610f01565b818152838101916111bc833961115e848851809361086883830196879251928391610da1565b51902094519485928301943086916055939160ff60f81b84526bffffffffffffffffffffffff199060601b166001840152601583015260358201520190565b03601f198101845283610f01565b905190206001600160a01b03169056fe6080806040523461001657610331908161001c8239f35b600080fdfe60806040526004361061010f576000803560e01c63c0d91eaf14610023575061010f565b346100af5760403660031901126100af576004356001600160a01b03811681036100a75760243567ffffffffffffffff81116100ab57366023820112156100ab578060040135918361007c610077856100f3565b6100c8565b9284845236602486830101116100a757846100a495602460209301838701378401015261015b565b80f35b5080fd5b8280fd5b80fd5b634e487b7160e01b600052604160045260246000fd5b6040519190601f01601f1916820167ffffffffffffffff8111838210176100ee57604052565b6100b2565b67ffffffffffffffff81116100ee57601f01601f191660200190565b7f360894a13ba1a3210667c828492db98dca3e2076cc3735a920a3ca505d382bbc54600090819081906001600160a01b0316368280378136915af43d82803e15610157573d90f35b3d90fd5b9060005460ff81166102295760ff1916600117600055813b15610208577f360894a13ba1a3210667c828492db98dca3e2076cc3735a920a3ca505d382bbc80546001600160a01b0319166001600160a01b0384169081179091557fbc7cd75a20ee27fd9adebab32041f755214dbc6bffa90cc0225b39da2e5c2d3b600080a28051156101ed576101ea9161025d565b50565b5050346101f657565b60405163b398979f60e01b8152600490fd5b604051634c9c8ce360e01b81526001600160a01b0383166004820152602490fd5b60405162461bcd60e51b815260206004820152600c60248201526b616c7265616479496e69742160a01b6044820152606490fd5b60008061029193602081519101845af43d15610294573d91610281610077846100f3565b9283523d6000602085013e610298565b90565b6060915b906102bf57508051156102ad57805190602001fd5b604051630a12f52160e11b8152600490fd5b815115806102f2575b6102d0575090565b604051639996b31560e01b81526001600160a01b039091166004820152602490fd5b50803b156102c856fea2646970667358221220fdb34beb4ac605f4fc1e9795ab7f90c33f07722c27111609ecd860dd8a5b4edf64736f6c63430008140033a2646970667358221220adcee3a26204a8dad72fa06da46f036d27dadc83c0a8a4da8cc780071f74e16864736f6c634300081400336080806040523461001657611fd9908161001c8239f35b600080fdfe608080604052600436101561001357600080fd5b60003560e01c90816301ffc9a7146115be5750806306fdde0314611509578063081812fc146114be578063095ea7b3146113d75780630d788c36146113b95780630e7c1cb51461139d57806323b872dd1461138657806342842e0e1461135857806342966c68146112935780634616cac1146109dd57806352694c6b146109c15780636352211e1461099157806370a082311461093c578063715018a6146108d25780638da5cb5b1461089c57806395d89b41146107bc578063989ee11a14610750578063a22cb465146106b0578063ab1a63cd146105eb578063b88d4fde14610592578063c87b56dd146104bd578063d3fc9864146101e4578063e8cfdce9146101b0578063e985e9c5146101625763f2fde38b1461013257600080fd5b3461015d57602036600319011261015d5761015b61014e611671565b610156611997565b6119d0565b005b600080fd5b3461015d57604036600319011261015d5761017b611671565b61018c610186611687565b91611a7d565b9060018060a01b0316600052602052602060ff604060002054166040519015158152f35b3461015d57600036600319011261015d576101e06101cc6118fe565b60405191829160208352602083019061164c565b0390f35b3461015d57606036600319011261015d576101fd611671565b6024906001600160401b03823560443582811161015d573660238201121561015d57806004013592831161015d573685848301011161015d5761023e611997565b8160005260209260048452808660406000209361025b855461169d565b601f8111610482575b50600090601f841160011461041257600093610405575b5050508160011b916000199060031b1c19161790555b60405161029d816116d7565b600081526001600160a01b03848116949085156103ed576102be8483611c4e565b166103d5573b6102ca57005b826103049160405180938192630a85bd0160e11b9687845233600485015260008b850152604484015260806064840152608483019061164c565b03816000885af160009181610395575b5061036d5750503d15610366573d61032b81611803565b9061033960405192836116f2565b81523d60008383013e5b805191826103635750505060405190633250574960e11b82526004820152fd5b01fd5b6060610343565b6001600160e01b03191603905061038057005b60405190633250574960e11b82526004820152fd5b9091508381813d83116103ce575b6103ad81836116f2565b8101031261015d57516001600160e01b03198116810361015d579086610314565b503d6103a3565b6040516339e3563760e11b8152600060048201528690fd5b604051633250574960e11b8152600060048201528790fd5b010135905086888061027b565b93509050601f198216928460005288876000209260005b89878210610467575050846001961061044b575b50505050811b019055610291565b60001960f88660031b161c19920101351690558780888161043d565b8483019093013585556001909401938b929182019101610429565b6104ad908660005288600020601f860160051c8101918a87106104b3575b601f0160051c0190611eab565b89610264565b90915081906104a0565b3461015d5760208060031936011261015d57600435600052600481526040600020906040519182600082546104f18161169d565b93848452600191868382169182600014610570575050600114610531575b505061051d925003836116f2565b6101e060405192828493845283019061164c565b85925060005281600020906000915b85831061055857505061051d9350820101858061050f565b80548389018501528794508693909201918101610540565b925093505061051d94915060ff191682840152151560051b820101858061050f565b3461015d57608036600319011261015d576105ab611671565b6105b3611687565b90604435606435926001600160401b03841161015d576105da61015b94369060040161181e565b926105e6838383611ab6565b611d63565b3461015d576105f9366117ce565b90610602611997565b6040519061060f826116d7565b600082526001600160a01b0393818516156106975761062e8483611c4e565b94808616908161065157604051637e27328960e01b815260048101879052602490fd5b8295949516036106655761015b9450611d63565b6040516364283d7b60e01b81526001600160a01b03918216600482015260248101939093528416604483015250606490fd5b604051633250574960e11b815260006004820152602490fd5b3461015d57604036600319011261015d576106c9611671565b6024359081151580920361015d576001600160a01b0316908115610737576106f033611a7d565b82600052602052604060002060ff1981541660ff83161790556040519081527f17307eab39ab6107e8899845ad3d59bd9653f200f220920489ca2b5937696c3160203392a3005b604051630b61174360e31b815260048101839052602490fd5b3461015d57600036600319011261015d5760005461076c611713565b906101e0610778611865565b6107ae6107836118fe565b916107a0604051968796875260806020880152608087019061164c565b90858203604087015261164c565b90838203606085015261164c565b3461015d57600036600319011261015d576040516000600080516020611f8483398151915280546107ec8161169d565b808552916001918083169081156108725750600114610816575b6101e0856101cc818703826116f2565b600090815292507ff4bad0a69248f59680a4f2b3000328cec71a413447c96781cfe5996daa8c456e5b82841061085a5750505081016020016101cc826101e0610806565b8054602085870181019190915290930192810161083f565b8695506101e0969350602092506101cc94915060ff191682840152151560051b8201019293610806565b3461015d57600036600319011261015d57600080516020611f24833981519152546040516001600160a01b039091168152602090f35b3461015d57600036600319011261015d576108eb611997565b600080516020611f2483398151915280546001600160a01b031981169091556000906001600160a01b03167f8be0079c531659141344cd1fd0a4f28419497f9722a3daafe3b4186f6b6457e08280a3005b3461015d57602036600319011261015d57610955611671565b6001600160a01b038116156109785761096f602091611a44565b54604051908152f35b6040516322718ad960e21b815260006004820152602490fd5b3461015d57602036600319011261015d5760206109af600435611d33565b6040516001600160a01b039091168152f35b3461015d57600036600319011261015d576101e06101cc611865565b3461015d57608036600319011261015d576024356001600160401b03811161015d57610a0d90369060040161181e565b6044356001600160401b03811161015d57610a2c90369060040161181e565b906064356001600160401b03811161015d57610a4c90369060040161181e565b917ff0c57e16840df040f15088dc2f81fe391c3923bec73e23a9662efc9c229c6a00918254916001600160401b03831680159081611283575b6001149081611279575b159081611270575b5061125e5760016001600160401b0319841617845560ff8360401c161561123f575b604051607960f81b90816020820152610af06021828551610ae08184840160208a01611629565b81010360018101845201826116f2565b604051916020830152610b226021838951610b12818c60208686019101611629565b81010360018101855201836116f2565b610b2a611ec2565b610b32611ec2565b8051906001600160401b038211610e58578190610b5d600080516020611f048339815191525461169d565b601f81116111e3575b50602090601f831160011461113f57600092611134575b50508160011b916000199060031b1c191617600080516020611f04833981519152555b8051906001600160401b038211610e58578190610bcb600080516020611f848339815191525461169d565b601f81116110d8575b50602090601f831160011461103457600092611029575b50508160011b916000199060031b1c191617600080516020611f84833981519152555b610c16611ec2565b610c1e611ec2565b610c27336119d0565b8051906001600160401b038211610e58578190610c4560025461169d565b601f8111610fda575b50602090601f8311600114610f5457600092610f49575b50508160011b916000199060031b1c1916176002555b83516001600160401b038111610e585780600395610c99875461169d565b601f8111610efb575b50602090601f8311600114610e7957600092610e6e575b50508160011b9160001990871b1c19161784555b6004356000558051906001600160401b038211610e5857610cef60015461169d565b601f8111610e09575b50602090601f8311600114610d7d5794829160ff9596600093610d72575b50508260011b92600019911b1c1916176001555b60401c1615610d3557005b68ff00000000000000001981541690557fc7f505b2f371ae2175ee4913f4499e1f2633a7b5936321eed1cdaeb6115181d2602060405160018152a1005b015191508680610d16565b94601f1983169160016000527fb10e2d527612073b26eecdfd717e6a320cf44b4afac2b0732d9fcbe2b7fa0cf69260005b818110610df157509060ff96978560019695949310610dd7575b50505050811b01600155610d2a565b01519060f884600019921b161c1916905585808080610dc8565b9193602060018192878c015181550195019201610dae565b610e529060016000527fb10e2d527612073b26eecdfd717e6a320cf44b4afac2b0732d9fcbe2b7fa0cf6601f850160051c810191602086106104b357601f0160051c0190611eab565b85610cf8565b634e487b7160e01b600052604160045260246000fd5b015190508680610cb9565b60008881527fc2575a0e9e593c00f959f8c92f12db2869c3395a3b0502d05e2516446f71f85b9350601f198516905b818110610ee35750908460019594939210610ecb575b505050811b018455610ccd565b015160001983891b60f8161c19169055868080610ebe565b92936020600181928786015181550195019301610ea8565b610f4390886000527fc2575a0e9e593c00f959f8c92f12db2869c3395a3b0502d05e2516446f71f85b601f850160051c810191602086106104b357601f0160051c0190611eab565b87610ca2565b015190508680610c65565b600260009081527f405787fa12a823e0f2b7631cc41b3ba8828b3321ca811111fa75cd3aa3bb5ace9350601f198516905b818110610fc25750908460019594939210610fa9575b505050811b01600255610c7b565b015160001960f88460031b161c19169055868080610f9b565b92936020600181928786015181550195019301610f85565b6110239060026000527f405787fa12a823e0f2b7631cc41b3ba8828b3321ca811111fa75cd3aa3bb5ace601f850160051c810191602086106104b357601f0160051c0190611eab565b87610c4e565b015190508780610beb565b9250600080516020611f848339815191526000527ff4bad0a69248f59680a4f2b3000328cec71a413447c96781cfe5996daa8c456e906000935b601f19841685106110bd576001945083601f198116106110a4575b505050811b01600080516020611f8483398151915255610c0e565b015160001960f88460031b161c19169055878080611089565b8181015183556020948501946001909301929091019061106e565b61112e90600080516020611f848339815191526000527ff4bad0a69248f59680a4f2b3000328cec71a413447c96781cfe5996daa8c456e601f850160051c810191602086106104b357601f0160051c0190611eab565b88610bd4565b015190508880610b7d565b9250600080516020611f048339815191526000527f37c58c799b6609234b945e882912ee9ad34948a1dfaa20a97485e1a7752bbf81906000935b601f19841685106111c8576001945083601f198116106111af575b505050811b01600080516020611f0483398151915255610ba0565b015160001960f88460031b161c19169055888080611194565b81810151835560209485019460019093019290910190611179565b61123990600080516020611f048339815191526000527f37c58c799b6609234b945e882912ee9ad34948a1dfaa20a97485e1a7752bbf81601f850160051c810191602086106104b357601f0160051c0190611eab565b89610b66565b68ffffffffffffffffff19831668010000000000000001178455610ab9565b60405163f92ee8a960e01b8152600490fd5b90501586610a97565b303b159150610a8f565b604085901c60ff16159150610a85565b3461015d57602036600319011261015d576004356112af611997565b80600052600080516020611f448339815191528060205281600060018060a01b03604082205416801593841561133a575b8383526020526040822080546001600160a01b03191690557fddf252ad1be2c89b69c2b068fc378daa952ba7f163c4a11628f55a4df523b3ef8280a461132257005b60249060405190637e27328960e01b82526004820152fd5b61134384611d02565b61134c82611a44565b831981540190556112e0565b3461015d5761015b611369366117ce565b9060405192611377846116d7565b600084526105e6838383611ab6565b3461015d5761015b611397366117ce565b91611ab6565b3461015d57600036600319011261015d576101e06101cc611713565b3461015d57600036600319011261015d576020600054604051908152f35b3461015d57604036600319011261015d576113f0611671565b6024356113fc81611d33565b331515806114ab575b8061148b575b611473576001600160a01b039283169282918491167f8c5be1e5ebec7d5bd14f71427d1e84f3dd0314c0f7b2291e5b200ac8c7c3b925600080a46000908152600080516020611f648339815191526020526040902080546001600160a01b0319169091179055005b60405163a9fbf51f60e01b8152336004820152602490fd5b5061149581611a7d565b3360005260205260ff604060002054161561140b565b506001600160a01b038116331415611405565b3461015d57602036600319011261015d576004356114db81611d33565b50600052600080516020611f64833981519152602052602060018060a01b0360406000205416604051908152f35b3461015d57600036600319011261015d576040516000600080516020611f0483398151915280546115398161169d565b808552916001918083169081156108725750600114611562576101e0856101cc818703826116f2565b600090815292507f37c58c799b6609234b945e882912ee9ad34948a1dfaa20a97485e1a7752bbf815b8284106115a65750505081016020016101cc826101e0610806565b8054602085870181019190915290930192810161158b565b3461015d57602036600319011261015d576004359063ffffffff60e01b821680920361015d576020916380ac58cd60e01b8114908115611618575b8115611607575b5015158152f35b6301ffc9a760e01b14905083611600565b635b5e139f60e01b811491506115f9565b60005b83811061163c5750506000910152565b818101518382015260200161162c565b9060209161166581518092818552858086019101611629565b601f01601f1916010190565b600435906001600160a01b038216820361015d57565b602435906001600160a01b038216820361015d57565b90600182811c921680156116cd575b60208310146116b757565b634e487b7160e01b600052602260045260246000fd5b91607f16916116ac565b602081019081106001600160401b03821117610e5857604052565b90601f801991011681019081106001600160401b03821117610e5857604052565b604051906000826001918254926117298461169d565b808452938181169081156117ac575060011461174f575b5061174d925003836116f2565b565b600081815291507fb10e2d527612073b26eecdfd717e6a320cf44b4afac2b0732d9fcbe2b7fa0cf65b848310611791575061174d935050810160200138611740565b81935090816020925483858a01015201910190918592611778565b90506020925061174d94915060ff191682840152151560051b82010138611740565b606090600319011261015d576001600160a01b0390600435828116810361015d5791602435908116810361015d579060443590565b6001600160401b038111610e5857601f01601f191660200190565b81601f8201121561015d5780359061183582611803565b9261184360405194856116f2565b8284526020838301011161015d57816000926020809301838601378301015290565b60405190600082600254916118798361169d565b808352926001908181169081156117ac575060011461189f575061174d925003836116f2565b6002600090815291507f405787fa12a823e0f2b7631cc41b3ba8828b3321ca811111fa75cd3aa3bb5ace5b8483106118e3575061174d935050810160200138611740565b81935090816020925483858a010152019101909185926118ca565b60405190600082600354916119128361169d565b808352926001908181169081156117ac5750600114611938575061174d925003836116f2565b6003600090815291507fc2575a0e9e593c00f959f8c92f12db2869c3395a3b0502d05e2516446f71f85b5b84831061197c575061174d935050810160200138611740565b81935090816020925483858a01015201910190918592611963565b600080516020611f24833981519152546001600160a01b031633036119b857565b60405163118cdaa760e01b8152336004820152602490fd5b6001600160a01b03908116908115611a2b57600080516020611f2483398151915280546001600160a01b031981168417909155167f8be0079c531659141344cd1fd0a4f28419497f9722a3daafe3b4186f6b6457e0600080a3565b604051631e4fbdf760e01b815260006004820152602490fd5b6001600160a01b031660009081527f80bb2b638cc20bc4d0a60d66940f3ab4a00c1d7b313497ca82fb0b4ab00793036020526040902090565b6001600160a01b031660009081527f80bb2b638cc20bc4d0a60d66940f3ab4a00c1d7b313497ca82fb0b4ab00793056020526040902090565b906001600160a01b038082169081156106975784600092818452600080516020611f44833981519152948560205260409484868220541696879233151580611ba8575b5090611b2b7fddf252ad1be2c89b69c2b068fc378daa952ba7f163c4a11628f55a4df523b3ef939285611b8957611a44565b8054600101905585825260205286812080546001600160a01b0319168517905580a483168203611b5b5750505050565b516364283d7b60e01b81526001600160a01b0392831660048201526024810193909352166044820152606490fd5b611b9288611d02565b611b9b86611a44565b8054600019019055611a44565b9193509193945080611bff575b15611bc65791869189949338611af9565b858988611be3576024915190637e27328960e01b82526004820152fd5b604491519063177e802f60e01b82523360048301526024820152fd5b503387148015611c32575b80611bb55750888352600080516020611f648339815191526020523385878520541614611bb5565b50611c3c87611a7d565b33845260205260ff8684205416611c0a565b6000828152600080516020611f44833981519152602081905260408220546001600160a01b0390811694939285927fddf252ad1be2c89b69c2b068fc378daa952ba7f163c4a11628f55a4df523b3ef9284611ce3575b85169485611ccd575b508582526020526040812080546001600160a01b0319168517905580a490565b611cd690611a44565b6001815401905538611cad565b611cec87611d02565b611cf585611a44565b8054600019019055611ca4565b600052600080516020611f6483398151915260205260406000206bffffffffffffffffffffffff60a01b8154169055565b6000818152600080516020611f4483398151915260205260409020546001600160a01b0316908115611322575090565b813b611d70575b50505050565b604051630a85bd0160e11b8082523360048301526001600160a01b03928316602483015260448201949094526080606482015260209592909116939092908390611dbe90608483019061164c565b039285816000958187895af1849181611e67575b50611e32575050503d600014611e2a573d611dec81611803565b90611dfa60405192836116f2565b81528091843d92013e5b80519283611e2557604051633250574960e11b815260048101849052602490fd5b019050fd5b506060611e04565b919450915063ffffffff60e01b1603611e4f575038808080611d6a565b60249060405190633250574960e11b82526004820152fd5b9091508681813d8311611ea4575b611e7f81836116f2565b81010312611ea057516001600160e01b031981168103611ea0579038611dd2565b8480fd5b503d611e75565b818110611eb6575050565b60008155600101611eab565b60ff7ff0c57e16840df040f15088dc2f81fe391c3923bec73e23a9662efc9c229c6a005460401c1615611ef157565b604051631afcd79f60e31b8152600490fdfe80bb2b638cc20bc4d0a60d66940f3ab4a00c1d7b313497ca82fb0b4ab00793009016d09d72d40fdae2fd8ceac6b6234c7706214fd39c1cd1e609a0528c19930080bb2b638cc20bc4d0a60d66940f3ab4a00c1d7b313497ca82fb0b4ab007930280bb2b638cc20bc4d0a60d66940f3ab4a00c1d7b313497ca82fb0b4ab007930480bb2b638cc20bc4d0a60d66940f3ab4a00c1d7b313497ca82fb0b4ab0079301a2646970667358221220fed4ca11f3d5ead0f668179b5eafb26967b8643e821489fe84bf7e86e114535464736f6c63430008140033",
  "devdoc": {
    "kind": "dev",
    "methods": {},
    "version": 1
  },
  "userdoc": {
    "kind": "user",
    "methods": {},
    "version": 1
  },
  "storageLayout": {
    "storage": [
      {
        "astId": 6879,
        "contract": "contracts/apps/bridge721/YarBridge721.sol:YarBridge721",
        "label": "owner",
        "offset": 0,
        "slot": "0",
        "type": "t_address"
      },
      {
        "astId": 6881,
        "contract": "contracts/apps/bridge721/YarBridge721.sol:YarBridge721",
        "label": "chainId",
        "offset": 0,
        "slot": "1",
        "type": "t_uint256"
      },
      {
        "astId": 6883,
        "contract": "contracts/apps/bridge721/YarBridge721.sol:YarBridge721",
        "label": "yarRequest",
        "offset": 0,
        "slot": "2",
        "type": "t_address"
      },
      {
        "astId": 6885,
        "contract": "contracts/apps/bridge721/YarBridge721.sol:YarBridge721",
        "label": "yarResponse",
        "offset": 0,
        "slot": "3",
        "type": "t_address"
      },
      {
        "astId": 6887,
        "contract": "contracts/apps/bridge721/YarBridge721.sol:YarBridge721",
        "label": "bridgedTokenImplementation",
        "offset": 0,
        "slot": "4",
        "type": "t_address"
      },
      {
        "astId": 6891,
        "contract": "contracts/apps/bridge721/YarBridge721.sol:YarBridge721",
        "label": "isBridgedToken",
        "offset": 0,
        "slot": "5",
        "type": "t_mapping(t_address,t_bool)"
      },
      {
        "astId": 6895,
        "contract": "contracts/apps/bridge721/YarBridge721.sol:YarBridge721",
        "label": "issuedTokens",
        "offset": 0,
        "slot": "6",
        "type": "t_mapping(t_address,t_bool)"
      },
      {
        "astId": 6911,
        "contract": "contracts/apps/bridge721/YarBridge721.sol:YarBridge721",
        "label": "peers",
        "offset": 0,
        "slot": "7",
        "type": "t_mapping(t_uint256,t_address)"
      }
    ],
    "types": {
      "t_address": {
        "encoding": "inplace",
        "label": "address",
        "numberOfBytes": "20"
      },
      "t_bool": {
        "encoding": "inplace",
        "label": "bool",
        "numberOfBytes": "1"
      },
      "t_mapping(t_address,t_bool)": {
        "encoding": "mapping",
        "key": "t_address",
        "label": "mapping(address => bool)",
        "numberOfBytes": "32",
        "value": "t_bool"
      },
      "t_mapping(t_uint256,t_address)": {
        "encoding": "mapping",
        "key": "t_uint256",
        "label": "mapping(uint256 => address)",
        "numberOfBytes": "32",
        "value": "t_address"
      },
      "t_uint256": {
        "encoding": "inplace",
        "label": "uint256",
        "numberOfBytes": "32"
      }
    }
  }
}