{
  "address": "0xFDb274F873cf871C464737b06431bF9f6b208E25",
  "abi": [
    {
      "inputs": [
        {
          "internalType": "address",
          "name": "intialYarRequest",
          "type": "address"
        },
        {
          "internalType": "address",
          "name": "intialYarResponse",
          "type": "address"
        }
      ],
      "stateMutability": "nonpayable",
      "type": "constructor"
    },
    {
      "inputs": [],
      "name": "chainId",
      "outputs": [
        {
          "internalType": "uint256",
          "name": "",
          "type": "uint256"
        }
      ],
      "stateMutability": "view",
      "type": "function"
    },
    {
      "inputs": [
        {
          "internalType": "uint256",
          "name": "offset",
          "type": "uint256"
        },
        {
          "internalType": "uint256",
          "name": "limit",
          "type": "uint256"
        }
      ],
      "name": "getMessages",
      "outputs": [
        {
          "internalType": "string[]",
          "name": "",
          "type": "string[]"
        }
      ],
      "stateMutability": "view",
      "type": "function"
    },
    {
      "inputs": [
        {
          "internalType": "uint256",
          "name": "_chainId",
          "type": "uint256"
        }
      ],
      "name": "getPeer",
      "outputs": [
        {
          "internalType": "address",
          "name": "",
          "type": "address"
        }
      ],
      "stateMutability": "view",
      "type": "function"
    },
    {
      "inputs": [],
      "name": "messageCount",
      "outputs": [
        {
          "internalType": "uint256",
          "name": "",
          "type": "uint256"
        }
      ],
      "stateMutability": "view",
      "type": "function"
    },
    {
      "inputs": [
        {
          "internalType": "uint256",
          "name": "",
          "type": "uint256"
        }
      ],
      "name": "messages",
      "outputs": [
        {
          "internalType": "string",
          "name": "",
          "type": "string"
        }
      ],
      "stateMutability": "view",
      "type": "function"
    },
    {
      "inputs": [],
      "name": "owner",
      "outputs": [
        {
          "internalType": "address",
          "name": "",
          "type": "address"
        }
      ],
      "stateMutability": "view",
      "type": "function"
    },
    {
      "inputs": [
        {
          "internalType": "uint256",
          "name": "chainId",
          "type": "uint256"
        }
      ],
      "name": "peers",
      "outputs": [
        {
          "internalType": "address",
          "name": "peer",
          "type": "address"
        }
      ],
      "stateMutability": "view",
      "type": "function"
    },
    {
      "inputs": [
        {
          "internalType": "string",
          "name": "message",
          "type": "string"
        }
      ],
      "name": "sendFrom",
      "outputs": [],
      "stateMutability": "nonpayable",
      "type": "function"
    },
    {
      "inputs": [
        {
          "internalType": "uint256",
          "name": "targetChainId",
          "type": "uint256"
        },
        {
          "internalType": "string",
          "name": "message",
          "type": "string"
        }
      ],
      "name": "sendTo",
      "outputs": [
        {
          "components": [
            {
              "internalType": "uint256",
              "name": "initialChainId",
              "type": "uint256"
            },
            {
              "internalType": "address",
              "name": "sender",
              "type": "address"
            },
            {
              "internalType": "address",
              "name": "payer",
              "type": "address"
            },
            {
              "internalType": "uint256",
              "name": "targetChainId",
              "type": "uint256"
            },
            {
              "internalType": "address",
              "name": "target",
              "type": "address"
            },
            {
              "internalType": "uint256",
              "name": "value",
              "type": "uint256"
            },
            {
              "internalType": "bytes",
              "name": "data",
              "type": "bytes"
            },
            {
              "internalType": "uint256",
              "name": "_nonce",
              "type": "uint256"
            }
          ],
          "internalType": "struct YarLib.YarTX",
          "name": "",
          "type": "tuple"
        }
      ],
      "stateMutability": "nonpayable",
      "type": "function"
    },
    {
      "inputs": [
        {
          "internalType": "uint256",
          "name": "newChainId",
          "type": "uint256"
        },
        {
          "internalType": "address",
          "name": "newPeer",
          "type": "address"
        }
      ],
      "name": "setPeer",
      "outputs": [],
      "stateMutability": "nonpayable",
      "type": "function"
    },
    {
      "inputs": [],
      "name": "yarRequest",
      "outputs": [
        {
          "internalType": "address",
          "name": "",
          "type": "address"
        }
      ],
      "stateMutability": "view",
      "type": "function"
    },
    {
      "inputs": [],
      "name": "yarResponse",
      "outputs": [
        {
          "internalType": "address",
          "name": "",
          "type": "address"
        }
      ],
      "stateMutability": "view",
      "type": "function"
    }
  ],
  "transactionHash": "0x232614531ccddbb54984fd2f1cf11cd7a8d43fb5b9c4bdef450369eeeabc43ba",
  "args": [
    "0x24e03AbB3f168a4deD0171060eFDB9a170bE193d",
    "0xAB4435F7E8a5C50798EBF367217cfba3Bb2DF7cb"
  ],
  "numDeployments": 1,
  "solcInputHash": "e820de7fcbd5b6b852d036e3bb310b11",
  "bytecode": "0x60803461009557601f610d7c38819003918201601f19168301916001600160401b0383118484101761009a57808492604094855283398101031261009557610052602061004b836100b0565b92016100b0565b60018060a01b03908160018060a01b03199316836002541617600255168160035416176003554660015533906000541617600055604051610cb790816100c58239f35b600080fd5b634e487b7160e01b600052604160045260246000fd5b51906001600160a01b03821682036100955756fe6040608081526004908136101561001557600080fd5b600091823560e01c9081630d80fefd1461084b57816337096231146105b95781633dbcc8d11461059a5781634be8362d146103d55781635646e5e71461022f57816367ebb6b2146101fb5781638069c497146101775781638da5cb5b1461014f5781639a8a059214610130578163be4f3e8f146100fa57508063e6a1496d146100d25763f4100f00146100a757600080fd5b346100ce57816003193601126100ce5760025490516001600160a01b039091168152602090f35b5080fd5b50346100ce57816003193601126100ce5760035490516001600160a01b039091168152602090f35b90503461012c57602036600319011261012c57803583526020908152918190205490516001600160a01b039091168152f35b8280fd5b5050346100ce57816003193601126100ce576020906001549051908152f35b5050346100ce57816003193601126100ce57905490516001600160a01b039091168152602090f35b9190503461012c578060031936011261012c576024356001600160a01b0381811693918490036101f75784541633036101c75780358452602052822080546001600160a01b031916909117905580f35b6020606492519162461bcd60e51b8352820152600b60248201526a6f6e6c79206f776e65722160a81b6044820152fd5b8480fd5b82843461022c57602036600319011261022c575061021b60209235610b02565b90516001600160a01b039091168152f35b80fd5b90503461012c578160031936011261012c57803560243567ffffffffffffffff81116101f757366023820112156101f757808301359061026e82610a76565b9161027b86519384610966565b80835236602482840101116103d157938693610312859461037e99610304958960249b9a60209c8d930183860137830101528560e089516102bb81610933565b828152828c820152828b8201528260608201528260808201528260a0820152606060c082015201528751948591633709623160e01b8b8401528a60248401526044830190610a51565b03601f198101855284610966565b6001549261031f82610b02565b91875198899561032e87610933565b865230908601523388860152606085015260018060a01b0380921660808501528460a085015260c08401528360e084015260025416908386518099819582946334db7e0560e21b84528301610a92565b03925af19384156103c55761039e946103a2575b50505191829182610a92565b0390f35b6103bd913d8091833e6103b58183610966565b810190610b40565b503880610392565b509051903d90823e3d90fd5b8680fd5b82843461022c578160031936011261022c576006549280358481101561056157602493843582019081831161054e57868211610546575b6104168383610c23565b9161042083610c46565b9261042d83519485610966565b80845261043c601f1991610c46565b01865b818110610535575050610453869489610c23565b935b61045f828a610c23565b8511156104d85760001985018581116104c657906104886104826104a3936108ac565b50610988565b6104928287610c5e565b5261049d8186610c5e565b50610c72565b9380156104b4576000190193610455565b634e487b7160e01b8752601186528787fd5b634e487b7160e01b8852601187528888fd5b825160208082528551818301819052899291600582901b8301870191818901918489015b8287106105095785850386f35b909192938280610525600193603f198a82030186528851610a51565b96019201960195929190926104fc565b80606060208093880101520161043f565b86915061040c565b5050634e487b7160e01b83525060119052fd5b835162461bcd60e51b815260208184015260136024820152724f6666736574206f7574206f662072616e676560681b6044820152606490fd5b5050346100ce57816003193601126100ce576020906006549051908152f35b9190503461012c576020806003193601126108475782359167ffffffffffffffff918284116108435736602385011215610843578385013592831161084357602491368385870101116103d1576003546001600160a01b039081163381900361080d579088889284519384809263f0db1fbf60e01b82525afa9182156108035789926107e7575b50808461064d8451610b02565b930151169116036107ba575060055493680100000000000000008510156107a85761067f6001958681016005556108ac565b969096610797575061069186546108f9565b601f8111610751575b508691601f85116001146106e7575091839491849388956106da575b5050501b916000199060031b1c19161790555b6106d4600654610c72565b60065580f35b01013592503880806106b6565b92909184601f198116888a52858a20958a905b898383106107355750505010610719575b50505050811b0190556106c9565b60001960f88660031b161c19920101351690553880808061070b565b87860187013589559097019693840193889350908101906106fa565b868852828820601f860160051c81019184871061078d575b601f0160051c019086905b82811061078257505061069a565b898155018690610774565b9091508190610769565b634e487b7160e01b88528790528287fd5b634e487b7160e01b8752604186528287fd5b6064928692600992519362461bcd60e51b8552840152820152686e6f7420706565722160b81b6044820152fd5b6107fc9192503d808b833e6103b58183610966565b9038610640565b83513d8b823e3d90fd5b825162461bcd60e51b8152808901859052601181870152704f6e6c7920596172526573706f6e73652160781b6044820152606490fd5b8580fd5b8380fd5b82843461022c57602036600319011261022c5782356005548110156100ce57610873906108ac565b93909361089a5761039e8361088786610988565b9051918291602083526020830190610a51565b634e487b7160e01b8252819052602490fd5b6005548110156108e35760056000527f036b6384b5eca791c62761152d0c79bb0604c104a5fb6f4eb0703f3154bb3db00190600090565b634e487b7160e01b600052603260045260246000fd5b90600182811c92168015610929575b602083101461091357565b634e487b7160e01b600052602260045260246000fd5b91607f1691610908565b610100810190811067ffffffffffffffff82111761095057604052565b634e487b7160e01b600052604160045260246000fd5b90601f8019910116810190811067ffffffffffffffff82111761095057604052565b906040519182600082549261099c846108f9565b908184526001948581169081600014610a0b57506001146109c8575b50506109c692500383610966565b565b9093915060005260209081600020936000915b8183106109f35750506109c6935082010138806109b8565b855488840185015294850194879450918301916109db565b9150506109c694506020925060ff191682840152151560051b82010138806109b8565b60005b838110610a415750506000910152565b8181015183820152602001610a31565b90602091610a6a81518092818552858086019101610a2e565b601f01601f1916010190565b67ffffffffffffffff811161095057601f01601f191660200190565b602081528151602082015260018060a01b038060208401511660408301528060408401511660608301526060830151608083015260808301511660a082015260a082015160c082015260c082015160e0610af9610100928383860152610120850190610a51565b93015191015290565b6000908152600460205260409020546001600160a01b031680610b2457503090565b90565b51906001600160a01b0382168203610b3b57565b600080fd5b906020908183820312610b3b57825167ffffffffffffffff93848211610b3b57019061010082820312610b3b5760405193610b7a85610933565b82518552610b89848401610b27565b84860152610b9960408401610b27565b604086015260608301516060860152610bb460808401610b27565b608086015260a083015160a086015260c0830151908111610b3b5782019281601f85011215610b3b578351610be881610a76565b92610bf66040519485610966565b818452828287010111610b3b5760e09482610c149385019101610a2e565b60c0840152015160e082015290565b91908203918211610c3057565b634e487b7160e01b600052601160045260246000fd5b67ffffffffffffffff81116109505760051b60200190565b80518210156108e35760209160051b010190565b6000198114610c30576001019056fea264697066735822122060b601e79e8a94f47f3da754de46d8c554046fcc26817f1c2031c0e4b0c1c5ab64736f6c63430008140033",
  "devdoc": {
    "kind": "dev",
    "methods": {},
    "version": 1
  },
  "userdoc": {
    "kind": "user",
    "methods": {},
    "version": 1
  },
  "storageLayout": {
    "storage": [
      {
        "astId": 956,
        "contract": "contracts/apps/bridgeMessage/YarBridgeMessage.sol:YarBridgeMessage",
        "label": "owner",
        "offset": 0,
        "slot": "0",
        "type": "t_address"
      },
      {
        "astId": 958,
        "contract": "contracts/apps/bridgeMessage/YarBridgeMessage.sol:YarBridgeMessage",
        "label": "chainId",
        "offset": 0,
        "slot": "1",
        "type": "t_uint256"
      },
      {
        "astId": 960,
        "contract": "contracts/apps/bridgeMessage/YarBridgeMessage.sol:YarBridgeMessage",
        "label": "yarRequest",
        "offset": 0,
        "slot": "2",
        "type": "t_address"
      },
      {
        "astId": 962,
        "contract": "contracts/apps/bridgeMessage/YarBridgeMessage.sol:YarBridgeMessage",
        "label": "yarResponse",
        "offset": 0,
        "slot": "3",
        "type": "t_address"
      },
      {
        "astId": 966,
        "contract": "contracts/apps/bridgeMessage/YarBridgeMessage.sol:YarBridgeMessage",
        "label": "peers",
        "offset": 0,
        "slot": "4",
        "type": "t_mapping(t_uint256,t_address)"
      },
      {
        "astId": 1097,
        "contract": "contracts/apps/bridgeMessage/YarBridgeMessage.sol:YarBridgeMessage",
        "label": "messages",
        "offset": 0,
        "slot": "5",
        "type": "t_array(t_string_storage)dyn_storage"
      },
      {
        "astId": 1099,
        "contract": "contracts/apps/bridgeMessage/YarBridgeMessage.sol:YarBridgeMessage",
        "label": "messageCount",
        "offset": 0,
        "slot": "6",
        "type": "t_uint256"
      }
    ],
    "types": {
      "t_address": {
        "encoding": "inplace",
        "label": "address",
        "numberOfBytes": "20"
      },
      "t_array(t_string_storage)dyn_storage": {
        "base": "t_string_storage",
        "encoding": "dynamic_array",
        "label": "string[]",
        "numberOfBytes": "32"
      },
      "t_mapping(t_uint256,t_address)": {
        "encoding": "mapping",
        "key": "t_uint256",
        "label": "mapping(uint256 => address)",
        "numberOfBytes": "32",
        "value": "t_address"
      },
      "t_string_storage": {
        "encoding": "bytes",
        "label": "string",
        "numberOfBytes": "32"
      },
      "t_uint256": {
        "encoding": "inplace",
        "label": "uint256",
        "numberOfBytes": "32"
      }
    }
  }
}