{
  "address": "0x763cDec00F55eD0A49f734Ce5ee9b313c10AAa0D",
  "abi": [
    {
      "inputs": [
        {
          "internalType": "address",
          "name": "intialYarRequest",
          "type": "address"
        },
        {
          "internalType": "address",
          "name": "intialYarResponse",
          "type": "address"
        }
      ],
      "stateMutability": "nonpayable",
      "type": "constructor"
    },
    {
      "inputs": [],
      "name": "chainId",
      "outputs": [
        {
          "internalType": "uint256",
          "name": "",
          "type": "uint256"
        }
      ],
      "stateMutability": "view",
      "type": "function"
    },
    {
      "inputs": [
        {
          "internalType": "address",
          "name": "receiver",
          "type": "address"
        },
        {
          "internalType": "uint256",
          "name": "offset",
          "type": "uint256"
        },
        {
          "internalType": "uint256",
          "name": "limit",
          "type": "uint256"
        }
      ],
      "name": "getMessages",
      "outputs": [
        {
          "components": [
            {
              "internalType": "address",
              "name": "sender",
              "type": "address"
            },
            {
              "internalType": "address",
              "name": "receiver",
              "type": "address"
            },
            {
              "internalType": "string",
              "name": "message",
              "type": "string"
            },
            {
              "internalType": "uint256",
              "name": "timestamp",
              "type": "uint256"
            }
          ],
          "internalType": "struct YarBridgeMessage.Message[]",
          "name": "",
          "type": "tuple[]"
        }
      ],
      "stateMutability": "view",
      "type": "function"
    },
    {
      "inputs": [
        {
          "internalType": "uint256",
          "name": "_chainId",
          "type": "uint256"
        }
      ],
      "name": "getPeer",
      "outputs": [
        {
          "internalType": "address",
          "name": "",
          "type": "address"
        }
      ],
      "stateMutability": "view",
      "type": "function"
    },
    {
      "inputs": [],
      "name": "messageCount",
      "outputs": [
        {
          "internalType": "uint256",
          "name": "",
          "type": "uint256"
        }
      ],
      "stateMutability": "view",
      "type": "function"
    },
    {
      "inputs": [
        {
          "internalType": "uint256",
          "name": "",
          "type": "uint256"
        }
      ],
      "name": "messages",
      "outputs": [
        {
          "internalType": "address",
          "name": "sender",
          "type": "address"
        },
        {
          "internalType": "address",
          "name": "receiver",
          "type": "address"
        },
        {
          "internalType": "string",
          "name": "message",
          "type": "string"
        },
        {
          "internalType": "uint256",
          "name": "timestamp",
          "type": "uint256"
        }
      ],
      "stateMutability": "view",
      "type": "function"
    },
    {
      "inputs": [],
      "name": "owner",
      "outputs": [
        {
          "internalType": "address",
          "name": "",
          "type": "address"
        }
      ],
      "stateMutability": "view",
      "type": "function"
    },
    {
      "inputs": [
        {
          "internalType": "uint256",
          "name": "chainId",
          "type": "uint256"
        }
      ],
      "name": "peers",
      "outputs": [
        {
          "internalType": "address",
          "name": "peer",
          "type": "address"
        }
      ],
      "stateMutability": "view",
      "type": "function"
    },
    {
      "inputs": [
        {
          "internalType": "address",
          "name": "sender",
          "type": "address"
        },
        {
          "internalType": "address",
          "name": "receiver",
          "type": "address"
        },
        {
          "internalType": "string",
          "name": "message",
          "type": "string"
        }
      ],
      "name": "sendFrom",
      "outputs": [],
      "stateMutability": "nonpayable",
      "type": "function"
    },
    {
      "inputs": [
        {
          "internalType": "uint256",
          "name": "targetChainId",
          "type": "uint256"
        },
        {
          "internalType": "address",
          "name": "receiver",
          "type": "address"
        },
        {
          "internalType": "string",
          "name": "message",
          "type": "string"
        }
      ],
      "name": "sendTo",
      "outputs": [
        {
          "components": [
            {
              "internalType": "uint256",
              "name": "initialChainId",
              "type": "uint256"
            },
            {
              "internalType": "address",
              "name": "sender",
              "type": "address"
            },
            {
              "internalType": "address",
              "name": "payer",
              "type": "address"
            },
            {
              "internalType": "uint256",
              "name": "targetChainId",
              "type": "uint256"
            },
            {
              "internalType": "address",
              "name": "target",
              "type": "address"
            },
            {
              "internalType": "uint256",
              "name": "value",
              "type": "uint256"
            },
            {
              "internalType": "bytes",
              "name": "data",
              "type": "bytes"
            },
            {
              "internalType": "uint256",
              "name": "_nonce",
              "type": "uint256"
            }
          ],
          "internalType": "struct YarLib.YarTX",
          "name": "",
          "type": "tuple"
        }
      ],
      "stateMutability": "nonpayable",
      "type": "function"
    },
    {
      "inputs": [
        {
          "internalType": "uint256",
          "name": "newChainId",
          "type": "uint256"
        },
        {
          "internalType": "address",
          "name": "newPeer",
          "type": "address"
        }
      ],
      "name": "setPeer",
      "outputs": [],
      "stateMutability": "nonpayable",
      "type": "function"
    },
    {
      "inputs": [],
      "name": "yarRequest",
      "outputs": [
        {
          "internalType": "address",
          "name": "",
          "type": "address"
        }
      ],
      "stateMutability": "view",
      "type": "function"
    },
    {
      "inputs": [],
      "name": "yarResponse",
      "outputs": [
        {
          "internalType": "address",
          "name": "",
          "type": "address"
        }
      ],
      "stateMutability": "view",
      "type": "function"
    }
  ],
  "transactionHash": "0x55c8154955908c53b4794849a5974109a3435892e4a0646204d69af5130d3110",
  "args": [
    "0x24e03AbB3f168a4deD0171060eFDB9a170bE193d",
    "0xAB4435F7E8a5C50798EBF367217cfba3Bb2DF7cb"
  ],
  "numDeployments": 1,
  "solcInputHash": "e085cf38c630e9f5bbcefbd9ce7a7d9f",
  "bytecode": "0x60803461009557601f610f5638819003918201601f19168301916001600160401b0383118484101761009a57808492604094855283398101031261009557610052602061004b836100b0565b92016100b0565b60018060a01b03908160018060a01b03199316836002541617600255168160035416176003554660015533906000541617600055604051610e9190816100c58239f35b600080fd5b634e487b7160e01b600052604160045260246000fd5b51906001600160a01b03821682036100955756fe6040608081526004908136101561001557600080fd5b600091823560e01c90816301af48d61461087c5781630d80fefd146108005781630f3f42c1146105815781633dbcc8d11461056257816367ebb6b21461052e5781638069c497146104a95781638da5cb5b1461048157816398c2b2341461014f5781639a8a059214610130578163be4f3e8f146100fa57508063e6a1496d146100d25763f4100f00146100a757600080fd5b346100ce57816003193601126100ce5760025490516001600160a01b039091168152602090f35b5080fd5b50346100ce57816003193601126100ce5760035490516001600160a01b039091168152602090f35b90503461012c57602036600319011261012c57803583526020908152918190205490516001600160a01b039091168152f35b8280fd5b5050346100ce57816003193601126100ce576020906001549051908152f35b8383346100ce5760603660031901126100ce5761016a610a1f565b90610173610a04565b9060443567ffffffffffffffff9586821161047d573660238301121561047d5781810135918783116104795760249036828583010111610475576003546001600160a01b03949085163381900361043f5790898594939288519687809263f0db1fbf60e01b82525afa948515610435578a95610411575b506101f58551610ce1565b8680602080980151169116036103e3579061022b918688519a6102178c610a68565b168a5286868b019916895283369201610ac2565b948701948552606087019542875260055494680100000000000000008610156103d15761025f600196878101600555610bb1565b9990996103c05781905116906bffffffffffffffffffffffff60a01b91828b5416178a55868a0192511690825416179055600287019451918251998a116103af5750506102ac8454610c01565b601f8111610369575b5081601f891160011461030557509680928192889960039899946102fa575b50501b9160001990861b1c19161790555b519101556102f4600654610e4c565b60065580f35b0151925089806102d4565b909791601f198316988589528289209289905b8b821061035257505083600398999a1061033a575b505050811b0190556102e5565b015160001983881b60f8161c1916905587808061032d565b808785968294968601518155019501930190610318565b848852828820601f8a0160051c810191848b106103a5575b601f0160051c019084905b82811061039a5750506102b5565b89815501849061038c565b9091508190610381565b634e487b7160e01b89526041905287fd5b634e487b7160e01b8b528a8552838bfd5b634e487b7160e01b8a5260418452828afd5b865162461bcd60e51b8152808501869052600981850152686e6f7420706565722160b81b6044820152606490fd5b61042e9195503d808c833e6104268183610a84565b810190610d1a565b938b6101ea565b87513d8c823e3d90fd5b865162461bcd60e51b8152602081870152601181860152704f6e6c7920596172526573706f6e73652160781b6044820152606490fd5b8780fd5b8680fd5b8580fd5b5050346100ce57816003193601126100ce57905490516001600160a01b039091168152602090f35b90503461012c578160031936011261012c576104c3610a04565b835490926001600160a01b03929091831633036104fe5780358552602052832091166bffffffffffffffffffffffff60a01b82541617905580f35b6020606492519162461bcd60e51b8352820152600b60248201526a6f6e6c79206f776e65722160a81b6044820152fd5b82843461055f57602036600319011261055f575061054e60209235610ce1565b90516001600160a01b039091168152f35b80fd5b5050346100ce57816003193601126100ce576020906006549051908152f35b9050823461055f57606091826003193601126100ce5761059f610a1f565b9260249384359060065496878310156107c9576044358301978884116107b7578089116107af575b976105d28482610dfd565b906105dc82610e20565b916105e984519384610a84565b8083526105f8601f1991610e20565b01885b81811061077d57505061060f88958b610dfd565b6001600160a01b0394851691905b610627828d610dfd565b8111156106f05760001981018181116106de5761064381610bb1565b509084886001809401541614610677575b50508015610665576000190161061d565b634e487b7160e01b8a52601189528a8afd5b9060036106886106d6949a93610bb1565b508989519361069685610a68565b8183541685528201541660208401526106b160028201610c3b565b8984015201548a8201526106c58287610e38565b526106d08186610e38565b50610e4c565b958c80610654565b634e487b7160e01b8b5260118a528b8bfd5b8451602080825285518183018190528c9291600582901b830189019181890191848b018c8f8d5b858a106107245788880389f35b909192939495968580600192603f198c82030188528a5190878251168152878383015116838201528680610764888501516080808b870152850190610b1c565b9301519101529901950199019892919095949395610717565b602090859c939c5161078e81610a68565b8b8152828c818301528a888301528c8b8301528287010152019a919a6105fb565b9750876105c7565b634e487b7160e01b8752601186528787fd5b5162461bcd60e51b8152602081860152601381880152724f6666736574206f7574206f662072616e676560681b6044820152606490fd5b839150346100ce5760203660031901126100ce57359060055482101561055f575061082a90610bb1565b50805460018201546001600160a01b0390811693911691610872906080600361085560028401610c3b565b920154938051968796875260208701528501526080840190610b1c565b9060608301520390f35b9190503461012c57606036600319011261012c5781359161089b610a04565b60443567ffffffffffffffff811161047d573660238201121561047d5785926109b996926109556108d86109479436906024818701359101610ac2565b8560e089516108e681610a35565b828152826020820152828b8201528260608201528260808201528260a0820152606060c082015201528751948591632630ac8d60e21b602084015233602484015260018060a01b038095166044840152606060648401526084830190610b1c565b03601f198101855284610a84565b600154928161096389610ce1565b8851998a9661097188610a35565b8752306020880152338a88015260608701521660808501528460a085015260c08401528360e084015260025416908386518099819582946334db7e0560e21b84528301610b41565b03925af19384156109f8576109d9946109dd575b50505191829182610b41565b0390f35b6109f0913d8091833e6104268183610a84565b5038806109cd565b509051903d90823e3d90fd5b602435906001600160a01b0382168203610a1a57565b600080fd5b600435906001600160a01b0382168203610a1a57565b610100810190811067ffffffffffffffff821117610a5257604052565b634e487b7160e01b600052604160045260246000fd5b6080810190811067ffffffffffffffff821117610a5257604052565b90601f8019910116810190811067ffffffffffffffff821117610a5257604052565b67ffffffffffffffff8111610a5257601f01601f191660200190565b929192610ace82610aa6565b91610adc6040519384610a84565b829481845281830111610a1a578281602093846000960137010152565b60005b838110610b0c5750506000910152565b8181015183820152602001610afc565b90602091610b3581518092818552858086019101610af9565b601f01601f1916010190565b602081528151602082015260018060a01b038060208401511660408301528060408401511660608301526060830151608083015260808301511660a082015260a082015160c082015260c082015160e0610ba8610100928383860152610120850190610b1c565b93015191015290565b600554811015610beb57600560005260021b7f036b6384b5eca791c62761152d0c79bb0604c104a5fb6f4eb0703f3154bb3db00190600090565b634e487b7160e01b600052603260045260246000fd5b90600182811c92168015610c31575b6020831014610c1b57565b634e487b7160e01b600052602260045260246000fd5b91607f1691610c10565b9060405191826000825492610c4f84610c01565b908184526001948581169081600014610cbe5750600114610c7b575b5050610c7992500383610a84565b565b9093915060005260209081600020936000915b818310610ca6575050610c7993508201013880610c6b565b85548884018501529485019487945091830191610c8e565b915050610c7994506020925060ff191682840152151560051b8201013880610c6b565b6000908152600460205260409020546001600160a01b031680610d0357503090565b90565b51906001600160a01b0382168203610a1a57565b906020908183820312610a1a57825167ffffffffffffffff93848211610a1a57019061010082820312610a1a5760405193610d5485610a35565b82518552610d63848401610d06565b84860152610d7360408401610d06565b604086015260608301516060860152610d8e60808401610d06565b608086015260a083015160a086015260c0830151908111610a1a5782019281601f85011215610a1a578351610dc281610aa6565b92610dd06040519485610a84565b818452828287010111610a1a5760e09482610dee9385019101610af9565b60c0840152015160e082015290565b91908203918211610e0a57565b634e487b7160e01b600052601160045260246000fd5b67ffffffffffffffff8111610a525760051b60200190565b8051821015610beb5760209160051b010190565b6000198114610e0a576001019056fea26469706673582212201f79021f3e8436c0ac3102644296929b22e7d6fe51306c85000b7541d5c9aefc64736f6c63430008140033",
  "devdoc": {
    "kind": "dev",
    "methods": {},
    "version": 1
  },
  "userdoc": {
    "kind": "user",
    "methods": {},
    "version": 1
  },
  "storageLayout": {
    "storage": [
      {
        "astId": 956,
        "contract": "contracts/apps/bridgeMessage/YarBridgeMessage.sol:YarBridgeMessage",
        "label": "owner",
        "offset": 0,
        "slot": "0",
        "type": "t_address"
      },
      {
        "astId": 958,
        "contract": "contracts/apps/bridgeMessage/YarBridgeMessage.sol:YarBridgeMessage",
        "label": "chainId",
        "offset": 0,
        "slot": "1",
        "type": "t_uint256"
      },
      {
        "astId": 960,
        "contract": "contracts/apps/bridgeMessage/YarBridgeMessage.sol:YarBridgeMessage",
        "label": "yarRequest",
        "offset": 0,
        "slot": "2",
        "type": "t_address"
      },
      {
        "astId": 962,
        "contract": "contracts/apps/bridgeMessage/YarBridgeMessage.sol:YarBridgeMessage",
        "label": "yarResponse",
        "offset": 0,
        "slot": "3",
        "type": "t_address"
      },
      {
        "astId": 966,
        "contract": "contracts/apps/bridgeMessage/YarBridgeMessage.sol:YarBridgeMessage",
        "label": "peers",
        "offset": 0,
        "slot": "4",
        "type": "t_mapping(t_uint256,t_address)"
      },
      {
        "astId": 1112,
        "contract": "contracts/apps/bridgeMessage/YarBridgeMessage.sol:YarBridgeMessage",
        "label": "messages",
        "offset": 0,
        "slot": "5",
        "type": "t_array(t_struct(Message)1108_storage)dyn_storage"
      },
      {
        "astId": 1114,
        "contract": "contracts/apps/bridgeMessage/YarBridgeMessage.sol:YarBridgeMessage",
        "label": "messageCount",
        "offset": 0,
        "slot": "6",
        "type": "t_uint256"
      }
    ],
    "types": {
      "t_address": {
        "encoding": "inplace",
        "label": "address",
        "numberOfBytes": "20"
      },
      "t_array(t_struct(Message)1108_storage)dyn_storage": {
        "base": "t_struct(Message)1108_storage",
        "encoding": "dynamic_array",
        "label": "struct YarBridgeMessage.Message[]",
        "numberOfBytes": "32"
      },
      "t_mapping(t_uint256,t_address)": {
        "encoding": "mapping",
        "key": "t_uint256",
        "label": "mapping(uint256 => address)",
        "numberOfBytes": "32",
        "value": "t_address"
      },
      "t_string_storage": {
        "encoding": "bytes",
        "label": "string",
        "numberOfBytes": "32"
      },
      "t_struct(Message)1108_storage": {
        "encoding": "inplace",
        "label": "struct YarBridgeMessage.Message",
        "members": [
          {
            "astId": 1101,
            "contract": "contracts/apps/bridgeMessage/YarBridgeMessage.sol:YarBridgeMessage",
            "label": "sender",
            "offset": 0,
            "slot": "0",
            "type": "t_address"
          },
          {
            "astId": 1103,
            "contract": "contracts/apps/bridgeMessage/YarBridgeMessage.sol:YarBridgeMessage",
            "label": "receiver",
            "offset": 0,
            "slot": "1",
            "type": "t_address"
          },
          {
            "astId": 1105,
            "contract": "contracts/apps/bridgeMessage/YarBridgeMessage.sol:YarBridgeMessage",
            "label": "message",
            "offset": 0,
            "slot": "2",
            "type": "t_string_storage"
          },
          {
            "astId": 1107,
            "contract": "contracts/apps/bridgeMessage/YarBridgeMessage.sol:YarBridgeMessage",
            "label": "timestamp",
            "offset": 0,
            "slot": "3",
            "type": "t_uint256"
          }
        ],
        "numberOfBytes": "128"
      },
      "t_uint256": {
        "encoding": "inplace",
        "label": "uint256",
        "numberOfBytes": "32"
      }
    }
  }
}