{
  "address": "0x201a75a28BAAd9d1917cdCB4a10f12D27Bb96A08",
  "abi": [
    {
      "inputs": [
        {
          "internalType": "string",
          "name": "initialNativeName",
          "type": "string"
        },
        {
          "internalType": "string",
          "name": "initialNativeSymbol",
          "type": "string"
        },
        {
          "internalType": "uint8",
          "name": "initialNativeDecimals",
          "type": "uint8"
        },
        {
          "internalType": "address",
          "name": "intialYarRequest",
          "type": "address"
        },
        {
          "internalType": "address",
          "name": "intialYarResponse",
          "type": "address"
        }
      ],
      "stateMutability": "nonpayable",
      "type": "constructor"
    },
    {
      "inputs": [
        {
          "internalType": "address",
          "name": "target",
          "type": "address"
        }
      ],
      "name": "AddressEmptyCode",
      "type": "error"
    },
    {
      "inputs": [
        {
          "internalType": "address",
          "name": "account",
          "type": "address"
        }
      ],
      "name": "AddressInsufficientBalance",
      "type": "error"
    },
    {
      "inputs": [],
      "name": "FailedInnerCall",
      "type": "error"
    },
    {
      "inputs": [
        {
          "internalType": "address",
          "name": "token",
          "type": "address"
        }
      ],
      "name": "SafeERC20FailedOperation",
      "type": "error"
    },
    {
      "inputs": [],
      "name": "bridgedTokenImplementation",
      "outputs": [
        {
          "internalType": "address",
          "name": "",
          "type": "address"
        }
      ],
      "stateMutability": "view",
      "type": "function"
    },
    {
      "inputs": [],
      "name": "chainId",
      "outputs": [
        {
          "internalType": "uint256",
          "name": "",
          "type": "uint256"
        }
      ],
      "stateMutability": "view",
      "type": "function"
    },
    {
      "inputs": [
        {
          "internalType": "uint256",
          "name": "originalChainId",
          "type": "uint256"
        },
        {
          "internalType": "address",
          "name": "originalToken",
          "type": "address"
        },
        {
          "internalType": "string",
          "name": "name",
          "type": "string"
        },
        {
          "internalType": "string",
          "name": "symbol",
          "type": "string"
        },
        {
          "internalType": "uint8",
          "name": "decimals",
          "type": "uint8"
        }
      ],
      "name": "deployFrom",
      "outputs": [],
      "stateMutability": "nonpayable",
      "type": "function"
    },
    {
      "inputs": [
        {
          "internalType": "address",
          "name": "token",
          "type": "address"
        },
        {
          "internalType": "uint256",
          "name": "targetChainId",
          "type": "uint256"
        }
      ],
      "name": "deployTo",
      "outputs": [
        {
          "components": [
            {
              "internalType": "uint256",
              "name": "initialChainId",
              "type": "uint256"
            },
            {
              "internalType": "address",
              "name": "sender",
              "type": "address"
            },
            {
              "internalType": "address",
              "name": "payer",
              "type": "address"
            },
            {
              "internalType": "uint256",
              "name": "targetChainId",
              "type": "uint256"
            },
            {
              "internalType": "address",
              "name": "target",
              "type": "address"
            },
            {
              "internalType": "uint256",
              "name": "value",
              "type": "uint256"
            },
            {
              "internalType": "bytes",
              "name": "data",
              "type": "bytes"
            }
          ],
          "internalType": "struct YarLib.YarTX",
          "name": "",
          "type": "tuple"
        }
      ],
      "stateMutability": "nonpayable",
      "type": "function"
    },
    {
      "inputs": [
        {
          "internalType": "uint256",
          "name": "originalChainId",
          "type": "uint256"
        },
        {
          "internalType": "address",
          "name": "originalToken",
          "type": "address"
        }
      ],
      "name": "getBridgedTokenAddress",
      "outputs": [
        {
          "internalType": "address",
          "name": "",
          "type": "address"
        }
      ],
      "stateMutability": "view",
      "type": "function"
    },
    {
      "inputs": [
        {
          "internalType": "uint256",
          "name": "_chainId",
          "type": "uint256"
        }
      ],
      "name": "getPeer",
      "outputs": [
        {
          "internalType": "address",
          "name": "",
          "type": "address"
        }
      ],
      "stateMutability": "view",
      "type": "function"
    },
    {
      "inputs": [
        {
          "internalType": "address",
          "name": "bridgedToken",
          "type": "address"
        }
      ],
      "name": "isBridgedToken",
      "outputs": [
        {
          "internalType": "bool",
          "name": "exists",
          "type": "bool"
        }
      ],
      "stateMutability": "view",
      "type": "function"
    },
    {
      "inputs": [],
      "name": "nativeDecimals",
      "outputs": [
        {
          "internalType": "uint8",
          "name": "",
          "type": "uint8"
        }
      ],
      "stateMutability": "view",
      "type": "function"
    },
    {
      "inputs": [],
      "name": "nativeName",
      "outputs": [
        {
          "internalType": "string",
          "name": "",
          "type": "string"
        }
      ],
      "stateMutability": "view",
      "type": "function"
    },
    {
      "inputs": [],
      "name": "nativeSymbol",
      "outputs": [
        {
          "internalType": "string",
          "name": "",
          "type": "string"
        }
      ],
      "stateMutability": "view",
      "type": "function"
    },
    {
      "inputs": [],
      "name": "owner",
      "outputs": [
        {
          "internalType": "address",
          "name": "",
          "type": "address"
        }
      ],
      "stateMutability": "view",
      "type": "function"
    },
    {
      "inputs": [
        {
          "internalType": "uint256",
          "name": "chainId",
          "type": "uint256"
        }
      ],
      "name": "peers",
      "outputs": [
        {
          "internalType": "address",
          "name": "peer",
          "type": "address"
        }
      ],
      "stateMutability": "view",
      "type": "function"
    },
    {
      "inputs": [
        {
          "internalType": "uint256",
          "name": "newChainId",
          "type": "uint256"
        },
        {
          "internalType": "address",
          "name": "newPeer",
          "type": "address"
        }
      ],
      "name": "setPeer",
      "outputs": [],
      "stateMutability": "nonpayable",
      "type": "function"
    },
    {
      "inputs": [
        {
          "internalType": "uint256",
          "name": "originalChainId",
          "type": "uint256"
        },
        {
          "internalType": "address",
          "name": "originalToken",
          "type": "address"
        },
        {
          "internalType": "uint256",
          "name": "amount",
          "type": "uint256"
        },
        {
          "internalType": "address",
          "name": "recipient",
          "type": "address"
        }
      ],
      "name": "transferFrom",
      "outputs": [],
      "stateMutability": "nonpayable",
      "type": "function"
    },
    {
      "inputs": [
        {
          "internalType": "address",
          "name": "token",
          "type": "address"
        },
        {
          "internalType": "uint256",
          "name": "amount",
          "type": "uint256"
        },
        {
          "internalType": "uint256",
          "name": "targetChainId",
          "type": "uint256"
        },
        {
          "internalType": "address",
          "name": "recipient",
          "type": "address"
        }
      ],
      "name": "transferTo",
      "outputs": [
        {
          "components": [
            {
              "internalType": "uint256",
              "name": "initialChainId",
              "type": "uint256"
            },
            {
              "internalType": "address",
              "name": "sender",
              "type": "address"
            },
            {
              "internalType": "address",
              "name": "payer",
              "type": "address"
            },
            {
              "internalType": "uint256",
              "name": "targetChainId",
              "type": "uint256"
            },
            {
              "internalType": "address",
              "name": "target",
              "type": "address"
            },
            {
              "internalType": "uint256",
              "name": "value",
              "type": "uint256"
            },
            {
              "internalType": "bytes",
              "name": "data",
              "type": "bytes"
            }
          ],
          "internalType": "struct YarLib.YarTX",
          "name": "",
          "type": "tuple"
        }
      ],
      "stateMutability": "payable",
      "type": "function"
    },
    {
      "inputs": [],
      "name": "yarRequest",
      "outputs": [
        {
          "internalType": "address",
          "name": "",
          "type": "address"
        }
      ],
      "stateMutability": "view",
      "type": "function"
    },
    {
      "inputs": [],
      "name": "yarResponse",
      "outputs": [
        {
          "internalType": "address",
          "name": "",
          "type": "address"
        }
      ],
      "stateMutability": "view",
      "type": "function"
    }
  ],
  "transactionHash": "0x87b2652b623db9720b5982adb0799a2d509d48dac6986a79d869562e2ff79544",
  "args": [
    "Yar",
    "YAR",
    18,
    "0x262B9071CFDb531092df1c32d855eAaDD4C7D923",
    "0x9b72eDa2475f1471374b0cF96c1fc2590a4E2169"
  ],
  "numDeployments": 1,
  "solcInputHash": "10e9f0eff870565b1ca540e13cf6fad9",
  "bytecode": "0x608060405234620003cd576200359b803803806200001d81620003d2565b928339810160a082820312620003cd5781516001600160401b0390818111620003cd57826200004e918501620003f8565b6020928385015190838211620003cd576200006b918601620003f8565b60408501519060ff8216809203620003cd5762000099608062000091606089016200046a565b97016200046a565b948351858111620001ea57600754906001958683811c93168015620003c2575b84841014620002d4578190601f938481116200036b575b5084908483116001146200030157600092620002f5575b5050600019600383901b1c191690861b176007555b825192868411620001ea57600854928684811c94168015620002ea575b81851014620002d457838386951162000279575b50809284116001146200020c575060009262000200575b5050600019600383901b1c191690831b176008555b60ff19600954161760095560018060a01b039283918260018060a01b031996168682541617905516836002541617600255604051906116aa908183019083821090821117620001ea57829162001ef1833903906000f08015620001de57168160035416176003554660055533906000541617600055604051611a719081620004808239f35b6040513d6000823e3d90fd5b634e487b7160e01b600052604160045260246000fd5b01519050388062000144565b9190869450601f198416600860005283600020936000905b8282106200025f575050841162000245575b505050811b0160085562000159565b015160001960f88460031b161c1916905538808062000236565b848401518655899790950194938401939081019062000224565b90919293506008600052816000208480870160051c820192848810620002ca575b9187968a92969594930160051c01915b828110620002ba5750506200012d565b60008155879650899101620002aa565b925081926200029a565b634e487b7160e01b600052602260045260246000fd5b93607f169362000119565b015190503880620000e7565b90889350601f198316916007600052866000209260005b888282106200035457505084116200033a575b505050811b01600755620000fc565b015160001960f88460031b161c191690553880806200032b565b8385015186558c9790950194938401930162000318565b9091506007600052846000208480850160051c820192878610620003b8575b918a91869594930160051c01915b828110620003a8575050620000d0565b600081558594508a910162000398565b925081926200038a565b92607f1692620000b9565b600080fd5b6040519190601f01601f191682016001600160401b03811183821017620001ea57604052565b919080601f84011215620003cd5782516001600160401b038111620001ea576020906200042e601f8201601f19168301620003d2565b92818452828287010111620003cd5760005b8181106200045657508260009394955001015290565b858101830151848201840152820162000440565b51906001600160a01b0382168203620003cd5756fe6080604052600436101561001257600080fd5b60003560e01c806302e6d464146101275780630a4c6b7e1461012257806364996c9b1461011d57806367ebb6b2146101185780637078944c14610113578063768ea56a1461010e5780637fedad55146101095780638069c497146101045780638ca9ca8e146100ff5780638da5cb5b146100fa57806399f3f9f7146100f55780639a8a0592146100f0578063be4f3e8f146100eb578063c287e578146100e6578063dfe70cef146100e1578063e6a1496d146100dc5763f4100f00146100d757600080fd5b610ef2565b610ec9565b610ead565b610e6b565b610e37565b610e19565b610def565b610dc6565b610ca1565b610bdc565b610bac565b61096e565b610945565b61090a565b610610565b61039b565b610142565b6001600160a01b0381160361013d57565b600080fd5b3461013d57608036600319011261013d576004356024356101628161012c565b6044356064356101718161012c565b6002546001600160a01b039081169361018b338614611179565b60405195869563f0db1fbf60e01b87528660046000998a935afa9586156102c45787966101f09188916102cd575b50846101e86101dc60206101cd8551610f1b565b9401516001600160a01b031690565b6001600160a01b031690565b9116146111b9565b600554810361022f57501680610222575082809281925af161021061123d565b901561021a575080f35b602081519101fd5b61022c935061126d565b80f35b9061023d9195949395611469565b6001600160a01b038116600090815260046020526040902061026a90610265905b5460ff1690565b6111f1565b16803b156102c9576040516340c10f1960e01b81526001600160a01b0394909416600485015260248401919091528290604490829084905af180156102c4576102b1575080f35b806102be61022c926109a5565b8061093a565b61102d565b8280fd5b6102e991503d808a833e6102e181836109da565b8101906110dd565b386101b9565b60005b8381106103025750506000910152565b81810151838201526020016102f2565b9060209161032b815180928185528580860191016102ef565b601f01601f1916010190565b61010060c061039893602084528051602085015260018060a01b038060208301511660408601528060408301511660608601526060820151608086015260808201511660a085015260a08101518285015201519160e0808201520190610312565b90565b608036600319011261013d576004356103b38161012c565b60243560443591606435906103c78261012c565b6103cf610f5d565b506001600160a01b038116806105f5576103ea8434146113d2565b6001600160a01b038216600090815260046020526040902061040b9061025e565b9182156105ec576040516353638be560e01b8152602081600481865afa9081156102c4576000916105be575b50925b156105ae5750602060049160405192838092630e7c1cb560e01b82525afa9283156102c4576104be936104b092600091610580575b50945b60405162b9b51960e21b602082015260248101949094526001600160a01b0395861660448501526064840152909316608482015291829060a4820190565b03601f1981018352826109da565b6104fb600554926104ce81610f1b565b906104d7610f3d565b94855230602086015233604086015260608501526001600160a01b03166080840152565b600060a083015260c082015260015461051e906101dc906001600160a01b031681565b9060006040518093637d60955760e11b82528183816105408760048301610337565b03925af19182156102c45761056192610565575b5060405191829182610337565b0390f35b610579903d806000833e6102e181836109da565b5038610554565b6105a1915060203d81116105a7575b61059981836109da565b810190611068565b3861046f565b503d61058f565b6104b09150926104be9394610472565b6105df915060203d81116105e5575b6105d781836109da565b81019061104e565b38610437565b503d6105cd565b6005549261043a565b6105ff3415611395565b61060b84303384611410565b6103ea565b3461013d5760408060031936011261013d5760048035916106308361012c565b6024359161063c610f5d565b506001600160a01b0384169360008561082d57506106586109fc565b91610661610aef565b9161066e60095460ff1690565b905b6001600160a01b03811660009081526004602052604090206106919061025e565b15610811575084516353638be560e01b8152602094858285818c5afa9182156102c457849287916000916107f4575b5099885193848092630e7c1cb560e01b82525afa9182156102c45761079d9961072161075f9461072f9360009a8b926107d7575b5050955b600554986107058d610f1b565b958c51988995634654e54760e11b60208801526024870161107d565b03601f1981018552846109da565b610737610f3d565b9485523060208601529396879490338689015260608601526001600160a01b03166080850152565b60a0830184905260c0830152600154610782906101dc906001600160a01b031681565b90838551809881958294637d60955760e11b84528301610337565b03925af19283156102c457610561936107bc575b505191829182610337565b6107d0903d806000833e6102e181836109da565b50386107b1565b6107ed9250803d106105a75761059981836109da565b38806106f4565b61080b9150823d84116105e5576105d781836109da565b386106c0565b61079d975060009461072f61075f9261072160055491956106f8565b83516306fdde0360e01b8152818185818a5afa9182156102c45780926108ef575b50509183516395d89b4160e01b815260008183818a5afa9081156102c4576000916108ce575b5091845163313ce56760e01b815260208184818b5afa9081156102c4576000916108a0575b5090610670565b6108c1915060203d81116108c7575b6108b981836109da565b810190611039565b38610899565b503d6108af565b6108e9913d8091833e6108e181836109da565b810190610ff6565b38610874565b61090392503d8091833e6108e181836109da565b388061084e565b3461013d57602036600319011261013d576020610928600435610f1b565b6040516001600160a01b039091168152f35b600091031261013d57565b3461013d57600036600319011261013d576003546040516001600160a01b039091168152602090f35b3461013d57600036600319011261013d57602060ff60095416604051908152f35b634e487b7160e01b600052604160045260246000fd5b67ffffffffffffffff81116109b957604052565b61098f565b6080810190811067ffffffffffffffff8211176109b957604052565b90601f8019910116810190811067ffffffffffffffff8211176109b957604052565b60405190600060075490600182811c92818116918215610ae5575b6020918286108414610ad157858852879493602086019392918115610ab25750600114610a50575b505050610a4e925003836109da565b565b925093610a7f60076000527fa66cc928b5edb82af9bd49922954155ab7b0942694bea4ce44661d9a8736c68890565b946000935b828510610a9c57505050610a4e935001388080610a3f565b8654858501529586019588955093810193610a84565b92505050610a4e9491925060ff19168252151560051b01388080610a3f565b634e487b7160e01b85526022600452602485fd5b93607f1693610a17565b60405190600060085490600182811c92818116918215610ba2575b6020918286108414610ad157858852879493602086019392918115610ab25750600114610b4057505050610a4e925003836109da565b925093610b6f60086000527ff3f7a9fe364faab93b216da50a3214154f22a0a2b415b23a84c8169e8b636ee390565b946000935b828510610b8c57505050610a4e935001388080610a3f565b8654858501529586019588955093810193610b74565b93607f1693610b0a565b3461013d57600036600319011261013d57610561610bc8610aef565b604051918291602083526020830190610312565b3461013d57604036600319011261013d57602435610bf98161012c565b6000546001600160a01b039081163303610c35576004356000526006602052604060002091166001600160601b0360a01b825416179055600080f35b60405162461bcd60e51b815260206004820152600b60248201526a6f6e6c79206f776e65722160a81b6044820152606490fd5b9181601f8401121561013d5782359167ffffffffffffffff831161013d576020838186019501011161013d57565b60ff81160361013d57565b3461013d5760a036600319011261013d57600435602435610cc18161012c565b67ffffffffffffffff60443581811161013d57610ce2903690600401610c68565b9160643590811161013d57610cfb903690600401610c68565b92909160843594610d0b86610c96565b6002546001600160a01b03163303610d8e5760ff610d46610d2c838a611469565b6001600160a01b0316600090815260046020526040902090565b5416610d5757610d55966115ba565b005b60405162461bcd60e51b815260206004820152600f60248201526e616c7265616479206578697374732160881b6044820152606490fd5b60405162461bcd60e51b815260206004820152601060248201526f6f6e6c7920796172526571756573742160801b6044820152606490fd5b3461013d57600036600319011261013d576000546040516001600160a01b039091168152602090f35b3461013d57604036600319011261013d576020610928602435610e118161012c565b600435611469565b3461013d57600036600319011261013d576020600554604051908152f35b3461013d57602036600319011261013d576004356000526006602052602060018060a01b0360406000205416604051908152f35b3461013d57602036600319011261013d57600435610e888161012c565b60018060a01b03166000526004602052602060ff604060002054166040519015158152f35b3461013d57600036600319011261013d57610561610bc86109fc565b3461013d57600036600319011261013d576002546040516001600160a01b039091168152602090f35b3461013d57600036600319011261013d576001546040516001600160a01b039091168152602090f35b6000908152600660205260409020546001600160a01b03168061039857503090565b6040519060e0820182811067ffffffffffffffff8211176109b957604052565b6040519060e0820182811067ffffffffffffffff8211176109b957604052606060c0836000808252806020830152806040830152808483015280608083015260a08201520152565b67ffffffffffffffff81116109b957601f01601f191660200190565b90929192610fce81610fa5565b91610fdc60405193846109da565b82948284528282011161013d576020610a4e9301906102ef565b60208183031261013d5780519067ffffffffffffffff821161013d57019080601f8301121561013d57815161039892602001610fc1565b6040513d6000823e3d90fd5b9081602091031261013d575161039881610c96565b9081602091031261013d575190565b5190610a4e8261012c565b9081602091031261013d57516103988161012c565b936110ae60809460ff946110bc94999899885260018060a01b0316602088015260a0604088015260a0870190610312565b908582036060870152610312565b9416910152565b9080601f8301121561013d57815161039892602001610fc1565b9060208282031261013d57815167ffffffffffffffff9283821161013d57019060e08282031261013d5761110f610f3d565b92825184526111206020840161105d565b60208501526111316040840161105d565b60408501526060830151606085015261114c6080840161105d565b608085015260a083015160a085015260c083015190811161013d5761117192016110c3565b60c082015290565b1561118057565b60405162461bcd60e51b81526020600482015260116024820152706f6e6c7920796172526573706f6e73652160781b6044820152606490fd5b156111c057565b60405162461bcd60e51b81526020600482015260096024820152686e6f7420706565722160b81b6044820152606490fd5b156111f857565b60405162461bcd60e51b815260206004820152601c60248201527f6265666f7265206465706c6f79206272696467656420746f6b656e21000000006044820152606490fd5b3d15611268573d9061124e82610fa5565b9161125c60405193846109da565b82523d6000602084013e565b606090565b60405163a9059cbb60e01b60208201526001600160a01b03929092166024830152604480830193909352918152610a4e916112a96064836109da565b60018060a01b0316906112d3600080836020829551910182875af16112cc61123d565b9084611332565b908151918215159283611303575b5050506112eb5750565b60249060405190635274afe760e01b82526004820152fd5b81929350906020918101031261132e57602001519081159182150361132b57503880806112e1565b80fd5b5080fd5b90611359575080511561134757805190602001fd5b604051630a12f52160e11b8152600490fd5b8151158061138c575b61136a575090565b604051639996b31560e01b81526001600160a01b039091166004820152602490fd5b50803b15611362565b1561139c57565b60405162461bcd60e51b815260206004820152600e60248201526d06d73672e76616c756520213d20360941b6044820152606490fd5b156113d957565b60405162461bcd60e51b815260206004820152600f60248201526e7472616e73666572416d6f756e742160881b6044820152606490fd5b6040516323b872dd60e01b60208201526001600160a01b03928316602482015292909116604483015260648083019390935291815260a081019181831067ffffffffffffffff8411176109b957610a4e926040526112a9565b610398916101dc916040516114a1816104b06020958683019586909160349282526001600160601b03199060601b1660208201520190565b5190209061034d6040516114b7838301826109da565b818152828101916116ef83396114eb8360405180936114de838301968792519283916102ef565b81010380845201826109da565b5190206040519182019260ff60f81b84526001600160601b03193060601b1660218401526035830152605582015260558152611526816109be565b5190206001600160a01b031690565b908060209392818452848401376000828201840152601f01601f1916010190565b95906110bc9360ff956080979461158a939b9a9b8a5260018060a01b031660208a015260a060408a015260a0890191611535565b918683036060880152611535565b6001600160a01b03909116815260406020820181905261039892910190610312565b909495919392956040519260208401846115ee898684909160349282526001600160601b03199060601b1660208201520190565b0394611602601f19968781018352826109da565b51902060405161034d80820182811067ffffffffffffffff8211176109b95782916116ef833903906000f59182156102c4576003546001600160a01b03938416996116769761166a95909216986040519a8b9762cf530960e01b60208a015260248901611556565b039081018452836109da565b823b1561013d5760405163c0d91eaf60e01b815291600091839182916116a0919060048401611598565b038183865af180156102c4576116db575b506001600160a01b038116600090815260046020526040902061039890805460ff19166001179055565b806102be6116e8926109a5565b386116b156fe6080806040523461001657610331908161001c8239f35b600080fdfe60806040526004361061010f576000803560e01c63c0d91eaf14610023575061010f565b346100af5760403660031901126100af576004356001600160a01b03811681036100a75760243567ffffffffffffffff81116100ab57366023820112156100ab578060040135918361007c610077856100f3565b6100c8565b9284845236602486830101116100a757846100a495602460209301838701378401015261015b565b80f35b5080fd5b8280fd5b80fd5b634e487b7160e01b600052604160045260246000fd5b6040519190601f01601f1916820167ffffffffffffffff8111838210176100ee57604052565b6100b2565b67ffffffffffffffff81116100ee57601f01601f191660200190565b7f360894a13ba1a3210667c828492db98dca3e2076cc3735a920a3ca505d382bbc54600090819081906001600160a01b0316368280378136915af43d82803e15610157573d90f35b3d90fd5b9060005460ff81166102295760ff1916600117600055813b15610208577f360894a13ba1a3210667c828492db98dca3e2076cc3735a920a3ca505d382bbc80546001600160a01b0319166001600160a01b0384169081179091557fbc7cd75a20ee27fd9adebab32041f755214dbc6bffa90cc0225b39da2e5c2d3b600080a28051156101ed576101ea9161025d565b50565b5050346101f657565b60405163b398979f60e01b8152600490fd5b604051634c9c8ce360e01b81526001600160a01b0383166004820152602490fd5b60405162461bcd60e51b815260206004820152600c60248201526b616c7265616479496e69742160a01b6044820152606490fd5b60008061029193602081519101845af43d15610294573d91610281610077846100f3565b9283523d6000602085013e610298565b90565b6060915b906102bf57508051156102ad57805190602001fd5b604051630a12f52160e11b8152600490fd5b815115806102f2575b6102d0575090565b604051639996b31560e01b81526001600160a01b039091166004820152602490fd5b50803b156102c856fea264697066735822122039fb6cd7f494f168bc233ff122a1bccf5e454e013b46d5bde558049c71f1f78a64736f6c63430008140033a26469706673582212204390417a91716901e0e53252cdf4a2dfd28c5be6cafdef03d71b82659b7d496964736f6c63430008140033608080604052346100165761168e908161001c8239f35b600080fdfe6080604052600436101561001257600080fd5b60003560e01c8062cf5309146108ca57806306fdde0314610827578063095ea7b3146107a65780630e7c1cb51461077d57806318160ddd1461074057806323b872dd14610671578063313ce5671461064d57806340c10f191461056b57806352694c6b1461054f57806353638be51461053157806370a08231146104ea578063715018a6146104805780638da5cb5b1461044a57806395d89b411461037c578063989ee11a146103085780639dc29fac146101ff578063a9059cbb146101ce578063ab1a63cd146101af578063dd62ed3e14610166578063e8cfdce9146101325763f2fde38b1461010257600080fd5b3461012d57602036600319011261012d5761012b61011e6110ee565b610126611367565b6113a0565b005b600080fd5b3461012d57600036600319011261012d5761016261014e6112e0565b6040519182916020835260208301906111a0565b0390f35b3461012d57604036600319011261012d5761017f6110ee565b61019061018a6110d8565b91611414565b9060018060a01b03166000526020526020604060002054604051908152f35b3461012d5761012b6101c0366111c5565b916101c9611367565b61144d565b3461012d57604036600319011261012d576101f46101ea6110ee565b602435903361144d565b602060405160018152f35b3461012d57604036600319011261012d576102186110ee565b602435610223611367565b6001600160a01b0382169081156102ef57816000526000805160206115b983398151915280602052604060002054938285106102be5750817fddf252ad1be2c89b69c2b068fc378daa952ba7f163c4a11628f55a4df523b3ef9260009560209386885284520360408620557f52c63247e1f47db19d5ce0460030c497f067ca4cebf71ba98eeadabe20bace02818154039055604051908152a3005b60405163391434e360e21b81526001600160a01b039190911660048201526024810185905260448101839052606490fd5b604051634b637e8f60e11b815260006004820152602490fd5b3461012d57600036600319011261012d5760005460015490610328611234565b9160ff61036e6103366112e0565b610360604051968796875260018060a01b038616602088015260a0604088015260a08701906111a0565b9085820360608701526111a0565b9160a01c1660808301520390f35b3461012d57600036600319011261012d5760405160006000805160206115d983398151915280546103ac816111fa565b8085529160019180831690811561042057506001146103d6575b6101628561014e81870382611104565b600090815292506000805160206116198339815191525b82841061040857505050810160200161014e826101626103c6565b805460208587018101919091529093019281016103ed565b8695506101629693506020925061014e94915060ff191682840152151560051b82010192936103c6565b3461012d57600036600319011261012d576000805160206115f9833981519152546040516001600160a01b039091168152602090f35b3461012d57600036600319011261012d57610499611367565b6000805160206115f983398151915280546001600160a01b031981169091556000906001600160a01b03167f8be0079c531659141344cd1fd0a4f28419497f9722a3daafe3b4186f6b6457e08280a3005b3461012d57602036600319011261012d576001600160a01b0361050b6110ee565b166000526000805160206115b98339815191526020526020604060002054604051908152f35b3461012d57600036600319011261012d576020600054604051908152f35b3461012d57600036600319011261012d5761016261014e611234565b3461012d57604036600319011261012d576105846110ee565b60243590610590611367565b6001600160a01b0316908115610634577f52c63247e1f47db19d5ce0460030c497f067ca4cebf71ba98eeadabe20bace0280549082820180921161061e576000927fddf252ad1be2c89b69c2b068fc378daa952ba7f163c4a11628f55a4df523b3ef92602092558484526000805160206115b9833981519152825260408420818154019055604051908152a3005b634e487b7160e01b600052601160045260246000fd5b60405163ec442f0560e01b815260006004820152602490fd5b3461012d57600036600319011261012d57602060ff60015460a01c16604051908152f35b3461012d5761067f366111c5565b9061068983611414565b336000526020526040600020549260001984036106ab575b6101f4935061144d565b82841061071a576001600160a01b038116156107015733156106e857826101f4946106d583611414565b33600052602052036040600020556106a1565b604051634a1406b160e11b815260006004820152602490fd5b60405163e602df0560e01b815260006004820152602490fd5b604051637dc7a0d960e11b81523360048201526024810185905260448101849052606490fd5b3461012d57600036600319011261012d5760207f52c63247e1f47db19d5ce0460030c497f067ca4cebf71ba98eeadabe20bace0254604051908152f35b3461012d57600036600319011261012d576001546040516001600160a01b039091168152602090f35b3461012d57604036600319011261012d576107bf6110ee565b602435903315610701576001600160a01b03169081156106e8576107e233611414565b82600052602052806040600020556040519081527f8c5be1e5ebec7d5bd14f71427d1e84f3dd0314c0f7b2291e5b200ac8c7c3b92560203392a3602060405160018152f35b3461012d57600036600319011261012d5760405160006000805160206115998339815191528054610857816111fa565b808552916001918083169081156104205750600114610880576101628561014e81870382611104565b600090815292506000805160206115398339815191525b8284106108b257505050810160200161014e826101626103c6565b80546020858701810191909152909301928101610897565b3461012d5760a036600319011261012d576108e36110d8565b60443567ffffffffffffffff811161012d57610903903690600401611126565b9060643567ffffffffffffffff811161012d57610924903690600401611126565b9060ff608435166084350361012d57600080516020611639833981519152549067ffffffffffffffff8216801590816110c8575b60011490816110be575b1590816110b5575b506110a357600167ffffffffffffffff198316176000805160206116398339815191525560ff8260401c1615611076575b604051607960f81b908160208201526109d260218288516109c28184840160208d0161117d565b8101036001810184520182611104565b604051916020830152610a0360218387516109f38184840160208c0161117d565b8101036001810185520183611104565b610a0b611509565b610a13611509565b80519067ffffffffffffffff8211610d3a578190610a3f600080516020611599833981519152546111fa565b601f8111610ff5575b50602090601f8311600114610f6357600092610f58575b50508160011b916000199060031b1c191617600080516020611599833981519152555b80519067ffffffffffffffff8211610d3a578190610aae6000805160206115d9833981519152546111fa565b601f8111610ed7575b50602090601f8311600114610e4557600092610e3a575b50508160011b916000199060031b1c1916176000805160206115d9833981519152555b610af9611509565b610b01611509565b610b0a336113a0565b835167ffffffffffffffff8111610d3a57610b266002546111fa565b601f8111610dcd575b50602094601f8211600114610d5b57948192939495600092610d50575b50508160011b916000199060031b1c1916176002555b82519267ffffffffffffffff8411610d3a57610b7f6003546111fa565b601f8111610ccd575b50602090601f8511600114610c575760ff949160009183610c4c575b50508160011b916000199060031b1c1916176003555b600435600055600180546001600160a81b0319166001600160a01b0390921691909117608435841660a01b17905560401c1615610bf357005b68ff0000000000000000196000805160206116398339815191525416600080516020611639833981519152557fc7f505b2f371ae2175ee4913f4499e1f2633a7b5936321eed1cdaeb6115181d2602060405160018152a1005b015190508580610ba4565b90601f1985169160036000526000805160206115798339815191529260005b818110610cb5575091600193918760ff989410610c9c575b505050811b01600355610bba565b015160001960f88460031b161c19169055858080610c8e565b92936020600181928786015181550195019301610c76565b6003600052601f850160051c600080516020611579833981519152019060208610610d24575b601f0160051c60008051602061157983398151915201905b818110610d185750610b88565b60008155600101610d0b565b6000805160206115798339815191529150610cf3565b634e487b7160e01b600052604160045260246000fd5b015190508580610b4c565b601f1982169560026000526000805160206115598339815191529160005b888110610db557508360019596979810610d9c575b505050811b01600255610b62565b015160001960f88460031b161c19169055858080610d8e565b91926020600181928685015181550194019201610d79565b6002600052601f820160051c600080516020611559833981519152019060208310610e24575b601f0160051c60008051602061155983398151915201905b818110610e185750610b2f565b60008155600101610e0b565b6000805160206115598339815191529150610df3565b015190508680610ace565b92506000805160206115d9833981519152600052600080516020611619833981519152906000935b601f1984168510610ebc576001945083601f19811610610ea3575b505050811b016000805160206115d983398151915255610af1565b015160001960f88460031b161c19169055868080610e88565b81810151835560209485019460019093019290910190610e6d565b9091506000805160206115d9833981519152600052601f830160051c6000805160206116198339815191520160208410610f43575b908392915b601f820160051c600080516020611619833981519152018110610f345750610ab7565b60008155849350600101610f11565b50600080516020611619833981519152610f0c565b015190508780610a5f565b9250600080516020611599833981519152600052600080516020611539833981519152906000935b601f1984168510610fda576001945083601f19811610610fc1575b505050811b0160008051602061159983398151915255610a82565b015160001960f88460031b161c19169055878080610fa6565b81810151835560209485019460019093019290910190610f8b565b909150600080516020611599833981519152600052601f830160051c6000805160206115398339815191520160208410611061575b908392915b601f820160051c6000805160206115398339815191520181106110525750610a48565b6000815584935060010161102f565b5060008051602061153983398151915261102a565b68ffffffffffffffffff19821668010000000000000001176000805160206116398339815191525561099b565b60405163f92ee8a960e01b8152600490fd5b9050158561096a565b303b159150610962565b604084901c60ff16159150610958565b602435906001600160a01b038216820361012d57565b600435906001600160a01b038216820361012d57565b90601f8019910116810190811067ffffffffffffffff821117610d3a57604052565b81601f8201121561012d5780359067ffffffffffffffff8211610d3a576040519261115b601f8401601f191660200185611104565b8284526020838301011161012d57816000926020809301838601378301015290565b60005b8381106111905750506000910152565b8181015183820152602001611180565b906020916111b98151809281855285808601910161117d565b601f01601f1916010190565b606090600319011261012d576001600160a01b0390600435828116810361012d5791602435908116810361012d579060443590565b90600182811c9216801561122a575b602083101461121457565b634e487b7160e01b600052602260045260246000fd5b91607f1691611209565b6040519060008260025491611248836111fa565b808352926001908181169081156112be5750600114611271575b5061126f92500383611104565b565b6002600090815291506000805160206115598339815191525b8483106112a3575061126f935050810160200138611262565b81935090816020925483858a0101520191019091859261128a565b90506020925061126f94915060ff191682840152151560051b82010138611262565b60405190600082600354916112f4836111fa565b808352926001908181169081156112be575060011461131a575061126f92500383611104565b6003600090815291506000805160206115798339815191525b84831061134c575061126f935050810160200138611262565b81935090816020925483858a01015201910190918592611333565b6000805160206115f9833981519152546001600160a01b0316330361138857565b60405163118cdaa760e01b8152336004820152602490fd5b6001600160a01b039081169081156113fb576000805160206115f983398151915280546001600160a01b031981168417909155167f8be0079c531659141344cd1fd0a4f28419497f9722a3daafe3b4186f6b6457e0600080a3565b604051631e4fbdf760e01b815260006004820152602490fd5b6001600160a01b031660009081527f52c63247e1f47db19d5ce0460030c497f067ca4cebf71ba98eeadabe20bace016020526040902090565b916001600160a01b038084169283156102ef5716928315610634576000908382526000805160206115b9833981519152806020526040832054918483106114d6575082847fddf252ad1be2c89b69c2b068fc378daa952ba7f163c4a11628f55a4df523b3ef959360409388602097528652038282205586815220818154019055604051908152a3565b60405163391434e360e21b81526001600160a01b0391909116600482015260248101929092525060448101839052606490fd5b60ff6000805160206116398339815191525460401c161561152657565b604051631afcd79f60e31b8152600490fdfe2ae08a8e29253f69ac5d979a101956ab8f8d9d7ded63fa7a83b16fc47648eab0405787fa12a823e0f2b7631cc41b3ba8828b3321ca811111fa75cd3aa3bb5acec2575a0e9e593c00f959f8c92f12db2869c3395a3b0502d05e2516446f71f85b52c63247e1f47db19d5ce0460030c497f067ca4cebf71ba98eeadabe20bace0352c63247e1f47db19d5ce0460030c497f067ca4cebf71ba98eeadabe20bace0052c63247e1f47db19d5ce0460030c497f067ca4cebf71ba98eeadabe20bace049016d09d72d40fdae2fd8ceac6b6234c7706214fd39c1cd1e609a0528c19930046a2803e59a4de4e7a4c574b1243f25977ac4c77d5a1a4a609b5394cebb4a2aaf0c57e16840df040f15088dc2f81fe391c3923bec73e23a9662efc9c229c6a00a264697066735822122079ac43397602a85c5983e71d54a4c47cbb1f5f20deedfba6e03c73c7e4c8d08f64736f6c63430008140033",
  "devdoc": {
    "errors": {
      "AddressEmptyCode(address)": [
        {
          "details": "There's no code at `target` (it is not a contract)."
        }
      ],
      "AddressInsufficientBalance(address)": [
        {
          "details": "The ETH balance of the account is not enough to perform the operation."
        }
      ],
      "FailedInnerCall()": [
        {
          "details": "A call to an address target failed. The target may have reverted."
        }
      ],
      "SafeERC20FailedOperation(address)": [
        {
          "details": "An operation with an ERC20 token failed."
        }
      ]
    },
    "kind": "dev",
    "methods": {},
    "version": 1
  },
  "userdoc": {
    "kind": "user",
    "methods": {},
    "version": 1
  },
  "storageLayout": {
    "storage": [
      {
        "astId": 6695,
        "contract": "contracts/apps/bridge20/YarBridge20.sol:YarBridge20",
        "label": "owner",
        "offset": 0,
        "slot": "0",
        "type": "t_address"
      },
      {
        "astId": 6697,
        "contract": "contracts/apps/bridge20/YarBridge20.sol:YarBridge20",
        "label": "yarRequest",
        "offset": 0,
        "slot": "1",
        "type": "t_address"
      },
      {
        "astId": 6699,
        "contract": "contracts/apps/bridge20/YarBridge20.sol:YarBridge20",
        "label": "yarResponse",
        "offset": 0,
        "slot": "2",
        "type": "t_address"
      },
      {
        "astId": 6701,
        "contract": "contracts/apps/bridge20/YarBridge20.sol:YarBridge20",
        "label": "bridgedTokenImplementation",
        "offset": 0,
        "slot": "3",
        "type": "t_address"
      },
      {
        "astId": 6705,
        "contract": "contracts/apps/bridge20/YarBridge20.sol:YarBridge20",
        "label": "isBridgedToken",
        "offset": 0,
        "slot": "4",
        "type": "t_mapping(t_address,t_bool)"
      },
      {
        "astId": 6707,
        "contract": "contracts/apps/bridge20/YarBridge20.sol:YarBridge20",
        "label": "chainId",
        "offset": 0,
        "slot": "5",
        "type": "t_uint256"
      },
      {
        "astId": 6711,
        "contract": "contracts/apps/bridge20/YarBridge20.sol:YarBridge20",
        "label": "peers",
        "offset": 0,
        "slot": "6",
        "type": "t_mapping(t_uint256,t_address)"
      },
      {
        "astId": 6713,
        "contract": "contracts/apps/bridge20/YarBridge20.sol:YarBridge20",
        "label": "nativeName",
        "offset": 0,
        "slot": "7",
        "type": "t_string_storage"
      },
      {
        "astId": 6715,
        "contract": "contracts/apps/bridge20/YarBridge20.sol:YarBridge20",
        "label": "nativeSymbol",
        "offset": 0,
        "slot": "8",
        "type": "t_string_storage"
      },
      {
        "astId": 6717,
        "contract": "contracts/apps/bridge20/YarBridge20.sol:YarBridge20",
        "label": "nativeDecimals",
        "offset": 0,
        "slot": "9",
        "type": "t_uint8"
      }
    ],
    "types": {
      "t_address": {
        "encoding": "inplace",
        "label": "address",
        "numberOfBytes": "20"
      },
      "t_bool": {
        "encoding": "inplace",
        "label": "bool",
        "numberOfBytes": "1"
      },
      "t_mapping(t_address,t_bool)": {
        "encoding": "mapping",
        "key": "t_address",
        "label": "mapping(address => bool)",
        "numberOfBytes": "32",
        "value": "t_bool"
      },
      "t_mapping(t_uint256,t_address)": {
        "encoding": "mapping",
        "key": "t_uint256",
        "label": "mapping(uint256 => address)",
        "numberOfBytes": "32",
        "value": "t_address"
      },
      "t_string_storage": {
        "encoding": "bytes",
        "label": "string",
        "numberOfBytes": "32"
      },
      "t_uint256": {
        "encoding": "inplace",
        "label": "uint256",
        "numberOfBytes": "32"
      },
      "t_uint8": {
        "encoding": "inplace",
        "label": "uint8",
        "numberOfBytes": "1"
      }
    }
  }
}