{
  "address": "0x88F668aB482d58e1814901Ffc7AE35e260305F18",
  "abi": [
    {
      "inputs": [
        {
          "internalType": "address",
          "name": "initialRelayer",
          "type": "address"
        }
      ],
      "stateMutability": "nonpayable",
      "type": "constructor"
    },
    {
      "anonymous": false,
      "inputs": [
        {
          "indexed": false,
          "internalType": "address",
          "name": "account",
          "type": "address"
        },
        {
          "indexed": false,
          "internalType": "uint256",
          "name": "intiailChainId",
          "type": "uint256"
        },
        {
          "indexed": false,
          "internalType": "address",
          "name": "spender",
          "type": "address"
        },
        {
          "indexed": false,
          "internalType": "uint256",
          "name": "amount",
          "type": "uint256"
        }
      ],
      "name": "Approve",
      "type": "event"
    },
    {
      "anonymous": false,
      "inputs": [
        {
          "components": [
            {
              "internalType": "uint256",
              "name": "initialChainId",
              "type": "uint256"
            },
            {
              "internalType": "address",
              "name": "sender",
              "type": "address"
            },
            {
              "internalType": "address",
              "name": "payer",
              "type": "address"
            },
            {
              "internalType": "uint256",
              "name": "targetChainId",
              "type": "uint256"
            },
            {
              "internalType": "address",
              "name": "target",
              "type": "address"
            },
            {
              "internalType": "uint256",
              "name": "value",
              "type": "uint256"
            },
            {
              "internalType": "bytes",
              "name": "data",
              "type": "bytes"
            }
          ],
          "indexed": false,
          "internalType": "struct YarLib.YarTX",
          "name": "yarTx",
          "type": "tuple"
        },
        {
          "indexed": false,
          "internalType": "bytes32",
          "name": "yarTxHash",
          "type": "bytes32"
        },
        {
          "indexed": false,
          "internalType": "enum YarHub.TxStatus",
          "name": "status",
          "type": "uint8"
        },
        {
          "indexed": false,
          "internalType": "uint256",
          "name": "usedFees",
          "type": "uint256"
        },
        {
          "indexed": false,
          "internalType": "uint256",
          "name": "feesToReturn",
          "type": "uint256"
        }
      ],
      "name": "CommitTransaction",
      "type": "event"
    },
    {
      "anonymous": false,
      "inputs": [
        {
          "components": [
            {
              "internalType": "uint256",
              "name": "initialChainId",
              "type": "uint256"
            },
            {
              "internalType": "address",
              "name": "sender",
              "type": "address"
            },
            {
              "internalType": "address",
              "name": "payer",
              "type": "address"
            },
            {
              "internalType": "uint256",
              "name": "targetChainId",
              "type": "uint256"
            },
            {
              "internalType": "address",
              "name": "target",
              "type": "address"
            },
            {
              "internalType": "uint256",
              "name": "value",
              "type": "uint256"
            },
            {
              "internalType": "bytes",
              "name": "data",
              "type": "bytes"
            }
          ],
          "indexed": false,
          "internalType": "struct YarLib.YarTX",
          "name": "yarTx",
          "type": "tuple"
        },
        {
          "indexed": false,
          "internalType": "bytes32",
          "name": "yarTxHash",
          "type": "bytes32"
        }
      ],
      "name": "CreateTransaction",
      "type": "event"
    },
    {
      "anonymous": false,
      "inputs": [
        {
          "indexed": false,
          "internalType": "address",
          "name": "account",
          "type": "address"
        },
        {
          "indexed": false,
          "internalType": "uint256",
          "name": "amount",
          "type": "uint256"
        }
      ],
      "name": "Deposit",
      "type": "event"
    },
    {
      "anonymous": false,
      "inputs": [
        {
          "components": [
            {
              "internalType": "uint256",
              "name": "initialChainId",
              "type": "uint256"
            },
            {
              "internalType": "address",
              "name": "sender",
              "type": "address"
            },
            {
              "internalType": "address",
              "name": "payer",
              "type": "address"
            },
            {
              "internalType": "uint256",
              "name": "targetChainId",
              "type": "uint256"
            },
            {
              "internalType": "address",
              "name": "target",
              "type": "address"
            },
            {
              "internalType": "uint256",
              "name": "value",
              "type": "uint256"
            },
            {
              "internalType": "bytes",
              "name": "data",
              "type": "bytes"
            }
          ],
          "indexed": false,
          "internalType": "struct YarLib.YarTX",
          "name": "yarTx",
          "type": "tuple"
        },
        {
          "indexed": false,
          "internalType": "bytes32",
          "name": "yarTxHash",
          "type": "bytes32"
        }
      ],
      "name": "ExecuteTransaction",
      "type": "event"
    },
    {
      "inputs": [
        {
          "internalType": "address",
          "name": "account",
          "type": "address"
        },
        {
          "internalType": "uint256",
          "name": "chainId",
          "type": "uint256"
        },
        {
          "internalType": "address",
          "name": "spender",
          "type": "address"
        }
      ],
      "name": "allowance",
      "outputs": [
        {
          "internalType": "uint256",
          "name": "amount",
          "type": "uint256"
        }
      ],
      "stateMutability": "view",
      "type": "function"
    },
    {
      "inputs": [
        {
          "internalType": "address",
          "name": "account",
          "type": "address"
        },
        {
          "internalType": "uint256",
          "name": "intiailChainId",
          "type": "uint256"
        },
        {
          "internalType": "address",
          "name": "spender",
          "type": "address"
        },
        {
          "internalType": "uint256",
          "name": "amount",
          "type": "uint256"
        }
      ],
      "name": "approve",
      "outputs": [],
      "stateMutability": "nonpayable",
      "type": "function"
    },
    {
      "inputs": [
        {
          "components": [
            {
              "internalType": "uint256",
              "name": "initialChainId",
              "type": "uint256"
            },
            {
              "internalType": "address",
              "name": "sender",
              "type": "address"
            },
            {
              "internalType": "address",
              "name": "payer",
              "type": "address"
            },
            {
              "internalType": "uint256",
              "name": "targetChainId",
              "type": "uint256"
            },
            {
              "internalType": "address",
              "name": "target",
              "type": "address"
            },
            {
              "internalType": "uint256",
              "name": "value",
              "type": "uint256"
            },
            {
              "internalType": "bytes",
              "name": "data",
              "type": "bytes"
            }
          ],
          "internalType": "struct YarLib.YarTX",
          "name": "yarTX",
          "type": "tuple"
        },
        {
          "internalType": "bytes32",
          "name": "targetTxHash",
          "type": "bytes32"
        },
        {
          "internalType": "uint256",
          "name": "usedFees",
          "type": "uint256"
        }
      ],
      "name": "completeTransaction",
      "outputs": [],
      "stateMutability": "nonpayable",
      "type": "function"
    },
    {
      "inputs": [
        {
          "components": [
            {
              "internalType": "uint256",
              "name": "initialChainId",
              "type": "uint256"
            },
            {
              "internalType": "address",
              "name": "sender",
              "type": "address"
            },
            {
              "internalType": "address",
              "name": "payer",
              "type": "address"
            },
            {
              "internalType": "uint256",
              "name": "targetChainId",
              "type": "uint256"
            },
            {
              "internalType": "address",
              "name": "target",
              "type": "address"
            },
            {
              "internalType": "uint256",
              "name": "value",
              "type": "uint256"
            },
            {
              "internalType": "bytes",
              "name": "data",
              "type": "bytes"
            }
          ],
          "internalType": "struct YarLib.YarTX",
          "name": "yarTX",
          "type": "tuple"
        },
        {
          "internalType": "bytes32",
          "name": "initialTxHash",
          "type": "bytes32"
        }
      ],
      "name": "createTransaction",
      "outputs": [],
      "stateMutability": "nonpayable",
      "type": "function"
    },
    {
      "inputs": [
        {
          "internalType": "address",
          "name": "account",
          "type": "address"
        },
        {
          "internalType": "uint256",
          "name": "feeTokenAmount",
          "type": "uint256"
        }
      ],
      "name": "deposit",
      "outputs": [],
      "stateMutability": "nonpayable",
      "type": "function"
    },
    {
      "inputs": [
        {
          "internalType": "address",
          "name": "account",
          "type": "address"
        }
      ],
      "name": "deposits",
      "outputs": [
        {
          "internalType": "uint256",
          "name": "feeTokenAmount",
          "type": "uint256"
        }
      ],
      "stateMutability": "view",
      "type": "function"
    },
    {
      "inputs": [
        {
          "components": [
            {
              "internalType": "uint256",
              "name": "initialChainId",
              "type": "uint256"
            },
            {
              "internalType": "address",
              "name": "sender",
              "type": "address"
            },
            {
              "internalType": "address",
              "name": "payer",
              "type": "address"
            },
            {
              "internalType": "uint256",
              "name": "targetChainId",
              "type": "uint256"
            },
            {
              "internalType": "address",
              "name": "target",
              "type": "address"
            },
            {
              "internalType": "uint256",
              "name": "value",
              "type": "uint256"
            },
            {
              "internalType": "bytes",
              "name": "data",
              "type": "bytes"
            }
          ],
          "internalType": "struct YarLib.YarTX",
          "name": "yarTX",
          "type": "tuple"
        },
        {
          "internalType": "uint256",
          "name": "feeTokensToLock",
          "type": "uint256"
        }
      ],
      "name": "executeTransaction",
      "outputs": [],
      "stateMutability": "nonpayable",
      "type": "function"
    },
    {
      "inputs": [
        {
          "components": [
            {
              "internalType": "uint256",
              "name": "initialChainId",
              "type": "uint256"
            },
            {
              "internalType": "address",
              "name": "sender",
              "type": "address"
            },
            {
              "internalType": "address",
              "name": "payer",
              "type": "address"
            },
            {
              "internalType": "uint256",
              "name": "targetChainId",
              "type": "uint256"
            },
            {
              "internalType": "address",
              "name": "target",
              "type": "address"
            },
            {
              "internalType": "uint256",
              "name": "value",
              "type": "uint256"
            },
            {
              "internalType": "bytes",
              "name": "data",
              "type": "bytes"
            }
          ],
          "internalType": "struct YarLib.YarTX",
          "name": "yarTX",
          "type": "tuple"
        }
      ],
      "name": "getYarTxHash",
      "outputs": [
        {
          "internalType": "bytes32",
          "name": "",
          "type": "bytes32"
        }
      ],
      "stateMutability": "pure",
      "type": "function"
    },
    {
      "inputs": [
        {
          "components": [
            {
              "internalType": "uint256",
              "name": "initialChainId",
              "type": "uint256"
            },
            {
              "internalType": "address",
              "name": "sender",
              "type": "address"
            },
            {
              "internalType": "address",
              "name": "payer",
              "type": "address"
            },
            {
              "internalType": "uint256",
              "name": "targetChainId",
              "type": "uint256"
            },
            {
              "internalType": "address",
              "name": "target",
              "type": "address"
            },
            {
              "internalType": "uint256",
              "name": "value",
              "type": "uint256"
            },
            {
              "internalType": "bytes",
              "name": "data",
              "type": "bytes"
            }
          ],
          "internalType": "struct YarLib.YarTX",
          "name": "yarTX",
          "type": "tuple"
        },
        {
          "internalType": "bytes32",
          "name": "targetTxHash",
          "type": "bytes32"
        },
        {
          "internalType": "uint256",
          "name": "usedFees",
          "type": "uint256"
        }
      ],
      "name": "rejectTransaction",
      "outputs": [],
      "stateMutability": "nonpayable",
      "type": "function"
    },
    {
      "inputs": [],
      "name": "relayer",
      "outputs": [
        {
          "internalType": "address",
          "name": "",
          "type": "address"
        }
      ],
      "stateMutability": "view",
      "type": "function"
    },
    {
      "inputs": [
        {
          "internalType": "uint256",
          "name": "amount",
          "type": "uint256"
        }
      ],
      "name": "withdraw",
      "outputs": [],
      "stateMutability": "nonpayable",
      "type": "function"
    },
    {
      "inputs": [
        {
          "internalType": "bytes32",
          "name": "yarTxHash",
          "type": "bytes32"
        }
      ],
      "name": "wrappedYarTXs",
      "outputs": [
        {
          "components": [
            {
              "internalType": "uint256",
              "name": "initialChainId",
              "type": "uint256"
            },
            {
              "internalType": "address",
              "name": "sender",
              "type": "address"
            },
            {
              "internalType": "address",
              "name": "payer",
              "type": "address"
            },
            {
              "internalType": "uint256",
              "name": "targetChainId",
              "type": "uint256"
            },
            {
              "internalType": "address",
              "name": "target",
              "type": "address"
            },
            {
              "internalType": "uint256",
              "name": "value",
              "type": "uint256"
            },
            {
              "internalType": "bytes",
              "name": "data",
              "type": "bytes"
            }
          ],
          "internalType": "struct YarLib.YarTX",
          "name": "yarTx",
          "type": "tuple"
        },
        {
          "internalType": "enum YarHub.TxStatus",
          "name": "status",
          "type": "uint8"
        },
        {
          "internalType": "uint256",
          "name": "lockedFees",
          "type": "uint256"
        },
        {
          "internalType": "uint256",
          "name": "usedFees",
          "type": "uint256"
        },
        {
          "internalType": "bytes32",
          "name": "initialTxHash",
          "type": "bytes32"
        },
        {
          "internalType": "bytes32",
          "name": "targetTxHash",
          "type": "bytes32"
        }
      ],
      "stateMutability": "view",
      "type": "function"
    }
  ],
  "transactionHash": "0x642d88ebdfcdceca77efbc36e3f63daea2d0aad79b94be5b9f70d6ed1a9a0ab1",
  "args": [
    "0x340afFe21AB391FE1C2C5AEBBB84BF5cF236205f"
  ],
  "numDeployments": 1,
  "solcInputHash": "f3e4b21b8717fdb49d82699a5d23a069",
  "bytecode": "0x60803461007457601f6113b438819003918201601f19168301916001600160401b038311848410176100795780849260209460405283398101031261007457516001600160a01b0381169081900361007457600080546001600160a01b03191691909117905560405161132490816100908239f35b600080fd5b634e487b7160e01b600052604160045260246000fdfe6080604052600436101561001257600080fd5b60003560e01c806309a36a99146100d757806329b7fc68146100d25780632d249440146100cd5780632e1a7d4d146100c857806347582759146100c357806347e7ef24146100be5780635ed64789146100b95780637eb2e835146100b45780638406c079146100af578063eab192d9146100aa578063f034ac50146100a55763fc7e286d146100a057600080fd5b610d29565b610ce6565b610ae6565b610abd565b610a01565b6108f9565b61086a565b6106ce565b6105fe565b610537565b61017d565b6100ff565b6001600160a01b038116036100ed57565b600080fd5b35906100fd826100dc565b565b346100ed5760603660031901126100ed576020610166600435610121816100dc565b6044359061012e826100dc565b60018060a01b0316600052600283526040600020602435600052835260406000209060018060a01b0316600052602052604060002090565b54604051908152f35b908160e09103126100ed5790565b346100ed576040806003193601126100ed5767ffffffffffffffff6004358181116100ed576101b090369060040161016f565b916000926101c860018060a01b038554163314610e63565b6101d181610e40565b9282516101dd8161032c565b60e0833603126102d8576101ef61042f565b9183358352610200602085016100f2565b60208401526102108585016100f2565b858401526060840135606084015261022a608085016100f2565b608084015260a084013560a084015260c08401359081116102d4577fd5eb87aa082afb468f4848a99e1dd822c8fd6b087c0c7dd1683154f1bc337359956102b79361027b6102b29336908801610f1b565b60c0820152835260016020840152878684015287606084015260243560808401528760a08401526000526001602052604060002090565b61109d565b6102ce6102c382610e40565b92519283928361115f565b0390a180f35b8680fd5b8580fd5b90600182811c9216801561030c575b60208310146102f657565b634e487b7160e01b600052602260045260246000fd5b91607f16916102eb565b634e487b7160e01b600052604160045260246000fd5b60c0810190811067ffffffffffffffff82111761034857604052565b610316565b60e0810190811067ffffffffffffffff82111761034857604052565b90601f8019910116810190811067ffffffffffffffff82111761034857604052565b906040519182600082549261039f846102dc565b90818452600194858116908160001461040c57506001146103c9575b50506100fd92500383610369565b9093915060005260209081600020936000915b8183106103f45750506100fd935082010138806103bb565b855488840185015294850194879450918301916103dc565b9150506100fd94506020925060ff191682840152151560051b82010138806103bb565b604051906100fd8261034d565b919082519283825260005b848110610468575050826000602080949584010152601f8019910116010190565b602081830181015184830182015201610447565b6005111561048657565b634e487b7160e01b600052602160045260246000fd5b9060058210156104865752565b9261052461051960c060a097949a9998959a8188528051828901526001808a1b038060208301511660e08a0152806040830151166101008a015260608201516101208a015260808201511661014089015288810151610160890152015160e06101808801526101a087019061043c565b98602086019061049c565b6040840152606083015260808201520152565b346100ed5760203660031901126100ed57600435600052600160205260406000206040516105648161034d565b8154815260018201546001600160a01b0316602082015260028201546001600160a01b031660408201526003820154606082015260048201546001600160a01b03166080820152600582015460a08201526105c16006830161038b565b60c08201526105fa6105d7600784015460ff1690565b926008810154906009810154600b600a83015492015492604051968796876104a9565b0390f35b346100ed5760203660031901126100ed5760043560009033825260036020528060408320541061066957336000908152600360205260409020829182918291829161064a828254610ec2565b9055335af1610657610eeb565b9015610661575080f35b602081519101fd5b60405162461bcd60e51b8152602060048201526007602482015266616d6f756e742160c81b6044820152606490fd5b60606003198201126100ed576004359067ffffffffffffffff82116100ed576106c39160040161016f565b906024359060443590565b346100ed577fd584e5e858892fe34d45ea2e5323b41f76fbd5698d419760dd3d35f404a10f7960086107f861085e61070536610698565b6000549095929491906107339061072c906001600160a01b03165b6001600160a01b031690565b3314610e63565b6040516020810190610757816107498985610e2f565b03601f198101835282610369565b5190209061079060026107816007610779866000526001602052604060002090565b015460ff1690565b61078a8161047c565b14611244565b6107b760076107a9846000526001602052604060002090565b01805460ff19166003179055565b8660096107ce846000526001602052604060002090565b0155600b6107e6836000526001602052604060002090565b01556000526001602052604060002090565b015483600091818111600014610863576108129250610ec2565b61083b610821604085016111ba565b6001600160a01b0316600090815260036020526040902090565b610846828254610eb5565b905561085183610e40565b9360405194859485611290565b0390a1005b5050610812565b346100ed5760403660031901126100ed57600435610887816100dc565b600054602435916001600160a01b03916108a49083163314610e63565b168060005260036020526040600020908154928084018094116108f4577fe1fffcc4923d04b559f4d29a8bfc6cda04eb5b0d3c460751c2402c5c5cc9109c936040935582519182526020820152a1005b610e9f565b346100ed577fd584e5e858892fe34d45ea2e5323b41f76fbd5698d419760dd3d35f404a10f7960086109ae61085e61093036610698565b60005490959294919061094f9061072c906001600160a01b0316610720565b6040516020810190610965816107498985610e2f565b5190209061098760026107816007610779866000526001602052604060002090565b6107b760076109a0846000526001602052604060002090565b01805460ff19166004179055565b0154836000918181116000146109fa576109c89250610ec2565b6109d7610821604085016111ba565b6109e2828254610eb5565b90556109ed83610e40565b93604051948594856112bf565b50506109c8565b346100ed5760803660031901126100ed57600435610a1e816100dc565b7fbdbc3a9424c1eba6e7ab27814f2dc9b66df2138a9912c0a89085e9967c105d716080602435604435610a50816100dc565b6064359060018060a01b039081600097610a6e828a54163314610e63565b169384885260026020526040882081895260205283610aa28360408b209060018060a01b0316600052602052604060002090565b5560405194855260208501521660408301526060820152a180f35b346100ed5760003660031901126100ed576000546040516001600160a01b039091168152602090f35b346100ed5760403660031901126100ed5760043567ffffffffffffffff81116100ed57610b387fc64c15b11484b860440156df40aac3464f466d7633fa03a3c6b942e92c2c225f91369060040161016f565b610c246007610c16602435610b5a61072c61072060005460018060a01b031690565b6040516020810190610b70816107498985610e2f565b51902090610ba06001610b9186610779866000526001602052604060002090565b610b9a8161047c565b1461117b565b610bf361082160408801610bc284610bba610821846111ba565b5410156111c4565b610bcb816111ba565b60208a0190610bdc610720836111ba565b6001600160a01b0390911603610c3d575b506111ba565b610bfe828254610ec2565b905560086107e6836000526001602052604060002090565b01805460ff19166002179055565b610c2d81610e40565b9061085e6040519283928361115f565b610cd390610c94610ccd8c610cb289610caa610c8b610c78610c5e8b6111ba565b6001600160a01b0316600090815260026020526040902090565b9435809590600052602052604060002090565b610c94886111ba565b60018060a01b0316600052602052604060002090565b541015611203565b610cbe610c5e876111ba565b90600052602052604060002090565b916111ba565b610cde858254610ec2565b905538610bed565b346100ed5760203660031901126100ed5760043567ffffffffffffffff81116100ed57610d21610d1c602092369060040161016f565b610e40565b604051908152f35b346100ed5760203660031901126100ed57600435610d46816100dc565b60018060a01b031660005260036020526020604060002054604051908152f35b908060209392818452848401376000828201840152601f01601f1916010190565b803582526020810135610d99816100dc565b6001600160a01b039081166020840152806040830135610db8816100dc565b166040840152606082013560608401526080820135610dd6816100dc565b16608083015260a081013560a083015260c0810135601e19823603018112156100ed57016020813591019067ffffffffffffffff81116100ed5780360382136100ed5760e0838160c0610e2c9601520191610d66565b90565b906020610e2c928181520190610d87565b604051610e5d816107496020820194602086526040830190610d87565b51902090565b15610e6a57565b60405162461bcd60e51b815260206004820152600d60248201526c6f6e6c792072656c617965722160981b6044820152606490fd5b634e487b7160e01b600052601160045260246000fd5b919082018092116108f457565b919082039182116108f457565b67ffffffffffffffff811161034857601f01601f191660200190565b3d15610f16573d90610efc82610ecf565b91610f0a6040519384610369565b82523d6000602084013e565b606090565b81601f820112156100ed57803590610f3282610ecf565b92610f406040519485610369565b828452602083830101116100ed57816000926020809301838601378301015290565b90601f8111610f7057505050565b600091825260208220906020601f850160051c83019410610fac575b601f0160051c01915b828110610fa157505050565b818155600101610f95565b9092508290610f8c565b919091825167ffffffffffffffff811161034857610fde81610fd884546102dc565b84610f62565b602080601f831160011461101a57508192939460009261100f575b50508160011b916000199060031b1c1916179055565b015190503880610ff9565b90601f1983169561103085600052602060002090565b926000905b88821061106d57505083600195969710611054575b505050811b019055565b015160001960f88460031b161c1916905538808061104a565b80600185968294968601518155019501930190611035565b9060058110156104865760ff80198354169116179055565b81518051825560208101516001830180546001600160a01b03199081166001600160a01b03938416179091556040830151600285018054831691841691909117905560608301516003850155608083015160048501805491909316911617905560a080820151600584015560c0909101519192600b926111209060068601610fb6565b61113a60208201516111318161047c565b60078601611085565b60408101516008850155606081015160098501556080810151600a8501550151910155565b929190611176602091604086526040860190610d87565b930152565b1561118257565b60405162461bcd60e51b815260206004820152601060248201526f6f6e6c792057616974466f725061792160801b6044820152606490fd5b35610e2c816100dc565b156111cb57565b60405162461bcd60e51b815260206004820152601060248201526f666565546f6b656e73546f4c6f636b2160801b6044820152606490fd5b1561120a57565b60405162461bcd60e51b81526020600482015260126024820152716465706f73697420616c6c6f77616e63652160701b6044820152606490fd5b1561124b57565b60405162461bcd60e51b815260206004820152601d60248201527f6f6e6c79206f6e2070726f67726573732063616e2075706461746564210000006044820152606490fd5b90926112a960809396959460a0845260a0840190610d87565b9560208301526003604083015260608201520152565b90926112d860809396959460a0845260a0840190610d87565b956020830152600460408301526060820152015256fea264697066735822122097bca87d9038b93b2ba3a54161695204930ad057960b2dbfbd8f61ab1b2a4ab564736f6c63430008140033",
  "devdoc": {
    "kind": "dev",
    "methods": {},
    "version": 1
  },
  "userdoc": {
    "kind": "user",
    "methods": {},
    "version": 1
  },
  "storageLayout": {
    "storage": [
      {
        "astId": 87,
        "contract": "contracts/YarHub.sol:YarHub",
        "label": "relayer",
        "offset": 0,
        "slot": "0",
        "type": "t_address"
      },
      {
        "astId": 113,
        "contract": "contracts/YarHub.sol:YarHub",
        "label": "wrappedYarTXs",
        "offset": 0,
        "slot": "1",
        "type": "t_mapping(t_bytes32,t_struct(WrappedYarTX)108_storage)"
      },
      {
        "astId": 165,
        "contract": "contracts/YarHub.sol:YarHub",
        "label": "allowance",
        "offset": 0,
        "slot": "2",
        "type": "t_mapping(t_address,t_mapping(t_uint256,t_mapping(t_address,t_uint256)))"
      },
      {
        "astId": 179,
        "contract": "contracts/YarHub.sol:YarHub",
        "label": "deposits",
        "offset": 0,
        "slot": "3",
        "type": "t_mapping(t_address,t_uint256)"
      }
    ],
    "types": {
      "t_address": {
        "encoding": "inplace",
        "label": "address",
        "numberOfBytes": "20"
      },
      "t_bytes32": {
        "encoding": "inplace",
        "label": "bytes32",
        "numberOfBytes": "32"
      },
      "t_bytes_storage": {
        "encoding": "bytes",
        "label": "bytes",
        "numberOfBytes": "32"
      },
      "t_enum(TxStatus)93": {
        "encoding": "inplace",
        "label": "enum YarHub.TxStatus",
        "numberOfBytes": "1"
      },
      "t_mapping(t_address,t_mapping(t_uint256,t_mapping(t_address,t_uint256)))": {
        "encoding": "mapping",
        "key": "t_address",
        "label": "mapping(address => mapping(uint256 => mapping(address => uint256)))",
        "numberOfBytes": "32",
        "value": "t_mapping(t_uint256,t_mapping(t_address,t_uint256))"
      },
      "t_mapping(t_address,t_uint256)": {
        "encoding": "mapping",
        "key": "t_address",
        "label": "mapping(address => uint256)",
        "numberOfBytes": "32",
        "value": "t_uint256"
      },
      "t_mapping(t_bytes32,t_struct(WrappedYarTX)108_storage)": {
        "encoding": "mapping",
        "key": "t_bytes32",
        "label": "mapping(bytes32 => struct YarHub.WrappedYarTX)",
        "numberOfBytes": "32",
        "value": "t_struct(WrappedYarTX)108_storage"
      },
      "t_mapping(t_uint256,t_mapping(t_address,t_uint256))": {
        "encoding": "mapping",
        "key": "t_uint256",
        "label": "mapping(uint256 => mapping(address => uint256))",
        "numberOfBytes": "32",
        "value": "t_mapping(t_address,t_uint256)"
      },
      "t_struct(WrappedYarTX)108_storage": {
        "encoding": "inplace",
        "label": "struct YarHub.WrappedYarTX",
        "members": [
          {
            "astId": 96,
            "contract": "contracts/YarHub.sol:YarHub",
            "label": "yarTx",
            "offset": 0,
            "slot": "0",
            "type": "t_struct(YarTX)613_storage"
          },
          {
            "astId": 99,
            "contract": "contracts/YarHub.sol:YarHub",
            "label": "status",
            "offset": 0,
            "slot": "7",
            "type": "t_enum(TxStatus)93"
          },
          {
            "astId": 101,
            "contract": "contracts/YarHub.sol:YarHub",
            "label": "lockedFees",
            "offset": 0,
            "slot": "8",
            "type": "t_uint256"
          },
          {
            "astId": 103,
            "contract": "contracts/YarHub.sol:YarHub",
            "label": "usedFees",
            "offset": 0,
            "slot": "9",
            "type": "t_uint256"
          },
          {
            "astId": 105,
            "contract": "contracts/YarHub.sol:YarHub",
            "label": "initialTxHash",
            "offset": 0,
            "slot": "10",
            "type": "t_bytes32"
          },
          {
            "astId": 107,
            "contract": "contracts/YarHub.sol:YarHub",
            "label": "targetTxHash",
            "offset": 0,
            "slot": "11",
            "type": "t_bytes32"
          }
        ],
        "numberOfBytes": "384"
      },
      "t_struct(YarTX)613_storage": {
        "encoding": "inplace",
        "label": "struct YarLib.YarTX",
        "members": [
          {
            "astId": 600,
            "contract": "contracts/YarHub.sol:YarHub",
            "label": "initialChainId",
            "offset": 0,
            "slot": "0",
            "type": "t_uint256"
          },
          {
            "astId": 602,
            "contract": "contracts/YarHub.sol:YarHub",
            "label": "sender",
            "offset": 0,
            "slot": "1",
            "type": "t_address"
          },
          {
            "astId": 604,
            "contract": "contracts/YarHub.sol:YarHub",
            "label": "payer",
            "offset": 0,
            "slot": "2",
            "type": "t_address"
          },
          {
            "astId": 606,
            "contract": "contracts/YarHub.sol:YarHub",
            "label": "targetChainId",
            "offset": 0,
            "slot": "3",
            "type": "t_uint256"
          },
          {
            "astId": 608,
            "contract": "contracts/YarHub.sol:YarHub",
            "label": "target",
            "offset": 0,
            "slot": "4",
            "type": "t_address"
          },
          {
            "astId": 610,
            "contract": "contracts/YarHub.sol:YarHub",
            "label": "value",
            "offset": 0,
            "slot": "5",
            "type": "t_uint256"
          },
          {
            "astId": 612,
            "contract": "contracts/YarHub.sol:YarHub",
            "label": "data",
            "offset": 0,
            "slot": "6",
            "type": "t_bytes_storage"
          }
        ],
        "numberOfBytes": "224"
      },
      "t_uint256": {
        "encoding": "inplace",
        "label": "uint256",
        "numberOfBytes": "32"
      }
    }
  }
}