{
  "address": "0xE9088D1C5197a126eE3a11911a98C8D554773Afa",
  "abi": [
    {
      "inputs": [
        {
          "internalType": "address",
          "name": "initialRelayer",
          "type": "address"
        }
      ],
      "stateMutability": "nonpayable",
      "type": "constructor"
    },
    {
      "anonymous": false,
      "inputs": [
        {
          "indexed": false,
          "internalType": "address",
          "name": "account",
          "type": "address"
        },
        {
          "indexed": false,
          "internalType": "uint256",
          "name": "intiailChainId",
          "type": "uint256"
        },
        {
          "indexed": false,
          "internalType": "address",
          "name": "spender",
          "type": "address"
        },
        {
          "indexed": false,
          "internalType": "uint256",
          "name": "amount",
          "type": "uint256"
        }
      ],
      "name": "Approve",
      "type": "event"
    },
    {
      "anonymous": false,
      "inputs": [
        {
          "components": [
            {
              "internalType": "uint256",
              "name": "initialChainId",
              "type": "uint256"
            },
            {
              "internalType": "address",
              "name": "sender",
              "type": "address"
            },
            {
              "internalType": "address",
              "name": "payer",
              "type": "address"
            },
            {
              "internalType": "uint256",
              "name": "targetChainId",
              "type": "uint256"
            },
            {
              "internalType": "address",
              "name": "target",
              "type": "address"
            },
            {
              "internalType": "uint256",
              "name": "value",
              "type": "uint256"
            },
            {
              "internalType": "bytes",
              "name": "data",
              "type": "bytes"
            }
          ],
          "indexed": false,
          "internalType": "struct YarLib.YarTX",
          "name": "yarTx",
          "type": "tuple"
        },
        {
          "indexed": false,
          "internalType": "enum YarHub.TxStatus",
          "name": "status",
          "type": "uint8"
        },
        {
          "indexed": false,
          "internalType": "uint256",
          "name": "usedFees",
          "type": "uint256"
        },
        {
          "indexed": false,
          "internalType": "uint256",
          "name": "feesToReturn",
          "type": "uint256"
        }
      ],
      "name": "CommitTransaction",
      "type": "event"
    },
    {
      "anonymous": false,
      "inputs": [
        {
          "components": [
            {
              "internalType": "uint256",
              "name": "initialChainId",
              "type": "uint256"
            },
            {
              "internalType": "address",
              "name": "sender",
              "type": "address"
            },
            {
              "internalType": "address",
              "name": "payer",
              "type": "address"
            },
            {
              "internalType": "uint256",
              "name": "targetChainId",
              "type": "uint256"
            },
            {
              "internalType": "address",
              "name": "target",
              "type": "address"
            },
            {
              "internalType": "uint256",
              "name": "value",
              "type": "uint256"
            },
            {
              "internalType": "bytes",
              "name": "data",
              "type": "bytes"
            }
          ],
          "indexed": false,
          "internalType": "struct YarLib.YarTX",
          "name": "yarTx",
          "type": "tuple"
        }
      ],
      "name": "CreateTransaction",
      "type": "event"
    },
    {
      "anonymous": false,
      "inputs": [
        {
          "indexed": false,
          "internalType": "address",
          "name": "account",
          "type": "address"
        },
        {
          "indexed": false,
          "internalType": "uint256",
          "name": "amount",
          "type": "uint256"
        }
      ],
      "name": "Deposit",
      "type": "event"
    },
    {
      "anonymous": false,
      "inputs": [
        {
          "components": [
            {
              "internalType": "uint256",
              "name": "initialChainId",
              "type": "uint256"
            },
            {
              "internalType": "address",
              "name": "sender",
              "type": "address"
            },
            {
              "internalType": "address",
              "name": "payer",
              "type": "address"
            },
            {
              "internalType": "uint256",
              "name": "targetChainId",
              "type": "uint256"
            },
            {
              "internalType": "address",
              "name": "target",
              "type": "address"
            },
            {
              "internalType": "uint256",
              "name": "value",
              "type": "uint256"
            },
            {
              "internalType": "bytes",
              "name": "data",
              "type": "bytes"
            }
          ],
          "indexed": false,
          "internalType": "struct YarLib.YarTX",
          "name": "yarTx",
          "type": "tuple"
        }
      ],
      "name": "ExecuteTransaction",
      "type": "event"
    },
    {
      "inputs": [
        {
          "internalType": "address",
          "name": "account",
          "type": "address"
        },
        {
          "internalType": "uint256",
          "name": "chainId",
          "type": "uint256"
        },
        {
          "internalType": "address",
          "name": "spender",
          "type": "address"
        }
      ],
      "name": "allowance",
      "outputs": [
        {
          "internalType": "uint256",
          "name": "amount",
          "type": "uint256"
        }
      ],
      "stateMutability": "view",
      "type": "function"
    },
    {
      "inputs": [
        {
          "internalType": "address",
          "name": "account",
          "type": "address"
        },
        {
          "internalType": "uint256",
          "name": "intiailChainId",
          "type": "uint256"
        },
        {
          "internalType": "address",
          "name": "spender",
          "type": "address"
        },
        {
          "internalType": "uint256",
          "name": "amount",
          "type": "uint256"
        }
      ],
      "name": "approve",
      "outputs": [],
      "stateMutability": "nonpayable",
      "type": "function"
    },
    {
      "inputs": [
        {
          "components": [
            {
              "internalType": "uint256",
              "name": "initialChainId",
              "type": "uint256"
            },
            {
              "internalType": "address",
              "name": "sender",
              "type": "address"
            },
            {
              "internalType": "address",
              "name": "payer",
              "type": "address"
            },
            {
              "internalType": "uint256",
              "name": "targetChainId",
              "type": "uint256"
            },
            {
              "internalType": "address",
              "name": "target",
              "type": "address"
            },
            {
              "internalType": "uint256",
              "name": "value",
              "type": "uint256"
            },
            {
              "internalType": "bytes",
              "name": "data",
              "type": "bytes"
            }
          ],
          "internalType": "struct YarLib.YarTX",
          "name": "yarTX",
          "type": "tuple"
        },
        {
          "internalType": "bytes32",
          "name": "targetTxHash",
          "type": "bytes32"
        },
        {
          "internalType": "uint256",
          "name": "usedFees",
          "type": "uint256"
        }
      ],
      "name": "completeTransaction",
      "outputs": [],
      "stateMutability": "nonpayable",
      "type": "function"
    },
    {
      "inputs": [
        {
          "components": [
            {
              "internalType": "uint256",
              "name": "initialChainId",
              "type": "uint256"
            },
            {
              "internalType": "address",
              "name": "sender",
              "type": "address"
            },
            {
              "internalType": "address",
              "name": "payer",
              "type": "address"
            },
            {
              "internalType": "uint256",
              "name": "targetChainId",
              "type": "uint256"
            },
            {
              "internalType": "address",
              "name": "target",
              "type": "address"
            },
            {
              "internalType": "uint256",
              "name": "value",
              "type": "uint256"
            },
            {
              "internalType": "bytes",
              "name": "data",
              "type": "bytes"
            }
          ],
          "internalType": "struct YarLib.YarTX",
          "name": "yarTX",
          "type": "tuple"
        },
        {
          "internalType": "bytes32",
          "name": "initialTxHash",
          "type": "bytes32"
        }
      ],
      "name": "createTransaction",
      "outputs": [],
      "stateMutability": "nonpayable",
      "type": "function"
    },
    {
      "inputs": [
        {
          "internalType": "address",
          "name": "account",
          "type": "address"
        },
        {
          "internalType": "uint256",
          "name": "feeTokenAmount",
          "type": "uint256"
        }
      ],
      "name": "deposit",
      "outputs": [],
      "stateMutability": "nonpayable",
      "type": "function"
    },
    {
      "inputs": [
        {
          "internalType": "address",
          "name": "account",
          "type": "address"
        }
      ],
      "name": "deposits",
      "outputs": [
        {
          "internalType": "uint256",
          "name": "feeTokenAmount",
          "type": "uint256"
        }
      ],
      "stateMutability": "view",
      "type": "function"
    },
    {
      "inputs": [
        {
          "components": [
            {
              "internalType": "uint256",
              "name": "initialChainId",
              "type": "uint256"
            },
            {
              "internalType": "address",
              "name": "sender",
              "type": "address"
            },
            {
              "internalType": "address",
              "name": "payer",
              "type": "address"
            },
            {
              "internalType": "uint256",
              "name": "targetChainId",
              "type": "uint256"
            },
            {
              "internalType": "address",
              "name": "target",
              "type": "address"
            },
            {
              "internalType": "uint256",
              "name": "value",
              "type": "uint256"
            },
            {
              "internalType": "bytes",
              "name": "data",
              "type": "bytes"
            }
          ],
          "internalType": "struct YarLib.YarTX",
          "name": "yarTX",
          "type": "tuple"
        },
        {
          "internalType": "uint256",
          "name": "feeTokensToLock",
          "type": "uint256"
        }
      ],
      "name": "executeTransaction",
      "outputs": [],
      "stateMutability": "nonpayable",
      "type": "function"
    },
    {
      "inputs": [
        {
          "components": [
            {
              "internalType": "uint256",
              "name": "initialChainId",
              "type": "uint256"
            },
            {
              "internalType": "address",
              "name": "sender",
              "type": "address"
            },
            {
              "internalType": "address",
              "name": "payer",
              "type": "address"
            },
            {
              "internalType": "uint256",
              "name": "targetChainId",
              "type": "uint256"
            },
            {
              "internalType": "address",
              "name": "target",
              "type": "address"
            },
            {
              "internalType": "uint256",
              "name": "value",
              "type": "uint256"
            },
            {
              "internalType": "bytes",
              "name": "data",
              "type": "bytes"
            }
          ],
          "internalType": "struct YarLib.YarTX",
          "name": "yarTX",
          "type": "tuple"
        },
        {
          "internalType": "bytes32",
          "name": "targetTxHash",
          "type": "bytes32"
        },
        {
          "internalType": "uint256",
          "name": "usedFees",
          "type": "uint256"
        }
      ],
      "name": "rejectTransaction",
      "outputs": [],
      "stateMutability": "nonpayable",
      "type": "function"
    },
    {
      "inputs": [],
      "name": "relayer",
      "outputs": [
        {
          "internalType": "address",
          "name": "",
          "type": "address"
        }
      ],
      "stateMutability": "view",
      "type": "function"
    },
    {
      "inputs": [
        {
          "internalType": "uint256",
          "name": "amount",
          "type": "uint256"
        }
      ],
      "name": "withdraw",
      "outputs": [],
      "stateMutability": "nonpayable",
      "type": "function"
    },
    {
      "inputs": [
        {
          "internalType": "bytes32",
          "name": "yarTxHash",
          "type": "bytes32"
        }
      ],
      "name": "wrappedYarTXs",
      "outputs": [
        {
          "components": [
            {
              "internalType": "uint256",
              "name": "initialChainId",
              "type": "uint256"
            },
            {
              "internalType": "address",
              "name": "sender",
              "type": "address"
            },
            {
              "internalType": "address",
              "name": "payer",
              "type": "address"
            },
            {
              "internalType": "uint256",
              "name": "targetChainId",
              "type": "uint256"
            },
            {
              "internalType": "address",
              "name": "target",
              "type": "address"
            },
            {
              "internalType": "uint256",
              "name": "value",
              "type": "uint256"
            },
            {
              "internalType": "bytes",
              "name": "data",
              "type": "bytes"
            }
          ],
          "internalType": "struct YarLib.YarTX",
          "name": "yarTx",
          "type": "tuple"
        },
        {
          "internalType": "enum YarHub.TxStatus",
          "name": "status",
          "type": "uint8"
        },
        {
          "internalType": "uint256",
          "name": "lockedFees",
          "type": "uint256"
        },
        {
          "internalType": "uint256",
          "name": "usedFees",
          "type": "uint256"
        },
        {
          "internalType": "bytes32",
          "name": "initialTxHash",
          "type": "bytes32"
        },
        {
          "internalType": "bytes32",
          "name": "targetTxHash",
          "type": "bytes32"
        }
      ],
      "stateMutability": "view",
      "type": "function"
    }
  ],
  "transactionHash": "0xc8c8875b6660fa369e4d420e23a916d88b91a07d988d87442ec4a502d29d608b",
  "args": [
    "0x340afFe21AB391FE1C2C5AEBBB84BF5cF236205f"
  ],
  "numDeployments": 1,
  "solcInputHash": "370ffb451f471bb96eb4e61d9803e1a6",
  "bytecode": "0x60803461007457601f61130538819003918201601f19168301916001600160401b038311848410176100795780849260209460405283398101031261007457516001600160a01b0381169081900361007457600080546001600160a01b03191691909117905560405161127590816100908239f35b600080fd5b634e487b7160e01b600052604160045260246000fdfe6080604052600436101561001257600080fd5b60003560e01c806309a36a99146100c757806329b7fc68146100c25780632d249440146100bd5780632e1a7d4d146100b857806347582759146100b357806347e7ef24146100ae5780635ed64789146100a95780637eb2e835146100a45780638406c0791461009f578063eab192d91461009a5763fc7e286d1461009557600080fd5b610c3f565b610a55565b610a2c565b610970565b610872565b6107e3565b61066e565b61059e565b6104d7565b61016d565b6100ef565b6001600160a01b038116036100dd57565b600080fd5b35906100ed826100cc565b565b346100dd5760603660031901126100dd576020610156600435610111816100cc565b6044359061011e826100cc565b60018060a01b0316600052600283526040600020602435600052835260406000209060018060a01b0316600052602052604060002090565b54604051908152f35b908160e09103126100dd5790565b346100dd5760403660031901126100dd5760043567ffffffffffffffff81116100dd5761019e90369060040161015f565b7f164fce2aed52d8fcfa006b23b8a9041dd75517a89487460b2f7972abbb64c42e6102726000926101ee6101e76101db865460018060a01b031690565b6001600160a01b031690565b3314610c7c565b6102666040516020810190610215816102078685610dfd565b03601f1981018352826102e9565b5190206102616102236103af565b9161022e3686610e55565b83526001602084015287604084015287606084015260243560808401528760a08401526000526001602052604060002090565b611016565b60405191829182610dfd565b0390a180f35b90600182811c921680156102a8575b602083101461029257565b634e487b7160e01b600052602260045260246000fd5b91607f1691610287565b634e487b7160e01b600052604160045260246000fd5b60e0810190811067ffffffffffffffff8211176102e457604052565b6102b2565b90601f8019910116810190811067ffffffffffffffff8211176102e457604052565b906040519182600082549261031f84610278565b90818452600194858116908160001461038c5750600114610349575b50506100ed925003836102e9565b9093915060005260209081600020936000915b8183106103745750506100ed9350820101388061033b565b8554888401850152948501948794509183019161035c565b9150506100ed94506020925060ff191682840152151560051b820101388061033b565b6040519060c0820182811067ffffffffffffffff8211176102e457604052565b604051906100ed826102c8565b919082519283825260005b848110610408575050826000602080949584010152601f8019910116010190565b6020818301810151848301820152016103e7565b6005111561042657565b634e487b7160e01b600052602160045260246000fd5b9060058210156104265752565b926104c46104b960c060a097949a9998959a8188528051828901526001808a1b038060208301511660e08a0152806040830151166101008a015260608201516101208a015260808201511661014089015288810151610160890152015160e06101808801526101a08701906103dc565b98602086019061043c565b6040840152606083015260808201520152565b346100dd5760203660031901126100dd5760043560005260016020526040600020604051610504816102c8565b8154815260018201546001600160a01b0316602082015260028201546001600160a01b031660408201526003820154606082015260048201546001600160a01b03166080820152600582015460a08201526105616006830161030b565b60c082015261059a610577600784015460ff1690565b926008810154906009810154600b600a8301549201549260405196879687610449565b0390f35b346100dd5760203660031901126100dd576004356000903382526003602052806040832054106106095733600090815260036020526040902082918291829182916105ea828254610cdb565b9055335af16105f7610d04565b9015610601575080f35b602081519101fd5b60405162461bcd60e51b8152602060048201526007602482015266616d6f756e742160c81b6044820152606490fd5b60606003198201126100dd576004359067ffffffffffffffff82116100dd576106639160040161015f565b906024359060443590565b346100dd577f12bfb8116d965685f740f88c98d3d54d9948a99ec90a34b9bee5cc0398e52137600861077b6107d76106a536610638565b6000549095929491906106c4906101e7906001600160a01b03166101db565b60405160208101906106da816102078985610dfd565b51902090610713600261070460076106fc866000526001602052604060002090565b015460ff1690565b61070d8161041c565b146111a1565b61073a600761072c846000526001602052604060002090565b01805460ff19166003179055565b866009610751846000526001602052604060002090565b0155600b610769836000526001602052604060002090565b01556000526001602052604060002090565b0154836000918181116000146107dc576107959250610cdb565b6107be6107a460408501611117565b6001600160a01b0316600090815260036020526040902090565b6107c9828254610cce565b9055604051938493846111ed565b0390a1005b5050610795565b346100dd5760403660031901126100dd57600435610800816100cc565b600054602435916001600160a01b039161081d9083163314610c7c565b1680600052600360205260406000209081549280840180941161086d577fe1fffcc4923d04b559f4d29a8bfc6cda04eb5b0d3c460751c2402c5c5cc9109c936040935582519182526020820152a1005b610cb8565b346100dd577f12bfb8116d965685f740f88c98d3d54d9948a99ec90a34b9bee5cc0398e5213760086109276107d76108a936610638565b6000549095929491906108c8906101e7906001600160a01b03166101db565b60405160208101906108de816102078985610dfd565b51902090610900600261070460076106fc866000526001602052604060002090565b61073a6007610919846000526001602052604060002090565b01805460ff19166004179055565b015483600091818111600014610969576109419250610cdb565b6109506107a460408501611117565b61095b828254610cce565b905560405193849384611216565b5050610941565b346100dd5760803660031901126100dd5760043561098d816100cc565b7fbdbc3a9424c1eba6e7ab27814f2dc9b66df2138a9912c0a89085e9967c105d7160806024356044356109bf816100cc565b6064359060018060a01b0390816000976109dd828a54163314610c7c565b169384885260026020526040882081895260205283610a118360408b209060018060a01b0316600052602052604060002090565b5560405194855260208501521660408301526060820152a180f35b346100dd5760003660031901126100dd576000546040516001600160a01b039091168152602090f35b346100dd5760403660031901126100dd5760043567ffffffffffffffff81116100dd576107d7610aaa7f478d22d618890f2461b5871936b90796dcf0a73cd5f6e4537f13b4661be7c2f792369060040161015f565b6102666007610b88602435610acc6101e76101db60005460018060a01b031690565b6040516020810190610ae2816102078985610dfd565b51902090610b126001610b03866106fc866000526001602052604060002090565b610b0c8161041c565b146110d8565b610b656107a460408801610b3484610b2c6107a484611117565b541015611121565b610b3d81611117565b60208a0190610b4e6101db83611117565b6001600160a01b0390911603610b96575b50611117565b610b70828254610cdb565b90556008610769836000526001602052604060002090565b01805460ff19166002179055565b610c2c90610bed610c268c610c0b89610c03610be4610bd1610bb78b611117565b6001600160a01b0316600090815260026020526040902090565b9435809590600052602052604060002090565b610bed88611117565b60018060a01b0316600052602052604060002090565b541015611160565b610c17610bb787611117565b90600052602052604060002090565b91611117565b610c37858254610cdb565b905538610b5f565b346100dd5760203660031901126100dd57600435610c5c816100cc565b60018060a01b031660005260036020526020604060002054604051908152f35b15610c8357565b60405162461bcd60e51b815260206004820152600d60248201526c6f6e6c792072656c617965722160981b6044820152606490fd5b634e487b7160e01b600052601160045260246000fd5b9190820180921161086d57565b9190820391821161086d57565b67ffffffffffffffff81116102e457601f01601f191660200190565b3d15610d2f573d90610d1582610ce8565b91610d2360405193846102e9565b82523d6000602084013e565b606090565b908060209392818452848401376000828201840152601f01601f1916010190565b803582526020810135610d67816100cc565b6001600160a01b039081166020840152806040830135610d86816100cc565b166040840152606082013560608401526080820135610da4816100cc565b16608083015260a081013560a083015260c0810135601e19823603018112156100dd57016020813591019067ffffffffffffffff81116100dd5780360382136100dd5760e0838160c0610dfa9601520191610d34565b90565b906020610dfa928181520190610d55565b81601f820112156100dd57803590610e2582610ce8565b92610e3360405194856102e9565b828452602083830101116100dd57816000926020809301838601378301015290565b91909160e0818403126100dd57610e6a6103cf565b9281358452610e7b602083016100e2565b6020850152610e8c604083016100e2565b604085015260608201356060850152610ea7608083016100e2565b608085015260a082013560a085015260c082013567ffffffffffffffff81116100dd57610ed49201610e0e565b60c0830152565b90601f8111610ee957505050565b600091825260208220906020601f850160051c83019410610f25575b601f0160051c01915b828110610f1a57505050565b818155600101610f0e565b9092508290610f05565b919091825167ffffffffffffffff81116102e457610f5781610f518454610278565b84610edb565b602080601f8311600114610f93575081929394600092610f88575b50508160011b916000199060031b1c1916179055565b015190503880610f72565b90601f19831695610fa985600052602060002090565b926000905b888210610fe657505083600195969710610fcd575b505050811b019055565b015160001960f88460031b161c19169055388080610fc3565b80600185968294968601518155019501930190610fae565b9060058110156104265760ff80198354169116179055565b81518051825560208101516001830180546001600160a01b03199081166001600160a01b03938416179091556040830151600285018054831691841691909117905560608301516003850155608083015160048501805491909316911617905560a080820151600584015560c0909101519192600b926110999060068601610f2f565b6110b360208201516110aa8161041c565b60078601610ffe565b60408101516008850155606081015160098501556080810151600a8501550151910155565b156110df57565b60405162461bcd60e51b815260206004820152601060248201526f6f6e6c792057616974466f725061792160801b6044820152606490fd5b35610dfa816100cc565b1561112857565b60405162461bcd60e51b815260206004820152601060248201526f666565546f6b656e73546f4c6f636b2160801b6044820152606490fd5b1561116757565b60405162461bcd60e51b81526020600482015260126024820152716465706f73697420616c6c6f77616e63652160701b6044820152606490fd5b156111a857565b60405162461bcd60e51b815260206004820152601d60248201527f6f6e6c79206f6e2070726f67726573732063616e2075706461746564210000006044820152606490fd5b61120560609295949395608083526080830190610d55565b946003602083015260408201520152565b61122e60609295949395608083526080830190610d55565b94600460208301526040820152015256fea2646970667358221220aea9e87f7eceba430ea4c2effca39d05f9a187da2a4f5db3ec3b3b143733fa6b64736f6c63430008140033",
  "devdoc": {
    "kind": "dev",
    "methods": {},
    "version": 1
  },
  "userdoc": {
    "kind": "user",
    "methods": {},
    "version": 1
  },
  "storageLayout": {
    "storage": [
      {
        "astId": 87,
        "contract": "contracts/YarHub.sol:YarHub",
        "label": "relayer",
        "offset": 0,
        "slot": "0",
        "type": "t_address"
      },
      {
        "astId": 113,
        "contract": "contracts/YarHub.sol:YarHub",
        "label": "wrappedYarTXs",
        "offset": 0,
        "slot": "1",
        "type": "t_mapping(t_bytes32,t_struct(WrappedYarTX)108_storage)"
      },
      {
        "astId": 159,
        "contract": "contracts/YarHub.sol:YarHub",
        "label": "allowance",
        "offset": 0,
        "slot": "2",
        "type": "t_mapping(t_address,t_mapping(t_uint256,t_mapping(t_address,t_uint256)))"
      },
      {
        "astId": 173,
        "contract": "contracts/YarHub.sol:YarHub",
        "label": "deposits",
        "offset": 0,
        "slot": "3",
        "type": "t_mapping(t_address,t_uint256)"
      }
    ],
    "types": {
      "t_address": {
        "encoding": "inplace",
        "label": "address",
        "numberOfBytes": "20"
      },
      "t_bytes32": {
        "encoding": "inplace",
        "label": "bytes32",
        "numberOfBytes": "32"
      },
      "t_bytes_storage": {
        "encoding": "bytes",
        "label": "bytes",
        "numberOfBytes": "32"
      },
      "t_enum(TxStatus)93": {
        "encoding": "inplace",
        "label": "enum YarHub.TxStatus",
        "numberOfBytes": "1"
      },
      "t_mapping(t_address,t_mapping(t_uint256,t_mapping(t_address,t_uint256)))": {
        "encoding": "mapping",
        "key": "t_address",
        "label": "mapping(address => mapping(uint256 => mapping(address => uint256)))",
        "numberOfBytes": "32",
        "value": "t_mapping(t_uint256,t_mapping(t_address,t_uint256))"
      },
      "t_mapping(t_address,t_uint256)": {
        "encoding": "mapping",
        "key": "t_address",
        "label": "mapping(address => uint256)",
        "numberOfBytes": "32",
        "value": "t_uint256"
      },
      "t_mapping(t_bytes32,t_struct(WrappedYarTX)108_storage)": {
        "encoding": "mapping",
        "key": "t_bytes32",
        "label": "mapping(bytes32 => struct YarHub.WrappedYarTX)",
        "numberOfBytes": "32",
        "value": "t_struct(WrappedYarTX)108_storage"
      },
      "t_mapping(t_uint256,t_mapping(t_address,t_uint256))": {
        "encoding": "mapping",
        "key": "t_uint256",
        "label": "mapping(uint256 => mapping(address => uint256))",
        "numberOfBytes": "32",
        "value": "t_mapping(t_address,t_uint256)"
      },
      "t_struct(WrappedYarTX)108_storage": {
        "encoding": "inplace",
        "label": "struct YarHub.WrappedYarTX",
        "members": [
          {
            "astId": 96,
            "contract": "contracts/YarHub.sol:YarHub",
            "label": "yarTx",
            "offset": 0,
            "slot": "0",
            "type": "t_struct(YarTX)585_storage"
          },
          {
            "astId": 99,
            "contract": "contracts/YarHub.sol:YarHub",
            "label": "status",
            "offset": 0,
            "slot": "7",
            "type": "t_enum(TxStatus)93"
          },
          {
            "astId": 101,
            "contract": "contracts/YarHub.sol:YarHub",
            "label": "lockedFees",
            "offset": 0,
            "slot": "8",
            "type": "t_uint256"
          },
          {
            "astId": 103,
            "contract": "contracts/YarHub.sol:YarHub",
            "label": "usedFees",
            "offset": 0,
            "slot": "9",
            "type": "t_uint256"
          },
          {
            "astId": 105,
            "contract": "contracts/YarHub.sol:YarHub",
            "label": "initialTxHash",
            "offset": 0,
            "slot": "10",
            "type": "t_bytes32"
          },
          {
            "astId": 107,
            "contract": "contracts/YarHub.sol:YarHub",
            "label": "targetTxHash",
            "offset": 0,
            "slot": "11",
            "type": "t_bytes32"
          }
        ],
        "numberOfBytes": "384"
      },
      "t_struct(YarTX)585_storage": {
        "encoding": "inplace",
        "label": "struct YarLib.YarTX",
        "members": [
          {
            "astId": 572,
            "contract": "contracts/YarHub.sol:YarHub",
            "label": "initialChainId",
            "offset": 0,
            "slot": "0",
            "type": "t_uint256"
          },
          {
            "astId": 574,
            "contract": "contracts/YarHub.sol:YarHub",
            "label": "sender",
            "offset": 0,
            "slot": "1",
            "type": "t_address"
          },
          {
            "astId": 576,
            "contract": "contracts/YarHub.sol:YarHub",
            "label": "payer",
            "offset": 0,
            "slot": "2",
            "type": "t_address"
          },
          {
            "astId": 578,
            "contract": "contracts/YarHub.sol:YarHub",
            "label": "targetChainId",
            "offset": 0,
            "slot": "3",
            "type": "t_uint256"
          },
          {
            "astId": 580,
            "contract": "contracts/YarHub.sol:YarHub",
            "label": "target",
            "offset": 0,
            "slot": "4",
            "type": "t_address"
          },
          {
            "astId": 582,
            "contract": "contracts/YarHub.sol:YarHub",
            "label": "value",
            "offset": 0,
            "slot": "5",
            "type": "t_uint256"
          },
          {
            "astId": 584,
            "contract": "contracts/YarHub.sol:YarHub",
            "label": "data",
            "offset": 0,
            "slot": "6",
            "type": "t_bytes_storage"
          }
        ],
        "numberOfBytes": "224"
      },
      "t_uint256": {
        "encoding": "inplace",
        "label": "uint256",
        "numberOfBytes": "32"
      }
    }
  }
}