{
  "address": "0x884b70C382344f9a20Ac2fC46c706c0aF3f2Bed7",
  "abi": [
    {
      "inputs": [
        {
          "internalType": "address",
          "name": "initialRelayer",
          "type": "address"
        }
      ],
      "stateMutability": "nonpayable",
      "type": "constructor"
    },
    {
      "anonymous": false,
      "inputs": [
        {
          "indexed": false,
          "internalType": "address",
          "name": "account",
          "type": "address"
        },
        {
          "indexed": false,
          "internalType": "uint256",
          "name": "intiailChainId",
          "type": "uint256"
        },
        {
          "indexed": false,
          "internalType": "address",
          "name": "spender",
          "type": "address"
        },
        {
          "indexed": false,
          "internalType": "uint256",
          "name": "amount",
          "type": "uint256"
        }
      ],
      "name": "Approve",
      "type": "event"
    },
    {
      "anonymous": false,
      "inputs": [
        {
          "components": [
            {
              "internalType": "uint256",
              "name": "initialChainId",
              "type": "uint256"
            },
            {
              "internalType": "address",
              "name": "sender",
              "type": "address"
            },
            {
              "internalType": "address",
              "name": "payer",
              "type": "address"
            },
            {
              "internalType": "uint256",
              "name": "targetChainId",
              "type": "uint256"
            },
            {
              "internalType": "address",
              "name": "target",
              "type": "address"
            },
            {
              "internalType": "uint256",
              "name": "value",
              "type": "uint256"
            },
            {
              "internalType": "bytes",
              "name": "data",
              "type": "bytes"
            }
          ],
          "indexed": false,
          "internalType": "struct YarLib.YarTX",
          "name": "yarTx",
          "type": "tuple"
        },
        {
          "indexed": false,
          "internalType": "enum YarHub.TxStatus",
          "name": "status",
          "type": "uint8"
        },
        {
          "indexed": false,
          "internalType": "uint256",
          "name": "usedFees",
          "type": "uint256"
        },
        {
          "indexed": false,
          "internalType": "uint256",
          "name": "feesToReturn",
          "type": "uint256"
        }
      ],
      "name": "CommitTransaction",
      "type": "event"
    },
    {
      "anonymous": false,
      "inputs": [
        {
          "components": [
            {
              "internalType": "uint256",
              "name": "initialChainId",
              "type": "uint256"
            },
            {
              "internalType": "address",
              "name": "sender",
              "type": "address"
            },
            {
              "internalType": "address",
              "name": "payer",
              "type": "address"
            },
            {
              "internalType": "uint256",
              "name": "targetChainId",
              "type": "uint256"
            },
            {
              "internalType": "address",
              "name": "target",
              "type": "address"
            },
            {
              "internalType": "uint256",
              "name": "value",
              "type": "uint256"
            },
            {
              "internalType": "bytes",
              "name": "data",
              "type": "bytes"
            }
          ],
          "indexed": false,
          "internalType": "struct YarLib.YarTX",
          "name": "yarTx",
          "type": "tuple"
        }
      ],
      "name": "CreateTransaction",
      "type": "event"
    },
    {
      "anonymous": false,
      "inputs": [
        {
          "indexed": false,
          "internalType": "address",
          "name": "account",
          "type": "address"
        },
        {
          "indexed": false,
          "internalType": "uint256",
          "name": "amount",
          "type": "uint256"
        }
      ],
      "name": "Deposit",
      "type": "event"
    },
    {
      "anonymous": false,
      "inputs": [
        {
          "components": [
            {
              "internalType": "uint256",
              "name": "initialChainId",
              "type": "uint256"
            },
            {
              "internalType": "address",
              "name": "sender",
              "type": "address"
            },
            {
              "internalType": "address",
              "name": "payer",
              "type": "address"
            },
            {
              "internalType": "uint256",
              "name": "targetChainId",
              "type": "uint256"
            },
            {
              "internalType": "address",
              "name": "target",
              "type": "address"
            },
            {
              "internalType": "uint256",
              "name": "value",
              "type": "uint256"
            },
            {
              "internalType": "bytes",
              "name": "data",
              "type": "bytes"
            }
          ],
          "indexed": false,
          "internalType": "struct YarLib.YarTX",
          "name": "yarTx",
          "type": "tuple"
        }
      ],
      "name": "ExecuteTransaction",
      "type": "event"
    },
    {
      "inputs": [
        {
          "internalType": "address",
          "name": "account",
          "type": "address"
        },
        {
          "internalType": "uint256",
          "name": "chainId",
          "type": "uint256"
        },
        {
          "internalType": "address",
          "name": "spender",
          "type": "address"
        }
      ],
      "name": "allowance",
      "outputs": [
        {
          "internalType": "uint256",
          "name": "amount",
          "type": "uint256"
        }
      ],
      "stateMutability": "view",
      "type": "function"
    },
    {
      "inputs": [
        {
          "internalType": "address",
          "name": "account",
          "type": "address"
        },
        {
          "internalType": "uint256",
          "name": "intiailChainId",
          "type": "uint256"
        },
        {
          "internalType": "address",
          "name": "spender",
          "type": "address"
        },
        {
          "internalType": "uint256",
          "name": "amount",
          "type": "uint256"
        }
      ],
      "name": "approve",
      "outputs": [],
      "stateMutability": "nonpayable",
      "type": "function"
    },
    {
      "inputs": [
        {
          "components": [
            {
              "internalType": "uint256",
              "name": "initialChainId",
              "type": "uint256"
            },
            {
              "internalType": "address",
              "name": "sender",
              "type": "address"
            },
            {
              "internalType": "address",
              "name": "payer",
              "type": "address"
            },
            {
              "internalType": "uint256",
              "name": "targetChainId",
              "type": "uint256"
            },
            {
              "internalType": "address",
              "name": "target",
              "type": "address"
            },
            {
              "internalType": "uint256",
              "name": "value",
              "type": "uint256"
            },
            {
              "internalType": "bytes",
              "name": "data",
              "type": "bytes"
            }
          ],
          "internalType": "struct YarLib.YarTX",
          "name": "yarTX",
          "type": "tuple"
        },
        {
          "internalType": "bytes32",
          "name": "targetTxHash",
          "type": "bytes32"
        },
        {
          "internalType": "uint256",
          "name": "usedFees",
          "type": "uint256"
        }
      ],
      "name": "completeTransaction",
      "outputs": [],
      "stateMutability": "nonpayable",
      "type": "function"
    },
    {
      "inputs": [
        {
          "components": [
            {
              "internalType": "uint256",
              "name": "initialChainId",
              "type": "uint256"
            },
            {
              "internalType": "address",
              "name": "sender",
              "type": "address"
            },
            {
              "internalType": "address",
              "name": "payer",
              "type": "address"
            },
            {
              "internalType": "uint256",
              "name": "targetChainId",
              "type": "uint256"
            },
            {
              "internalType": "address",
              "name": "target",
              "type": "address"
            },
            {
              "internalType": "uint256",
              "name": "value",
              "type": "uint256"
            },
            {
              "internalType": "bytes",
              "name": "data",
              "type": "bytes"
            }
          ],
          "internalType": "struct YarLib.YarTX",
          "name": "yarTX",
          "type": "tuple"
        },
        {
          "internalType": "bytes32",
          "name": "initialTxHash",
          "type": "bytes32"
        }
      ],
      "name": "createTransaction",
      "outputs": [],
      "stateMutability": "nonpayable",
      "type": "function"
    },
    {
      "inputs": [
        {
          "internalType": "address",
          "name": "account",
          "type": "address"
        },
        {
          "internalType": "uint256",
          "name": "feeTokenAmount",
          "type": "uint256"
        }
      ],
      "name": "deposit",
      "outputs": [],
      "stateMutability": "nonpayable",
      "type": "function"
    },
    {
      "inputs": [
        {
          "internalType": "address",
          "name": "account",
          "type": "address"
        }
      ],
      "name": "deposits",
      "outputs": [
        {
          "internalType": "uint256",
          "name": "feeTokenAmount",
          "type": "uint256"
        }
      ],
      "stateMutability": "view",
      "type": "function"
    },
    {
      "inputs": [
        {
          "components": [
            {
              "internalType": "uint256",
              "name": "initialChainId",
              "type": "uint256"
            },
            {
              "internalType": "address",
              "name": "sender",
              "type": "address"
            },
            {
              "internalType": "address",
              "name": "payer",
              "type": "address"
            },
            {
              "internalType": "uint256",
              "name": "targetChainId",
              "type": "uint256"
            },
            {
              "internalType": "address",
              "name": "target",
              "type": "address"
            },
            {
              "internalType": "uint256",
              "name": "value",
              "type": "uint256"
            },
            {
              "internalType": "bytes",
              "name": "data",
              "type": "bytes"
            }
          ],
          "internalType": "struct YarLib.YarTX",
          "name": "yarTX",
          "type": "tuple"
        },
        {
          "internalType": "uint256",
          "name": "feeTokensToLock",
          "type": "uint256"
        }
      ],
      "name": "executeTransaction",
      "outputs": [],
      "stateMutability": "nonpayable",
      "type": "function"
    },
    {
      "inputs": [
        {
          "components": [
            {
              "internalType": "uint256",
              "name": "initialChainId",
              "type": "uint256"
            },
            {
              "internalType": "address",
              "name": "sender",
              "type": "address"
            },
            {
              "internalType": "address",
              "name": "payer",
              "type": "address"
            },
            {
              "internalType": "uint256",
              "name": "targetChainId",
              "type": "uint256"
            },
            {
              "internalType": "address",
              "name": "target",
              "type": "address"
            },
            {
              "internalType": "uint256",
              "name": "value",
              "type": "uint256"
            },
            {
              "internalType": "bytes",
              "name": "data",
              "type": "bytes"
            }
          ],
          "internalType": "struct YarLib.YarTX",
          "name": "yarTX",
          "type": "tuple"
        },
        {
          "internalType": "bytes32",
          "name": "targetTxHash",
          "type": "bytes32"
        },
        {
          "internalType": "uint256",
          "name": "usedFees",
          "type": "uint256"
        }
      ],
      "name": "rejectTransaction",
      "outputs": [],
      "stateMutability": "nonpayable",
      "type": "function"
    },
    {
      "inputs": [],
      "name": "relayer",
      "outputs": [
        {
          "internalType": "address",
          "name": "",
          "type": "address"
        }
      ],
      "stateMutability": "view",
      "type": "function"
    },
    {
      "inputs": [
        {
          "internalType": "bytes32",
          "name": "yarTxHash",
          "type": "bytes32"
        }
      ],
      "name": "wrappedYarTXs",
      "outputs": [
        {
          "components": [
            {
              "internalType": "uint256",
              "name": "initialChainId",
              "type": "uint256"
            },
            {
              "internalType": "address",
              "name": "sender",
              "type": "address"
            },
            {
              "internalType": "address",
              "name": "payer",
              "type": "address"
            },
            {
              "internalType": "uint256",
              "name": "targetChainId",
              "type": "uint256"
            },
            {
              "internalType": "address",
              "name": "target",
              "type": "address"
            },
            {
              "internalType": "uint256",
              "name": "value",
              "type": "uint256"
            },
            {
              "internalType": "bytes",
              "name": "data",
              "type": "bytes"
            }
          ],
          "internalType": "struct YarLib.YarTX",
          "name": "yarTx",
          "type": "tuple"
        },
        {
          "internalType": "enum YarHub.TxStatus",
          "name": "status",
          "type": "uint8"
        },
        {
          "internalType": "uint256",
          "name": "lockedFees",
          "type": "uint256"
        },
        {
          "internalType": "uint256",
          "name": "usedFees",
          "type": "uint256"
        },
        {
          "internalType": "bytes32",
          "name": "initialTxHash",
          "type": "bytes32"
        },
        {
          "internalType": "bytes32",
          "name": "targetTxHash",
          "type": "bytes32"
        }
      ],
      "stateMutability": "view",
      "type": "function"
    }
  ],
  "transactionHash": "0xa4d5591d5862e3e7bc94ac9de3d20e06a1f4f906044b526964c156d936b494f8",
  "args": [
    "0x340afFe21AB391FE1C2C5AEBBB84BF5cF236205f"
  ],
  "numDeployments": 1,
  "solcInputHash": "426fbfac19bda19ced95a24fd4ea2ba9",
  "bytecode": "0x60803461007457601f61106f38819003918201601f19168301916001600160401b038311848410176100795780849260209460405283398101031261007457516001600160a01b0381169081900361007457600080546001600160a01b031916919091179055604051610fdf90816100908239f35b600080fd5b634e487b7160e01b600052604160045260246000fdfe608080604052600436101561001357600080fd5b60003560e01c90816309a36a9914610d285750806329b7fc681461096e5780632d2494401461075c578063475827591461063d57806347e7ef24146105bb5780635ed647891461042e5780637eb2e835146103865780638406c0791461035d578063eab192d9146100cc5763fc7e286d1461008d57600080fd5b346100c75760203660031901126100c7576001600160a01b036100ae610d81565b1660005260036020526020604060002054604051908152f35b600080fd5b346100c7576003196040368201126100c7576004359067ffffffffffffffff82116100c75760e0826004019183360301126100c757602491823560018060a01b0361011c81600054163314610e73565b60405192602093848101908582526101498161013b604082018a610ed2565b03601f198101835282610e17565b51902091826000526001855260ff6007604060002001541660058110156103485760010361031157604482018161017f82610f88565b166000526003865284604060002054106102da578161019d82610f88565b1660005260028652604060002090873591826000528752886040600020940193836101c786610f88565b16600052875285604060002054106102a1577f478d22d618890f2461b5871936b90796dcf0a73cd5f6e4537f13b4661be7c2f798509082610231838261021260079a99989796610f88565b1660005260038a52604060002061022a898254610f9c565b9055610f88565b16600052600287526040600020906000528652610252604060002092610f88565b1660005284526040600020610268838254610f9c565b905560005260018352604060002090600882015501600260ff1982541617905561029c604051928284938452830190610ed2565b0390a1005b60405162461bcd60e51b8152600481018890526012818b0152716465706f73697420616c6c6f77616e63652160701b6044820152606490fd5b60405162461bcd60e51b8152600481018790526010818a01526f666565546f6b656e73546f4c6f636b2160801b6044820152606490fd5b60405162461bcd60e51b8152600481018690526010818901526f6f6e6c792057616974466f725061792160801b6044820152606490fd5b87634e487b7160e01b60005260216004526000fd5b346100c75760003660031901126100c7576000546040516001600160a01b039091168152602090f35b346100c75760803660031901126100c7577fbdbc3a9424c1eba6e7ab27814f2dc9b66df2138a9912c0a89085e9967c105d7160806103c2610d81565b6024356103cd610d97565b6064359160018060a01b0380946103e982600054163314610e73565b169384600052600260205260406000208260005260205260406000209216918260005260205282604060002055604051938452602084015260408301526060820152a1005b346100c75761043c36610e39565b6000546001600160a01b0391906104569083163314610e73565b60405192602093848101908582526104758161013b604082018a610ed2565b519020806000526001855260ff6007604060002001541660058110156105a557600203610560579160087f12bfb8116d965685f740f88c98d3d54d9948a99ec90a34b9bee5cc0398e5213796949261054396946000526001855260406000209060078201600460ff19825416179055836009830155600b8201550154818082116000146105565761050591610f9c565b915b61051360408601610f88565b1660005260038352604060002061052b838254610eaf565b90556004604051958695608087526080870190610ed2565b93850152604084015260608301520390a1005b5050600091610507565b60405162461bcd60e51b815260048101869052601d60248201527f6f6e6c79206f6e2070726f67726573732063616e2075706461746564210000006044820152606490fd5b634e487b7160e01b600052602160045260246000fd5b346100c75760403660031901126100c7577fe1fffcc4923d04b559f4d29a8bfc6cda04eb5b0d3c460751c2402c5c5cc9109c60406105f7610d81565b600054602435916001600160a01b03916106149083163314610e73565b16908160005260036020528260002061062e828254610eaf565b905582519182526020820152a1005b346100c75761064b36610e39565b6000546001600160a01b0391906106659083163314610e73565b60405192602093848101908582526106848161013b604082018a610ed2565b519020806000526001855260ff6007604060002001541660058110156105a557600203610560579160087f12bfb8116d965685f740f88c98d3d54d9948a99ec90a34b9bee5cc0398e5213796949261054396946000526001855260406000209060078201600360ff19825416179055836009830155600b8201550154818082116000146107525761071491610f9c565b915b61072260408601610f88565b1660005260038352604060002061073a838254610eaf565b90556003604051958695608087526080870190610ed2565b5050600091610716565b346100c75760203660031901126100c75760043560005260018060205260406000206040519161078b83610dfb565b81548352808201546001600160a01b039081166020850152600283015481166040808601919091526003840154606086015260048401549091166080850152600583015460a08501525160068301805491928391600091906107ec85610dc1565b8085529482811690811561094a5750600114610908575b505061081192500382610e17565b60c083015260ff600782015416600882015491600981015490600b600a8201549101549060c06040519681885280518289015260018060a01b0360208201511660e089015260018060a01b03604082015116610100890152606081015161012089015260018060a01b0360808201511661014089015260a081015161016089015201519260e0610180880152835193846101a089015260005b8581106108f15750506101c095600087868a01015260058610156105a5578795602087015260408601526060850152608084015260a0830152601f80199101168101030190f35b8060208092840101516101c0828c010152016108aa565b6000908152602081209092505b84831061092f575061081193505081016020018680610803565b81935090816020925483858901015201910190918492610915565b9150506020925061081194915060ff191682840152151560051b8201018680610803565b346100c7576003196040368201126100c7576004359067ffffffffffffffff82116100c75760e09082360301126100c7576109b460018060a01b03600054163314610e73565b6040516020810190602082526109d48161013b6040820186600401610ed2565b5190206040519060c0820182811067ffffffffffffffff821117610d1257806040526109ff81610dfb565b83600401358152610a1260248501610dad565b60e0840152610a2360448501610dad565b6101008401526064840135610120840152610a4060848501610dad565b61014084015260a484013561016084015260c484013567ffffffffffffffff81116100c7578401366023820112156100c757600481013567ffffffffffffffff8111610d125760405191610a9e601f8301601f191660200184610e17565b81835236602483830101116100c75781600092602460209301838601378301015261018084015282526001602083015260006040830152600060608301526024356080830152600060a0830152600052600160205260406000209060c08151805184556001840160018060a01b03602083015116906bffffffffffffffffffffffff60a01b91828254161790556002850160018060a01b036040840151168282541617905560608201516003860155600485019060018060a01b036080840151169082541617905560a08101516005850155015192835167ffffffffffffffff8111610d1257610b916006850154610dc1565b601f8111610ccb575b506020601f8211600114610c5c578192939495600092610c51575b50508160011b916000199060031b1c19161760068401555b6020820151926007810160058510156105a55760a061029c94600b927f164fce2aed52d8fcfa006b23b8a9041dd75517a89487460b2f7972abbb64c42e9760ff8019835416911617905560408101516008850155606081015160098501556080810151600a8501550151910155604051918291602083526020830190600401610ed2565b015190508580610bb5565b6006850160005260206000209060005b601f1984168110610cb3575060019394959683601f19811610610c9a575b505050811b016006840155610bcd565b015160001960f88460031b161c19169055858080610c8a565b9091602060018192858b015181550193019101610c6c565b600685016000526020600020601f830160051c810160208410610d0b575b601f830160051c82018110610cff575050610b9a565b60008155600101610ce9565b5080610ce9565b634e487b7160e01b600052604160045260246000fd5b346100c75760603660031901126100c757602090610d44610d81565b610d4c610d97565b9060018060a01b0380911660005260028452604060002060243560005284526040600020911660005282526040600020548152f35b600435906001600160a01b03821682036100c757565b604435906001600160a01b03821682036100c757565b35906001600160a01b03821682036100c757565b90600182811c92168015610df1575b6020831014610ddb57565b634e487b7160e01b600052602260045260246000fd5b91607f1691610dd0565b60e0810190811067ffffffffffffffff821117610d1257604052565b90601f8019910116810190811067ffffffffffffffff821117610d1257604052565b600319906060818301126100c7576004359167ffffffffffffffff83116100c7578260e0920301126100c757600401906024359060443590565b15610e7a57565b60405162461bcd60e51b815260206004820152600d60248201526c6f6e6c792072656c617965722160981b6044820152606490fd5b91908201809211610ebc57565b634e487b7160e01b600052601160045260246000fd5b803582526001600160a01b0380610eeb60208401610dad565b16602084015280610efe60408401610dad565b16604084015260608201356060840152610f1a60808301610dad565b16608083015260a081013560a083015260c0810135601e19823603018112156100c75701906020823592019167ffffffffffffffff81116100c75780360383136100c75760e060c08301528060e08301528061010093848401376000828201840152601f01601f1916010190565b356001600160a01b03811681036100c75790565b91908203918211610ebc5756fea26469706673582212201f9e75793b802ff4f8730bc0a4737907d8241363120372e8f33cc223a73d4e6564736f6c63430008140033",
  "devdoc": {
    "kind": "dev",
    "methods": {},
    "version": 1
  },
  "userdoc": {
    "kind": "user",
    "methods": {},
    "version": 1
  },
  "storageLayout": {
    "storage": [
      {
        "astId": 87,
        "contract": "contracts/YarHub.sol:YarHub",
        "label": "relayer",
        "offset": 0,
        "slot": "0",
        "type": "t_address"
      },
      {
        "astId": 113,
        "contract": "contracts/YarHub.sol:YarHub",
        "label": "wrappedYarTXs",
        "offset": 0,
        "slot": "1",
        "type": "t_mapping(t_bytes32,t_struct(WrappedYarTX)108_storage)"
      },
      {
        "astId": 159,
        "contract": "contracts/YarHub.sol:YarHub",
        "label": "allowance",
        "offset": 0,
        "slot": "2",
        "type": "t_mapping(t_address,t_mapping(t_uint256,t_mapping(t_address,t_uint256)))"
      },
      {
        "astId": 173,
        "contract": "contracts/YarHub.sol:YarHub",
        "label": "deposits",
        "offset": 0,
        "slot": "3",
        "type": "t_mapping(t_address,t_uint256)"
      }
    ],
    "types": {
      "t_address": {
        "encoding": "inplace",
        "label": "address",
        "numberOfBytes": "20"
      },
      "t_bytes32": {
        "encoding": "inplace",
        "label": "bytes32",
        "numberOfBytes": "32"
      },
      "t_bytes_storage": {
        "encoding": "bytes",
        "label": "bytes",
        "numberOfBytes": "32"
      },
      "t_enum(TxStatus)93": {
        "encoding": "inplace",
        "label": "enum YarHub.TxStatus",
        "numberOfBytes": "1"
      },
      "t_mapping(t_address,t_mapping(t_uint256,t_mapping(t_address,t_uint256)))": {
        "encoding": "mapping",
        "key": "t_address",
        "label": "mapping(address => mapping(uint256 => mapping(address => uint256)))",
        "numberOfBytes": "32",
        "value": "t_mapping(t_uint256,t_mapping(t_address,t_uint256))"
      },
      "t_mapping(t_address,t_uint256)": {
        "encoding": "mapping",
        "key": "t_address",
        "label": "mapping(address => uint256)",
        "numberOfBytes": "32",
        "value": "t_uint256"
      },
      "t_mapping(t_bytes32,t_struct(WrappedYarTX)108_storage)": {
        "encoding": "mapping",
        "key": "t_bytes32",
        "label": "mapping(bytes32 => struct YarHub.WrappedYarTX)",
        "numberOfBytes": "32",
        "value": "t_struct(WrappedYarTX)108_storage"
      },
      "t_mapping(t_uint256,t_mapping(t_address,t_uint256))": {
        "encoding": "mapping",
        "key": "t_uint256",
        "label": "mapping(uint256 => mapping(address => uint256))",
        "numberOfBytes": "32",
        "value": "t_mapping(t_address,t_uint256)"
      },
      "t_struct(WrappedYarTX)108_storage": {
        "encoding": "inplace",
        "label": "struct YarHub.WrappedYarTX",
        "members": [
          {
            "astId": 96,
            "contract": "contracts/YarHub.sol:YarHub",
            "label": "yarTx",
            "offset": 0,
            "slot": "0",
            "type": "t_struct(YarTX)537_storage"
          },
          {
            "astId": 99,
            "contract": "contracts/YarHub.sol:YarHub",
            "label": "status",
            "offset": 0,
            "slot": "7",
            "type": "t_enum(TxStatus)93"
          },
          {
            "astId": 101,
            "contract": "contracts/YarHub.sol:YarHub",
            "label": "lockedFees",
            "offset": 0,
            "slot": "8",
            "type": "t_uint256"
          },
          {
            "astId": 103,
            "contract": "contracts/YarHub.sol:YarHub",
            "label": "usedFees",
            "offset": 0,
            "slot": "9",
            "type": "t_uint256"
          },
          {
            "astId": 105,
            "contract": "contracts/YarHub.sol:YarHub",
            "label": "initialTxHash",
            "offset": 0,
            "slot": "10",
            "type": "t_bytes32"
          },
          {
            "astId": 107,
            "contract": "contracts/YarHub.sol:YarHub",
            "label": "targetTxHash",
            "offset": 0,
            "slot": "11",
            "type": "t_bytes32"
          }
        ],
        "numberOfBytes": "384"
      },
      "t_struct(YarTX)537_storage": {
        "encoding": "inplace",
        "label": "struct YarLib.YarTX",
        "members": [
          {
            "astId": 524,
            "contract": "contracts/YarHub.sol:YarHub",
            "label": "initialChainId",
            "offset": 0,
            "slot": "0",
            "type": "t_uint256"
          },
          {
            "astId": 526,
            "contract": "contracts/YarHub.sol:YarHub",
            "label": "sender",
            "offset": 0,
            "slot": "1",
            "type": "t_address"
          },
          {
            "astId": 528,
            "contract": "contracts/YarHub.sol:YarHub",
            "label": "payer",
            "offset": 0,
            "slot": "2",
            "type": "t_address"
          },
          {
            "astId": 530,
            "contract": "contracts/YarHub.sol:YarHub",
            "label": "targetChainId",
            "offset": 0,
            "slot": "3",
            "type": "t_uint256"
          },
          {
            "astId": 532,
            "contract": "contracts/YarHub.sol:YarHub",
            "label": "target",
            "offset": 0,
            "slot": "4",
            "type": "t_address"
          },
          {
            "astId": 534,
            "contract": "contracts/YarHub.sol:YarHub",
            "label": "value",
            "offset": 0,
            "slot": "5",
            "type": "t_uint256"
          },
          {
            "astId": 536,
            "contract": "contracts/YarHub.sol:YarHub",
            "label": "data",
            "offset": 0,
            "slot": "6",
            "type": "t_bytes_storage"
          }
        ],
        "numberOfBytes": "224"
      },
      "t_uint256": {
        "encoding": "inplace",
        "label": "uint256",
        "numberOfBytes": "32"
      }
    }
  }
}