{
  "address": "0x556581f9d28fE23f013d4B9Bc24D2873156c9e0e",
  "abi": [
    {
      "inputs": [
        {
          "internalType": "address",
          "name": "initialRelayer",
          "type": "address"
        }
      ],
      "stateMutability": "nonpayable",
      "type": "constructor"
    },
    {
      "anonymous": false,
      "inputs": [
        {
          "indexed": false,
          "internalType": "uint256",
          "name": "transactionIndex",
          "type": "uint256"
        },
        {
          "indexed": false,
          "internalType": "address",
          "name": "peer",
          "type": "address"
        },
        {
          "indexed": false,
          "internalType": "uint256",
          "name": "initialChainId",
          "type": "uint256"
        },
        {
          "indexed": false,
          "internalType": "uint256",
          "name": "targetChainId",
          "type": "uint256"
        },
        {
          "indexed": false,
          "internalType": "address",
          "name": "target",
          "type": "address"
        },
        {
          "indexed": false,
          "internalType": "bytes",
          "name": "data",
          "type": "bytes"
        }
      ],
      "name": "AddPendingTransaction",
      "type": "event"
    },
    {
      "anonymous": false,
      "inputs": [
        {
          "indexed": false,
          "internalType": "uint256",
          "name": "transactionIndex",
          "type": "uint256"
        },
        {
          "indexed": false,
          "internalType": "enum YarHub.TransactionStatus",
          "name": "status",
          "type": "uint8"
        }
      ],
      "name": "UpdateTransactionStatus",
      "type": "event"
    },
    {
      "inputs": [
        {
          "internalType": "address",
          "name": "peer",
          "type": "address"
        },
        {
          "internalType": "uint256",
          "name": "initialChainId",
          "type": "uint256"
        },
        {
          "internalType": "uint256",
          "name": "targetChainId",
          "type": "uint256"
        },
        {
          "internalType": "address",
          "name": "target",
          "type": "address"
        },
        {
          "internalType": "bytes",
          "name": "data",
          "type": "bytes"
        }
      ],
      "name": "addTransaction",
      "outputs": [],
      "stateMutability": "nonpayable",
      "type": "function"
    },
    {
      "inputs": [
        {
          "internalType": "address",
          "name": "account",
          "type": "address"
        }
      ],
      "name": "feeBalance",
      "outputs": [
        {
          "internalType": "uint256",
          "name": "amount",
          "type": "uint256"
        }
      ],
      "stateMutability": "view",
      "type": "function"
    },
    {
      "inputs": [],
      "name": "relayer",
      "outputs": [
        {
          "internalType": "address",
          "name": "",
          "type": "address"
        }
      ],
      "stateMutability": "view",
      "type": "function"
    },
    {
      "inputs": [
        {
          "internalType": "uint256",
          "name": "transactionIndex",
          "type": "uint256"
        },
        {
          "internalType": "enum YarHub.TransactionStatus",
          "name": "status",
          "type": "uint8"
        }
      ],
      "name": "setTransactionStatus",
      "outputs": [],
      "stateMutability": "nonpayable",
      "type": "function"
    },
    {
      "inputs": [
        {
          "internalType": "uint256",
          "name": "",
          "type": "uint256"
        }
      ],
      "name": "transactions",
      "outputs": [
        {
          "internalType": "address",
          "name": "peer",
          "type": "address"
        },
        {
          "internalType": "uint256",
          "name": "initialChainId",
          "type": "uint256"
        },
        {
          "internalType": "uint256",
          "name": "targetChainId",
          "type": "uint256"
        },
        {
          "internalType": "address",
          "name": "target",
          "type": "address"
        },
        {
          "internalType": "bytes",
          "name": "data",
          "type": "bytes"
        },
        {
          "internalType": "enum YarHub.TransactionStatus",
          "name": "status",
          "type": "uint8"
        }
      ],
      "stateMutability": "view",
      "type": "function"
    }
  ],
  "transactionHash": "0xa76dd611eca6290d7430b9d58aa751ce6c1ceeb5368ecfec2780abc4729e0a09",
  "args": [
    "0x340afFe21AB391FE1C2C5AEBBB84BF5cF236205f"
  ],
  "numDeployments": 1,
  "solcInputHash": "cbaeb1d64c112f8733a7d3381391b3b8",
  "bytecode": "0x60803461007457601f61084b38819003918201601f19168301916001600160401b038311848410176100795780849260209460405283398101031261007457516001600160a01b0381169081900361007457600080546001600160a01b0319169190911790556040516107bb90816100908239f35b600080fd5b634e487b7160e01b600052604160045260246000fdfe6080604052600436101561001257600080fd5b60003560e01c806337b02c58146105db5780638406c079146105b25780639ace38c21461043a578063d688e6ef146100925763e1f3962c1461005357600080fd5b3461008d57602036600319011261008d576001600160a01b0361007461071a565b1660005260026020526020604060002054604051908152f35b600080fd5b3461008d5760a036600319011261008d576100ab61071a565b6064356001600160a01b038116810361008d5767ffffffffffffffff6084351161008d5736602360843501121561008d5767ffffffffffffffff608435600401351161008d573660246084356004013560843501011161008d5761011a60018060a01b03600054163314610730565b600154906040519260c0840184811067ffffffffffffffff82111761040e5760409081526001600160a01b0382811686526024356020808801919091526044358784015290841660608701529051906101829060046084350135601f01601f191601826106eb565b60843560048101358083529060240160208301376000602060843560040135830101526080850152600060a08501526801000000000000000083101561040e57600183016001556101d283610660565b94909461042457805185546001600160a01b039182166001600160a01b031991821617875560208301516001880155604083015160028801556060830151600388018054919093169116179055608081015180519067ffffffffffffffff821161040e5761024360048801546106b1565b601f81116103c7575b50602090601f83116001146103545760a093929160009183610349575b50508160011b916000199060031b1c19161760048701555b0151936003851015610333577f8e0bee570d18a89e53d0e48e7a65f53f990531936f91d35c939d71d7daabbfd29460056102bb920161076d565b604080519384526001600160a01b039182166020850152602480359185019190915260443560608501529116608083015260c060a08301819052608435600481013591840182905290910160e0830137600060e0608435600401358301015260e081601f19601f6084356004013501168101030190a1005b634e487b7160e01b600052602160045260246000fd5b015190508880610269565b906004880160005260206000209160005b601f19851681106103af575091839160019360a09695601f19811610610396575b505050811b016004870155610281565b015160001960f88460031b161c19169055888080610386565b91926020600181928685015181550194019201610365565b600488016000526020600020601f840160051c810160208510610407575b601f830160051c820181106103fb57505061024c565b600081556001016103e5565b50806103e5565b634e487b7160e01b600052604160045260246000fd5b634e487b7160e01b600052600060045260246000fd5b3461008d5760208060031936011261008d57600435600190815481101561008d5761046490610660565b509160018060a01b039081845416938381015492600282015490600383015416916004810160405196879160009181549161049e836106b1565b9283865289838216918260001461058c575050600114610548575b505050916104d360059260ff949a989a96959603896106eb565b015416916040519687958652848601526040850152606084015260c060808401528351918260c085015260005b83811061053157505060e0935061052390600085848601015260a084019061070d565b601f01601f19168101030190f35b80860182015187820160e001528694508101610500565b88935060009291925282600020916000925b828410610572575050508201016104d38260ff6104b9565b849295829585835492010152019101909287928a9461055a565b60ff19168782015293151560051b860190930193506104d3925084915060ff90506104b9565b3461008d57600036600319011261008d576000546040516001600160a01b039091168152602090f35b3461008d57604036600319011261008d57600435602435600381101561008d577f861b0c8224acb6f191f1667e3ab36937ef45ee4bb0fdb9b5eae00767a9df84c49161065d60409261063860018060a01b03600054163314610730565b61064e81600561064786610660565b500161076d565b8351928352602083019061070d565ba1005b60015481101561069b576006906001600052027fb10e2d527612073b26eecdfd717e6a320cf44b4afac2b0732d9fcbe2b7fa0cf60190600090565b634e487b7160e01b600052603260045260246000fd5b90600182811c921680156106e1575b60208310146106cb57565b634e487b7160e01b600052602260045260246000fd5b91607f16916106c0565b90601f8019910116810190811067ffffffffffffffff82111761040e57604052565b9060038210156103335752565b600435906001600160a01b038216820361008d57565b1561073757565b60405162461bcd60e51b815260206004820152600e60248201526d6f6e6c79207265616c617965722160901b6044820152606490fd5b9060038110156103335760ff8019835416911617905556fea26469706673582212203f3ce26cbfbd6ca37a610673fa2b551203cc7648bd03615cee481b14fec73a7964736f6c63430008140033",
  "devdoc": {
    "kind": "dev",
    "methods": {},
    "version": 1
  },
  "userdoc": {
    "kind": "user",
    "methods": {},
    "version": 1
  },
  "storageLayout": {
    "storage": [
      {
        "astId": 2903,
        "contract": "contracts/YarHub.sol:YarHub",
        "label": "relayer",
        "offset": 0,
        "slot": "0",
        "type": "t_address"
      },
      {
        "astId": 2946,
        "contract": "contracts/YarHub.sol:YarHub",
        "label": "transactions",
        "offset": 0,
        "slot": "1",
        "type": "t_array(t_struct(Transaction)2921_storage)dyn_storage"
      },
      {
        "astId": 2950,
        "contract": "contracts/YarHub.sol:YarHub",
        "label": "feeBalance",
        "offset": 0,
        "slot": "2",
        "type": "t_mapping(t_address,t_uint256)"
      }
    ],
    "types": {
      "t_address": {
        "encoding": "inplace",
        "label": "address",
        "numberOfBytes": "20"
      },
      "t_array(t_struct(Transaction)2921_storage)dyn_storage": {
        "base": "t_struct(Transaction)2921_storage",
        "encoding": "dynamic_array",
        "label": "struct YarHub.Transaction[]",
        "numberOfBytes": "32"
      },
      "t_bytes_storage": {
        "encoding": "bytes",
        "label": "bytes",
        "numberOfBytes": "32"
      },
      "t_enum(TransactionStatus)2907": {
        "encoding": "inplace",
        "label": "enum YarHub.TransactionStatus",
        "numberOfBytes": "1"
      },
      "t_mapping(t_address,t_uint256)": {
        "encoding": "mapping",
        "key": "t_address",
        "label": "mapping(address => uint256)",
        "numberOfBytes": "32",
        "value": "t_uint256"
      },
      "t_struct(Transaction)2921_storage": {
        "encoding": "inplace",
        "label": "struct YarHub.Transaction",
        "members": [
          {
            "astId": 2909,
            "contract": "contracts/YarHub.sol:YarHub",
            "label": "peer",
            "offset": 0,
            "slot": "0",
            "type": "t_address"
          },
          {
            "astId": 2911,
            "contract": "contracts/YarHub.sol:YarHub",
            "label": "initialChainId",
            "offset": 0,
            "slot": "1",
            "type": "t_uint256"
          },
          {
            "astId": 2913,
            "contract": "contracts/YarHub.sol:YarHub",
            "label": "targetChainId",
            "offset": 0,
            "slot": "2",
            "type": "t_uint256"
          },
          {
            "astId": 2915,
            "contract": "contracts/YarHub.sol:YarHub",
            "label": "target",
            "offset": 0,
            "slot": "3",
            "type": "t_address"
          },
          {
            "astId": 2917,
            "contract": "contracts/YarHub.sol:YarHub",
            "label": "data",
            "offset": 0,
            "slot": "4",
            "type": "t_bytes_storage"
          },
          {
            "astId": 2920,
            "contract": "contracts/YarHub.sol:YarHub",
            "label": "status",
            "offset": 0,
            "slot": "5",
            "type": "t_enum(TransactionStatus)2907"
          }
        ],
        "numberOfBytes": "192"
      },
      "t_uint256": {
        "encoding": "inplace",
        "label": "uint256",
        "numberOfBytes": "32"
      }
    }
  }
}