{
  "address": "0x37B03A666eC1e46DE9115BDb3A5334A313e35B02",
  "abi": [
    {
      "inputs": [
        {
          "internalType": "address",
          "name": "intialYarConnector",
          "type": "address"
        }
      ],
      "stateMutability": "nonpayable",
      "type": "constructor"
    },
    {
      "inputs": [
        {
          "internalType": "address",
          "name": "target",
          "type": "address"
        }
      ],
      "name": "AddressEmptyCode",
      "type": "error"
    },
    {
      "inputs": [
        {
          "internalType": "address",
          "name": "account",
          "type": "address"
        }
      ],
      "name": "AddressInsufficientBalance",
      "type": "error"
    },
    {
      "inputs": [],
      "name": "FailedInnerCall",
      "type": "error"
    },
    {
      "inputs": [
        {
          "internalType": "address",
          "name": "owner",
          "type": "address"
        }
      ],
      "name": "OwnableInvalidOwner",
      "type": "error"
    },
    {
      "inputs": [
        {
          "internalType": "address",
          "name": "account",
          "type": "address"
        }
      ],
      "name": "OwnableUnauthorizedAccount",
      "type": "error"
    },
    {
      "inputs": [
        {
          "internalType": "address",
          "name": "token",
          "type": "address"
        }
      ],
      "name": "SafeERC20FailedOperation",
      "type": "error"
    },
    {
      "anonymous": false,
      "inputs": [
        {
          "indexed": true,
          "internalType": "address",
          "name": "previousOwner",
          "type": "address"
        },
        {
          "indexed": true,
          "internalType": "address",
          "name": "newOwner",
          "type": "address"
        }
      ],
      "name": "OwnershipTransferred",
      "type": "event"
    },
    {
      "inputs": [
        {
          "internalType": "uint256",
          "name": "",
          "type": "uint256"
        }
      ],
      "name": "messages",
      "outputs": [
        {
          "internalType": "string",
          "name": "",
          "type": "string"
        }
      ],
      "stateMutability": "view",
      "type": "function"
    },
    {
      "inputs": [],
      "name": "messagesCount",
      "outputs": [
        {
          "internalType": "uint256",
          "name": "",
          "type": "uint256"
        }
      ],
      "stateMutability": "view",
      "type": "function"
    },
    {
      "inputs": [],
      "name": "owner",
      "outputs": [
        {
          "internalType": "address",
          "name": "",
          "type": "address"
        }
      ],
      "stateMutability": "view",
      "type": "function"
    },
    {
      "inputs": [
        {
          "internalType": "string",
          "name": "message",
          "type": "string"
        }
      ],
      "name": "receiveMessage",
      "outputs": [],
      "stateMutability": "nonpayable",
      "type": "function"
    },
    {
      "inputs": [],
      "name": "renounceOwnership",
      "outputs": [],
      "stateMutability": "nonpayable",
      "type": "function"
    },
    {
      "inputs": [
        {
          "internalType": "uint256",
          "name": "targetChainId",
          "type": "uint256"
        },
        {
          "internalType": "string",
          "name": "message",
          "type": "string"
        },
        {
          "internalType": "uint256",
          "name": "feeAmount",
          "type": "uint256"
        },
        {
          "internalType": "uint256",
          "name": "feeSignatureExpired",
          "type": "uint256"
        },
        {
          "internalType": "bytes",
          "name": "feeSignature",
          "type": "bytes"
        }
      ],
      "name": "sendMessage",
      "outputs": [],
      "stateMutability": "payable",
      "type": "function"
    },
    {
      "inputs": [
        {
          "internalType": "address",
          "name": "newOwner",
          "type": "address"
        }
      ],
      "name": "transferOwnership",
      "outputs": [],
      "stateMutability": "nonpayable",
      "type": "function"
    },
    {
      "inputs": [],
      "name": "yarConnector",
      "outputs": [
        {
          "internalType": "contract IYarConnector",
          "name": "",
          "type": "address"
        }
      ],
      "stateMutability": "view",
      "type": "function"
    }
  ],
  "transactionHash": "0x6623c546fd8f605fc7885f2035a9c1fb36fe1e92d28706a3332635a9682555b0",
  "args": [
    "0x6EA43d6Bf2e82F73ac3cB988389a02014D74a92a"
  ],
  "numDeployments": 1,
  "solcInputHash": "09d82f7750202df666cf8d0c80e81484",
  "bytecode": "0x6080346100c657601f610c6638819003918201601f19168301916001600160401b038311848410176100cb578084926020946040528339810103126100c657516001600160a01b0390818116908190036100c65733156100ad5760005460018060a01b0319903382821617600055604051933391167f8be0079c531659141344cd1fd0a4f28419497f9722a3daafe3b4186f6b6457e0600080a36001541617600155610b8490816100e28239f35b604051631e4fbdf760e01b815260006004820152602490fd5b600080fd5b634e487b7160e01b600052604160045260246000fdfe60406080815260048036101561001457600080fd5b600091823560e01c80630d80fefd146108405780631da7d6c9146104a95780632f049bf3146101e3578063685252f3146101ba578063715018a61461015d5780638da5cb5b146101355780639b71653b146101125763f2fde38b1461007857600080fd5b3461010e57602036600319011261010e576001600160a01b0382358181169391929084900361010a576100a9610a72565b83156100f4575050600054826bffffffffffffffffffffffff60a01b821617600055167f8be0079c531659141344cd1fd0a4f28419497f9722a3daafe3b4186f6b6457e0600080a380f35b51631e4fbdf760e01b8152908101849052602490fd5b8480fd5b8280fd5b8382346101315781600319360112610131576020906002549051908152f35b5080fd5b838234610131578160031936011261013157905490516001600160a01b039091168152602090f35b83346101b757806003193601126101b757610176610a72565b600080546001600160a01b0319811682556001600160a01b03167f8be0079c531659141344cd1fd0a4f28419497f9722a3daafe3b4186f6b6457e08280a380f35b80fd5b83823461013157816003193601126101315760015490516001600160a01b039091168152602090f35b503461010e57602091826003193601126104a55767ffffffffffffffff9281358481116104a1576102179036908401610a3f565b9260018060a01b039460019580875416803303610469578284918151928380926364cef2bf60e11b82525afa90811561045f579086918b916103ef575b5001511630036103bd5750600254680100000000000000008110156103aa5780866102829201600255610940565b969096610398578411610385575061029a855461098d565b601f811161033f575b508591601f84116001146102de575092829391839287946102d3575b50501b916000199060031b1c191617905580f35b0135925038806102bf565b9183601f1981168789528489209489905b88838310610325575050501061030b575b505050811b01905580f35b0135600019600384901b60f8161c19169055388080610300565b8686013588559096019593840193879350908101906102ef565b858752828720601f850160051c81019184861061037b575b601f0160051c019085905b8281106103705750506102a3565b888155018590610362565b9091508190610357565b634e487b7160e01b875260419052602486fd5b634e487b7160e01b8852878252602488fd5b634e487b7160e01b885260418252602488fd5b5162461bcd60e51b8152908101839052600d60248201526c756e6b6e6f776e20706565722160981b6044820152606490fd5b809250848092503d8311610458575b61040881836109c7565b81010312610454578251908382018281108b82111761043f57878093926104359287528051845201610a9e565b8282015238610254565b604186634e487b7160e01b6000525260246000fd5b8980fd5b503d6103fe565b83513d8c823e3d90fd5b825162461bcd60e51b815280850187905260126024820152716f6e6c7920796172436f6e6e6563746f722160701b6044820152606490fd5b8580fd5b8380fd5b5060a036600319011261010e57602480359267ffffffffffffffff938481116104a1576104d99036908301610a3f565b949060843582811161083c576104f29036908501610a3f565b91909660018060a01b039182600154168851809163647846a560e01b8252818960209485935afa908115610832579085918d916107f6575b50168015949085156106f55760443534036106c65790898b8a8f809a99989796955b8915610647575b50505050509061059e91600154169460001461063d57610590604435935b8c51958693632f049bf360e01b818601528d8501526044840191610aca565b03601f1981018452836109c7565b823b1561010a576105dc916105fe8a519b8c9687958694633ed4774f60e11b86528c358d8701528d309087015260c0604487015260c48601906109ff565b91604435606486015260643560848601526003198584030160a4860152610aca565b03925af1801561063357610610578580f35b84116106225750505238808080808580f35b634e487b7160e01b85526041905283fd5b84513d88823e3d90fd5b6105908793610571565b9160449187949387600154169451968795869463095ea7b360e01b86528501528435908401525af180156106bc579061059e93929161068f575b8b919293508a898e92610553565b6106ae90833d85116106b5575b6106a681836109c7565b810190610ab2565b5038610681565b503d61069c565b8c513d8a823e3d90fd5b8a5162461bcd60e51b8152808a01849052600a818c015269666565416d6f756e742160b01b6044820152606490fd5b8a51838101906323b872dd60e01b8252338c82015230604482015260443560648201526064815260a081018181108b8211176107e3578d52518e9182919082855af13d156107d7573d8981116107c557610771918f918e519061076188601f19601f84011601836109c7565b81528092873d92013e5b83610aeb565b8051908482151592836107ac575b5050506107975790898b8a8f809a999897969561054c565b888a918c5191635274afe760e01b8352820152fd5b6107bc9350820181019101610ab2565b1538848161077f565b634e487b7160e01b8f5260418b528b8ffd5b6107719060609061076b565b50634e487b7160e01b8f5260418b528b8ffd5b809250838092503d831161082b575b61080f81836109c7565b81010312610827576108218591610a9e565b3861052a565b8b80fd5b503d610805565b8a513d8e823e3d90fd5b8780fd5b503461010e57602091826003193601126104a557803560025481101561010a5761086990610940565b91909161092e57508151938491818154906108838261098d565b928386526001928884821691826000146109045750506001146108c6575b85886108c2896108b3848a03856109c7565b519282849384528301906109ff565b0390f35b87945081939291528383205b8284106108ec57505050820101816108b36108c2386108a1565b8054848a0186015288955087949093019281016108d2565b60ff19168882015294151560051b870190940194508593506108b392506108c291503890506108a1565b634e487b7160e01b8552849052602484fd5b6002548110156109775760026000527f405787fa12a823e0f2b7631cc41b3ba8828b3321ca811111fa75cd3aa3bb5ace0190600090565b634e487b7160e01b600052603260045260246000fd5b90600182811c921680156109bd575b60208310146109a757565b634e487b7160e01b600052602260045260246000fd5b91607f169161099c565b90601f8019910116810190811067ffffffffffffffff8211176109e957604052565b634e487b7160e01b600052604160045260246000fd5b919082519283825260005b848110610a2b575050826000602080949584010152601f8019910116010190565b602081830181015184830182015201610a0a565b9181601f84011215610a6d5782359167ffffffffffffffff8311610a6d5760208381860195010111610a6d57565b600080fd5b6000546001600160a01b03163303610a8657565b60405163118cdaa760e01b8152336004820152602490fd5b51906001600160a01b0382168203610a6d57565b90816020910312610a6d57518015158103610a6d5790565b908060209392818452848401376000828201840152601f01601f1916010190565b90610b125750805115610b0057805190602001fd5b604051630a12f52160e11b8152600490fd5b81511580610b45575b610b23575090565b604051639996b31560e01b81526001600160a01b039091166004820152602490fd5b50803b15610b1b56fea26469706673582212204d5bc8214105b418b8479b19110b676e5ac90f80d2ed2af7176bd79f96e5ed8d64736f6c63430008140033",
  "devdoc": {
    "errors": {
      "AddressEmptyCode(address)": [
        {
          "details": "There's no code at `target` (it is not a contract)."
        }
      ],
      "AddressInsufficientBalance(address)": [
        {
          "details": "The ETH balance of the account is not enough to perform the operation."
        }
      ],
      "FailedInnerCall()": [
        {
          "details": "A call to an address target failed. The target may have reverted."
        }
      ],
      "OwnableInvalidOwner(address)": [
        {
          "details": "The owner is not a valid owner account. (eg. `address(0)`)"
        }
      ],
      "OwnableUnauthorizedAccount(address)": [
        {
          "details": "The caller account is not authorized to perform an operation."
        }
      ],
      "SafeERC20FailedOperation(address)": [
        {
          "details": "An operation with an ERC20 token failed."
        }
      ]
    },
    "kind": "dev",
    "methods": {
      "owner()": {
        "details": "Returns the address of the current owner."
      },
      "renounceOwnership()": {
        "details": "Leaves the contract without owner. It will not be possible to call `onlyOwner` functions. Can only be called by the current owner. NOTE: Renouncing ownership will leave the contract without an owner, thereby disabling any functionality that is only available to the owner."
      },
      "transferOwnership(address)": {
        "details": "Transfers ownership of the contract to a new account (`newOwner`). Can only be called by the current owner."
      }
    },
    "version": 1
  },
  "userdoc": {
    "kind": "user",
    "methods": {},
    "version": 1
  },
  "storageLayout": {
    "storage": [
      {
        "astId": 8,
        "contract": "contracts/apps/echo/YarEcho.sol:YarEcho",
        "label": "_owner",
        "offset": 0,
        "slot": "0",
        "type": "t_address"
      },
      {
        "astId": 3090,
        "contract": "contracts/apps/echo/YarEcho.sol:YarEcho",
        "label": "yarConnector",
        "offset": 0,
        "slot": "1",
        "type": "t_contract(IYarConnector)3318"
      },
      {
        "astId": 3093,
        "contract": "contracts/apps/echo/YarEcho.sol:YarEcho",
        "label": "messages",
        "offset": 0,
        "slot": "2",
        "type": "t_array(t_string_storage)dyn_storage"
      }
    ],
    "types": {
      "t_address": {
        "encoding": "inplace",
        "label": "address",
        "numberOfBytes": "20"
      },
      "t_array(t_string_storage)dyn_storage": {
        "base": "t_string_storage",
        "encoding": "dynamic_array",
        "label": "string[]",
        "numberOfBytes": "32"
      },
      "t_contract(IYarConnector)3318": {
        "encoding": "inplace",
        "label": "contract IYarConnector",
        "numberOfBytes": "20"
      },
      "t_string_storage": {
        "encoding": "bytes",
        "label": "string",
        "numberOfBytes": "32"
      }
    }
  }
}