{
  "address": "0x8F4B5CcffF9d5fAACEb4bf254001AF42A8b806b2",
  "abi": [
    {
      "inputs": [
        {
          "internalType": "string",
          "name": "initialNativeName",
          "type": "string"
        },
        {
          "internalType": "string",
          "name": "initialNativeSymbol",
          "type": "string"
        },
        {
          "internalType": "uint8",
          "name": "initialNativeDecimals",
          "type": "uint8"
        },
        {
          "internalType": "address",
          "name": "intialYarRequest",
          "type": "address"
        },
        {
          "internalType": "address",
          "name": "intialYarResponse",
          "type": "address"
        }
      ],
      "stateMutability": "nonpayable",
      "type": "constructor"
    },
    {
      "inputs": [
        {
          "internalType": "address",
          "name": "target",
          "type": "address"
        }
      ],
      "name": "AddressEmptyCode",
      "type": "error"
    },
    {
      "inputs": [
        {
          "internalType": "address",
          "name": "account",
          "type": "address"
        }
      ],
      "name": "AddressInsufficientBalance",
      "type": "error"
    },
    {
      "inputs": [],
      "name": "FailedInnerCall",
      "type": "error"
    },
    {
      "inputs": [
        {
          "internalType": "address",
          "name": "token",
          "type": "address"
        }
      ],
      "name": "SafeERC20FailedOperation",
      "type": "error"
    },
    {
      "inputs": [],
      "name": "bridgedTokenImplementation",
      "outputs": [
        {
          "internalType": "address",
          "name": "",
          "type": "address"
        }
      ],
      "stateMutability": "view",
      "type": "function"
    },
    {
      "inputs": [],
      "name": "chainId",
      "outputs": [
        {
          "internalType": "uint256",
          "name": "",
          "type": "uint256"
        }
      ],
      "stateMutability": "view",
      "type": "function"
    },
    {
      "inputs": [
        {
          "internalType": "uint256",
          "name": "originalChainId",
          "type": "uint256"
        },
        {
          "internalType": "address",
          "name": "originalToken",
          "type": "address"
        },
        {
          "internalType": "string",
          "name": "name",
          "type": "string"
        },
        {
          "internalType": "string",
          "name": "symbol",
          "type": "string"
        },
        {
          "internalType": "uint8",
          "name": "decimals",
          "type": "uint8"
        }
      ],
      "name": "deployFrom",
      "outputs": [],
      "stateMutability": "nonpayable",
      "type": "function"
    },
    {
      "inputs": [
        {
          "internalType": "address",
          "name": "token",
          "type": "address"
        },
        {
          "internalType": "uint256",
          "name": "targetChainId",
          "type": "uint256"
        }
      ],
      "name": "deployTo",
      "outputs": [
        {
          "components": [
            {
              "internalType": "uint256",
              "name": "initialChainId",
              "type": "uint256"
            },
            {
              "internalType": "address",
              "name": "sender",
              "type": "address"
            },
            {
              "internalType": "address",
              "name": "payer",
              "type": "address"
            },
            {
              "internalType": "uint256",
              "name": "targetChainId",
              "type": "uint256"
            },
            {
              "internalType": "address",
              "name": "target",
              "type": "address"
            },
            {
              "internalType": "uint256",
              "name": "value",
              "type": "uint256"
            },
            {
              "internalType": "bytes",
              "name": "data",
              "type": "bytes"
            },
            {
              "internalType": "uint256",
              "name": "_nonce",
              "type": "uint256"
            }
          ],
          "internalType": "struct YarLib.YarTX",
          "name": "",
          "type": "tuple"
        }
      ],
      "stateMutability": "nonpayable",
      "type": "function"
    },
    {
      "inputs": [
        {
          "internalType": "uint256",
          "name": "originalChainId",
          "type": "uint256"
        },
        {
          "internalType": "address",
          "name": "originalToken",
          "type": "address"
        }
      ],
      "name": "getBridgedTokenAddress",
      "outputs": [
        {
          "internalType": "address",
          "name": "",
          "type": "address"
        }
      ],
      "stateMutability": "view",
      "type": "function"
    },
    {
      "inputs": [
        {
          "internalType": "uint256",
          "name": "_chainId",
          "type": "uint256"
        }
      ],
      "name": "getPeer",
      "outputs": [
        {
          "components": [
            {
              "internalType": "address",
              "name": "peerAddress",
              "type": "address"
            },
            {
              "internalType": "string",
              "name": "nativeSymbol",
              "type": "string"
            }
          ],
          "internalType": "struct YarBridge20.PeerInfo",
          "name": "",
          "type": "tuple"
        }
      ],
      "stateMutability": "view",
      "type": "function"
    },
    {
      "inputs": [
        {
          "internalType": "address",
          "name": "bridgedToken",
          "type": "address"
        }
      ],
      "name": "isBridgedToken",
      "outputs": [
        {
          "internalType": "bool",
          "name": "exists",
          "type": "bool"
        }
      ],
      "stateMutability": "view",
      "type": "function"
    },
    {
      "inputs": [],
      "name": "nativeDecimals",
      "outputs": [
        {
          "internalType": "uint8",
          "name": "",
          "type": "uint8"
        }
      ],
      "stateMutability": "view",
      "type": "function"
    },
    {
      "inputs": [],
      "name": "nativeName",
      "outputs": [
        {
          "internalType": "string",
          "name": "",
          "type": "string"
        }
      ],
      "stateMutability": "view",
      "type": "function"
    },
    {
      "inputs": [],
      "name": "nativeSymbol",
      "outputs": [
        {
          "internalType": "string",
          "name": "",
          "type": "string"
        }
      ],
      "stateMutability": "view",
      "type": "function"
    },
    {
      "inputs": [
        {
          "internalType": "uint256",
          "name": "originalChainId",
          "type": "uint256"
        },
        {
          "internalType": "address",
          "name": "originalToken",
          "type": "address"
        }
      ],
      "name": "needDeploy",
      "outputs": [
        {
          "internalType": "bool",
          "name": "",
          "type": "bool"
        }
      ],
      "stateMutability": "view",
      "type": "function"
    },
    {
      "inputs": [],
      "name": "owner",
      "outputs": [
        {
          "internalType": "address",
          "name": "",
          "type": "address"
        }
      ],
      "stateMutability": "view",
      "type": "function"
    },
    {
      "inputs": [
        {
          "internalType": "uint256",
          "name": "",
          "type": "uint256"
        }
      ],
      "name": "peers",
      "outputs": [
        {
          "internalType": "address",
          "name": "peerAddress",
          "type": "address"
        },
        {
          "internalType": "string",
          "name": "nativeSymbol",
          "type": "string"
        }
      ],
      "stateMutability": "view",
      "type": "function"
    },
    {
      "inputs": [
        {
          "internalType": "uint8",
          "name": "_decimals",
          "type": "uint8"
        }
      ],
      "name": "setDecimals",
      "outputs": [],
      "stateMutability": "nonpayable",
      "type": "function"
    },
    {
      "inputs": [
        {
          "internalType": "string",
          "name": "_nativeName",
          "type": "string"
        },
        {
          "internalType": "string",
          "name": "_nativeSymbol",
          "type": "string"
        }
      ],
      "name": "setNativeInfo",
      "outputs": [],
      "stateMutability": "nonpayable",
      "type": "function"
    },
    {
      "inputs": [
        {
          "internalType": "uint256",
          "name": "newChainId",
          "type": "uint256"
        },
        {
          "internalType": "address",
          "name": "newPeer",
          "type": "address"
        },
        {
          "internalType": "string",
          "name": "newPeerNativeSymbol",
          "type": "string"
        }
      ],
      "name": "setPeer",
      "outputs": [],
      "stateMutability": "nonpayable",
      "type": "function"
    },
    {
      "inputs": [
        {
          "internalType": "uint256",
          "name": "originalChainId",
          "type": "uint256"
        },
        {
          "internalType": "address",
          "name": "originalToken",
          "type": "address"
        },
        {
          "internalType": "uint256",
          "name": "amount",
          "type": "uint256"
        },
        {
          "internalType": "address",
          "name": "recipient",
          "type": "address"
        }
      ],
      "name": "transferFrom",
      "outputs": [],
      "stateMutability": "nonpayable",
      "type": "function"
    },
    {
      "inputs": [
        {
          "internalType": "address",
          "name": "token",
          "type": "address"
        },
        {
          "internalType": "uint256",
          "name": "amount",
          "type": "uint256"
        },
        {
          "internalType": "uint256",
          "name": "targetChainId",
          "type": "uint256"
        },
        {
          "internalType": "address",
          "name": "recipient",
          "type": "address"
        }
      ],
      "name": "transferTo",
      "outputs": [
        {
          "components": [
            {
              "internalType": "uint256",
              "name": "initialChainId",
              "type": "uint256"
            },
            {
              "internalType": "address",
              "name": "sender",
              "type": "address"
            },
            {
              "internalType": "address",
              "name": "payer",
              "type": "address"
            },
            {
              "internalType": "uint256",
              "name": "targetChainId",
              "type": "uint256"
            },
            {
              "internalType": "address",
              "name": "target",
              "type": "address"
            },
            {
              "internalType": "uint256",
              "name": "value",
              "type": "uint256"
            },
            {
              "internalType": "bytes",
              "name": "data",
              "type": "bytes"
            },
            {
              "internalType": "uint256",
              "name": "_nonce",
              "type": "uint256"
            }
          ],
          "internalType": "struct YarLib.YarTX",
          "name": "",
          "type": "tuple"
        }
      ],
      "stateMutability": "payable",
      "type": "function"
    },
    {
      "inputs": [],
      "name": "yarRequest",
      "outputs": [
        {
          "internalType": "address",
          "name": "",
          "type": "address"
        }
      ],
      "stateMutability": "view",
      "type": "function"
    },
    {
      "inputs": [],
      "name": "yarResponse",
      "outputs": [
        {
          "internalType": "address",
          "name": "",
          "type": "address"
        }
      ],
      "stateMutability": "view",
      "type": "function"
    }
  ],
  "transactionHash": "0x049615b9c4fe3ded4fac69ea2d16f05ee5f83a7e642859de6d44e43c39aa4e1c",
  "args": [
    "XDC",
    "XDC",
    18,
    "0x47d0592780e3cB6587639B694dC35dd9B1010423",
    "0x8D8718bf8cb4F0d62974979F37415B934A0059aE"
  ],
  "numDeployments": 1,
  "solcInputHash": "8a9801cbb5c0c34a369ddf10d5c3b2cf",
  "bytecode": "0x608060405234620003cd5762004013803803806200001d81620003d2565b928339810160a082820312620003cd5781516001600160401b0390818111620003cd57826200004e918501620003f8565b6020928385015190838211620003cd576200006b918601620003f8565b60408501519060ff8216809203620003cd5762000099608062000091606089016200046a565b97016200046a565b948351858111620001ea57600754906001958683811c93168015620003c2575b84841014620002d4578190601f938481116200036b575b5084908483116001146200030157600092620002f5575b5050600019600383901b1c191690861b176007555b825192868411620001ea57600854928684811c94168015620002ea575b81851014620002d457838386951162000279575b50809284116001146200020c575060009262000200575b5050600019600383901b1c191690831b176008555b60ff19600954161760095560018060a01b039283918260018060a01b031996168682541617905516836002541617600255604051906118a4908183019083821090821117620001ea5782916200276f833903906000f08015620001de571681600354161760035546600555339060005416176000556040516122ef9081620004808239f35b6040513d6000823e3d90fd5b634e487b7160e01b600052604160045260246000fd5b01519050388062000144565b9190869450601f198416600860005283600020936000905b8282106200025f575050841162000245575b505050811b0160085562000159565b015160001960f88460031b161c1916905538808062000236565b848401518655899790950194938401939081019062000224565b90919293506008600052816000208480870160051c820192848810620002ca575b9187968a92969594930160051c01915b828110620002ba5750506200012d565b60008155879650899101620002aa565b925081926200029a565b634e487b7160e01b600052602260045260246000fd5b93607f169362000119565b015190503880620000e7565b90889350601f198316916007600052866000209260005b888282106200035457505084116200033a575b505050811b01600755620000fc565b015160001960f88460031b161c191690553880806200032b565b8385015186558c9790950194938401930162000318565b9091506007600052846000208480850160051c820192878610620003b8575b918a91869594930160051c01915b828110620003a8575050620000d0565b600081558594508a910162000398565b925081926200038a565b92607f1692620000b9565b600080fd5b6040519190601f01601f191682016001600160401b03811183821017620001ea57604052565b919080601f84011215620003cd5782516001600160401b038111620001ea576020906200042e601f8201601f19168301620003d2565b92818452828287010111620003cd5760005b8181106200045657508260009394955001015290565b858101830151848201840152820162000440565b51906001600160a01b0382168203620003cd5756fe6080604052600436101561001257600080fd5b60003560e01c806302e6d464146101575780630a4c6b7e14610152578063145211531461014d57806364996c9b1461014857806367ebb6b2146101435780637078944c1461013e578063768ea56a146101395780637a1395aa146101345780637fedad551461012f5780638ca9ca8e1461012a5780638da5cb5b146101255780639941138a1461012057806399f3f9f71461011b5780639a8a059214610116578063be4f3e8f14610111578063c287e5781461010c578063dfe70cef14610107578063e6a1496d14610102578063f4100f00146100fd5763ffac3775146100f857600080fd5b6112d5565b61121c565b6111f3565b6111d7565b611195565b61113e565b611120565b6110e4565b610f7e565b610f55565b610e37565b610dda565b610adb565b610aaf565b610a86565b610a31565b6106ae565b61067a565b6103f2565b610172565b6001600160a01b0381160361016d57565b600080fd5b3461016d57608036600319011261016d576004356024356101928161015c565b6044356064356101a18161015c565b6002546001600160a01b03908116936101bb338614611a12565b60405195869563f0db1fbf60e01b87528660046000998a935afa95861561030257879661023091889161030b575b508461022861021c602061020d610200865161167e565b516001600160a01b031690565b9401516001600160a01b031690565b6001600160a01b031690565b911614611897565b600554810361026d57501680610263575082809281925af1610250611a9e565b901561025b57505b80f35b602081519101fd5b6102589350611ace565b9061027b9195949395611cc9565b6001600160a01b03811660009081526004602052604090206102a8906102a3905b5460ff1690565b611a52565b16803b15610307576040516340c10f1960e01b81526001600160a01b0394909416600485015260248401919091528290604490829084905af18015610302576102ef575080f35b806102fc61025892610b70565b80610a7b565b61188b565b8280fd5b61032791503d808a833e61031f8183610bbe565b8101906117e5565b386101e9565b60005b8381106103405750506000910152565b8181015183820152602001610330565b906020916103698151809281855285808601910161032d565b601f01601f1916010190565b602081528151602082015260018060a01b038060208401511660408301526040830151166060820152606082015160808201526103c1608083015160a083019060018060a01b03169052565b60a082015160c082015260c082015160e06103e9610100928383860152610120850190610350565b93015191015290565b608036600319011261016d5760043561040a8161015c565b6024359060643560443561041d8261015c565b61042561190d565b506001600160a01b038316938461065f57610441813414611c33565b6001600160a01b03841660009081526004602052604090206104629061029c565b938415610656576040516353638be560e01b81526020816004818a5afa90811561030257600091610628575b50945b15610611575060206004949560405195868092630e7c1cb560e01b82525afa80156103025760009561050e6105a39561051c93899889916105e3575b50945b60405162b9b51960e21b602082015260248101949094526001600160a01b0395861660448501526064840152909316608482015291829060a4820190565b03601f198101835282610bbe565b61055c6005549261052f6102008261167e565b90610538611245565b94855230602086015233604086015260608501526001600160a01b03166080840152565b60a0820184905260c082015260e081018390526001546105869061021c906001600160a01b031681565b906040519485809481936334db7e0560e21b835260048301610375565b03925af18015610302576105c6916000916105ca575b5060405191829182610375565b0390f35b6105dd913d8091833e61031f8183610bbe565b386105b9565b610604915060203d811161060a575b6105fc8183610bbe565b8101906119b7565b386104cd565b503d6105f2565b60009550859461050e6105a39561051c93946104d0565b610649915060203d811161064f575b6106418183610bbe565b8101906119a8565b3861048e565b503d610637565b60055494610491565b6106693415611bf6565b61067581303388611c71565b610441565b3461016d57604036600319011261016d5760206106a460243561069c8161015c565b600435611712565b6040519015158152f35b3461016d5760408060031936011261016d576004908135916106cf8361015c565b602435926106db61190d565b506001600160a01b0381169160008361095d57506106f7610bdf565b6106ff610c9d565b9061070c60095460ff1690565b935b6001600160a01b038116600090815260046020526040902061072f9061029c565b1561093d57505084516353638be560e01b8152602094915084818481855afa90811561030257600091610920575b50938551630e7c1cb560e01b815281818581865afa91821561030257600092610903575b505085516352694c6b60e01b815290916000828581845afa91821561030257849260009182916108ea575b509188519384809263e8cfdce960e01b82525afa9788156103025761081c60009761080e61088c9b610847968b916108c9575b50985b600554996107f26102008761167e565b968d51998a95634654e54760e11b6020880152602487016119cc565b03601f198101865285610bbe565b610824611245565b958652306020870152338689015260608601526001600160a01b03166080850152565b60a0830184905260c083015260e082018390526001546108719061021c906001600160a01b031681565b908385518097819582946334db7e0560e21b84528301610375565b03925af1908115610302576105c6926000926108ae575b505191829182610375565b6108c291923d8091833e61031f8183610bbe565b90386108a3565b6108e4913d8091833e6108dc8183610bbe565b81019061195d565b386107df565b6108fd913d8091833e6108dc8183610bbe565b386107ac565b6109199250803d1061060a576105fc8183610bbe565b3880610781565b6109379150853d871161064f576106418183610bbe565b3861075d565b600095509061088c9761081c6108479361080e60059896985491966107e2565b84516306fdde0360e01b815281818481885afa918215610302578092610a16575b505084516395d89b4160e01b81526000818481885afa908115610302576000916109fd575b5090855163313ce56760e01b81526020818581895afa908115610302576000916109cf575b509361070e565b6109f0915060203d81116109f6575b6109e88183610bbe565b810190611993565b386109c8565b503d6109de565b610a10913d8091833e6108dc8183610bbe565b386109a3565b610a2a92503d8091833e6108dc8183610bbe565b388061097e565b3461016d57602036600319011261016d576020610a4f60043561167e565b6105c660405192839281845260018060a01b038151168285015201516040808401526060830190610350565b600091031261016d57565b3461016d57600036600319011261016d576003546040516001600160a01b039091168152602090f35b3461016d57600036600319011261016d57602060ff60095416604051908152f35b60ff81160361016d57565b3461016d57602036600319011261016d5760ff600435610afa81610ad0565b610b0f60018060a01b03600054163314611425565b1660ff196009541617600955600080f35b90600182811c92168015610b50575b6020831014610b3a57565b634e487b7160e01b600052602260045260246000fd5b91607f1691610b2f565b634e487b7160e01b600052604160045260246000fd5b6001600160401b038111610b8357604052565b610b5a565b604081019081106001600160401b03821117610b8357604052565b608081019081106001600160401b03821117610b8357604052565b90601f801991011681019081106001600160401b03821117610b8357604052565b6040519060008260075491610bf383610b20565b80835292600190818116908115610c7b5750600114610c1c575b50610c1a92500383610bbe565b565b6007600090815291507fa66cc928b5edb82af9bd49922954155ab7b0942694bea4ce44661d9a8736c6885b848310610c605750610c1a935050810160200138610c0d565b81935090816020925483858a01015201910190918592610c47565b905060209250610c1a94915060ff191682840152151560051b82010138610c0d565b6040519060008260085491610cb183610b20565b80835292600190818116908115610c7b5750600114610cd75750610c1a92500383610bbe565b6008600090815291507ff3f7a9fe364faab93b216da50a3214154f22a0a2b415b23a84c8169e8b636ee35b848310610d1b5750610c1a935050810160200138610c0d565b81935090816020925483858a01015201910190918592610d02565b9060405191826000825492610d4a84610b20565b908184526001948581169081600014610db75750600114610d74575b5050610c1a92500383610bbe565b9093915060005260209081600020936000915b818310610d9f575050610c1a93508201013880610d66565b85548884018501529485019487945091830191610d87565b915050610c1a94506020925060ff191682840152151560051b8201013880610d66565b3461016d57600036600319011261016d576105c6610df6610c9d565b604051918291602083526020830190610350565b9181601f8401121561016d578235916001600160401b03831161016d576020838186019501011161016d57565b3461016d5760a036600319011261016d57600435602435610e578161015c565b6001600160401b0360443581811161016d57610e77903690600401610e0a565b9160643590811161016d57610e90903690600401610e0a565b92909160843594610ea086610ad0565b6002546001600160a01b0397906004906000908a16610ec033821461174c565b60405163f0db1fbf60e01b815292839182905afa801561030257610f3899610f0092600092610f3a575b5061022861021c602061020d610200865161167e565b610f33610f2d61029c610f138585611cc9565b6001600160a01b0316600090815260046020526040902090565b156118cf565b611e2b565b005b610f4e91923d8091833e61031f8183610bbe565b9038610eea565b3461016d57600036600319011261016d576000546040516001600160a01b039091168152602090f35b3461016d57606036600319011261016d57602435610f9b8161015c565b6001600160401b0360443581811161016d57610fbb903690600401610e0a565b929091610ff260018060a01b0393600095610fda868854163314611425565b8560405195610fe887610b88565b1685523691611280565b92602090818401948552600435865260068252604086209351166001600160601b0360a01b845416178355600180930193518051928311610b83576110418361103b8754610b20565b87611541565b81601f841160011461107a5750928293918392879461106f575b50501b916000199060031b1c191617905580f35b01519250388061105b565b919083601f19811661109188600052602060002090565b9489905b888383106110ca57505050106110b1575b505050811b01905580f35b015160001960f88460031b161c191690553880806110a6565b858701518855909601959485019487935090810190611095565b3461016d57604036600319011261016d57602061110e6024356111068161015c565b600435611cc9565b6040516001600160a01b039091168152f35b3461016d57600036600319011261016d576020600554604051908152f35b3461016d57602036600319011261016d57600435600090815260066020526040902080546001600160a01b03169061117890600101610d36565b906105c66040519283928352604060208401526040830190610350565b3461016d57602036600319011261016d576004356111b28161015c565b60018060a01b03166000526004602052602060ff604060002054166040519015158152f35b3461016d57600036600319011261016d576105c6610df6610bdf565b3461016d57600036600319011261016d576002546040516001600160a01b039091168152602090f35b3461016d57600036600319011261016d576001546040516001600160a01b039091168152602090f35b6040519061010082018281106001600160401b03821117610b8357604052565b6001600160401b038111610b8357601f01601f191660200190565b92919261128c82611265565b9161129a6040519384610bbe565b82948184528183011161016d578281602093846000960137010152565b9080601f8301121561016d578160206112d293359101611280565b90565b3461016d57604036600319011261016d576001600160401b0360043581811161016d576113069036906004016112b7565b60243582811161016d5761131e9036906004016112b7565b60009261133560018060a01b038554163314611425565b8251908111610b83576113528161134d600754610b20565b61145f565b602080601f831160011461139357508190610258948692611388575b50508160011b916000199060031b1c191617600755611595565b01519050388061136e565b919293601f1984166113c760076000527fa66cc928b5edb82af9bd49922954155ab7b0942694bea4ce44661d9a8736c68890565b9387905b82821061140d575050916001939185610258979694106113f4575b505050811b01600755611595565b015160001960f88460031b161c191690553880806113e6565b806001869782949787015181550196019401906113cb565b1561142c57565b60405162461bcd60e51b815260206004820152600b60248201526a6f6e6c79206f776e65722160a81b6044820152606490fd5b601f811161146b575050565b600090600782527fa66cc928b5edb82af9bd49922954155ab7b0942694bea4ce44661d9a8736c688906020601f850160051c830194106114c6575b601f0160051c01915b8281106114bb57505050565b8181556001016114af565b90925082906114a6565b601f81116114dc575050565b600090600882527ff3f7a9fe364faab93b216da50a3214154f22a0a2b415b23a84c8169e8b636ee3906020601f850160051c83019410611537575b601f0160051c01915b82811061152c57505050565b818155600101611520565b9092508290611517565b90601f811161154f57505050565b600091825260208220906020601f850160051c8301941061158b575b601f0160051c01915b82811061158057505050565b818155600101611574565b909250829061156b565b9081516001600160401b038111610b83576115ba816115b5600854610b20565b6114d0565b602080601f83116001146115f657508192936000926115eb575b50508160011b916000199060031b1c191617600855565b0151905038806115d4565b90601f1983169461162960086000527ff3f7a9fe364faab93b216da50a3214154f22a0a2b415b23a84c8169e8b636ee390565b926000905b87821061166657505083600195961061164d575b505050811b01600855565b015160001960f88460031b161c19169055388080611642565b8060018596829496860151815501950193019061162e565b60409060606020835161169081610b88565b6000815201526000526006602052806000208151906116ae82610b88565b80546001600160a01b039081168352906116ca90600101610d36565b602083015281511661170d57508051906116e382610b88565b30825280519060208201908282106001600160401b03831117610b83575260008152602082015290565b905090565b906005548214611745576001600160a01b039161172f9190611cc9565b16600052600460205260ff604060002054161590565b5050600090565b1561175357565b60405162461bcd60e51b815260206004820152601060248201526f6f6e6c7920796172526571756573742160801b6044820152606490fd5b5190610c1a8261015c565b909291926117a381611265565b916117b16040519384610bbe565b82948284528282011161016d576020610c1a93019061032d565b9080601f8301121561016d5781516112d292602001611796565b9060208282031261016d5781516001600160401b039283821161016d57016101008183031261016d57611816611245565b92815184526118276020830161178b565b60208501526118386040830161178b565b6040850152606082015160608501526118536080830161178b565b608085015260a082015160a085015260c082015190811161016d5760e09261187c9183016117cb565b60c0840152015160e082015290565b6040513d6000823e3d90fd5b1561189e57565b60405162461bcd60e51b81526020600482015260096024820152686e6f7420706565722160b81b6044820152606490fd5b156118d657565b60405162461bcd60e51b815260206004820152600f60248201526e616c7265616479206578697374732160881b6044820152606490fd5b6040519061010082018281106001600160401b03821117610b83576040528160e06000918281528260208201528260408201528260608201528260808201528260a0820152606060c08201520152565b60208183031261016d578051906001600160401b03821161016d57019080601f8301121561016d5781516112d292602001611796565b9081602091031261016d57516112d281610ad0565b9081602091031261016d575190565b9081602091031261016d57516112d28161015c565b936119fd60809460ff94611a0b94999899885260018060a01b0316602088015260a0604088015260a0870190610350565b908582036060870152610350565b9416910152565b15611a1957565b60405162461bcd60e51b81526020600482015260116024820152706f6e6c7920796172526573706f6e73652160781b6044820152606490fd5b15611a5957565b60405162461bcd60e51b815260206004820152601c60248201527f6265666f7265206465706c6f79206272696467656420746f6b656e21000000006044820152606490fd5b3d15611ac9573d90611aaf82611265565b91611abd6040519384610bbe565b82523d6000602084013e565b606090565b60405163a9059cbb60e01b60208201526001600160a01b03929092166024830152604480830193909352918152610c1a91611b0a606483610bbe565b60018060a01b031690611b34600080836020829551910182875af1611b2d611a9e565b9084611b93565b908151918215159283611b64575b505050611b4c5750565b60249060405190635274afe760e01b82526004820152fd5b819293509060209181010312611b8f576020015190811591821503611b8c5750388080611b42565b80fd5b5080fd5b90611bba5750805115611ba857805190602001fd5b604051630a12f52160e11b8152600490fd5b81511580611bed575b611bcb575090565b604051639996b31560e01b81526001600160a01b039091166004820152602490fd5b50803b15611bc3565b15611bfd57565b60405162461bcd60e51b815260206004820152600e60248201526d06d73672e76616c756520213d20360941b6044820152606490fd5b15611c3a57565b60405162461bcd60e51b815260206004820152600f60248201526e7472616e73666572416d6f756e742160881b6044820152606490fd5b6040516323b872dd60e01b60208201526001600160a01b03928316602482015292909116604483015260648083019390935291815260a08101918183106001600160401b03841117610b8357610c1a92604052611b0a565b6112d29161021c91604051611d018161050e6020958683019586909160349282526001600160601b03199060601b1660208201520190565b5190209061034d604051611d1783830182610bbe565b81815282810191611f6d8339611d4b836040518093611d3e8383019687925192839161032d565b8101038084520182610bbe565b5190206040519182019260ff60f81b84526001600160601b03193060601b1660218401526035830152605582015260558152611d8681610ba3565b5190206001600160a01b031690565b908060209392818452848401376000828201840152601f01601f1916010190565b96919360ff95611ded60a09895611a0b97611dfb959d9c9d8c526001808c1b031660208c015260c060408c015260c08b0190610350565b9189830360608b0152611d95565b918683036080880152611d95565b6001600160a01b0390911681526040602082018190526112d292910190610350565b90949591939295604051926020840184611e5f898684909160349282526001600160601b03199060601b1660208201520190565b0394611e73601f1996878101835282610bbe565b51902060405161034d8082018281106001600160401b03821117610b83578291611f6d833903906000f5918215610302576003546001600160a01b0393841699611ef497611ee895909216986020611eca8861167e565b01516040516363f76b7160e01b60208201529b8c9860248a01611db6565b03908101845283610bbe565b823b1561016d5760405163c0d91eaf60e01b81529160009183918291611f1e919060048401611e09565b038183865af1801561030257611f59575b506001600160a01b03811660009081526004602052604090206112d290805460ff19166001179055565b806102fc611f6692610b70565b38611f2f56fe6080806040523461001657610331908161001c8239f35b600080fdfe60806040526004361061010f576000803560e01c63c0d91eaf14610023575061010f565b346100af5760403660031901126100af576004356001600160a01b03811681036100a75760243567ffffffffffffffff81116100ab57366023820112156100ab578060040135918361007c610077856100f3565b6100c8565b9284845236602486830101116100a757846100a495602460209301838701378401015261015b565b80f35b5080fd5b8280fd5b80fd5b634e487b7160e01b600052604160045260246000fd5b6040519190601f01601f1916820167ffffffffffffffff8111838210176100ee57604052565b6100b2565b67ffffffffffffffff81116100ee57601f01601f191660200190565b7f360894a13ba1a3210667c828492db98dca3e2076cc3735a920a3ca505d382bbc54600090819081906001600160a01b0316368280378136915af43d82803e15610157573d90f35b3d90fd5b9060005460ff81166102295760ff1916600117600055813b15610208577f360894a13ba1a3210667c828492db98dca3e2076cc3735a920a3ca505d382bbc80546001600160a01b0319166001600160a01b0384169081179091557fbc7cd75a20ee27fd9adebab32041f755214dbc6bffa90cc0225b39da2e5c2d3b600080a28051156101ed576101ea9161025d565b50565b5050346101f657565b60405163b398979f60e01b8152600490fd5b604051634c9c8ce360e01b81526001600160a01b0383166004820152602490fd5b60405162461bcd60e51b815260206004820152600c60248201526b616c7265616479496e69742160a01b6044820152606490fd5b60008061029193602081519101845af43d15610294573d91610281610077846100f3565b9283523d6000602085013e610298565b90565b6060915b906102bf57508051156102ad57805190602001fd5b604051630a12f52160e11b8152600490fd5b815115806102f2575b6102d0575090565b604051639996b31560e01b81526001600160a01b039091166004820152602490fd5b50803b156102c856fea2646970667358221220e290ecc1e089760514aff988002864de709093e868dd9aa4bc700ec1eda2ca6864736f6c63430008140033a2646970667358221220e8dff0a34302c2a0d48251c035500ca63f6d3c9400136c81a2cec5643a30a4b464736f6c634300081400336080806040523461001657611888908161001c8239f35b600080fdfe608080604052600436101561001357600080fd5b60003560e01c90816306fdde03146111f157508063095ea7b3146111705780630e7c1cb51461114757806318160ddd1461110a57806323b872dd14611025578063313ce5671461100157806340c10f1914610f1f57806352694c6b14610f0357806353638be514610ee557806363f76b711461054c57806370a0823114610505578063715018a61461049b5780638da5cb5b1461046557806395d89b4114610397578063989ee11a146103095780639dc29fac14610200578063a9059cbb146101cf578063dd62ed3e14610186578063e43a938f1461016a578063e8cfdce9146101365763f2fde38b1461010657600080fd5b346101315760203660031901126101315761012f6101226112d1565b61012a611541565b61157a565b005b600080fd5b346101315760003660031901126101315761016661015261148c565b604051918291602083526020830190611291565b0390f35b3461013157600036600319011261013157610166610152611405565b346101315760403660031901126101315761019f6112d1565b6101b06101aa6112e7565b916115ee565b9060018060a01b03166000526020526020604060002054604051908152f35b34610131576040366003190112610131576101f56101eb6112d1565b6024359033611627565b602060405160018152f35b34610131576040366003190112610131576102196112d1565b602435610224611541565b6001600160a01b0382169081156102f0578160005260008051602061179383398151915280602052604060002054938285106102bf5750817fddf252ad1be2c89b69c2b068fc378daa952ba7f163c4a11628f55a4df523b3ef9260009560209386885284520360408620557f52c63247e1f47db19d5ce0460030c497f067ca4cebf71ba98eeadabe20bace02818154039055604051908152a3005b60405163391434e360e21b81526001600160a01b039190911660048201526024810185905260448101839052606490fd5b604051634b637e8f60e11b815260006004820152602490fd5b346101315760003660031901126101315760005460015490610329611405565b9160ff610389610337611359565b61037b61034261148c565b9161036d604051988998895260018060a01b03881660208a015260c060408a015260c0890190611291565b908782036060890152611291565b908582036080870152611291565b9160a01c1660a08301520390f35b346101315760003660031901126101315760405160006000805160206117b383398151915280546103c7816112fd565b8085529160019180831690811561043b57506001146103f1575b6101668561015281870382611337565b600090815292506000805160206117f38339815191525b828410610423575050508101602001610152826101666103e1565b80546020858701810191909152909301928101610408565b8695506101669693506020925061015294915060ff191682840152151560051b82010192936103e1565b34610131576000366003190112610131576000805160206117d3833981519152546040516001600160a01b039091168152602090f35b34610131576000366003190112610131576104b4611541565b6000805160206117d383398151915280546001600160a01b031981169091556000906001600160a01b03167f8be0079c531659141344cd1fd0a4f28419497f9722a3daafe3b4186f6b6457e08280a3005b34610131576020366003190112610131576001600160a01b036105266112d1565b166000526000805160206117938339815191526020526020604060002054604051908152f35b346101315760c0366003190112610131576105656112e7565b60443567ffffffffffffffff811161013157610585903690600401611513565b9160643567ffffffffffffffff8111610131576105a6903690600401611513565b60849391933567ffffffffffffffff8111610131576105c9903690600401611513565b9160ff60a4351660a4350361013157600080516020611833833981519152549567ffffffffffffffff871680159081610ed5575b6001149081610ecb575b159081610ec2575b50610eb057600167ffffffffffffffff198816176000805160206118338339815191525560ff8760401c1615610e83575b604051607960f81b6020820152828260218301376106856022828b868201601760f91b6021820152818b85830137016000838201526002828203018252030182611337565b60405190607960f81b6020830152858560218401376106c96022838c898201601760f91b6021820152818c8583013701600083820152036002810185520183611337565b6106d16116e3565b6106d96116e3565b80519067ffffffffffffffff8211610a49578190610705600080516020611773833981519152546112fd565b601f8111610e02575b50602090601f8311600114610d7057600092610d65575b50508160011b916000199060031b1c191617600080516020611773833981519152555b80519067ffffffffffffffff8211610a495781906107746000805160206117b3833981519152546112fd565b601f8111610ce4575b50602090601f8311600114610c5257600092610c47575b50508160011b916000199060031b1c1916176000805160206117b3833981519152555b6107bf6116e3565b6107c76116e3565b6107d03361157a565b67ffffffffffffffff8211610a495781906107ec6003546112fd565b601f8111610bd3575b50600090601f8311600114610b5e57600092610b53575b50508160011b916000199060031b1c1916176003555b67ffffffffffffffff8211610a4957819061083e6004546112fd565b601f8111610adf575b50600090601f8311600114610a6a57600092610a5f575b50508160011b916000199060031b1c1916176004555b67ffffffffffffffff8411610a495761088e6002546112fd565b601f81116109dc575b50600090601f85116001146109665760ff94916000918361095b575b50508160011b916000199060031b1c1916176002555b600435600055600180546001600160a81b0319166001600160a01b039092169190911760a435841660a01b17905560401c161561090257005b68ff0000000000000000196000805160206118338339815191525416600080516020611833833981519152557fc7f505b2f371ae2175ee4913f4499e1f2633a7b5936321eed1cdaeb6115181d2602060405160018152a1005b0135905085806108b3565b601f1985169160026000526000805160206117338339815191529260005b8181106109c4575091600193918760ff9894106109aa575b505050811b016002556108c9565b0135600019600384901b60f8161c1916905585808061099c565b91936020600181928787013581550195019201610984565b6002600052601f850160051c600080516020611733833981519152019060208610610a33575b601f0160051c60008051602061173383398151915201905b818110610a275750610897565b60008155600101610a1a565b6000805160206117338339815191529150610a02565b634e487b7160e01b600052604160045260246000fd5b01359050868061085e565b600460009081529350600080516020611813833981519152915b601f1984168510610ac7576001945083601f19811610610aad575b505050811b01600455610874565b0135600019600384901b60f8161c19169055868080610a9f565b81810135835560209485019460019093019201610a84565b9091506004600052601f830160051c6000805160206118138339815191520160208410610b3e575b908392915b601f820160051c600080516020611813833981519152018110610b2f5750610847565b60008155849350600101610b0c565b50600080516020611813833981519152610b07565b01359050888061080c565b600360009081529350600080516020611753833981519152915b601f1984168510610bbb576001945083601f19811610610ba1575b505050811b01600355610822565b0135600019600384901b60f8161c19169055888080610b93565b81810135835560209485019460019093019201610b78565b9091506003600052601f830160051c6000805160206117538339815191520160208410610c32575b908392915b601f820160051c600080516020611753833981519152018110610c2357506107f5565b60008155849350600101610c00565b50600080516020611753833981519152610bfb565b015190508a80610794565b92506000805160206117b38339815191526000526000805160206117f3833981519152906000935b601f1984168510610cc9576001945083601f19811610610cb0575b505050811b016000805160206117b3833981519152556107b7565b015160001960f88460031b161c191690558a8080610c95565b81810151835560209485019460019093019290910190610c7a565b9091506000805160206117b3833981519152600052601f830160051c6000805160206117f38339815191520160208410610d50575b908392915b601f820160051c6000805160206117f3833981519152018110610d41575061077d565b60008155849350600101610d1e565b506000805160206117f3833981519152610d19565b015190508b80610725565b9250600080516020611773833981519152600052600080516020611713833981519152906000935b601f1984168510610de7576001945083601f19811610610dce575b505050811b0160008051602061177383398151915255610748565b015160001960f88460031b161c191690558b8080610db3565b81810151835560209485019460019093019290910190610d98565b909150600080516020611773833981519152600052601f830160051c6000805160206117138339815191520160208410610e6e575b908392915b601f820160051c600080516020611713833981519152018110610e5f575061070e565b60008155849350600101610e3c565b50600080516020611713833981519152610e37565b68ffffffffffffffffff198716680100000000000000011760008051602061183383398151915255610640565b60405163f92ee8a960e01b8152600490fd5b9050158961060f565b303b159150610607565b604089901c60ff161591506105fd565b34610131576000366003190112610131576020600054604051908152f35b3461013157600036600319011261013157610166610152611359565b3461013157604036600319011261013157610f386112d1565b60243590610f44611541565b6001600160a01b0316908115610fe8577f52c63247e1f47db19d5ce0460030c497f067ca4cebf71ba98eeadabe20bace02805490828201809211610fd2576000927fddf252ad1be2c89b69c2b068fc378daa952ba7f163c4a11628f55a4df523b3ef9260209255848452600080516020611793833981519152825260408420818154019055604051908152a3005b634e487b7160e01b600052601160045260246000fd5b60405163ec442f0560e01b815260006004820152602490fd5b3461013157600036600319011261013157602060ff60015460a01c16604051908152f35b346101315760603660031901126101315761103e6112d1565b6110466112e7565b60443590611053836115ee565b33600052602052604060002054926000198403611075575b6101f59350611627565b8284106110e4576001600160a01b038116156110cb5733156110b257826101f59461109f836115ee565b336000526020520360406000205561106b565b604051634a1406b160e11b815260006004820152602490fd5b60405163e602df0560e01b815260006004820152602490fd5b604051637dc7a0d960e11b81523360048201526024810185905260448101849052606490fd5b346101315760003660031901126101315760207f52c63247e1f47db19d5ce0460030c497f067ca4cebf71ba98eeadabe20bace0254604051908152f35b34610131576000366003190112610131576001546040516001600160a01b039091168152602090f35b34610131576040366003190112610131576111896112d1565b6024359033156110cb576001600160a01b03169081156110b2576111ac336115ee565b82600052602052806040600020556040519081527f8c5be1e5ebec7d5bd14f71427d1e84f3dd0314c0f7b2291e5b200ac8c7c3b92560203392a3602060405160018152f35b34610131576000366003190112610131576000600080516020611773833981519152805461121e816112fd565b8085529160019180831690811561043b5750600114611247576101668561015281870382611337565b600090815292506000805160206117138339815191525b828410611279575050508101602001610152826101666103e1565b8054602085870181019190915290930192810161125e565b919082519283825260005b8481106112bd575050826000602080949584010152601f8019910116010190565b60208183018101518483018201520161129c565b600435906001600160a01b038216820361013157565b602435906001600160a01b038216820361013157565b90600182811c9216801561132d575b602083101461131757565b634e487b7160e01b600052602260045260246000fd5b91607f169161130c565b90601f8019910116810190811067ffffffffffffffff821117610a4957604052565b604051906000826003549161136d836112fd565b808352926001908181169081156113e35750600114611396575b5061139492500383611337565b565b6003600090815291506000805160206117538339815191525b8483106113c85750611394935050810160200138611387565b81935090816020925483858a010152019101909185926113af565b90506020925061139494915060ff191682840152151560051b82010138611387565b6040519060008260025491611419836112fd565b808352926001908181169081156113e3575060011461143f575061139492500383611337565b6002600090815291506000805160206117338339815191525b8483106114715750611394935050810160200138611387565b81935090816020925483858a01015201910190918592611458565b60405190600082600454916114a0836112fd565b808352926001908181169081156113e357506001146114c6575061139492500383611337565b6004600090815291506000805160206118138339815191525b8483106114f85750611394935050810160200138611387565b81935090816020925483858a010152019101909185926114df565b9181601f840112156101315782359167ffffffffffffffff8311610131576020838186019501011161013157565b6000805160206117d3833981519152546001600160a01b0316330361156257565b60405163118cdaa760e01b8152336004820152602490fd5b6001600160a01b039081169081156115d5576000805160206117d383398151915280546001600160a01b031981168417909155167f8be0079c531659141344cd1fd0a4f28419497f9722a3daafe3b4186f6b6457e0600080a3565b604051631e4fbdf760e01b815260006004820152602490fd5b6001600160a01b031660009081527f52c63247e1f47db19d5ce0460030c497f067ca4cebf71ba98eeadabe20bace016020526040902090565b916001600160a01b038084169283156102f05716928315610fe857600090838252600080516020611793833981519152806020526040832054918483106116b0575082847fddf252ad1be2c89b69c2b068fc378daa952ba7f163c4a11628f55a4df523b3ef959360409388602097528652038282205586815220818154019055604051908152a3565b60405163391434e360e21b81526001600160a01b0391909116600482015260248101929092525060448101839052606490fd5b60ff6000805160206118338339815191525460401c161561170057565b604051631afcd79f60e31b8152600490fdfe2ae08a8e29253f69ac5d979a101956ab8f8d9d7ded63fa7a83b16fc47648eab0405787fa12a823e0f2b7631cc41b3ba8828b3321ca811111fa75cd3aa3bb5acec2575a0e9e593c00f959f8c92f12db2869c3395a3b0502d05e2516446f71f85b52c63247e1f47db19d5ce0460030c497f067ca4cebf71ba98eeadabe20bace0352c63247e1f47db19d5ce0460030c497f067ca4cebf71ba98eeadabe20bace0052c63247e1f47db19d5ce0460030c497f067ca4cebf71ba98eeadabe20bace049016d09d72d40fdae2fd8ceac6b6234c7706214fd39c1cd1e609a0528c19930046a2803e59a4de4e7a4c574b1243f25977ac4c77d5a1a4a609b5394cebb4a2aa8a35acfbc15ff81a39ae7d344fd709f28e8600b4aa8c65c6b64bfe7fe36bd19bf0c57e16840df040f15088dc2f81fe391c3923bec73e23a9662efc9c229c6a00a26469706673582212205d2f02178f50451741838164adc327b7eea985f54eae33fdd3f8516aca9e703d64736f6c63430008140033",
  "devdoc": {
    "errors": {
      "AddressEmptyCode(address)": [
        {
          "details": "There's no code at `target` (it is not a contract)."
        }
      ],
      "AddressInsufficientBalance(address)": [
        {
          "details": "The ETH balance of the account is not enough to perform the operation."
        }
      ],
      "FailedInnerCall()": [
        {
          "details": "A call to an address target failed. The target may have reverted."
        }
      ],
      "SafeERC20FailedOperation(address)": [
        {
          "details": "An operation with an ERC20 token failed."
        }
      ]
    },
    "kind": "dev",
    "methods": {},
    "version": 1
  },
  "userdoc": {
    "kind": "user",
    "methods": {},
    "version": 1
  },
  "storageLayout": {
    "storage": [
      {
        "astId": 3123,
        "contract": "contracts/apps/bridge20/YarBridge20.sol:YarBridge20",
        "label": "owner",
        "offset": 0,
        "slot": "0",
        "type": "t_address"
      },
      {
        "astId": 3125,
        "contract": "contracts/apps/bridge20/YarBridge20.sol:YarBridge20",
        "label": "yarRequest",
        "offset": 0,
        "slot": "1",
        "type": "t_address"
      },
      {
        "astId": 3127,
        "contract": "contracts/apps/bridge20/YarBridge20.sol:YarBridge20",
        "label": "yarResponse",
        "offset": 0,
        "slot": "2",
        "type": "t_address"
      },
      {
        "astId": 3129,
        "contract": "contracts/apps/bridge20/YarBridge20.sol:YarBridge20",
        "label": "bridgedTokenImplementation",
        "offset": 0,
        "slot": "3",
        "type": "t_address"
      },
      {
        "astId": 3133,
        "contract": "contracts/apps/bridge20/YarBridge20.sol:YarBridge20",
        "label": "isBridgedToken",
        "offset": 0,
        "slot": "4",
        "type": "t_mapping(t_address,t_bool)"
      },
      {
        "astId": 3135,
        "contract": "contracts/apps/bridge20/YarBridge20.sol:YarBridge20",
        "label": "chainId",
        "offset": 0,
        "slot": "5",
        "type": "t_uint256"
      },
      {
        "astId": 3145,
        "contract": "contracts/apps/bridge20/YarBridge20.sol:YarBridge20",
        "label": "peers",
        "offset": 0,
        "slot": "6",
        "type": "t_mapping(t_uint256,t_struct(PeerInfo)3140_storage)"
      },
      {
        "astId": 3147,
        "contract": "contracts/apps/bridge20/YarBridge20.sol:YarBridge20",
        "label": "nativeName",
        "offset": 0,
        "slot": "7",
        "type": "t_string_storage"
      },
      {
        "astId": 3149,
        "contract": "contracts/apps/bridge20/YarBridge20.sol:YarBridge20",
        "label": "nativeSymbol",
        "offset": 0,
        "slot": "8",
        "type": "t_string_storage"
      },
      {
        "astId": 3151,
        "contract": "contracts/apps/bridge20/YarBridge20.sol:YarBridge20",
        "label": "nativeDecimals",
        "offset": 0,
        "slot": "9",
        "type": "t_uint8"
      }
    ],
    "types": {
      "t_address": {
        "encoding": "inplace",
        "label": "address",
        "numberOfBytes": "20"
      },
      "t_bool": {
        "encoding": "inplace",
        "label": "bool",
        "numberOfBytes": "1"
      },
      "t_mapping(t_address,t_bool)": {
        "encoding": "mapping",
        "key": "t_address",
        "label": "mapping(address => bool)",
        "numberOfBytes": "32",
        "value": "t_bool"
      },
      "t_mapping(t_uint256,t_struct(PeerInfo)3140_storage)": {
        "encoding": "mapping",
        "key": "t_uint256",
        "label": "mapping(uint256 => struct YarBridge20.PeerInfo)",
        "numberOfBytes": "32",
        "value": "t_struct(PeerInfo)3140_storage"
      },
      "t_string_storage": {
        "encoding": "bytes",
        "label": "string",
        "numberOfBytes": "32"
      },
      "t_struct(PeerInfo)3140_storage": {
        "encoding": "inplace",
        "label": "struct YarBridge20.PeerInfo",
        "members": [
          {
            "astId": 3137,
            "contract": "contracts/apps/bridge20/YarBridge20.sol:YarBridge20",
            "label": "peerAddress",
            "offset": 0,
            "slot": "0",
            "type": "t_address"
          },
          {
            "astId": 3139,
            "contract": "contracts/apps/bridge20/YarBridge20.sol:YarBridge20",
            "label": "nativeSymbol",
            "offset": 0,
            "slot": "1",
            "type": "t_string_storage"
          }
        ],
        "numberOfBytes": "64"
      },
      "t_uint256": {
        "encoding": "inplace",
        "label": "uint256",
        "numberOfBytes": "32"
      },
      "t_uint8": {
        "encoding": "inplace",
        "label": "uint8",
        "numberOfBytes": "1"
      }
    }
  }
}