{
  "address": "0x03d853f041Ff1D288201c4D1A327EFC737085C35",
  "abi": [
    {
      "inputs": [
        {
          "internalType": "address",
          "name": "intialYarRequest",
          "type": "address"
        },
        {
          "internalType": "address",
          "name": "intialYarResponse",
          "type": "address"
        }
      ],
      "stateMutability": "nonpayable",
      "type": "constructor"
    },
    {
      "inputs": [],
      "name": "chainId",
      "outputs": [
        {
          "internalType": "uint256",
          "name": "",
          "type": "uint256"
        }
      ],
      "stateMutability": "view",
      "type": "function"
    },
    {
      "inputs": [
        {
          "internalType": "uint256",
          "name": "offset",
          "type": "uint256"
        },
        {
          "internalType": "uint256",
          "name": "limit",
          "type": "uint256"
        }
      ],
      "name": "getMessages",
      "outputs": [
        {
          "components": [
            {
              "internalType": "address",
              "name": "sender",
              "type": "address"
            },
            {
              "internalType": "string",
              "name": "message",
              "type": "string"
            },
            {
              "internalType": "uint256",
              "name": "timestamp",
              "type": "uint256"
            }
          ],
          "internalType": "struct YarBridgeMessage.Message[]",
          "name": "",
          "type": "tuple[]"
        }
      ],
      "stateMutability": "view",
      "type": "function"
    },
    {
      "inputs": [
        {
          "internalType": "uint256",
          "name": "_chainId",
          "type": "uint256"
        }
      ],
      "name": "getPeer",
      "outputs": [
        {
          "internalType": "address",
          "name": "",
          "type": "address"
        }
      ],
      "stateMutability": "view",
      "type": "function"
    },
    {
      "inputs": [],
      "name": "messageCount",
      "outputs": [
        {
          "internalType": "uint256",
          "name": "",
          "type": "uint256"
        }
      ],
      "stateMutability": "view",
      "type": "function"
    },
    {
      "inputs": [
        {
          "internalType": "uint256",
          "name": "",
          "type": "uint256"
        }
      ],
      "name": "messages",
      "outputs": [
        {
          "internalType": "address",
          "name": "sender",
          "type": "address"
        },
        {
          "internalType": "string",
          "name": "message",
          "type": "string"
        },
        {
          "internalType": "uint256",
          "name": "timestamp",
          "type": "uint256"
        }
      ],
      "stateMutability": "view",
      "type": "function"
    },
    {
      "inputs": [],
      "name": "owner",
      "outputs": [
        {
          "internalType": "address",
          "name": "",
          "type": "address"
        }
      ],
      "stateMutability": "view",
      "type": "function"
    },
    {
      "inputs": [
        {
          "internalType": "uint256",
          "name": "chainId",
          "type": "uint256"
        }
      ],
      "name": "peers",
      "outputs": [
        {
          "internalType": "address",
          "name": "peer",
          "type": "address"
        }
      ],
      "stateMutability": "view",
      "type": "function"
    },
    {
      "inputs": [
        {
          "internalType": "address",
          "name": "sender",
          "type": "address"
        },
        {
          "internalType": "string",
          "name": "message",
          "type": "string"
        }
      ],
      "name": "sendFrom",
      "outputs": [],
      "stateMutability": "nonpayable",
      "type": "function"
    },
    {
      "inputs": [
        {
          "internalType": "uint256",
          "name": "targetChainId",
          "type": "uint256"
        },
        {
          "internalType": "string",
          "name": "message",
          "type": "string"
        }
      ],
      "name": "sendTo",
      "outputs": [
        {
          "components": [
            {
              "internalType": "uint256",
              "name": "initialChainId",
              "type": "uint256"
            },
            {
              "internalType": "address",
              "name": "sender",
              "type": "address"
            },
            {
              "internalType": "address",
              "name": "payer",
              "type": "address"
            },
            {
              "internalType": "uint256",
              "name": "targetChainId",
              "type": "uint256"
            },
            {
              "internalType": "address",
              "name": "target",
              "type": "address"
            },
            {
              "internalType": "uint256",
              "name": "value",
              "type": "uint256"
            },
            {
              "internalType": "bytes",
              "name": "data",
              "type": "bytes"
            },
            {
              "internalType": "uint256",
              "name": "_nonce",
              "type": "uint256"
            }
          ],
          "internalType": "struct YarLib.YarTX",
          "name": "",
          "type": "tuple"
        }
      ],
      "stateMutability": "nonpayable",
      "type": "function"
    },
    {
      "inputs": [
        {
          "internalType": "uint256",
          "name": "newChainId",
          "type": "uint256"
        },
        {
          "internalType": "address",
          "name": "newPeer",
          "type": "address"
        }
      ],
      "name": "setPeer",
      "outputs": [],
      "stateMutability": "nonpayable",
      "type": "function"
    },
    {
      "inputs": [],
      "name": "yarRequest",
      "outputs": [
        {
          "internalType": "address",
          "name": "",
          "type": "address"
        }
      ],
      "stateMutability": "view",
      "type": "function"
    },
    {
      "inputs": [],
      "name": "yarResponse",
      "outputs": [
        {
          "internalType": "address",
          "name": "",
          "type": "address"
        }
      ],
      "stateMutability": "view",
      "type": "function"
    }
  ],
  "transactionHash": "0x8b3fbd8201b79043b44b1c5d069456499bc5e30709db8880157852d11ece2b77",
  "args": [
    "0x24e03AbB3f168a4deD0171060eFDB9a170bE193d",
    "0xAB4435F7E8a5C50798EBF367217cfba3Bb2DF7cb"
  ],
  "numDeployments": 1,
  "solcInputHash": "0dfd2ee173817abd3da52f748a20e061",
  "bytecode": "0x60803461009557601f610e8e38819003918201601f19168301916001600160401b0383118484101761009a57808492604094855283398101031261009557610052602061004b836100b0565b92016100b0565b60018060a01b03908160018060a01b03199316836002541617600255168160035416176003554660015533906000541617600055604051610dc990816100c58239f35b600080fd5b634e487b7160e01b600052604160045260246000fd5b51906001600160a01b03821682036100955756fe6040608081526004908136101561001557600080fd5b600091823560e01c9081630d80fefd146108fc5781633dbcc8d1146108dd5781634be8362d146106b25781635646e5e71461053b57816367ebb6b2146105075781638069c497146104835781638da5cb5b1461045b57816399847ac11461014f5781639a8a059214610130578163be4f3e8f146100fa57508063e6a1496d146100d25763f4100f00146100a757600080fd5b346100ce57816003193601126100ce5760025490516001600160a01b039091168152602090f35b5080fd5b50346100ce57816003193601126100ce5760035490516001600160a01b039091168152602090f35b90503461012c57602036600319011261012c57803583526020908152918190205490516001600160a01b039091168152f35b8280fd5b5050346100ce57816003193601126100ce576020906001549051908152f35b8383346100ce57806003193601126100ce576001600160a01b03833581811692908390036104575760249182359567ffffffffffffffff968781116104535736602382011215610453578082013588811161044f573686828401011161044f57836003541680330361041957908884939287519586809263f0db1fbf60e01b82525afa93841561040f5789946103eb575b506101eb8451610c19565b8580602080970151169116036103bd57906102179186519861020c8a6109f2565b895287369201610b6d565b9382870194855286019442865260055493680100000000000000008510156103ab5761024a600195868101600555610967565b98909861039a5751166bffffffffffffffffffffffff60a01b8854161787558387019451918251998a1161038957505061028484546109b8565b601f8111610343575b5081601f89116001146102de57509680928192889960029899946102d3575b50501b916000199060031b1c19161790555b519101556102cd600654610d84565b60065580f35b0151925089806102ac565b909791601f198316988589528289209289905b8b821061032c57505083600298999a10610313575b505050811b0190556102be565b015160001960f88460031b161c19169055878080610306565b8087859682949686015181550195019301906102f1565b848852828820601f8a0160051c810191848b1061037f575b601f0160051c019084905b82811061037457505061028d565b898155018490610366565b909150819061035b565b634e487b7160e01b89526041905287fd5b634e487b7160e01b8a52898452828afd5b50634e487b7160e01b88526041825287fd5b855162461bcd60e51b8152808401859052600981890152686e6f7420706565722160b81b6044820152606490fd5b6104089194503d808b833e6104008183610a41565b810190610c52565b928a6101e0565b86513d8b823e3d90fd5b855162461bcd60e51b8152602081860152601181890152704f6e6c7920596172526573706f6e73652160781b6044820152606490fd5b8780fd5b8680fd5b8380fd5b5050346100ce57816003193601126100ce57905490516001600160a01b039091168152602090f35b9190503461012c578060031936011261012c576024356001600160a01b0381811693918490036105035784541633036104d35780358452602052822080546001600160a01b031916909117905580f35b6020606492519162461bcd60e51b8352820152600b60248201526a6f6e6c79206f776e65722160a81b6044820152fd5b8480fd5b828434610538576020366003190112610538575061052760209235610c19565b90516001600160a01b039091168152f35b80fd5b9190503461012c578060031936011261012c5781359160243567ffffffffffffffff8111610503573660238201121561050357936105ec81926105fa61058d6106679836906024818601359101610b6d565b8460e0885161059b81610a24565b828152826020820152828a8201528260608201528260808201528260a0820152606060c0820152015286519384916399847ac160e01b60208401523360248401528860448401526064830190610b2c565b03601f198101845283610a41565b6001549161060787610c19565b90865197889461061686610a24565b85523060208601523388860152606085015260018060a01b0380921660808501528460a085015260c08401528360e084015260025416908386518099819582946334db7e0560e21b84528301610ba9565b03925af19384156106a6576106879461068b575b50505191829182610ba9565b0390f35b61069e913d8091833e6104008183610a41565b50388061067b565b509051903d90823e3d90fd5b828434610538578160031936011261053857600654928035848110156108a457602493843582019081831161089157868211610889575b6106f38383610d35565b916106fd83610d58565b9261070a83519485610a41565b808452610719601f1991610d58565b01865b818110610861575050610730869489610d35565b935b61073c828a610d35565b8511156107df5760001985018581116107cd579061075c6107aa92610967565b50600285519161076b836109f2565b80546001600160a01b0316835261078460018201610a63565b60208401520154858201526107998287610d70565b526107a48186610d70565b50610d84565b9380156107bb576000190193610732565b634e487b7160e01b8752601186528787fd5b634e487b7160e01b8852601187528888fd5b828785825191602080840190808552835180925285850181878460051b880101950193965b8388106108115786860387f35b90919293948380600192603f198a8203018652885190848060a01b038251168152858061084a8585015160608088870152850190610b2c565b930151910152970193019701969093929193610804565b602090845161086f816109f2565b898152826060818301528a8783015282880101520161071c565b8691506106e9565b5050634e487b7160e01b83525060119052fd5b835162461bcd60e51b815260208184015260136024820152724f6666736574206f7574206f662072616e676560681b6044820152606490fd5b5050346100ce57816003193601126100ce576020906006549051908152f35b839150346100ce5760203660031901126100ce573590600554821015610538575061092690610967565b509060018060a01b0382541690600261094160018501610a63565b93015461095f82519485948552606060208601526060850190610b2c565b918301520390f35b6005548110156109a2576003906005600052027f036b6384b5eca791c62761152d0c79bb0604c104a5fb6f4eb0703f3154bb3db00190600090565b634e487b7160e01b600052603260045260246000fd5b90600182811c921680156109e8575b60208310146109d257565b634e487b7160e01b600052602260045260246000fd5b91607f16916109c7565b6060810190811067ffffffffffffffff821117610a0e57604052565b634e487b7160e01b600052604160045260246000fd5b610100810190811067ffffffffffffffff821117610a0e57604052565b90601f8019910116810190811067ffffffffffffffff821117610a0e57604052565b9060405191826000825492610a77846109b8565b908184526001948581169081600014610ae65750600114610aa3575b5050610aa192500383610a41565b565b9093915060005260209081600020936000915b818310610ace575050610aa193508201013880610a93565b85548884018501529485019487945091830191610ab6565b915050610aa194506020925060ff191682840152151560051b8201013880610a93565b60005b838110610b1c5750506000910152565b8181015183820152602001610b0c565b90602091610b4581518092818552858086019101610b09565b601f01601f1916010190565b67ffffffffffffffff8111610a0e57601f01601f191660200190565b929192610b7982610b51565b91610b876040519384610a41565b829481845281830111610ba4578281602093846000960137010152565b600080fd5b602081528151602082015260018060a01b038060208401511660408301528060408401511660608301526060830151608083015260808301511660a082015260a082015160c082015260c082015160e0610c10610100928383860152610120850190610b2c565b93015191015290565b6000908152600460205260409020546001600160a01b031680610c3b57503090565b90565b51906001600160a01b0382168203610ba457565b906020908183820312610ba457825167ffffffffffffffff93848211610ba457019061010082820312610ba45760405193610c8c85610a24565b82518552610c9b848401610c3e565b84860152610cab60408401610c3e565b604086015260608301516060860152610cc660808401610c3e565b608086015260a083015160a086015260c0830151908111610ba45782019281601f85011215610ba4578351610cfa81610b51565b92610d086040519485610a41565b818452828287010111610ba45760e09482610d269385019101610b09565b60c0840152015160e082015290565b91908203918211610d4257565b634e487b7160e01b600052601160045260246000fd5b67ffffffffffffffff8111610a0e5760051b60200190565b80518210156109a25760209160051b010190565b6000198114610d42576001019056fea264697066735822122025d7c3c4e4c0cd9e967ab4bf8b1de08c009e8e8679084cb359d94e7abd4f469764736f6c63430008140033",
  "devdoc": {
    "kind": "dev",
    "methods": {},
    "version": 1
  },
  "userdoc": {
    "kind": "user",
    "methods": {},
    "version": 1
  },
  "storageLayout": {
    "storage": [
      {
        "astId": 956,
        "contract": "contracts/apps/bridgeMessage/YarBridgeMessage.sol:YarBridgeMessage",
        "label": "owner",
        "offset": 0,
        "slot": "0",
        "type": "t_address"
      },
      {
        "astId": 958,
        "contract": "contracts/apps/bridgeMessage/YarBridgeMessage.sol:YarBridgeMessage",
        "label": "chainId",
        "offset": 0,
        "slot": "1",
        "type": "t_uint256"
      },
      {
        "astId": 960,
        "contract": "contracts/apps/bridgeMessage/YarBridgeMessage.sol:YarBridgeMessage",
        "label": "yarRequest",
        "offset": 0,
        "slot": "2",
        "type": "t_address"
      },
      {
        "astId": 962,
        "contract": "contracts/apps/bridgeMessage/YarBridgeMessage.sol:YarBridgeMessage",
        "label": "yarResponse",
        "offset": 0,
        "slot": "3",
        "type": "t_address"
      },
      {
        "astId": 966,
        "contract": "contracts/apps/bridgeMessage/YarBridgeMessage.sol:YarBridgeMessage",
        "label": "peers",
        "offset": 0,
        "slot": "4",
        "type": "t_mapping(t_uint256,t_address)"
      },
      {
        "astId": 1107,
        "contract": "contracts/apps/bridgeMessage/YarBridgeMessage.sol:YarBridgeMessage",
        "label": "messages",
        "offset": 0,
        "slot": "5",
        "type": "t_array(t_struct(Message)1103_storage)dyn_storage"
      },
      {
        "astId": 1109,
        "contract": "contracts/apps/bridgeMessage/YarBridgeMessage.sol:YarBridgeMessage",
        "label": "messageCount",
        "offset": 0,
        "slot": "6",
        "type": "t_uint256"
      }
    ],
    "types": {
      "t_address": {
        "encoding": "inplace",
        "label": "address",
        "numberOfBytes": "20"
      },
      "t_array(t_struct(Message)1103_storage)dyn_storage": {
        "base": "t_struct(Message)1103_storage",
        "encoding": "dynamic_array",
        "label": "struct YarBridgeMessage.Message[]",
        "numberOfBytes": "32"
      },
      "t_mapping(t_uint256,t_address)": {
        "encoding": "mapping",
        "key": "t_uint256",
        "label": "mapping(uint256 => address)",
        "numberOfBytes": "32",
        "value": "t_address"
      },
      "t_string_storage": {
        "encoding": "bytes",
        "label": "string",
        "numberOfBytes": "32"
      },
      "t_struct(Message)1103_storage": {
        "encoding": "inplace",
        "label": "struct YarBridgeMessage.Message",
        "members": [
          {
            "astId": 1098,
            "contract": "contracts/apps/bridgeMessage/YarBridgeMessage.sol:YarBridgeMessage",
            "label": "sender",
            "offset": 0,
            "slot": "0",
            "type": "t_address"
          },
          {
            "astId": 1100,
            "contract": "contracts/apps/bridgeMessage/YarBridgeMessage.sol:YarBridgeMessage",
            "label": "message",
            "offset": 0,
            "slot": "1",
            "type": "t_string_storage"
          },
          {
            "astId": 1102,
            "contract": "contracts/apps/bridgeMessage/YarBridgeMessage.sol:YarBridgeMessage",
            "label": "timestamp",
            "offset": 0,
            "slot": "2",
            "type": "t_uint256"
          }
        ],
        "numberOfBytes": "96"
      },
      "t_uint256": {
        "encoding": "inplace",
        "label": "uint256",
        "numberOfBytes": "32"
      }
    }
  }
}