{
  "address": "0x9b72eDa2475f1471374b0cF96c1fc2590a4E2169",
  "abi": [
    {
      "inputs": [
        {
          "internalType": "address",
          "name": "intialRelayer",
          "type": "address"
        }
      ],
      "stateMutability": "nonpayable",
      "type": "constructor"
    },
    {
      "inputs": [
        {
          "components": [
            {
              "internalType": "uint256",
              "name": "initialChainId",
              "type": "uint256"
            },
            {
              "internalType": "address",
              "name": "sender",
              "type": "address"
            },
            {
              "internalType": "address",
              "name": "payer",
              "type": "address"
            },
            {
              "internalType": "uint256",
              "name": "targetChainId",
              "type": "uint256"
            },
            {
              "internalType": "address",
              "name": "target",
              "type": "address"
            },
            {
              "internalType": "uint256",
              "name": "value",
              "type": "uint256"
            },
            {
              "internalType": "bytes",
              "name": "data",
              "type": "bytes"
            }
          ],
          "internalType": "struct YarLib.YarTX",
          "name": "yarTx",
          "type": "tuple"
        }
      ],
      "name": "deliver",
      "outputs": [],
      "stateMutability": "payable",
      "type": "function"
    },
    {
      "inputs": [],
      "name": "relayer",
      "outputs": [
        {
          "internalType": "address",
          "name": "",
          "type": "address"
        }
      ],
      "stateMutability": "view",
      "type": "function"
    },
    {
      "inputs": [],
      "name": "trustedYarTx",
      "outputs": [
        {
          "components": [
            {
              "internalType": "uint256",
              "name": "initialChainId",
              "type": "uint256"
            },
            {
              "internalType": "address",
              "name": "sender",
              "type": "address"
            },
            {
              "internalType": "address",
              "name": "payer",
              "type": "address"
            },
            {
              "internalType": "uint256",
              "name": "targetChainId",
              "type": "uint256"
            },
            {
              "internalType": "address",
              "name": "target",
              "type": "address"
            },
            {
              "internalType": "uint256",
              "name": "value",
              "type": "uint256"
            },
            {
              "internalType": "bytes",
              "name": "data",
              "type": "bytes"
            }
          ],
          "internalType": "struct YarLib.YarTX",
          "name": "",
          "type": "tuple"
        }
      ],
      "stateMutability": "view",
      "type": "function"
    }
  ],
  "transactionHash": "0x9160a6f192481bbd24a1819de01de8287a65100662aeb079ca10043e4f49c3c0",
  "args": [
    "0x340afFe21AB391FE1C2C5AEBBB84BF5cF236205f"
  ],
  "numDeployments": 1,
  "solcInputHash": "37ad9bb09975397534e178f6c329dfa4",
  "bytecode": "0x60803461007457601f61082638819003918201601f19168301916001600160401b038311848410176100795780849260209460405283398101031261007457516001600160a01b0381169081900361007457600080546001600160a01b03191691909117905560405161079690816100908239f35b600080fd5b634e487b7160e01b600052604160045260246000fdfe6080604052600436101561001257600080fd5b6000803560e01c90816371a42ec41461004a575080638406c079146100455763f0db1fbf1461004057600080fd5b6101c6565b610101565b806003196020368201126100fe5760043567ffffffffffffffff81116100fa5760e0816004019282360301126100fa57829161009060018060a01b0384541633146103c1565b6100c360a4830135916100a43484146103fd565b6100ad816104dc565b60c46100bb60848601610436565b94019061044a565b91906100d460405180948193610656565b03925af16100e0610664565b90156100f257506100ef6106a4565b80f35b602081519101fd5b5050fd5b50fd5b3461012a57600036600319011261012a576000546040516001600160a01b039091168152602090f35b600080fd5b60c060209283835280518484015260018060a01b0380858301511660408501528060408301511660608501526060820151608085015260808201511660a084015260a08101518284015201519160e0808301528251928361010084015260005b8481106101b157505050610120916000838284010152601f8019910116010190565b8181018301518482016101200152820161018f565b3461012a5760008060031936011261027f5760c0606091604051906101ea82610298565b808252806020830152806040830152808483015280608083015260a0820152015261027b60405161021a81610298565b60015481526002546001600160a01b031660208201526003546001600160a01b0316604082015260045460608201526005546001600160a01b0316608082015260065460a082015261026a610315565b60c08201526040519182918261012f565b0390f35b80fd5b634e487b7160e01b600052604160045260246000fd5b60e0810190811067ffffffffffffffff8211176102b457604052565b610282565b90601f8019910116810190811067ffffffffffffffff8211176102b457604052565b90600182811c9216801561030b575b60208310146102f557565b634e487b7160e01b600052602260045260246000fd5b91607f16916102ea565b6040519060008260075491610329836102db565b8083529260019081811690811561039f5750600114610352575b50610350925003836102b9565b565b6007600090815291506000805160206107418339815191525b8483106103845750610350935050810160200138610343565b81935090816020925483858a0101520191019091859261036b565b90506020925061035094915060ff191682840152151560051b82010138610343565b156103c857565b60405162461bcd60e51b815260206004820152600d60248201526c6f6e6c792072656c617965722160981b6044820152606490fd5b1561040457565b60405162461bcd60e51b815260206004820152600a6024820152696d73672e76616c75652160b01b6044820152606490fd5b356001600160a01b038116810361012a5790565b903590601e198136030182121561012a570180359067ffffffffffffffff821161012a5760200191813603831361012a57565b601f8111610489575050565b60009060078252600080516020610741833981519152906020601f850160051c830194106104d2575b601f0160051c01915b8281106104c757505050565b8181556001016104bb565b90925082906104b2565b600190803582556105866020916105146104f7848301610436565b60018060a01b03166001600160601b0360a01b6002541617600255565b61054061052360408301610436565b60018060a01b03166001600160601b0360a01b6003541617600355565b606081013560045561057461055760808301610436565b60018060a01b03166001600160601b0360a01b6005541617600555565b60a081013560065560c081019061044a565b919067ffffffffffffffff83116102b4576105ab836105a66007546102db565b61047d565b600091601f84116001146105e757509282939183926000946105dc575b50501b916000199060031b1c191617600755565b0135925038806105c8565b60076000529183601f1981166000805160206107418339815191529483905b8883831061063c5750505010610622575b505050811b01600755565b0135600019600384901b60f8161c19169055388080610617565b868601358855909601959384019387935090810190610606565b908092918237016000815290565b3d1561069f573d9067ffffffffffffffff82116102b45760405191610693601f8201601f1916602001846102b9565b82523d6000602084013e565b606090565b6000600181815581600255816003558160045581600555816006556106ca6007546102db565b90816106d557505050565b601f82116001146106e7575050600755565b601f600080516020610741833981519152920160051c82017fa66cc928b5edb82af9bd49922954155ab7b0942694bea4ce44661d9a8736c6895b81811061073657505050600782528160075555565b848155820161072156fea66cc928b5edb82af9bd49922954155ab7b0942694bea4ce44661d9a8736c688a2646970667358221220f50b332a605b2cab369b8dced5de52a9bc904741619174b78d0126815188725764736f6c63430008140033",
  "devdoc": {
    "kind": "dev",
    "methods": {},
    "version": 1
  },
  "userdoc": {
    "kind": "user",
    "methods": {},
    "version": 1
  },
  "storageLayout": {
    "storage": [
      {
        "astId": 3292,
        "contract": "contracts/YarResponse.sol:YarResponse",
        "label": "relayer",
        "offset": 0,
        "slot": "0",
        "type": "t_address"
      },
      {
        "astId": 3295,
        "contract": "contracts/YarResponse.sol:YarResponse",
        "label": "_trustedYarTx",
        "offset": 0,
        "slot": "1",
        "type": "t_struct(YarTX)3135_storage"
      }
    ],
    "types": {
      "t_address": {
        "encoding": "inplace",
        "label": "address",
        "numberOfBytes": "20"
      },
      "t_bytes_storage": {
        "encoding": "bytes",
        "label": "bytes",
        "numberOfBytes": "32"
      },
      "t_struct(YarTX)3135_storage": {
        "encoding": "inplace",
        "label": "struct YarLib.YarTX",
        "members": [
          {
            "astId": 3122,
            "contract": "contracts/YarResponse.sol:YarResponse",
            "label": "initialChainId",
            "offset": 0,
            "slot": "0",
            "type": "t_uint256"
          },
          {
            "astId": 3124,
            "contract": "contracts/YarResponse.sol:YarResponse",
            "label": "sender",
            "offset": 0,
            "slot": "1",
            "type": "t_address"
          },
          {
            "astId": 3126,
            "contract": "contracts/YarResponse.sol:YarResponse",
            "label": "payer",
            "offset": 0,
            "slot": "2",
            "type": "t_address"
          },
          {
            "astId": 3128,
            "contract": "contracts/YarResponse.sol:YarResponse",
            "label": "targetChainId",
            "offset": 0,
            "slot": "3",
            "type": "t_uint256"
          },
          {
            "astId": 3130,
            "contract": "contracts/YarResponse.sol:YarResponse",
            "label": "target",
            "offset": 0,
            "slot": "4",
            "type": "t_address"
          },
          {
            "astId": 3132,
            "contract": "contracts/YarResponse.sol:YarResponse",
            "label": "value",
            "offset": 0,
            "slot": "5",
            "type": "t_uint256"
          },
          {
            "astId": 3134,
            "contract": "contracts/YarResponse.sol:YarResponse",
            "label": "data",
            "offset": 0,
            "slot": "6",
            "type": "t_bytes_storage"
          }
        ],
        "numberOfBytes": "224"
      },
      "t_uint256": {
        "encoding": "inplace",
        "label": "uint256",
        "numberOfBytes": "32"
      }
    }
  }
}