{
  "address": "0x6f19cc3840F07a594A7d081Fb2299CfF19F6B717",
  "abi": [
    {
      "inputs": [
        {
          "internalType": "string",
          "name": "initialNativeName",
          "type": "string"
        },
        {
          "internalType": "string",
          "name": "initialNativeSymbol",
          "type": "string"
        },
        {
          "internalType": "uint8",
          "name": "initialNativeDecimals",
          "type": "uint8"
        },
        {
          "internalType": "address",
          "name": "intialYarRequest",
          "type": "address"
        },
        {
          "internalType": "address",
          "name": "intialYarResponse",
          "type": "address"
        }
      ],
      "stateMutability": "nonpayable",
      "type": "constructor"
    },
    {
      "inputs": [
        {
          "internalType": "address",
          "name": "target",
          "type": "address"
        }
      ],
      "name": "AddressEmptyCode",
      "type": "error"
    },
    {
      "inputs": [
        {
          "internalType": "address",
          "name": "account",
          "type": "address"
        }
      ],
      "name": "AddressInsufficientBalance",
      "type": "error"
    },
    {
      "inputs": [],
      "name": "FailedInnerCall",
      "type": "error"
    },
    {
      "inputs": [
        {
          "internalType": "address",
          "name": "token",
          "type": "address"
        }
      ],
      "name": "SafeERC20FailedOperation",
      "type": "error"
    },
    {
      "inputs": [],
      "name": "bridgedTokenImplementation",
      "outputs": [
        {
          "internalType": "address",
          "name": "",
          "type": "address"
        }
      ],
      "stateMutability": "view",
      "type": "function"
    },
    {
      "inputs": [],
      "name": "chainId",
      "outputs": [
        {
          "internalType": "uint256",
          "name": "",
          "type": "uint256"
        }
      ],
      "stateMutability": "view",
      "type": "function"
    },
    {
      "inputs": [
        {
          "internalType": "uint256",
          "name": "originalChainId",
          "type": "uint256"
        },
        {
          "internalType": "address",
          "name": "originalToken",
          "type": "address"
        },
        {
          "internalType": "string",
          "name": "name",
          "type": "string"
        },
        {
          "internalType": "string",
          "name": "symbol",
          "type": "string"
        },
        {
          "internalType": "uint8",
          "name": "decimals",
          "type": "uint8"
        }
      ],
      "name": "deployFrom",
      "outputs": [],
      "stateMutability": "nonpayable",
      "type": "function"
    },
    {
      "inputs": [
        {
          "internalType": "address",
          "name": "token",
          "type": "address"
        },
        {
          "internalType": "uint256",
          "name": "targetChainId",
          "type": "uint256"
        }
      ],
      "name": "deployTo",
      "outputs": [],
      "stateMutability": "payable",
      "type": "function"
    },
    {
      "inputs": [
        {
          "internalType": "uint256",
          "name": "originalChainId",
          "type": "uint256"
        },
        {
          "internalType": "address",
          "name": "originalToken",
          "type": "address"
        }
      ],
      "name": "getBridgedTokenAddress",
      "outputs": [
        {
          "internalType": "address",
          "name": "",
          "type": "address"
        }
      ],
      "stateMutability": "view",
      "type": "function"
    },
    {
      "inputs": [
        {
          "internalType": "uint256",
          "name": "_chainId",
          "type": "uint256"
        }
      ],
      "name": "getPeer",
      "outputs": [
        {
          "internalType": "address",
          "name": "",
          "type": "address"
        }
      ],
      "stateMutability": "view",
      "type": "function"
    },
    {
      "inputs": [
        {
          "internalType": "address",
          "name": "bridgedToken",
          "type": "address"
        }
      ],
      "name": "isBridgedToken",
      "outputs": [
        {
          "internalType": "bool",
          "name": "exists",
          "type": "bool"
        }
      ],
      "stateMutability": "view",
      "type": "function"
    },
    {
      "inputs": [],
      "name": "nativeDecimals",
      "outputs": [
        {
          "internalType": "uint8",
          "name": "",
          "type": "uint8"
        }
      ],
      "stateMutability": "view",
      "type": "function"
    },
    {
      "inputs": [],
      "name": "nativeName",
      "outputs": [
        {
          "internalType": "string",
          "name": "",
          "type": "string"
        }
      ],
      "stateMutability": "view",
      "type": "function"
    },
    {
      "inputs": [],
      "name": "nativeSymbol",
      "outputs": [
        {
          "internalType": "string",
          "name": "",
          "type": "string"
        }
      ],
      "stateMutability": "view",
      "type": "function"
    },
    {
      "inputs": [],
      "name": "owner",
      "outputs": [
        {
          "internalType": "address",
          "name": "",
          "type": "address"
        }
      ],
      "stateMutability": "view",
      "type": "function"
    },
    {
      "inputs": [
        {
          "internalType": "uint256",
          "name": "chainId",
          "type": "uint256"
        }
      ],
      "name": "peers",
      "outputs": [
        {
          "internalType": "address",
          "name": "peer",
          "type": "address"
        }
      ],
      "stateMutability": "view",
      "type": "function"
    },
    {
      "inputs": [],
      "name": "reverseRejectedTransfer",
      "outputs": [],
      "stateMutability": "nonpayable",
      "type": "function"
    },
    {
      "inputs": [
        {
          "internalType": "uint256",
          "name": "newChainId",
          "type": "uint256"
        },
        {
          "internalType": "address",
          "name": "newPeer",
          "type": "address"
        }
      ],
      "name": "setPeer",
      "outputs": [],
      "stateMutability": "nonpayable",
      "type": "function"
    },
    {
      "inputs": [
        {
          "internalType": "uint256",
          "name": "originalChainId",
          "type": "uint256"
        },
        {
          "internalType": "address",
          "name": "originalToken",
          "type": "address"
        },
        {
          "internalType": "uint256",
          "name": "amount",
          "type": "uint256"
        },
        {
          "internalType": "address",
          "name": "recipient",
          "type": "address"
        }
      ],
      "name": "transferFrom",
      "outputs": [],
      "stateMutability": "nonpayable",
      "type": "function"
    },
    {
      "inputs": [
        {
          "internalType": "address",
          "name": "token",
          "type": "address"
        },
        {
          "internalType": "uint256",
          "name": "amount",
          "type": "uint256"
        },
        {
          "internalType": "uint256",
          "name": "targetChainId",
          "type": "uint256"
        },
        {
          "internalType": "address",
          "name": "recipient",
          "type": "address"
        }
      ],
      "name": "transferTo",
      "outputs": [],
      "stateMutability": "payable",
      "type": "function"
    },
    {
      "inputs": [],
      "name": "yarRequest",
      "outputs": [
        {
          "internalType": "address",
          "name": "",
          "type": "address"
        }
      ],
      "stateMutability": "view",
      "type": "function"
    },
    {
      "inputs": [],
      "name": "yarResponse",
      "outputs": [
        {
          "internalType": "address",
          "name": "",
          "type": "address"
        }
      ],
      "stateMutability": "view",
      "type": "function"
    }
  ],
  "transactionHash": "0x28e24369f130da88b6d6e7bdd8f6ad63ce472c027ded516f4a084cb1376cc414",
  "args": [
    "Matic",
    "MATIC",
    18,
    "0x4C7217058078904a182648E18058B3362266b8e6",
    "0x97b718d479D984a232305f0C62ED52832049149e"
  ],
  "numDeployments": 1,
  "solcInputHash": "65b3fa24845d27d1c10fd56f7b383a0c",
  "bytecode": "0x608060405234620003cd5762003526803803806200001d81620003d2565b928339810160a082820312620003cd5781516001600160401b0390818111620003cd57826200004e918501620003f8565b6020928385015190838211620003cd576200006b918601620003f8565b60408501519060ff8216809203620003cd5762000099608062000091606089016200046a565b97016200046a565b948351858111620001ea57600754906001958683811c93168015620003c2575b84841014620002d4578190601f938481116200036b575b5084908483116001146200030157600092620002f5575b5050600019600383901b1c191690861b176007555b825192868411620001ea57600854928684811c94168015620002ea575b81851014620002d457838386951162000279575b50809284116001146200020c575060009262000200575b5050600019600383901b1c191690831b176008555b60ff19600954161760095560018060a01b039283918260018060a01b031996168682541617905516836002541617600255604051906116aa908183019083821090821117620001ea57829162001e7c833903906000f08015620001de571681600354161760035546600555339060005416176000556040516119fc9081620004808239f35b6040513d6000823e3d90fd5b634e487b7160e01b600052604160045260246000fd5b01519050388062000144565b9190869450601f198416600860005283600020936000905b8282106200025f575050841162000245575b505050811b0160085562000159565b015160001960f88460031b161c1916905538808062000236565b848401518655899790950194938401939081019062000224565b90919293506008600052816000208480870160051c820192848810620002ca575b9187968a92969594930160051c01915b828110620002ba5750506200012d565b60008155879650899101620002aa565b925081926200029a565b634e487b7160e01b600052602260045260246000fd5b93607f169362000119565b015190503880620000e7565b90889350601f198316916007600052866000209260005b888282106200035457505084116200033a575b505050811b01600755620000fc565b015160001960f88460031b161c191690553880806200032b565b8385015186558c9790950194938401930162000318565b9091506007600052846000208480850160051c820192878610620003b8575b918a91869594930160051c01915b828110620003a8575050620000d0565b600081558594508a910162000398565b925081926200038a565b92607f1692620000b9565b600080fd5b6040519190601f01601f191682016001600160401b03811183821017620001ea57604052565b919080601f84011215620003cd5782516001600160401b038111620001ea576020906200042e601f8201601f19168301620003d2565b92818452828287010111620003cd5760005b8181106200045657508260009394955001015290565b858101830151848201840152820162000440565b51906001600160a01b0382168203620003cd5756fe6080604052600436101561001257600080fd5b60003560e01c806302e6d464146101375780630a4c6b7e146101325780634bf15d731461012d57806364996c9b1461012857806367ebb6b2146101235780637078944c1461011e578063768ea56a146101195780637fedad55146101145780638069c4971461010f5780638ca9ca8e1461010a5780638da5cb5b1461010557806399f3f9f7146101005780639a8a0592146100fb578063be4f3e8f146100f6578063c287e578146100f1578063dfe70cef146100ec578063e6a1496d146100e75763f4100f00146100e257600080fd5b610e90565b610e67565b610e4b565b610e09565b610dd5565b610db7565b610d8d565b610d64565b610c41565b610b7c565b610b48565b6108c2565b610899565b610869565b6105c1565b6105ae565b6102ff565b610152565b6001600160a01b0381160361014d57565b600080fd5b3461014d57608036600319011261014d576004356024356101728161013c565b6044356064356101818161013c565b6002546001600160a01b039081169361019b33861461107d565b60405195869563f0db1fbf60e01b87528660046000998a935afa9586156102d45787966102009188916102dd575b50846101f86101ec60206101dd8551610eb9565b9401516001600160a01b031690565b6001600160a01b031690565b911614611173565b600554810361023f57501680610232575082809281925af16102206111f7565b901561022a575080f35b602081519101fd5b61023c9350611227565b80f35b9061024d91959493956113e6565b6001600160a01b038116600090815260046020526040902061027a90610275905b5460ff1690565b6111ab565b16803b156102d9576040516340c10f1960e01b81526001600160a01b0394909416600485015260248401919091528290604490829084905af180156102d4576102c1575080f35b806102ce61023c926108f9565b806105a3565b610f86565b8280fd5b6102f991503d808a833e6102f1818361092e565b8101906110d7565b386101c9565b608036600319011261014d576004356103178161013c565b6044356024356064356103298161013c565b600154610340906101ec906001600160a01b031681565b6040948551809263647846a560e01b825281600460209586935afa80156102d457610586575b506001600160a01b038116806105755761038185341461134f565b6001600160a01b03821660009081526004602052604090206103a29061026e565b91821561056c5787516353638be560e01b81528481600481865afa9081156102d45760009161053f575b50925b1561052b57509082600492885193848092630e7c1cb560e01b82525afa9182156102d4576104919461045493610446926000916104fe575b50965b895162b9b51960e21b8782015260248101949094526001600160a01b0397881660448501526064840152909516608482015293849060a4820190565b03601f19810185528461092e565b6005549361047761046482610eb9565b9261046d610ede565b9687523090870152565b338587015260608501526001600160a01b03166080840152565b600060a083015260c08201526001546104b4906101ec906001600160a01b031681565b91823b1561014d5760009283926104df9251948580948193637d60955760e11b83526004830161101c565b03925af180156102d4576104ef57005b806102ce6104fc926108f9565b005b61051e9150863d8811610524575b610516818361092e565b810190610fc1565b38610407565b503d61050c565b61045492915061049194610446919661040a565b61055f9150853d8711610565575b610557818361092e565b810190610fa7565b386103cc565b503d61054d565b600554926103cf565b6105818530338461138d565b610381565b61059c90833d851161052457610516818361092e565b5038610366565b600091031261014d57565b3461014d57600036600319011261014d57005b60408060031936011261014d5760049081356105dc8161013c565b602435906001600160a01b03811660008161078c57506105fa610950565b92610603610a43565b9361061060095460ff1690565b935b6001600160a01b03811660009081526004602052604090206106339061026e565b1561077b575085516353638be560e01b815291602080848a81885afa9384156102d4578994829160009161075e575b5095895195868092630e7c1cb560e01b82525afa80156102d45761070e946106e392600092610741575b5050945b6001546106d5906106ab906101ec906001600160a01b031681565b97600554996106b986610eb9565b968c51998a95634654e54760e11b602088015260248701610fd6565b03601f19810186528561092e565b6106eb610ede565b958652306020870152338688015260608601526001600160a01b03166080850152565b600060a084015260c0830152803b1561014d576104df936000809451809681958294637d60955760e11b8452830161101c565b6107579250803d1061052457610516818361092e565b388061068c565b6107759150823d841161056557610557818361092e565b38610662565b925061070e916106e3600554610690565b84516306fdde0360e01b815281818881865afa9182156102d457809261084e575b50509284516395d89b4160e01b81526000818881865afa9081156102d45760009161082d575b5093855163313ce56760e01b81526020818981875afa9081156102d4576000916107ff575b5093610612565b610820915060203d8111610826575b610818818361092e565b810190610f92565b386107f8565b503d61080e565b610848913d8091833e610840818361092e565b810190610f4f565b386107d3565b61086292503d8091833e610840818361092e565b38806107ad565b3461014d57602036600319011261014d576020610887600435610eb9565b6040516001600160a01b039091168152f35b3461014d57600036600319011261014d576003546040516001600160a01b039091168152602090f35b3461014d57600036600319011261014d57602060ff60095416604051908152f35b634e487b7160e01b600052604160045260246000fd5b67ffffffffffffffff811161090d57604052565b6108e3565b6080810190811067ffffffffffffffff82111761090d57604052565b90601f8019910116810190811067ffffffffffffffff82111761090d57604052565b60405190600060075490600182811c92818116918215610a39575b6020918286108414610a2557858852879493602086019392918115610a0657506001146109a4575b5050506109a29250038361092e565b565b9250936109d360076000527fa66cc928b5edb82af9bd49922954155ab7b0942694bea4ce44661d9a8736c68890565b946000935b8285106109f0575050506109a2935001388080610993565b86548585015295860195889550938101936109d8565b925050506109a29491925060ff19168252151560051b01388080610993565b634e487b7160e01b85526022600452602485fd5b93607f169361096b565b60405190600060085490600182811c92818116918215610af6575b6020918286108414610a2557858852879493602086019392918115610a065750600114610a94575050506109a29250038361092e565b925093610ac360086000527ff3f7a9fe364faab93b216da50a3214154f22a0a2b415b23a84c8169e8b636ee390565b946000935b828510610ae0575050506109a2935001388080610993565b8654858501529586019588955093810193610ac8565b93607f1693610a5e565b60005b838110610b135750506000910152565b8181015183820152602001610b03565b90602091610b3c81518092818552858086019101610b00565b601f01601f1916010190565b3461014d57600036600319011261014d57610b78610b64610a43565b604051918291602083526020830190610b23565b0390f35b3461014d57604036600319011261014d57602435610b998161013c565b6000546001600160a01b039081163303610bd5576004356000526006602052604060002091166001600160601b0360a01b825416179055600080f35b60405162461bcd60e51b815260206004820152600b60248201526a6f6e6c79206f776e65722160a81b6044820152606490fd5b9181601f8401121561014d5782359167ffffffffffffffff831161014d576020838186019501011161014d57565b60ff81160361014d57565b3461014d5760a036600319011261014d57600435602435610c618161013c565b67ffffffffffffffff60443581811161014d57610c82903690600401610c08565b9160643590811161014d57610c9b903690600401610c08565b92909160843594610cab86610c36565b6002546001600160a01b03163303610d2c5760ff610ce6610ccc838a6113e6565b6001600160a01b0316600090815260046020526040902090565b5416610cf5576104fc96611545565b60405162461bcd60e51b815260206004820152600f60248201526e616c7265616479206578697374732160881b6044820152606490fd5b60405162461bcd60e51b815260206004820152601060248201526f6f6e6c7920796172526571756573742160801b6044820152606490fd5b3461014d57600036600319011261014d576000546040516001600160a01b039091168152602090f35b3461014d57604036600319011261014d576020610887602435610daf8161013c565b6004356113e6565b3461014d57600036600319011261014d576020600554604051908152f35b3461014d57602036600319011261014d576004356000526006602052602060018060a01b0360406000205416604051908152f35b3461014d57602036600319011261014d57600435610e268161013c565b60018060a01b03166000526004602052602060ff604060002054166040519015158152f35b3461014d57600036600319011261014d57610b78610b64610950565b3461014d57600036600319011261014d576002546040516001600160a01b039091168152602090f35b3461014d57600036600319011261014d576001546040516001600160a01b039091168152602090f35b6000908152600660205260409020546001600160a01b031680610edb57503090565b90565b6040519060e0820182811067ffffffffffffffff82111761090d57604052565b67ffffffffffffffff811161090d57601f01601f191660200190565b90929192610f2781610efe565b91610f35604051938461092e565b82948284528282011161014d5760206109a2930190610b00565b60208183031261014d5780519067ffffffffffffffff821161014d57019080601f8301121561014d578151610edb92602001610f1a565b6040513d6000823e3d90fd5b9081602091031261014d5751610edb81610c36565b9081602091031261014d575190565b51906109a28261013c565b9081602091031261014d5751610edb8161013c565b9361100760809460ff9461101594999899885260018060a01b0316602088015260a0604088015260a0870190610b23565b908582036060870152610b23565b9416910152565b61010060c0610edb93602084528051602085015260018060a01b038060208301511660408601528060408301511660608601526060820151608086015260808201511660a085015260a08101518285015201519160e0808201520190610b23565b1561108457565b60405162461bcd60e51b81526020600482015260116024820152706f6e6c7920796172526573706f6e73652160781b6044820152606490fd5b9080601f8301121561014d578151610edb92602001610f1a565b9060208282031261014d57815167ffffffffffffffff9283821161014d57019060e08282031261014d57611109610ede565b928251845261111a60208401610fb6565b602085015261112b60408401610fb6565b60408501526060830151606085015261114660808401610fb6565b608085015260a083015160a085015260c083015190811161014d5761116b92016110bd565b60c082015290565b1561117a57565b60405162461bcd60e51b81526020600482015260096024820152686e6f7420706565722160b81b6044820152606490fd5b156111b257565b60405162461bcd60e51b815260206004820152601c60248201527f6265666f7265206465706c6f79206272696467656420746f6b656e21000000006044820152606490fd5b3d15611222573d9061120882610efe565b91611216604051938461092e565b82523d6000602084013e565b606090565b60405163a9059cbb60e01b60208201526001600160a01b039290921660248301526044808301939093529181526109a29161126360648361092e565b60018060a01b03169061128d600080836020829551910182875af16112866111f7565b90846112ec565b9081519182151592836112bd575b5050506112a55750565b60249060405190635274afe760e01b82526004820152fd5b8192935090602091810103126112e85760200151908115918215036112e5575038808061129b565b80fd5b5080fd5b90611313575080511561130157805190602001fd5b604051630a12f52160e11b8152600490fd5b81511580611346575b611324575090565b604051639996b31560e01b81526001600160a01b039091166004820152602490fd5b50803b1561131c565b1561135657565b60405162461bcd60e51b815260206004820152600f60248201526e7472616e73666572416d6f756e742160881b6044820152606490fd5b6040516323b872dd60e01b60208201526001600160a01b03928316602482015292909116604483015260648083019390935291815260a081019181831067ffffffffffffffff84111761090d576109a292604052611263565b610edb916101ec9160405161142c8161141e6020958683019586909160349282526001600160601b03199060601b1660208201520190565b03601f19810183528261092e565b5190209061034d6040516114428383018261092e565b8181528281019161167a833961147683604051809361146983830196879251928391610b00565b810103808452018261092e565b5190206040519182019260ff60f81b84526001600160601b03193060601b16602184015260358301526055820152605581526114b181610912565b5190206001600160a01b031690565b908060209392818452848401376000828201840152601f01601f1916010190565b95906110159360ff9560809794611515939b9a9b8a5260018060a01b031660208a015260a060408a015260a08901916114c0565b9186830360608801526114c0565b6001600160a01b039091168152604060208201819052610edb92910190610b23565b90949591939295604051926020840184611579898684909160349282526001600160601b03199060601b1660208201520190565b039461158d601f199687810183528261092e565b51902060405161034d80820182811067ffffffffffffffff82111761090d57829161167a833903906000f59182156102d4576003546001600160a01b0393841699611601976115f595909216986040519a8b9762cf530960e01b60208a0152602489016114e1565b0390810184528361092e565b823b1561014d5760405163c0d91eaf60e01b8152916000918391829161162b919060048401611523565b038183865af180156102d457611666575b506001600160a01b0381166000908152600460205260409020610edb90805460ff19166001179055565b806102ce611673926108f9565b3861163c56fe6080806040523461001657610331908161001c8239f35b600080fdfe60806040526004361061010f576000803560e01c63c0d91eaf14610023575061010f565b346100af5760403660031901126100af576004356001600160a01b03811681036100a75760243567ffffffffffffffff81116100ab57366023820112156100ab578060040135918361007c610077856100f3565b6100c8565b9284845236602486830101116100a757846100a495602460209301838701378401015261015b565b80f35b5080fd5b8280fd5b80fd5b634e487b7160e01b600052604160045260246000fd5b6040519190601f01601f1916820167ffffffffffffffff8111838210176100ee57604052565b6100b2565b67ffffffffffffffff81116100ee57601f01601f191660200190565b7f360894a13ba1a3210667c828492db98dca3e2076cc3735a920a3ca505d382bbc54600090819081906001600160a01b0316368280378136915af43d82803e15610157573d90f35b3d90fd5b9060005460ff81166102295760ff1916600117600055813b15610208577f360894a13ba1a3210667c828492db98dca3e2076cc3735a920a3ca505d382bbc80546001600160a01b0319166001600160a01b0384169081179091557fbc7cd75a20ee27fd9adebab32041f755214dbc6bffa90cc0225b39da2e5c2d3b600080a28051156101ed576101ea9161025d565b50565b5050346101f657565b60405163b398979f60e01b8152600490fd5b604051634c9c8ce360e01b81526001600160a01b0383166004820152602490fd5b60405162461bcd60e51b815260206004820152600c60248201526b616c7265616479496e69742160a01b6044820152606490fd5b60008061029193602081519101845af43d15610294573d91610281610077846100f3565b9283523d6000602085013e610298565b90565b6060915b906102bf57508051156102ad57805190602001fd5b604051630a12f52160e11b8152600490fd5b815115806102f2575b6102d0575090565b604051639996b31560e01b81526001600160a01b039091166004820152602490fd5b50803b156102c856fea264697066735822122039fb6cd7f494f168bc233ff122a1bccf5e454e013b46d5bde558049c71f1f78a64736f6c63430008140033a2646970667358221220946936e7d05e772f6613ca29ffe7eaedcdd75c2e3c8a82f1c2abd6226b4e9fe564736f6c63430008140033608080604052346100165761168e908161001c8239f35b600080fdfe6080604052600436101561001257600080fd5b60003560e01c8062cf5309146108ca57806306fdde0314610827578063095ea7b3146107a65780630e7c1cb51461077d57806318160ddd1461074057806323b872dd14610671578063313ce5671461064d57806340c10f191461056b57806352694c6b1461054f57806353638be51461053157806370a08231146104ea578063715018a6146104805780638da5cb5b1461044a57806395d89b411461037c578063989ee11a146103085780639dc29fac146101ff578063a9059cbb146101ce578063ab1a63cd146101af578063dd62ed3e14610166578063e8cfdce9146101325763f2fde38b1461010257600080fd5b3461012d57602036600319011261012d5761012b61011e6110ee565b610126611367565b6113a0565b005b600080fd5b3461012d57600036600319011261012d5761016261014e6112e0565b6040519182916020835260208301906111a0565b0390f35b3461012d57604036600319011261012d5761017f6110ee565b61019061018a6110d8565b91611414565b9060018060a01b03166000526020526020604060002054604051908152f35b3461012d5761012b6101c0366111c5565b916101c9611367565b61144d565b3461012d57604036600319011261012d576101f46101ea6110ee565b602435903361144d565b602060405160018152f35b3461012d57604036600319011261012d576102186110ee565b602435610223611367565b6001600160a01b0382169081156102ef57816000526000805160206115b983398151915280602052604060002054938285106102be5750817fddf252ad1be2c89b69c2b068fc378daa952ba7f163c4a11628f55a4df523b3ef9260009560209386885284520360408620557f52c63247e1f47db19d5ce0460030c497f067ca4cebf71ba98eeadabe20bace02818154039055604051908152a3005b60405163391434e360e21b81526001600160a01b039190911660048201526024810185905260448101839052606490fd5b604051634b637e8f60e11b815260006004820152602490fd5b3461012d57600036600319011261012d5760005460015490610328611234565b9160ff61036e6103366112e0565b610360604051968796875260018060a01b038616602088015260a0604088015260a08701906111a0565b9085820360608701526111a0565b9160a01c1660808301520390f35b3461012d57600036600319011261012d5760405160006000805160206115d983398151915280546103ac816111fa565b8085529160019180831690811561042057506001146103d6575b6101628561014e81870382611104565b600090815292506000805160206116198339815191525b82841061040857505050810160200161014e826101626103c6565b805460208587018101919091529093019281016103ed565b8695506101629693506020925061014e94915060ff191682840152151560051b82010192936103c6565b3461012d57600036600319011261012d576000805160206115f9833981519152546040516001600160a01b039091168152602090f35b3461012d57600036600319011261012d57610499611367565b6000805160206115f983398151915280546001600160a01b031981169091556000906001600160a01b03167f8be0079c531659141344cd1fd0a4f28419497f9722a3daafe3b4186f6b6457e08280a3005b3461012d57602036600319011261012d576001600160a01b0361050b6110ee565b166000526000805160206115b98339815191526020526020604060002054604051908152f35b3461012d57600036600319011261012d576020600054604051908152f35b3461012d57600036600319011261012d5761016261014e611234565b3461012d57604036600319011261012d576105846110ee565b60243590610590611367565b6001600160a01b0316908115610634577f52c63247e1f47db19d5ce0460030c497f067ca4cebf71ba98eeadabe20bace0280549082820180921161061e576000927fddf252ad1be2c89b69c2b068fc378daa952ba7f163c4a11628f55a4df523b3ef92602092558484526000805160206115b9833981519152825260408420818154019055604051908152a3005b634e487b7160e01b600052601160045260246000fd5b60405163ec442f0560e01b815260006004820152602490fd5b3461012d57600036600319011261012d57602060ff60015460a01c16604051908152f35b3461012d5761067f366111c5565b9061068983611414565b336000526020526040600020549260001984036106ab575b6101f4935061144d565b82841061071a576001600160a01b038116156107015733156106e857826101f4946106d583611414565b33600052602052036040600020556106a1565b604051634a1406b160e11b815260006004820152602490fd5b60405163e602df0560e01b815260006004820152602490fd5b604051637dc7a0d960e11b81523360048201526024810185905260448101849052606490fd5b3461012d57600036600319011261012d5760207f52c63247e1f47db19d5ce0460030c497f067ca4cebf71ba98eeadabe20bace0254604051908152f35b3461012d57600036600319011261012d576001546040516001600160a01b039091168152602090f35b3461012d57604036600319011261012d576107bf6110ee565b602435903315610701576001600160a01b03169081156106e8576107e233611414565b82600052602052806040600020556040519081527f8c5be1e5ebec7d5bd14f71427d1e84f3dd0314c0f7b2291e5b200ac8c7c3b92560203392a3602060405160018152f35b3461012d57600036600319011261012d5760405160006000805160206115998339815191528054610857816111fa565b808552916001918083169081156104205750600114610880576101628561014e81870382611104565b600090815292506000805160206115398339815191525b8284106108b257505050810160200161014e826101626103c6565b80546020858701810191909152909301928101610897565b3461012d5760a036600319011261012d576108e36110d8565b60443567ffffffffffffffff811161012d57610903903690600401611126565b9060643567ffffffffffffffff811161012d57610924903690600401611126565b9060ff608435166084350361012d57600080516020611639833981519152549067ffffffffffffffff8216801590816110c8575b60011490816110be575b1590816110b5575b506110a357600167ffffffffffffffff198316176000805160206116398339815191525560ff8260401c1615611076575b604051607960f81b908160208201526109d260218288516109c28184840160208d0161117d565b8101036001810184520182611104565b604051916020830152610a0360218387516109f38184840160208c0161117d565b8101036001810185520183611104565b610a0b611509565b610a13611509565b80519067ffffffffffffffff8211610d3a578190610a3f600080516020611599833981519152546111fa565b601f8111610ff5575b50602090601f8311600114610f6357600092610f58575b50508160011b916000199060031b1c191617600080516020611599833981519152555b80519067ffffffffffffffff8211610d3a578190610aae6000805160206115d9833981519152546111fa565b601f8111610ed7575b50602090601f8311600114610e4557600092610e3a575b50508160011b916000199060031b1c1916176000805160206115d9833981519152555b610af9611509565b610b01611509565b610b0a336113a0565b835167ffffffffffffffff8111610d3a57610b266002546111fa565b601f8111610dcd575b50602094601f8211600114610d5b57948192939495600092610d50575b50508160011b916000199060031b1c1916176002555b82519267ffffffffffffffff8411610d3a57610b7f6003546111fa565b601f8111610ccd575b50602090601f8511600114610c575760ff949160009183610c4c575b50508160011b916000199060031b1c1916176003555b600435600055600180546001600160a81b0319166001600160a01b0390921691909117608435841660a01b17905560401c1615610bf357005b68ff0000000000000000196000805160206116398339815191525416600080516020611639833981519152557fc7f505b2f371ae2175ee4913f4499e1f2633a7b5936321eed1cdaeb6115181d2602060405160018152a1005b015190508580610ba4565b90601f1985169160036000526000805160206115798339815191529260005b818110610cb5575091600193918760ff989410610c9c575b505050811b01600355610bba565b015160001960f88460031b161c19169055858080610c8e565b92936020600181928786015181550195019301610c76565b6003600052601f850160051c600080516020611579833981519152019060208610610d24575b601f0160051c60008051602061157983398151915201905b818110610d185750610b88565b60008155600101610d0b565b6000805160206115798339815191529150610cf3565b634e487b7160e01b600052604160045260246000fd5b015190508580610b4c565b601f1982169560026000526000805160206115598339815191529160005b888110610db557508360019596979810610d9c575b505050811b01600255610b62565b015160001960f88460031b161c19169055858080610d8e565b91926020600181928685015181550194019201610d79565b6002600052601f820160051c600080516020611559833981519152019060208310610e24575b601f0160051c60008051602061155983398151915201905b818110610e185750610b2f565b60008155600101610e0b565b6000805160206115598339815191529150610df3565b015190508680610ace565b92506000805160206115d9833981519152600052600080516020611619833981519152906000935b601f1984168510610ebc576001945083601f19811610610ea3575b505050811b016000805160206115d983398151915255610af1565b015160001960f88460031b161c19169055868080610e88565b81810151835560209485019460019093019290910190610e6d565b9091506000805160206115d9833981519152600052601f830160051c6000805160206116198339815191520160208410610f43575b908392915b601f820160051c600080516020611619833981519152018110610f345750610ab7565b60008155849350600101610f11565b50600080516020611619833981519152610f0c565b015190508780610a5f565b9250600080516020611599833981519152600052600080516020611539833981519152906000935b601f1984168510610fda576001945083601f19811610610fc1575b505050811b0160008051602061159983398151915255610a82565b015160001960f88460031b161c19169055878080610fa6565b81810151835560209485019460019093019290910190610f8b565b909150600080516020611599833981519152600052601f830160051c6000805160206115398339815191520160208410611061575b908392915b601f820160051c6000805160206115398339815191520181106110525750610a48565b6000815584935060010161102f565b5060008051602061153983398151915261102a565b68ffffffffffffffffff19821668010000000000000001176000805160206116398339815191525561099b565b60405163f92ee8a960e01b8152600490fd5b9050158561096a565b303b159150610962565b604084901c60ff16159150610958565b602435906001600160a01b038216820361012d57565b600435906001600160a01b038216820361012d57565b90601f8019910116810190811067ffffffffffffffff821117610d3a57604052565b81601f8201121561012d5780359067ffffffffffffffff8211610d3a576040519261115b601f8401601f191660200185611104565b8284526020838301011161012d57816000926020809301838601378301015290565b60005b8381106111905750506000910152565b8181015183820152602001611180565b906020916111b98151809281855285808601910161117d565b601f01601f1916010190565b606090600319011261012d576001600160a01b0390600435828116810361012d5791602435908116810361012d579060443590565b90600182811c9216801561122a575b602083101461121457565b634e487b7160e01b600052602260045260246000fd5b91607f1691611209565b6040519060008260025491611248836111fa565b808352926001908181169081156112be5750600114611271575b5061126f92500383611104565b565b6002600090815291506000805160206115598339815191525b8483106112a3575061126f935050810160200138611262565b81935090816020925483858a0101520191019091859261128a565b90506020925061126f94915060ff191682840152151560051b82010138611262565b60405190600082600354916112f4836111fa565b808352926001908181169081156112be575060011461131a575061126f92500383611104565b6003600090815291506000805160206115798339815191525b84831061134c575061126f935050810160200138611262565b81935090816020925483858a01015201910190918592611333565b6000805160206115f9833981519152546001600160a01b0316330361138857565b60405163118cdaa760e01b8152336004820152602490fd5b6001600160a01b039081169081156113fb576000805160206115f983398151915280546001600160a01b031981168417909155167f8be0079c531659141344cd1fd0a4f28419497f9722a3daafe3b4186f6b6457e0600080a3565b604051631e4fbdf760e01b815260006004820152602490fd5b6001600160a01b031660009081527f52c63247e1f47db19d5ce0460030c497f067ca4cebf71ba98eeadabe20bace016020526040902090565b916001600160a01b038084169283156102ef5716928315610634576000908382526000805160206115b9833981519152806020526040832054918483106114d6575082847fddf252ad1be2c89b69c2b068fc378daa952ba7f163c4a11628f55a4df523b3ef959360409388602097528652038282205586815220818154019055604051908152a3565b60405163391434e360e21b81526001600160a01b0391909116600482015260248101929092525060448101839052606490fd5b60ff6000805160206116398339815191525460401c161561152657565b604051631afcd79f60e31b8152600490fdfe2ae08a8e29253f69ac5d979a101956ab8f8d9d7ded63fa7a83b16fc47648eab0405787fa12a823e0f2b7631cc41b3ba8828b3321ca811111fa75cd3aa3bb5acec2575a0e9e593c00f959f8c92f12db2869c3395a3b0502d05e2516446f71f85b52c63247e1f47db19d5ce0460030c497f067ca4cebf71ba98eeadabe20bace0352c63247e1f47db19d5ce0460030c497f067ca4cebf71ba98eeadabe20bace0052c63247e1f47db19d5ce0460030c497f067ca4cebf71ba98eeadabe20bace049016d09d72d40fdae2fd8ceac6b6234c7706214fd39c1cd1e609a0528c19930046a2803e59a4de4e7a4c574b1243f25977ac4c77d5a1a4a609b5394cebb4a2aaf0c57e16840df040f15088dc2f81fe391c3923bec73e23a9662efc9c229c6a00a264697066735822122079ac43397602a85c5983e71d54a4c47cbb1f5f20deedfba6e03c73c7e4c8d08f64736f6c63430008140033",
  "devdoc": {
    "errors": {
      "AddressEmptyCode(address)": [
        {
          "details": "There's no code at `target` (it is not a contract)."
        }
      ],
      "AddressInsufficientBalance(address)": [
        {
          "details": "The ETH balance of the account is not enough to perform the operation."
        }
      ],
      "FailedInnerCall()": [
        {
          "details": "A call to an address target failed. The target may have reverted."
        }
      ],
      "SafeERC20FailedOperation(address)": [
        {
          "details": "An operation with an ERC20 token failed."
        }
      ]
    },
    "kind": "dev",
    "methods": {},
    "version": 1
  },
  "userdoc": {
    "kind": "user",
    "methods": {},
    "version": 1
  },
  "storageLayout": {
    "storage": [
      {
        "astId": 3162,
        "contract": "contracts/apps/bridge20/YarBridge20.sol:YarBridge20",
        "label": "owner",
        "offset": 0,
        "slot": "0",
        "type": "t_address"
      },
      {
        "astId": 3164,
        "contract": "contracts/apps/bridge20/YarBridge20.sol:YarBridge20",
        "label": "yarRequest",
        "offset": 0,
        "slot": "1",
        "type": "t_address"
      },
      {
        "astId": 3166,
        "contract": "contracts/apps/bridge20/YarBridge20.sol:YarBridge20",
        "label": "yarResponse",
        "offset": 0,
        "slot": "2",
        "type": "t_address"
      },
      {
        "astId": 3168,
        "contract": "contracts/apps/bridge20/YarBridge20.sol:YarBridge20",
        "label": "bridgedTokenImplementation",
        "offset": 0,
        "slot": "3",
        "type": "t_address"
      },
      {
        "astId": 3172,
        "contract": "contracts/apps/bridge20/YarBridge20.sol:YarBridge20",
        "label": "isBridgedToken",
        "offset": 0,
        "slot": "4",
        "type": "t_mapping(t_address,t_bool)"
      },
      {
        "astId": 3174,
        "contract": "contracts/apps/bridge20/YarBridge20.sol:YarBridge20",
        "label": "chainId",
        "offset": 0,
        "slot": "5",
        "type": "t_uint256"
      },
      {
        "astId": 3178,
        "contract": "contracts/apps/bridge20/YarBridge20.sol:YarBridge20",
        "label": "peers",
        "offset": 0,
        "slot": "6",
        "type": "t_mapping(t_uint256,t_address)"
      },
      {
        "astId": 3180,
        "contract": "contracts/apps/bridge20/YarBridge20.sol:YarBridge20",
        "label": "nativeName",
        "offset": 0,
        "slot": "7",
        "type": "t_string_storage"
      },
      {
        "astId": 3182,
        "contract": "contracts/apps/bridge20/YarBridge20.sol:YarBridge20",
        "label": "nativeSymbol",
        "offset": 0,
        "slot": "8",
        "type": "t_string_storage"
      },
      {
        "astId": 3184,
        "contract": "contracts/apps/bridge20/YarBridge20.sol:YarBridge20",
        "label": "nativeDecimals",
        "offset": 0,
        "slot": "9",
        "type": "t_uint8"
      }
    ],
    "types": {
      "t_address": {
        "encoding": "inplace",
        "label": "address",
        "numberOfBytes": "20"
      },
      "t_bool": {
        "encoding": "inplace",
        "label": "bool",
        "numberOfBytes": "1"
      },
      "t_mapping(t_address,t_bool)": {
        "encoding": "mapping",
        "key": "t_address",
        "label": "mapping(address => bool)",
        "numberOfBytes": "32",
        "value": "t_bool"
      },
      "t_mapping(t_uint256,t_address)": {
        "encoding": "mapping",
        "key": "t_uint256",
        "label": "mapping(uint256 => address)",
        "numberOfBytes": "32",
        "value": "t_address"
      },
      "t_string_storage": {
        "encoding": "bytes",
        "label": "string",
        "numberOfBytes": "32"
      },
      "t_uint256": {
        "encoding": "inplace",
        "label": "uint256",
        "numberOfBytes": "32"
      },
      "t_uint8": {
        "encoding": "inplace",
        "label": "uint8",
        "numberOfBytes": "1"
      }
    }
  }
}