{
  "address": "0x26e29056d17cE199f28C930C2Bc116B546725c1E",
  "abi": [
    {
      "inputs": [
        {
          "internalType": "address",
          "name": "intialRelayer",
          "type": "address"
        },
        {
          "internalType": "address",
          "name": "initialFeeOracle",
          "type": "address"
        },
        {
          "internalType": "address",
          "name": "initailFeeToken",
          "type": "address"
        }
      ],
      "stateMutability": "nonpayable",
      "type": "constructor"
    },
    {
      "inputs": [
        {
          "internalType": "address",
          "name": "target",
          "type": "address"
        }
      ],
      "name": "AddressEmptyCode",
      "type": "error"
    },
    {
      "inputs": [
        {
          "internalType": "address",
          "name": "account",
          "type": "address"
        }
      ],
      "name": "AddressInsufficientBalance",
      "type": "error"
    },
    {
      "inputs": [],
      "name": "FailedInnerCall",
      "type": "error"
    },
    {
      "inputs": [],
      "name": "ReentrancyGuardReentrantCall",
      "type": "error"
    },
    {
      "inputs": [
        {
          "internalType": "address",
          "name": "token",
          "type": "address"
        }
      ],
      "name": "SafeERC20FailedOperation",
      "type": "error"
    },
    {
      "anonymous": false,
      "inputs": [
        {
          "indexed": false,
          "internalType": "address",
          "name": "peer",
          "type": "address"
        },
        {
          "indexed": false,
          "internalType": "uint256",
          "name": "targetChainId",
          "type": "uint256"
        },
        {
          "indexed": false,
          "internalType": "address",
          "name": "target",
          "type": "address"
        },
        {
          "indexed": false,
          "internalType": "bytes",
          "name": "data",
          "type": "bytes"
        }
      ],
      "name": "CrossCall",
      "type": "event"
    },
    {
      "inputs": [
        {
          "internalType": "uint256",
          "name": "targetChainId",
          "type": "uint256"
        },
        {
          "internalType": "address",
          "name": "target",
          "type": "address"
        },
        {
          "internalType": "bytes",
          "name": "data",
          "type": "bytes"
        },
        {
          "internalType": "uint256",
          "name": "feeAmount",
          "type": "uint256"
        },
        {
          "internalType": "uint256",
          "name": "signatureExpired",
          "type": "uint256"
        },
        {
          "internalType": "bytes",
          "name": "signature",
          "type": "bytes"
        }
      ],
      "name": "crossCall",
      "outputs": [],
      "stateMutability": "payable",
      "type": "function"
    },
    {
      "inputs": [],
      "name": "feeOracle",
      "outputs": [
        {
          "internalType": "address",
          "name": "",
          "type": "address"
        }
      ],
      "stateMutability": "view",
      "type": "function"
    },
    {
      "inputs": [],
      "name": "feeToken",
      "outputs": [
        {
          "internalType": "address",
          "name": "",
          "type": "address"
        }
      ],
      "stateMutability": "view",
      "type": "function"
    },
    {
      "inputs": [
        {
          "internalType": "uint256",
          "name": "initialChainId",
          "type": "uint256"
        },
        {
          "internalType": "address",
          "name": "initialPeer",
          "type": "address"
        },
        {
          "internalType": "contract IYarApp",
          "name": "target",
          "type": "address"
        },
        {
          "internalType": "bytes",
          "name": "data",
          "type": "bytes"
        }
      ],
      "name": "onCrossCall",
      "outputs": [],
      "stateMutability": "payable",
      "type": "function"
    },
    {
      "inputs": [],
      "name": "relayer",
      "outputs": [
        {
          "internalType": "address",
          "name": "",
          "type": "address"
        }
      ],
      "stateMutability": "view",
      "type": "function"
    },
    {
      "inputs": [],
      "name": "transaction",
      "outputs": [
        {
          "components": [
            {
              "internalType": "uint256",
              "name": "initialChainId",
              "type": "uint256"
            },
            {
              "internalType": "address",
              "name": "initialPeer",
              "type": "address"
            }
          ],
          "internalType": "struct IYarConnector.Transaction",
          "name": "",
          "type": "tuple"
        }
      ],
      "stateMutability": "view",
      "type": "function"
    }
  ],
  "transactionHash": "0x9ddcc643b658f0576fe1dfcd04cd8ec3c88f7bdb952d4c42c9c7cf378f00c5f1",
  "args": [
    "0x340afFe21AB391FE1C2C5AEBBB84BF5cF236205f",
    "0xCE5d04416D063197B01902664024a416eb5F2fF8",
    "0x0000000000000000000000000000000000000000"
  ],
  "numDeployments": 1,
  "solcInputHash": "09d82f7750202df666cf8d0c80e81484",
  "bytecode": "0x6080346100a557601f610a3638819003918201601f19168301916001600160401b038311848410176100aa578084926060946040528339810103126100a557610047816100c0565b906100606040610059602084016100c0565b92016100c0565b600160005560018060a01b0380928160018060a01b03199516856001541617600155168360025416176002551690600354161760035560405161096190816100d58239f35b600080fd5b634e487b7160e01b600052604160045260246000fd5b51906001600160a01b03821682036100a55756fe608080604052600436101561001357600080fd5b60003560e01c908163500b19e71461070a57508063647846a5146106e157806366fd8e72146105835780637da8ee9e146100ee5780638406c079146100c55763c99de57e1461006157600080fd5b346100c05760003660031901126100c0576000602060405161008281610772565b82815201526040805161009481610772565b6004548082526005546001600160a01b0390811660209384019081528451928352511691810191909152f35b600080fd5b346100c05760003660031901126100c0576001546040516001600160a01b039091168152602090f35b60c03660031901126100c05761010261072e565b60443567ffffffffffffffff81116100c057610122903690600401610744565b60a43567ffffffffffffffff81116100c057610142903690600401610744565b60843542101561054a5760018060a01b036002541660405146602082015260043560408201526bffffffffffffffffffffffff198760601b166060820152848660748301376101ae60b4828781016064356074820152608435609482015203609481018452018261078e565b602081519101207f19457468657265756d205369676e6564204d6573736167653a0a333200000000600052601c52603c600020916101eb816107b0565b936101f9604051958661078e565b81855236828201116100c05781600092602092838801378501015261021e838361085f565b50600481959295101561053457159384610521575b508315610454575b50505015610422576064356102b6575b7f6dcd7941efdb2ad0f5b091050ff124a8cdee2d6f3e9ddf4a785f0edba7ab4ae1928160a0926040519485933385526004356020860152600180871b0316604085015260806060850152816080850152848401376000828201840152601f01601f19168101030190a1005b6003546001600160a01b03168061033257506064353403610300577f6dcd7941efdb2ad0f5b091050ff124a8cdee2d6f3e9ddf4a785f0edba7ab4ae19260a0915b9150925061024b565b60405162461bcd60e51b815260206004820152600a602482015269666565416d6f756e742160b01b6044820152606490fd5b6040516323b872dd60e01b60208201908152336024830152306044830152606480358184015282529060a0810167ffffffffffffffff81118282101761040c576040525161039291600091829182865af161038b6107cc565b90836107fc565b80519081151591826103e8575b50506103d057507f6dcd7941efdb2ad0f5b091050ff124a8cdee2d6f3e9ddf4a785f0edba7ab4ae19260a0916102f7565b60249060405190635274afe760e01b82526004820152fd5b81925090602091810103126100c057602001518015908115036100c057858061039f565b634e487b7160e01b600052604160045260246000fd5b60405162461bcd60e51b815260206004820152600a6024820152697369676e61747572652160b01b6044820152606490fd5b9091925060405192630b135d3f60e11b602085015260248401526040604484015280519081606485015260005b82811061050b57505091600092916104b5608483858783819884010152601f8019910116810103606481018552018361078e565b602082519201905afa6104c66107cc565b816104fd575b816104db575b5084808061023b565b90506020818051810103126100c05760200151630b135d3f60e11b14846104d2565b9050602081511015906104cc565b8060208092840101516084828801015201610481565b6001600160a01b03168214935087610233565b634e487b7160e01b600052602160045260246000fd5b60405162461bcd60e51b81526020600482015260116024820152707369676e6174757265457870697265642160781b6044820152606490fd5b60803660031901126100c05760043561059a61072e565b6001600160a01b03919060443583811691908290036100c05760643567ffffffffffffffff81116100c0576105d3903690600401610744565b91906002600054146106cf5760026000558560015416330361069a5760206000969587969387946040519161060783610772565b8383521692839101526004556bffffffffffffffffffffffff60a01b6005541617600555826040519384928337810182815203925af16106456107cc565b501561065f57600060045560006005556001600055600080f35b60405162461bcd60e51b81526020600482015260136024820152726f6e43726f737343616c6c206661696c65642160681b6044820152606490fd5b60405162461bcd60e51b815260206004820152600d60248201526c6f6e6c792072656c617965722160981b6044820152606490fd5b604051633ee5aeb560e01b8152600490fd5b346100c05760003660031901126100c0576003546040516001600160a01b039091168152602090f35b346100c05760003660031901126100c0576002546001600160a01b03168152602090f35b602435906001600160a01b03821682036100c057565b9181601f840112156100c05782359167ffffffffffffffff83116100c057602083818601950101116100c057565b6040810190811067ffffffffffffffff82111761040c57604052565b90601f8019910116810190811067ffffffffffffffff82111761040c57604052565b67ffffffffffffffff811161040c57601f01601f191660200190565b3d156107f7573d906107dd826107b0565b916107eb604051938461078e565b82523d6000602084013e565b606090565b90610823575080511561081157805190602001fd5b604051630a12f52160e11b8152600490fd5b81511580610856575b610834575090565b604051639996b31560e01b81526001600160a01b039091166004820152602490fd5b50803b1561082c565b81519190604183036108905761088992506020820151906060604084015193015160001a9061089b565b9192909190565b505060009160029190565b91907f7fffffffffffffffffffffffffffffff5d576e7357a4501ddfe92f46681b20a0841161091f57926020929160ff608095604051948552168484015260408301526060820152600092839182805260015afa156109135780516001600160a01b0381161561090a57918190565b50809160019190565b604051903d90823e3d90fd5b5050506000916003919056fea26469706673582212209eb5821b40e98877cf0fc48fb08b2fa1956706544e21da7075050b137c13413364736f6c63430008140033",
  "devdoc": {
    "errors": {
      "AddressEmptyCode(address)": [
        {
          "details": "There's no code at `target` (it is not a contract)."
        }
      ],
      "AddressInsufficientBalance(address)": [
        {
          "details": "The ETH balance of the account is not enough to perform the operation."
        }
      ],
      "FailedInnerCall()": [
        {
          "details": "A call to an address target failed. The target may have reverted."
        }
      ],
      "ReentrancyGuardReentrantCall()": [
        {
          "details": "Unauthorized reentrant call."
        }
      ],
      "SafeERC20FailedOperation(address)": [
        {
          "details": "An operation with an ERC20 token failed."
        }
      ]
    },
    "kind": "dev",
    "methods": {},
    "version": 1
  },
  "userdoc": {
    "kind": "user",
    "methods": {},
    "version": 1
  },
  "storageLayout": {
    "storage": [
      {
        "astId": 859,
        "contract": "contracts/YarConnector.sol:YarConnector",
        "label": "_status",
        "offset": 0,
        "slot": "0",
        "type": "t_uint256"
      },
      {
        "astId": 2882,
        "contract": "contracts/YarConnector.sol:YarConnector",
        "label": "relayer",
        "offset": 0,
        "slot": "1",
        "type": "t_address"
      },
      {
        "astId": 2884,
        "contract": "contracts/YarConnector.sol:YarConnector",
        "label": "feeOracle",
        "offset": 0,
        "slot": "2",
        "type": "t_address"
      },
      {
        "astId": 2886,
        "contract": "contracts/YarConnector.sol:YarConnector",
        "label": "feeToken",
        "offset": 0,
        "slot": "3",
        "type": "t_address"
      },
      {
        "astId": 2889,
        "contract": "contracts/YarConnector.sol:YarConnector",
        "label": "_transaction",
        "offset": 0,
        "slot": "4",
        "type": "t_struct(Transaction)3291_storage"
      }
    ],
    "types": {
      "t_address": {
        "encoding": "inplace",
        "label": "address",
        "numberOfBytes": "20"
      },
      "t_struct(Transaction)3291_storage": {
        "encoding": "inplace",
        "label": "struct IYarConnector.Transaction",
        "members": [
          {
            "astId": 3288,
            "contract": "contracts/YarConnector.sol:YarConnector",
            "label": "initialChainId",
            "offset": 0,
            "slot": "0",
            "type": "t_uint256"
          },
          {
            "astId": 3290,
            "contract": "contracts/YarConnector.sol:YarConnector",
            "label": "initialPeer",
            "offset": 0,
            "slot": "1",
            "type": "t_address"
          }
        ],
        "numberOfBytes": "64"
      },
      "t_uint256": {
        "encoding": "inplace",
        "label": "uint256",
        "numberOfBytes": "32"
      }
    }
  }
}