{
  "address": "0xbB9b33A380768feC37D90F1DB9a151058f3118b0",
  "abi": [
    {
      "inputs": [],
      "stateMutability": "nonpayable",
      "type": "constructor"
    },
    {
      "inputs": [
        {
          "internalType": "address",
          "name": "sender",
          "type": "address"
        },
        {
          "internalType": "uint256",
          "name": "balance",
          "type": "uint256"
        },
        {
          "internalType": "uint256",
          "name": "needed",
          "type": "uint256"
        },
        {
          "internalType": "uint256",
          "name": "tokenId",
          "type": "uint256"
        }
      ],
      "name": "ERC1155InsufficientBalance",
      "type": "error"
    },
    {
      "inputs": [
        {
          "internalType": "address",
          "name": "approver",
          "type": "address"
        }
      ],
      "name": "ERC1155InvalidApprover",
      "type": "error"
    },
    {
      "inputs": [
        {
          "internalType": "uint256",
          "name": "idsLength",
          "type": "uint256"
        },
        {
          "internalType": "uint256",
          "name": "valuesLength",
          "type": "uint256"
        }
      ],
      "name": "ERC1155InvalidArrayLength",
      "type": "error"
    },
    {
      "inputs": [
        {
          "internalType": "address",
          "name": "operator",
          "type": "address"
        }
      ],
      "name": "ERC1155InvalidOperator",
      "type": "error"
    },
    {
      "inputs": [
        {
          "internalType": "address",
          "name": "receiver",
          "type": "address"
        }
      ],
      "name": "ERC1155InvalidReceiver",
      "type": "error"
    },
    {
      "inputs": [
        {
          "internalType": "address",
          "name": "sender",
          "type": "address"
        }
      ],
      "name": "ERC1155InvalidSender",
      "type": "error"
    },
    {
      "inputs": [
        {
          "internalType": "address",
          "name": "operator",
          "type": "address"
        },
        {
          "internalType": "address",
          "name": "owner",
          "type": "address"
        }
      ],
      "name": "ERC1155MissingApprovalForAll",
      "type": "error"
    },
    {
      "anonymous": false,
      "inputs": [
        {
          "indexed": true,
          "internalType": "address",
          "name": "account",
          "type": "address"
        },
        {
          "indexed": true,
          "internalType": "address",
          "name": "operator",
          "type": "address"
        },
        {
          "indexed": false,
          "internalType": "bool",
          "name": "approved",
          "type": "bool"
        }
      ],
      "name": "ApprovalForAll",
      "type": "event"
    },
    {
      "anonymous": false,
      "inputs": [
        {
          "indexed": true,
          "internalType": "address",
          "name": "operator",
          "type": "address"
        },
        {
          "indexed": true,
          "internalType": "address",
          "name": "from",
          "type": "address"
        },
        {
          "indexed": true,
          "internalType": "address",
          "name": "to",
          "type": "address"
        },
        {
          "indexed": false,
          "internalType": "uint256[]",
          "name": "ids",
          "type": "uint256[]"
        },
        {
          "indexed": false,
          "internalType": "uint256[]",
          "name": "values",
          "type": "uint256[]"
        }
      ],
      "name": "TransferBatch",
      "type": "event"
    },
    {
      "anonymous": false,
      "inputs": [
        {
          "indexed": true,
          "internalType": "address",
          "name": "operator",
          "type": "address"
        },
        {
          "indexed": true,
          "internalType": "address",
          "name": "from",
          "type": "address"
        },
        {
          "indexed": true,
          "internalType": "address",
          "name": "to",
          "type": "address"
        },
        {
          "indexed": false,
          "internalType": "uint256",
          "name": "id",
          "type": "uint256"
        },
        {
          "indexed": false,
          "internalType": "uint256",
          "name": "value",
          "type": "uint256"
        }
      ],
      "name": "TransferSingle",
      "type": "event"
    },
    {
      "anonymous": false,
      "inputs": [
        {
          "indexed": false,
          "internalType": "string",
          "name": "value",
          "type": "string"
        },
        {
          "indexed": true,
          "internalType": "uint256",
          "name": "id",
          "type": "uint256"
        }
      ],
      "name": "URI",
      "type": "event"
    },
    {
      "inputs": [
        {
          "internalType": "address",
          "name": "account",
          "type": "address"
        },
        {
          "internalType": "uint256",
          "name": "id",
          "type": "uint256"
        }
      ],
      "name": "balanceOf",
      "outputs": [
        {
          "internalType": "uint256",
          "name": "",
          "type": "uint256"
        }
      ],
      "stateMutability": "view",
      "type": "function"
    },
    {
      "inputs": [
        {
          "internalType": "address[]",
          "name": "accounts",
          "type": "address[]"
        },
        {
          "internalType": "uint256[]",
          "name": "ids",
          "type": "uint256[]"
        }
      ],
      "name": "balanceOfBatch",
      "outputs": [
        {
          "internalType": "uint256[]",
          "name": "",
          "type": "uint256[]"
        }
      ],
      "stateMutability": "view",
      "type": "function"
    },
    {
      "inputs": [
        {
          "internalType": "address",
          "name": "account",
          "type": "address"
        },
        {
          "internalType": "address",
          "name": "operator",
          "type": "address"
        }
      ],
      "name": "isApprovedForAll",
      "outputs": [
        {
          "internalType": "bool",
          "name": "",
          "type": "bool"
        }
      ],
      "stateMutability": "view",
      "type": "function"
    },
    {
      "inputs": [
        {
          "internalType": "address",
          "name": "account",
          "type": "address"
        },
        {
          "internalType": "uint256",
          "name": "id",
          "type": "uint256"
        },
        {
          "internalType": "uint256",
          "name": "amount",
          "type": "uint256"
        },
        {
          "internalType": "string",
          "name": "_uri",
          "type": "string"
        }
      ],
      "name": "mint",
      "outputs": [],
      "stateMutability": "nonpayable",
      "type": "function"
    },
    {
      "inputs": [
        {
          "internalType": "address",
          "name": "to",
          "type": "address"
        },
        {
          "internalType": "uint256[]",
          "name": "ids",
          "type": "uint256[]"
        },
        {
          "internalType": "uint256[]",
          "name": "amounts",
          "type": "uint256[]"
        },
        {
          "internalType": "string[]",
          "name": "_uris",
          "type": "string[]"
        }
      ],
      "name": "mintBatch",
      "outputs": [],
      "stateMutability": "nonpayable",
      "type": "function"
    },
    {
      "inputs": [
        {
          "internalType": "address",
          "name": "from",
          "type": "address"
        },
        {
          "internalType": "address",
          "name": "to",
          "type": "address"
        },
        {
          "internalType": "uint256[]",
          "name": "ids",
          "type": "uint256[]"
        },
        {
          "internalType": "uint256[]",
          "name": "values",
          "type": "uint256[]"
        },
        {
          "internalType": "bytes",
          "name": "data",
          "type": "bytes"
        }
      ],
      "name": "safeBatchTransferFrom",
      "outputs": [],
      "stateMutability": "nonpayable",
      "type": "function"
    },
    {
      "inputs": [
        {
          "internalType": "address",
          "name": "from",
          "type": "address"
        },
        {
          "internalType": "address",
          "name": "to",
          "type": "address"
        },
        {
          "internalType": "uint256",
          "name": "id",
          "type": "uint256"
        },
        {
          "internalType": "uint256",
          "name": "value",
          "type": "uint256"
        },
        {
          "internalType": "bytes",
          "name": "data",
          "type": "bytes"
        }
      ],
      "name": "safeTransferFrom",
      "outputs": [],
      "stateMutability": "nonpayable",
      "type": "function"
    },
    {
      "inputs": [
        {
          "internalType": "address",
          "name": "operator",
          "type": "address"
        },
        {
          "internalType": "bool",
          "name": "approved",
          "type": "bool"
        }
      ],
      "name": "setApprovalForAll",
      "outputs": [],
      "stateMutability": "nonpayable",
      "type": "function"
    },
    {
      "inputs": [
        {
          "internalType": "bytes4",
          "name": "interfaceId",
          "type": "bytes4"
        }
      ],
      "name": "supportsInterface",
      "outputs": [
        {
          "internalType": "bool",
          "name": "",
          "type": "bool"
        }
      ],
      "stateMutability": "view",
      "type": "function"
    },
    {
      "inputs": [
        {
          "internalType": "uint256",
          "name": "_tokenId",
          "type": "uint256"
        }
      ],
      "name": "uri",
      "outputs": [
        {
          "internalType": "string",
          "name": "",
          "type": "string"
        }
      ],
      "stateMutability": "view",
      "type": "function"
    },
    {
      "inputs": [
        {
          "internalType": "uint256[]",
          "name": "_tokenIds",
          "type": "uint256[]"
        }
      ],
      "name": "uriBatch",
      "outputs": [
        {
          "internalType": "string[]",
          "name": "",
          "type": "string[]"
        }
      ],
      "stateMutability": "view",
      "type": "function"
    }
  ],
  "transactionHash": "0x9fdccb3daaebc4f874e13654424c3ffb66e263b0a9305977385da937ac96c9a3",
  "args": [],
  "numDeployments": 1,
  "solcInputHash": "ae3307b32ddf415bc48825d03f0c23e7",
  "bytecode": "0x6080346100d757602081016001600160401b038111828210176100c15760405260008091526002546001908181811c911680156100b7575b60208210146100a357601f811161005c575b8260025560405161177190816100dd8239f35b60028352601f0160051c7f405787fa12a823e0f2b7631cc41b3ba8828b3321ca811111fa75cd3aa3bb5ace908101905b8181106100995750610049565b838155820161008c565b634e487b7160e01b83526022600452602483fd5b90607f1690610037565b634e487b7160e01b600052604160045260246000fd5b600080fdfe6080604052600436101561001257600080fd5b60003560e01c8062fdd58e146100c657806301ffc9a7146100c15780630e89341c146100bc5780632eb2c2d6146100b75780634e1273f4146100b257806396d7e229146100ad578063a22cb465146100a8578063a55784ef146100a3578063bb7fde711461009e578063e985e9c5146100995763f242432a1461009457600080fd5b6109f3565b610996565b610930565b610840565b610783565b6106a9565b61058d565b61041f565b610231565b61016f565b610110565b600435906001600160a01b03821682036100e157565b600080fd5b602435906001600160a01b03821682036100e157565b35906001600160a01b03821682036100e157565b346100e15760403660031901126100e157602061015461012e6100cb565b6024356000526000835260406000209060018060a01b0316600052602052604060002090565b54604051908152f35b6001600160e01b03198116036100e157565b346100e15760203660031901126100e157602060043561018e8161015d565b63ffffffff60e01b16636cdb3d1360e11b81149081156101cc575b81156101bb575b506040519015158152f35b6301ffc9a760e01b149050386101b0565b6303a24d0760e21b811491506101a9565b919082519283825260005b848110610209575050826000602080949584010152601f8019910116010190565b6020818301810151848301820152016101e8565b90602061022e9281815201906101dd565b90565b346100e1576020806003193601126100e1576000906004358252600381526040822090604051918381549061026582611324565b808652926001928084169081156102da575060011461029f575b61029b8661028f818a0382610314565b6040519182918261021d565b0390f35b9080949650528483205b8284106102c7575050508161029b9361028f9282010193388061027f565b80548585018701529285019281016102a9565b60ff19168787015250505050151560051b820101915061028f8161029b388061027f565b634e487b7160e01b600052604160045260246000fd5b90601f8019910116810190811067ffffffffffffffff82111761033657604052565b6102fe565b67ffffffffffffffff81116103365760051b60200190565b81601f820112156100e15780359161036a8361033b565b926103786040519485610314565b808452602092838086019260051b8201019283116100e1578301905b8282106103a2575050505090565b81358152908301908301610394565b67ffffffffffffffff811161033657601f01601f191660200190565b9291926103d9826103b1565b916103e76040519384610314565b8294818452818301116100e1578281602093846000960137010152565b9080601f830112156100e15781602061022e933591016103cd565b346100e15760a03660031901126100e1576104386100cb565b6104406100e6565b906044359167ffffffffffffffff908184116100e15761046560049436908601610353565b906064358381116100e15761047d9036908701610353565b926084359081116100e1576104959036908701610404565b936001600160a01b03808216903382141580610524575b6104f7578316156104df57156104c8576104c69550610daa565b005b604051626a0d4560e21b8152600081880152602490fd5b604051632bfa23e760e11b8152600081890152602490fd5b6040805163711bec9160e11b815233818b019081526001600160a01b038616602082015290918291010390fd5b50600082815260016020908152604080832033845290915290205460ff16156104ac565b90815180825260208080930193019160005b828110610568575050505090565b83518552938101939281019260010161055a565b90602061022e928181520190610548565b346100e15760403660031901126100e15760043567ffffffffffffffff8082116100e157366023830112156100e15781600401356105ca8161033b565b926105d86040519485610314565b81845260209160248386019160051b830101913683116100e157602401905b82821061063057856024358681116100e15761029b9161061e610624923690600401610353565b90610b65565b6040519182918261057c565b83809161063c846100fc565b8152019101906105f7565b602080820190808352835180925260408301928160408460051b8301019501936000915b84831061067b5750505050505090565b9091929394958480610699600193603f198682030187528a516101dd565b980193019301919493929061066b565b346100e1576020806003193601126100e15760043567ffffffffffffffff81116100e1576106db903690600401610353565b8051906106e78261033b565b926106f56040519485610314565b828452601f196107048461033b565b0160005b8181106107745750505060005b82811061072a576040518061029b8682610647565b8061075461074f61073e61076f9486610b3b565b516000526003602052604060002090565b61135e565b61075e8287610b3b565b526107698186610b3b565b50610b27565b610715565b60608682018401528201610708565b346100e15760403660031901126100e15761079c6100cb565b6024358015158082036100e1576001600160a01b038316928315610828573360009081526001602090815260408083206001600160a01b039094168352929052209060ff801983541691161790557f17307eab39ab6107e8899845ad3d59bd9653f200f220920489ca2b5937696c3160405180610823339482919091602081019215159052565b0390a3005b60405162ced3e160e81b815260006004820152602490fd5b346100e15760803660031901126100e1576108596100cb565b67ffffffffffffffff90602480358381116100e15761087c903690600401610353565b60449283358581116100e157610896903690600401610353565b92606435908682116100e157366023830112156100e15781600401356108bb8161033b565b966108c96040519889610314565b818852602098838a8a019360051b860101943686116100e157848101935b8685106108fa576104c68b8b8b8b611662565b84358381116100e1578201366043820112156100e1578c9161092583923690888b82013591016103cd565b8152019401936108e7565b346100e15760803660031901126100e1576109496100cb565b6064359067ffffffffffffffff908183116100e157366023840112156100e15782600401359182116100e15736602483850101116100e15760246104c69301906044359060243590611458565b346100e15760403660031901126100e157602060ff6109e76109b66100cb565b6109be6100e6565b6001600160a01b0391821660009081526001865260408082209290931681526020919091522090565b54166040519015158152f35b346100e15760a03660031901126100e157610a0c6100cb565b610a146100e6565b60843567ffffffffffffffff81116100e157610a34903690600401610404565b906001600160a01b03838116903382141580610aed575b610ac657821615610aad5715610a95576104c692610a8d6064356044359160405192600184526020840152604083019160018352606084015260808301604052565b929091610daa565b604051626a0d4560e21b815260006004820152602490fd5b604051632bfa23e760e11b815260006004820152602490fd5b60405163711bec9160e11b81523360048201526001600160a01b0386166024820152604490fd5b50600082815260016020908152604080832033845290915290205460ff1615610a4b565b634e487b7160e01b600052601160045260246000fd5b6000198114610b365760010190565b610b11565b8051821015610b4f5760209160051b010190565b634e487b7160e01b600052603260045260246000fd5b91909180518351808203610c08575050805190610b818261033b565b91610b8f6040519384610314565b808352610b9e601f199161033b565b0190602091368385013760005b8151811015610c0057600581901b8281018401519087018401516000908152602081815260408083206001600160a01b0390941683529290522054610bfb9190610bf58287610b3b565b52610b27565b610bab565b509193505050565b604051635b05999160e01b815260048101919091526024810191909152604490fd5b908051835190818103610c0857505060005b8151811015610cbf57600581901b8281016020908101519186010151610c76929185906001600160a01b038216610c7b575b505050610b27565b610c3c565b610cb591610c96610cad926000526000602052604060002090565b9060018060a01b0316600052602052604060002090565b918254610fa8565b9055388481610c6e565b50805191939291600103610d61576020818101518382015160408051928352928201526001600160a01b0386169160009133917fc3d58168c5ae7397731d063d5bbf3d657854427343f4c083240f7aacaa2d0f6291a45b6001600160a01b038416610d2b575b50505050565b8051600103610d525790602080610d499593015191015191336110a7565b38808080610d25565b610d5c93336112b8565b610d49565b6040516001600160a01b0385169060009033907f4a39dc06d4c0dbc64b70af90fd698a233a518aa5d07e595d983b8c0526c8f7fb9080610da2888883610fb5565b0390a4610d16565b949190918151845190818103610c0857505060005b8251811015610eb257600581901b83810160209081015191870101516001600160a01b03929186908a8516610e2b575b610e01948216610e0657505050610b27565b610dbf565b610e2191610c96610cad926000526000602052604060002090565b9055388581610c6e565b9192939050610e488a610c96846000526000602052604060002090565b54838110610e7b5791879184610e0196959403610e738d610c96856000526000602052604060002090565b559450610def565b6040516303dee4c560e01b81526001600160a01b038c16600482015260248101919091526044810184905260648101839052608490fd5b509491939290936001855114600014610f5d576020858101518382015160408051928352928201526001600160a01b03838116929086169133917fc3d58168c5ae7397731d063d5bbf3d657854427343f4c083240f7aacaa2d0f6291a45b6001600160a01b038116610f26575b5050505050565b8451600103610f4c57602080610f4296015192015192336111a1565b3880808080610f1f565b610f58949192336112ed565b610f42565b6040516001600160a01b03828116919085169033907f4a39dc06d4c0dbc64b70af90fd698a233a518aa5d07e595d983b8c0526c8f7fb9080610fa0888c83610fb5565b0390a4610f10565b91908201809211610b3657565b9091610fcc61022e93604084526040840190610548565b916020818403910152610548565b908160209103126100e1575161022e8161015d565b909260a09261022e9594600180861b03168352600060208401526040830152606082015281608082015201906101dd565b919261022e95949160a094600180871b0380921685521660208401526040830152606082015281608082015201906101dd565b604051906020820182811067ffffffffffffffff8211176103365760405260008252565b3d156110a2573d90611088826103b1565b916110966040519384610314565b82523d6000602084013e565b606090565b9293919093843b6110b9575050505050565b6020916110dc604051948593849363f23a6e6160e01b9889865260048601610fef565b038160006001600160a01b0388165af160009181611171575b506111345782611103611077565b805191908261112d57604051632bfa23e760e11b81526001600160a01b0383166004820152602490fd5b9050602001fd5b6001600160e01b0319160361114e57503880808080610f1f565b604051632bfa23e760e11b81526001600160a01b03919091166004820152602490fd5b61119391925060203d811161119a575b61118b8183610314565b810190610fda565b90386110f5565b503d611181565b939290949194853b6111b6575b505050505050565b6111d9602093604051958694859463f23a6e6160e01b998a875260048701611020565b038160006001600160a01b0388165af16000918161121b575b506112005782611103611077565b6001600160e01b0319160361114e57503880808080806111ae565b61123491925060203d811161119a5761118b8183610314565b90386111f2565b9261126a61022e95936112789360018060a01b031686526000602087015260a0604087015260a0860190610548565b908482036060860152610548565b9160808184039101526101dd565b939061022e959361126a916112789460018060a01b03809216885216602087015260a0604087015260a0860190610548565b9293919093843b6112ca575050505050565b6020916110dc604051948593849363bc197c8160e01b988986526004860161123b565b939290949194853b61130157505050505050565b6111d9602093604051958694859463bc197c8160e01b998a875260048701611286565b90600182811c92168015611354575b602083101461133e57565b634e487b7160e01b600052602260045260246000fd5b91607f1691611333565b906040519182600082549261137284611324565b9081845260019485811690816000146113e1575060011461139e575b505061139c92500383610314565b565b9093915060005260209081600020936000915b8183106113c957505061139c9350820101388061138e565b855488840185015294850194879450918301916113b1565b91505061139c94506020925060ff191682840152151560051b820101388061138e565b90601f811161141257505050565b600091825260208220906020601f850160051c8301941061144e575b601f0160051c01915b82811061144357505050565b818155600101611437565b909250829061142e565b929493948160005260206003815260406000209167ffffffffffffffff88116103365761148f886114898554611324565b85611404565b600091601f89116001146114dc575096809161139c97986000926114d1575b50508160011b916000199060031b1c19161790555b6114cb611053565b9261154f565b0135905038806114ae565b91601f1989166114f185600052602060002090565b9382905b82821061153757505091600193918a61139c9a9b941061151d575b505050811b0190556114c3565b0135600019600384901b60f8161c19169055388080611510565b806001859782949688013581550196019301906114f5565b919291906001600160a01b03821615610aad5761139c9361158d60405192600184526020840152604083019160018352606084015260808301604052565b91610c2a565b919091825167ffffffffffffffff8111610336576115bb816115b58454611324565b84611404565b602080601f83116001146115f75750819293946000926115ec575b50508160011b916000199060031b1c1916179055565b0151905038806115d6565b90601f1983169561160d85600052602060002090565b926000905b88821061164a57505083600195969710611631575b505050811b019055565b015160001960f88460031b161c19169055388080611627565b80600185968294968601518155019501930190611612565b919093929380518551036116c057805160005b81811061169257505061139c93945061168c611053565b92611720565b806116b66116a36116bb938a610b3b565b516116b161073e8488610b3b565b611593565b610b27565b611675565b60405162461bcd60e51b815260206004820152603260248201527f497373756564455243313135353a205f746f6b656e49647320616e64205f75726044820152710d2e640d8cadccee8d040dad2e6dac2e8c6d60731b6064820152608490fd5b9291906001600160a01b03841615610aad5761139c93610c2a56fea2646970667358221220270278eb8d236f06236b7045d78af301f7acebc90e1f3cca85b4d6ec8f41bccc64736f6c63430008140033",
  "devdoc": {
    "errors": {
      "ERC1155InsufficientBalance(address,uint256,uint256,uint256)": [
        {
          "details": "Indicates an error related to the current `balance` of a `sender`. Used in transfers.",
          "params": {
            "balance": "Current balance for the interacting account.",
            "needed": "Minimum amount required to perform a transfer.",
            "sender": "Address whose tokens are being transferred.",
            "tokenId": "Identifier number of a token."
          }
        }
      ],
      "ERC1155InvalidApprover(address)": [
        {
          "details": "Indicates a failure with the `approver` of a token to be approved. Used in approvals.",
          "params": {
            "approver": "Address initiating an approval operation."
          }
        }
      ],
      "ERC1155InvalidArrayLength(uint256,uint256)": [
        {
          "details": "Indicates an array length mismatch between ids and values in a safeBatchTransferFrom operation. Used in batch transfers.",
          "params": {
            "idsLength": "Length of the array of token identifiers",
            "valuesLength": "Length of the array of token amounts"
          }
        }
      ],
      "ERC1155InvalidOperator(address)": [
        {
          "details": "Indicates a failure with the `operator` to be approved. Used in approvals.",
          "params": {
            "operator": "Address that may be allowed to operate on tokens without being their owner."
          }
        }
      ],
      "ERC1155InvalidReceiver(address)": [
        {
          "details": "Indicates a failure with the token `receiver`. Used in transfers.",
          "params": {
            "receiver": "Address to which tokens are being transferred."
          }
        }
      ],
      "ERC1155InvalidSender(address)": [
        {
          "details": "Indicates a failure with the token `sender`. Used in transfers.",
          "params": {
            "sender": "Address whose tokens are being transferred."
          }
        }
      ],
      "ERC1155MissingApprovalForAll(address,address)": [
        {
          "details": "Indicates a failure with the `operator`s approval. Used in transfers.",
          "params": {
            "operator": "Address that may be allowed to operate on tokens without being their owner.",
            "owner": "Address of the current owner of a token."
          }
        }
      ]
    },
    "events": {
      "ApprovalForAll(address,address,bool)": {
        "details": "Emitted when `account` grants or revokes permission to `operator` to transfer their tokens, according to `approved`."
      },
      "TransferBatch(address,address,address,uint256[],uint256[])": {
        "details": "Equivalent to multiple {TransferSingle} events, where `operator`, `from` and `to` are the same for all transfers."
      },
      "TransferSingle(address,address,address,uint256,uint256)": {
        "details": "Emitted when `value` amount of tokens of type `id` are transferred from `from` to `to` by `operator`."
      },
      "URI(string,uint256)": {
        "details": "Emitted when the URI for token type `id` changes to `value`, if it is a non-programmatic URI. If an {URI} event was emitted for `id`, the standard https://eips.ethereum.org/EIPS/eip-1155#metadata-extensions[guarantees] that `value` will equal the value returned by {IERC1155MetadataURI-uri}."
      }
    },
    "kind": "dev",
    "methods": {
      "balanceOf(address,uint256)": {
        "details": "See {IERC1155-balanceOf}."
      },
      "balanceOfBatch(address[],uint256[])": {
        "details": "See {IERC1155-balanceOfBatch}. Requirements: - `accounts` and `ids` must have the same length."
      },
      "isApprovedForAll(address,address)": {
        "details": "See {IERC1155-isApprovedForAll}."
      },
      "safeBatchTransferFrom(address,address,uint256[],uint256[],bytes)": {
        "details": "See {IERC1155-safeBatchTransferFrom}."
      },
      "safeTransferFrom(address,address,uint256,uint256,bytes)": {
        "details": "See {IERC1155-safeTransferFrom}."
      },
      "setApprovalForAll(address,bool)": {
        "details": "See {IERC1155-setApprovalForAll}."
      },
      "supportsInterface(bytes4)": {
        "details": "See {IERC165-supportsInterface}."
      }
    },
    "version": 1
  },
  "userdoc": {
    "kind": "user",
    "methods": {},
    "version": 1
  },
  "storageLayout": {
    "storage": [
      {
        "astId": 178,
        "contract": "contracts/apps/bridge1155/YarERC1155.sol:YarERC1155",
        "label": "_balances",
        "offset": 0,
        "slot": "0",
        "type": "t_mapping(t_uint256,t_mapping(t_address,t_uint256))"
      },
      {
        "astId": 184,
        "contract": "contracts/apps/bridge1155/YarERC1155.sol:YarERC1155",
        "label": "_operatorApprovals",
        "offset": 0,
        "slot": "1",
        "type": "t_mapping(t_address,t_mapping(t_address,t_bool))"
      },
      {
        "astId": 186,
        "contract": "contracts/apps/bridge1155/YarERC1155.sol:YarERC1155",
        "label": "_uri",
        "offset": 0,
        "slot": "2",
        "type": "t_string_storage"
      },
      {
        "astId": 2798,
        "contract": "contracts/apps/bridge1155/YarERC1155.sol:YarERC1155",
        "label": "uris",
        "offset": 0,
        "slot": "3",
        "type": "t_mapping(t_uint256,t_string_storage)"
      }
    ],
    "types": {
      "t_address": {
        "encoding": "inplace",
        "label": "address",
        "numberOfBytes": "20"
      },
      "t_bool": {
        "encoding": "inplace",
        "label": "bool",
        "numberOfBytes": "1"
      },
      "t_mapping(t_address,t_bool)": {
        "encoding": "mapping",
        "key": "t_address",
        "label": "mapping(address => bool)",
        "numberOfBytes": "32",
        "value": "t_bool"
      },
      "t_mapping(t_address,t_mapping(t_address,t_bool))": {
        "encoding": "mapping",
        "key": "t_address",
        "label": "mapping(address => mapping(address => bool))",
        "numberOfBytes": "32",
        "value": "t_mapping(t_address,t_bool)"
      },
      "t_mapping(t_address,t_uint256)": {
        "encoding": "mapping",
        "key": "t_address",
        "label": "mapping(address => uint256)",
        "numberOfBytes": "32",
        "value": "t_uint256"
      },
      "t_mapping(t_uint256,t_mapping(t_address,t_uint256))": {
        "encoding": "mapping",
        "key": "t_uint256",
        "label": "mapping(uint256 => mapping(address => uint256))",
        "numberOfBytes": "32",
        "value": "t_mapping(t_address,t_uint256)"
      },
      "t_mapping(t_uint256,t_string_storage)": {
        "encoding": "mapping",
        "key": "t_uint256",
        "label": "mapping(uint256 => string)",
        "numberOfBytes": "32",
        "value": "t_string_storage"
      },
      "t_string_storage": {
        "encoding": "bytes",
        "label": "string",
        "numberOfBytes": "32"
      },
      "t_uint256": {
        "encoding": "inplace",
        "label": "uint256",
        "numberOfBytes": "32"
      }
    }
  }
}