{
  "address": "0x4C7217058078904a182648E18058B3362266b8e6",
  "abi": [
    {
      "inputs": [
        {
          "internalType": "address",
          "name": "intialRelayer",
          "type": "address"
        },
        {
          "internalType": "address",
          "name": "initailFeeToken",
          "type": "address"
        }
      ],
      "stateMutability": "nonpayable",
      "type": "constructor"
    },
    {
      "inputs": [
        {
          "internalType": "address",
          "name": "target",
          "type": "address"
        }
      ],
      "name": "AddressEmptyCode",
      "type": "error"
    },
    {
      "inputs": [
        {
          "internalType": "address",
          "name": "account",
          "type": "address"
        }
      ],
      "name": "AddressInsufficientBalance",
      "type": "error"
    },
    {
      "inputs": [],
      "name": "FailedInnerCall",
      "type": "error"
    },
    {
      "inputs": [
        {
          "internalType": "address",
          "name": "token",
          "type": "address"
        }
      ],
      "name": "SafeERC20FailedOperation",
      "type": "error"
    },
    {
      "anonymous": false,
      "inputs": [
        {
          "indexed": false,
          "internalType": "address",
          "name": "account",
          "type": "address"
        },
        {
          "indexed": false,
          "internalType": "uint256",
          "name": "initialChainId",
          "type": "uint256"
        },
        {
          "indexed": false,
          "internalType": "address",
          "name": "spender",
          "type": "address"
        },
        {
          "indexed": false,
          "internalType": "uint256",
          "name": "amount",
          "type": "uint256"
        }
      ],
      "name": "Approve",
      "type": "event"
    },
    {
      "anonymous": false,
      "inputs": [
        {
          "indexed": false,
          "internalType": "address",
          "name": "depositor",
          "type": "address"
        },
        {
          "indexed": false,
          "internalType": "address",
          "name": "feesToken",
          "type": "address"
        },
        {
          "indexed": false,
          "internalType": "uint256",
          "name": "amount",
          "type": "uint256"
        }
      ],
      "name": "Deposit",
      "type": "event"
    },
    {
      "anonymous": false,
      "inputs": [
        {
          "components": [
            {
              "internalType": "uint256",
              "name": "initialChainId",
              "type": "uint256"
            },
            {
              "internalType": "address",
              "name": "sender",
              "type": "address"
            },
            {
              "internalType": "address",
              "name": "payer",
              "type": "address"
            },
            {
              "internalType": "uint256",
              "name": "targetChainId",
              "type": "uint256"
            },
            {
              "internalType": "address",
              "name": "target",
              "type": "address"
            },
            {
              "internalType": "uint256",
              "name": "value",
              "type": "uint256"
            },
            {
              "internalType": "bytes",
              "name": "data",
              "type": "bytes"
            }
          ],
          "indexed": false,
          "internalType": "struct YarLib.YarTX",
          "name": "yarTx",
          "type": "tuple"
        }
      ],
      "name": "Send",
      "type": "event"
    },
    {
      "inputs": [
        {
          "internalType": "address",
          "name": "sender",
          "type": "address"
        },
        {
          "internalType": "address",
          "name": "app",
          "type": "address"
        },
        {
          "internalType": "bytes32",
          "name": "yarTxHash",
          "type": "bytes32"
        }
      ],
      "name": "approvals",
      "outputs": [
        {
          "internalType": "bool",
          "name": "approved",
          "type": "bool"
        }
      ],
      "stateMutability": "view",
      "type": "function"
    },
    {
      "inputs": [
        {
          "internalType": "address",
          "name": "spender",
          "type": "address"
        },
        {
          "internalType": "uint256",
          "name": "amount",
          "type": "uint256"
        }
      ],
      "name": "approve",
      "outputs": [],
      "stateMutability": "payable",
      "type": "function"
    },
    {
      "inputs": [
        {
          "internalType": "uint256",
          "name": "amount",
          "type": "uint256"
        }
      ],
      "name": "deposit",
      "outputs": [],
      "stateMutability": "payable",
      "type": "function"
    },
    {
      "inputs": [],
      "name": "feeToken",
      "outputs": [
        {
          "internalType": "address",
          "name": "",
          "type": "address"
        }
      ],
      "stateMutability": "view",
      "type": "function"
    },
    {
      "inputs": [],
      "name": "relayer",
      "outputs": [
        {
          "internalType": "address",
          "name": "",
          "type": "address"
        }
      ],
      "stateMutability": "view",
      "type": "function"
    },
    {
      "inputs": [
        {
          "components": [
            {
              "internalType": "uint256",
              "name": "initialChainId",
              "type": "uint256"
            },
            {
              "internalType": "address",
              "name": "sender",
              "type": "address"
            },
            {
              "internalType": "address",
              "name": "payer",
              "type": "address"
            },
            {
              "internalType": "uint256",
              "name": "targetChainId",
              "type": "uint256"
            },
            {
              "internalType": "address",
              "name": "target",
              "type": "address"
            },
            {
              "internalType": "uint256",
              "name": "value",
              "type": "uint256"
            },
            {
              "internalType": "bytes",
              "name": "data",
              "type": "bytes"
            }
          ],
          "internalType": "struct YarLib.YarTX",
          "name": "yarTX",
          "type": "tuple"
        }
      ],
      "name": "send",
      "outputs": [],
      "stateMutability": "payable",
      "type": "function"
    }
  ],
  "transactionHash": "0x5a3457783e1b1e73760543c496ff8cf81cc0b46562e0faf6bb1762fccb53d4b0",
  "args": [
    "0x340afFe21AB391FE1C2C5AEBBB84BF5cF236205f",
    "0x0000000000000000000000000000000000000000"
  ],
  "numDeployments": 1,
  "solcInputHash": "8d852b07429f607ffac59b345428f0f0",
  "bytecode": "0x60803461008d57601f61083338819003918201601f19168301916001600160401b0383118484101761009257808492604094855283398101031261008d57610052602061004b836100a8565b92016100a8565b600080546001600160a01b039384166001600160a01b0319918216179091556001805492909316911617905560405161077690816100bd8239f35b600080fd5b634e487b7160e01b600052604160045260246000fd5b51906001600160a01b038216820361008d5756fe6080604052600436101561001257600080fd5b60003560e01c8063095ea7b3146100775780634cb8028814610072578063647846a51461006d5780638406c07914610068578063b6b55f25146100635763fac12aae1461005e57600080fd5b610356565b6101ad565b610184565b61015b565b6100fa565b60403660031901126100cb5761008b6100d0565b336080524660a05260018060a01b031660c05260243560e0527fbdbc3a9424c1eba6e7ab27814f2dc9b66df2138a9912c0a89085e9967c105d71608080a1005b600080fd5b600435906001600160a01b03821682036100cb57565b35906001600160a01b03821682036100cb57565b346100cb5760603660031901126100cb576101136100d0565b6024356001600160a01b03818116918290036100cb5760209260ff92604092600092168252600285528282209082528452818120604435825284522054166040519015158152f35b346100cb5760003660031901126100cb576001546040516001600160a01b039091168152602090f35b346100cb5760003660031901126100cb576000546040516001600160a01b039091168152602090f35b60203660031901126100cb57600154600435906001600160a01b03168061025357506101da813414610406565b6000805481908190819085906001600160a01b03165af1906101fa61043c565b911561024a577f5548c837ab068cf56a2c2479df0882a4922fd203edb7517321831d95078c5f6291505b600154604080513381526001600160a01b039092166020830152810191909152606090a1005b50602081519101fd5b6000547f5548c837ab068cf56a2c2479df0882a4922fd203edb7517321831d95078c5f629291610291918391906001600160a01b031690339061046c565b610224565b634e487b7160e01b600052604160045260246000fd5b90601f8019910116810190811067ffffffffffffffff8211176102ce57604052565b610296565b6040519060e0820182811067ffffffffffffffff8211176102ce57604052565b67ffffffffffffffff81116102ce57601f01601f191660200190565b81601f820112156100cb57803590610326826102f3565b9261033460405194856102ac565b828452602083830101116100cb57816000926020809301838601378301015290565b6003196020368201126100cb576004359067ffffffffffffffff908183116100cb5760e09083360301126100cb5761038c6102d3565b90826004013582526103a0602484016100e6565b60208301526103b1604484016100e6565b6040830152606483013560608301526103cc608484016100e6565b608083015260a483013560a083015260c48301359081116100cb576104049260046103fa923692010161030f565b60c0820152610678565b005b1561040d57565b60405162461bcd60e51b8152602060048201526007602482015266616d6f756e742160c81b6044820152606490fd5b3d15610467573d9061044d826102f3565b9161045b60405193846102ac565b82523d6000602084013e565b606090565b6040516323b872dd60e01b602082019081526001600160a01b039384166024830152939092166044830152606480830194909452928152916104d7906104b36084856102ac565b60018060a01b031692600080938192519082875af16104d061043c565b9084610541565b908151918215159283610512575b5050506104ef5750565b604051635274afe760e01b81526001600160a01b03919091166004820152602490fd5b81929350906020918101031261053d57602001519081159182150361053a57503880806104e5565b80fd5b5080fd5b90610568575080511561055657805190602001fd5b604051630a12f52160e11b8152600490fd5b8151158061059b575b610579575090565b604051639996b31560e01b81526001600160a01b039091166004820152602490fd5b50803b15610571565b156105ab57565b60405162461bcd60e51b815260206004820152600e60248201526d746172676574436861696e49642160901b6044820152606490fd5b60c060209283835280518484015260018060a01b0380858301511660408501528060408301511660608501526060820151608085015260808201511660a084015260a08101518284015201519160e0808301528251928361010084015260005b84811061066357505050610120916000838284010152601f8019910116010190565b81810183015184820161012001528201610641565b60208101516001600160a01b0316330361071157805146036106da576106d57f6106c6eb5bf417920a09ba8e9e03db1eb3b84096178127b25ec50142ba6cb081916106c946606083015114156105a4565b604051918291826105e1565b0390a1565b60405162461bcd60e51b815260206004820152600f60248201526e696e697469616c436861696e49642160881b6044820152606490fd5b60405162461bcd60e51b815260206004820152600760248201526673656e6465722160c81b6044820152606490fdfea2646970667358221220a5154fa38f09737a2fe5491935f2973f0b02c0c23207f8f57af104e1185c34ea64736f6c63430008140033",
  "devdoc": {
    "errors": {
      "AddressEmptyCode(address)": [
        {
          "details": "There's no code at `target` (it is not a contract)."
        }
      ],
      "AddressInsufficientBalance(address)": [
        {
          "details": "The ETH balance of the account is not enough to perform the operation."
        }
      ],
      "FailedInnerCall()": [
        {
          "details": "A call to an address target failed. The target may have reverted."
        }
      ],
      "SafeERC20FailedOperation(address)": [
        {
          "details": "An operation with an ERC20 token failed."
        }
      ]
    },
    "kind": "dev",
    "methods": {},
    "version": 1
  },
  "userdoc": {
    "kind": "user",
    "methods": {},
    "version": 1
  },
  "storageLayout": {
    "storage": [
      {
        "astId": 3127,
        "contract": "contracts/YarRequest.sol:YarRequest",
        "label": "relayer",
        "offset": 0,
        "slot": "0",
        "type": "t_address"
      },
      {
        "astId": 3129,
        "contract": "contracts/YarRequest.sol:YarRequest",
        "label": "feeToken",
        "offset": 0,
        "slot": "1",
        "type": "t_address"
      },
      {
        "astId": 3137,
        "contract": "contracts/YarRequest.sol:YarRequest",
        "label": "approvals",
        "offset": 0,
        "slot": "2",
        "type": "t_mapping(t_address,t_mapping(t_address,t_mapping(t_bytes32,t_bool)))"
      }
    ],
    "types": {
      "t_address": {
        "encoding": "inplace",
        "label": "address",
        "numberOfBytes": "20"
      },
      "t_bool": {
        "encoding": "inplace",
        "label": "bool",
        "numberOfBytes": "1"
      },
      "t_bytes32": {
        "encoding": "inplace",
        "label": "bytes32",
        "numberOfBytes": "32"
      },
      "t_mapping(t_address,t_mapping(t_address,t_mapping(t_bytes32,t_bool)))": {
        "encoding": "mapping",
        "key": "t_address",
        "label": "mapping(address => mapping(address => mapping(bytes32 => bool)))",
        "numberOfBytes": "32",
        "value": "t_mapping(t_address,t_mapping(t_bytes32,t_bool))"
      },
      "t_mapping(t_address,t_mapping(t_bytes32,t_bool))": {
        "encoding": "mapping",
        "key": "t_address",
        "label": "mapping(address => mapping(bytes32 => bool))",
        "numberOfBytes": "32",
        "value": "t_mapping(t_bytes32,t_bool)"
      },
      "t_mapping(t_bytes32,t_bool)": {
        "encoding": "mapping",
        "key": "t_bytes32",
        "label": "mapping(bytes32 => bool)",
        "numberOfBytes": "32",
        "value": "t_bool"
      }
    }
  }
}