{
  "address": "0x262B9071CFDb531092df1c32d855eAaDD4C7D923",
  "abi": [
    {
      "inputs": [
        {
          "internalType": "address",
          "name": "intialRelayer",
          "type": "address"
        },
        {
          "internalType": "address",
          "name": "initailFeeToken",
          "type": "address"
        }
      ],
      "stateMutability": "nonpayable",
      "type": "constructor"
    },
    {
      "inputs": [
        {
          "internalType": "address",
          "name": "target",
          "type": "address"
        }
      ],
      "name": "AddressEmptyCode",
      "type": "error"
    },
    {
      "inputs": [
        {
          "internalType": "address",
          "name": "account",
          "type": "address"
        }
      ],
      "name": "AddressInsufficientBalance",
      "type": "error"
    },
    {
      "inputs": [],
      "name": "FailedInnerCall",
      "type": "error"
    },
    {
      "inputs": [
        {
          "internalType": "address",
          "name": "token",
          "type": "address"
        }
      ],
      "name": "SafeERC20FailedOperation",
      "type": "error"
    },
    {
      "anonymous": false,
      "inputs": [
        {
          "indexed": false,
          "internalType": "address",
          "name": "account",
          "type": "address"
        },
        {
          "indexed": false,
          "internalType": "uint256",
          "name": "initialChainId",
          "type": "uint256"
        },
        {
          "indexed": false,
          "internalType": "address",
          "name": "spender",
          "type": "address"
        },
        {
          "indexed": false,
          "internalType": "uint256",
          "name": "amount",
          "type": "uint256"
        }
      ],
      "name": "Approve",
      "type": "event"
    },
    {
      "anonymous": false,
      "inputs": [
        {
          "indexed": false,
          "internalType": "address",
          "name": "depositor",
          "type": "address"
        },
        {
          "indexed": false,
          "internalType": "address",
          "name": "feesToken",
          "type": "address"
        },
        {
          "indexed": false,
          "internalType": "uint256",
          "name": "amount",
          "type": "uint256"
        }
      ],
      "name": "Deposit",
      "type": "event"
    },
    {
      "anonymous": false,
      "inputs": [
        {
          "components": [
            {
              "internalType": "uint256",
              "name": "initialChainId",
              "type": "uint256"
            },
            {
              "internalType": "address",
              "name": "sender",
              "type": "address"
            },
            {
              "internalType": "address",
              "name": "payer",
              "type": "address"
            },
            {
              "internalType": "uint256",
              "name": "targetChainId",
              "type": "uint256"
            },
            {
              "internalType": "address",
              "name": "target",
              "type": "address"
            },
            {
              "internalType": "uint256",
              "name": "value",
              "type": "uint256"
            },
            {
              "internalType": "bytes",
              "name": "data",
              "type": "bytes"
            }
          ],
          "indexed": false,
          "internalType": "struct YarLib.YarTX",
          "name": "yarTx",
          "type": "tuple"
        }
      ],
      "name": "Send",
      "type": "event"
    },
    {
      "inputs": [
        {
          "internalType": "address",
          "name": "sender",
          "type": "address"
        },
        {
          "internalType": "address",
          "name": "app",
          "type": "address"
        },
        {
          "internalType": "bytes32",
          "name": "yarTxHash",
          "type": "bytes32"
        }
      ],
      "name": "approvals",
      "outputs": [
        {
          "internalType": "bool",
          "name": "approved",
          "type": "bool"
        }
      ],
      "stateMutability": "view",
      "type": "function"
    },
    {
      "inputs": [
        {
          "internalType": "address",
          "name": "spender",
          "type": "address"
        },
        {
          "internalType": "uint256",
          "name": "amount",
          "type": "uint256"
        }
      ],
      "name": "approve",
      "outputs": [],
      "stateMutability": "nonpayable",
      "type": "function"
    },
    {
      "inputs": [
        {
          "internalType": "uint256",
          "name": "amount",
          "type": "uint256"
        }
      ],
      "name": "deposit",
      "outputs": [],
      "stateMutability": "payable",
      "type": "function"
    },
    {
      "inputs": [],
      "name": "feeToken",
      "outputs": [
        {
          "internalType": "address",
          "name": "",
          "type": "address"
        }
      ],
      "stateMutability": "view",
      "type": "function"
    },
    {
      "inputs": [],
      "name": "relayer",
      "outputs": [
        {
          "internalType": "address",
          "name": "",
          "type": "address"
        }
      ],
      "stateMutability": "view",
      "type": "function"
    },
    {
      "inputs": [
        {
          "components": [
            {
              "internalType": "uint256",
              "name": "initialChainId",
              "type": "uint256"
            },
            {
              "internalType": "address",
              "name": "sender",
              "type": "address"
            },
            {
              "internalType": "address",
              "name": "payer",
              "type": "address"
            },
            {
              "internalType": "uint256",
              "name": "targetChainId",
              "type": "uint256"
            },
            {
              "internalType": "address",
              "name": "target",
              "type": "address"
            },
            {
              "internalType": "uint256",
              "name": "value",
              "type": "uint256"
            },
            {
              "internalType": "bytes",
              "name": "data",
              "type": "bytes"
            }
          ],
          "internalType": "struct YarLib.YarTX",
          "name": "yarTX",
          "type": "tuple"
        }
      ],
      "name": "send",
      "outputs": [
        {
          "components": [
            {
              "internalType": "uint256",
              "name": "initialChainId",
              "type": "uint256"
            },
            {
              "internalType": "address",
              "name": "sender",
              "type": "address"
            },
            {
              "internalType": "address",
              "name": "payer",
              "type": "address"
            },
            {
              "internalType": "uint256",
              "name": "targetChainId",
              "type": "uint256"
            },
            {
              "internalType": "address",
              "name": "target",
              "type": "address"
            },
            {
              "internalType": "uint256",
              "name": "value",
              "type": "uint256"
            },
            {
              "internalType": "bytes",
              "name": "data",
              "type": "bytes"
            }
          ],
          "internalType": "struct YarLib.YarTX",
          "name": "",
          "type": "tuple"
        }
      ],
      "stateMutability": "nonpayable",
      "type": "function"
    }
  ],
  "transactionHash": "0x09459f6a608802ae2a9e1a56f5f3ee9b4244896343161bbbc306d35f2d3554c6",
  "args": [
    "0x340afFe21AB391FE1C2C5AEBBB84BF5cF236205f",
    "0x0000000000000000000000000000000000000000"
  ],
  "numDeployments": 1,
  "solcInputHash": "10e9f0eff870565b1ca540e13cf6fad9",
  "bytecode": "0x60803461008d57601f6108b938819003918201601f19168301916001600160401b0383118484101761009257808492604094855283398101031261008d57610052602061004b836100a8565b92016100a8565b600080546001600160a01b039384166001600160a01b031991821617909155600180549290931691161790556040516107fc90816100bd8239f35b600080fd5b634e487b7160e01b600052604160045260246000fd5b51906001600160a01b038216820361008d5756fe6080604052600436101561001257600080fd5b6000803560e01c908163095ea7b31461007a575080634cb8028814610075578063647846a5146100705780638406c0791461006b578063b6b55f25146100665763fac12aae1461006157600080fd5b6103f9565b6101b9565b610190565b610167565b610106565b346100d45760403660031901126100d4576100936100d7565b336080524660a05260018060a01b031660c05260243560e0527fbdbc3a9424c1eba6e7ab27814f2dc9b66df2138a9912c0a89085e9967c105d71608080a180f35b80fd5b600435906001600160a01b03821682036100ed57565b600080fd5b35906001600160a01b03821682036100ed57565b346100ed5760603660031901126100ed5761011f6100d7565b6024356001600160a01b03818116918290036100ed5760209260ff92604092600092168252600285528282209082528452818120604435825284522054166040519015158152f35b346100ed5760003660031901126100ed576001546040516001600160a01b039091168152602090f35b346100ed5760003660031901126100ed576000546040516001600160a01b039091168152602090f35b60203660031901126100ed57600154600435906001600160a01b03168061025f57506101e68134146104bd565b6000805481908190819085906001600160a01b03165af1906102066104f3565b9115610256577f5548c837ab068cf56a2c2479df0882a4922fd203edb7517321831d95078c5f6291505b600154604080513381526001600160a01b039092166020830152810191909152606090a1005b50602081519101fd5b6000547f5548c837ab068cf56a2c2479df0882a4922fd203edb7517321831d95078c5f62929161029d918391906001600160a01b0316903390610523565b610230565b634e487b7160e01b600052604160045260246000fd5b90601f8019910116810190811067ffffffffffffffff8211176102da57604052565b6102a2565b6040519060e0820182811067ffffffffffffffff8211176102da57604052565b67ffffffffffffffff81116102da57601f01601f191660200190565b81601f820112156100ed57803590610332826102ff565b9261034060405194856102b8565b828452602083830101116100ed57816000926020809301838601378301015290565b60c060209283835280518484015260018060a01b0380858301511660408501528060408301511660608501526060820151608085015260808201511660a084015260a08101518284015201519160e0808301528251928361010084015260005b8481106103e457505050610120916000838284010152601f8019910116010190565b818101830151848201610120015282016103c2565b346100ed576003196020368201126100ed5760043567ffffffffffffffff918282116100ed5760e09082360301126100ed576104336102df565b81600401358152610446602483016100f2565b6020820152610457604483016100f2565b604082015260648201356060820152610472608483016100f2565b608082015260a482013560a082015260c48201359283116100ed576104a36104ad9260046104b9953692010161031b565b60c0820152610709565b60405191829182610362565b0390f35b156104c457565b60405162461bcd60e51b8152602060048201526007602482015266616d6f756e742160c81b6044820152606490fd5b3d1561051e573d90610504826102ff565b9161051260405193846102b8565b82523d6000602084013e565b606090565b6040516323b872dd60e01b602082019081526001600160a01b0393841660248301529390921660448301526064808301949094529281529161058e9061056a6084856102b8565b60018060a01b031692600080938192519082875af16105876104f3565b90846105f5565b9081519182151592836105c9575b5050506105a65750565b604051635274afe760e01b81526001600160a01b03919091166004820152602490fd5b8192935090602091810103126105f15760200151908115918215036100d4575038808061059c565b5080fd5b9061061c575080511561060a57805190602001fd5b604051630a12f52160e11b8152600490fd5b8151158061064f575b61062d575090565b604051639996b31560e01b81526001600160a01b039091166004820152602490fd5b50803b15610625565b1561065f57565b60405162461bcd60e51b815260206004820152600760248201526673656e6465722160c81b6044820152606490fd5b1561069557565b60405162461bcd60e51b815260206004820152600f60248201526e696e697469616c436861696e49642160881b6044820152606490fd5b156106d357565b60405162461bcd60e51b815260206004820152600e60248201526d746172676574436861696e49642160901b6044820152606490fd5b60405160e0810181811067ffffffffffffffff8211176102da5760609160c0916040526000808252806020830152806040830152808483015280608083015260a08201520152610775610765602083015160018060a01b031690565b6001600160a01b03163314610658565b6107818151461461068e565b61079146606083015114156106cc565b7f6106c6eb5bf417920a09ba8e9e03db1eb3b84096178127b25ec50142ba6cb081604051806107c08482610362565b0390a19056fea2646970667358221220c2a33485f9a8eb29e8441a2764d3d25d106bba735aecbd0175c9c34a68cd9a8964736f6c63430008140033",
  "devdoc": {
    "errors": {
      "AddressEmptyCode(address)": [
        {
          "details": "There's no code at `target` (it is not a contract)."
        }
      ],
      "AddressInsufficientBalance(address)": [
        {
          "details": "The ETH balance of the account is not enough to perform the operation."
        }
      ],
      "FailedInnerCall()": [
        {
          "details": "A call to an address target failed. The target may have reverted."
        }
      ],
      "SafeERC20FailedOperation(address)": [
        {
          "details": "An operation with an ERC20 token failed."
        }
      ]
    },
    "kind": "dev",
    "methods": {},
    "version": 1
  },
  "userdoc": {
    "kind": "user",
    "methods": {},
    "version": 1
  },
  "storageLayout": {
    "storage": [
      {
        "astId": 6205,
        "contract": "contracts/YarRequest.sol:YarRequest",
        "label": "relayer",
        "offset": 0,
        "slot": "0",
        "type": "t_address"
      },
      {
        "astId": 6207,
        "contract": "contracts/YarRequest.sol:YarRequest",
        "label": "feeToken",
        "offset": 0,
        "slot": "1",
        "type": "t_address"
      },
      {
        "astId": 6215,
        "contract": "contracts/YarRequest.sol:YarRequest",
        "label": "approvals",
        "offset": 0,
        "slot": "2",
        "type": "t_mapping(t_address,t_mapping(t_address,t_mapping(t_bytes32,t_bool)))"
      }
    ],
    "types": {
      "t_address": {
        "encoding": "inplace",
        "label": "address",
        "numberOfBytes": "20"
      },
      "t_bool": {
        "encoding": "inplace",
        "label": "bool",
        "numberOfBytes": "1"
      },
      "t_bytes32": {
        "encoding": "inplace",
        "label": "bytes32",
        "numberOfBytes": "32"
      },
      "t_mapping(t_address,t_mapping(t_address,t_mapping(t_bytes32,t_bool)))": {
        "encoding": "mapping",
        "key": "t_address",
        "label": "mapping(address => mapping(address => mapping(bytes32 => bool)))",
        "numberOfBytes": "32",
        "value": "t_mapping(t_address,t_mapping(t_bytes32,t_bool))"
      },
      "t_mapping(t_address,t_mapping(t_bytes32,t_bool))": {
        "encoding": "mapping",
        "key": "t_address",
        "label": "mapping(address => mapping(bytes32 => bool))",
        "numberOfBytes": "32",
        "value": "t_mapping(t_bytes32,t_bool)"
      },
      "t_mapping(t_bytes32,t_bool)": {
        "encoding": "mapping",
        "key": "t_bytes32",
        "label": "mapping(bytes32 => bool)",
        "numberOfBytes": "32",
        "value": "t_bool"
      }
    }
  }
}