{
  "address": "0x24e03AbB3f168a4deD0171060eFDB9a170bE193d",
  "abi": [
    {
      "inputs": [
        {
          "internalType": "address",
          "name": "intialRelayer",
          "type": "address"
        },
        {
          "internalType": "address",
          "name": "initailFeeToken",
          "type": "address"
        }
      ],
      "stateMutability": "nonpayable",
      "type": "constructor"
    },
    {
      "inputs": [
        {
          "internalType": "address",
          "name": "target",
          "type": "address"
        }
      ],
      "name": "AddressEmptyCode",
      "type": "error"
    },
    {
      "inputs": [
        {
          "internalType": "address",
          "name": "account",
          "type": "address"
        }
      ],
      "name": "AddressInsufficientBalance",
      "type": "error"
    },
    {
      "inputs": [],
      "name": "FailedInnerCall",
      "type": "error"
    },
    {
      "inputs": [
        {
          "internalType": "address",
          "name": "token",
          "type": "address"
        }
      ],
      "name": "SafeERC20FailedOperation",
      "type": "error"
    },
    {
      "anonymous": false,
      "inputs": [
        {
          "indexed": false,
          "internalType": "address",
          "name": "account",
          "type": "address"
        },
        {
          "indexed": false,
          "internalType": "uint256",
          "name": "initialChainId",
          "type": "uint256"
        },
        {
          "indexed": false,
          "internalType": "address",
          "name": "spender",
          "type": "address"
        },
        {
          "indexed": false,
          "internalType": "uint256",
          "name": "amount",
          "type": "uint256"
        }
      ],
      "name": "Approve",
      "type": "event"
    },
    {
      "anonymous": false,
      "inputs": [
        {
          "indexed": false,
          "internalType": "address",
          "name": "depositor",
          "type": "address"
        },
        {
          "indexed": false,
          "internalType": "address",
          "name": "feesToken",
          "type": "address"
        },
        {
          "indexed": false,
          "internalType": "uint256",
          "name": "amount",
          "type": "uint256"
        }
      ],
      "name": "Deposit",
      "type": "event"
    },
    {
      "anonymous": false,
      "inputs": [
        {
          "components": [
            {
              "internalType": "uint256",
              "name": "initialChainId",
              "type": "uint256"
            },
            {
              "internalType": "address",
              "name": "sender",
              "type": "address"
            },
            {
              "internalType": "address",
              "name": "payer",
              "type": "address"
            },
            {
              "internalType": "uint256",
              "name": "targetChainId",
              "type": "uint256"
            },
            {
              "internalType": "address",
              "name": "target",
              "type": "address"
            },
            {
              "internalType": "uint256",
              "name": "value",
              "type": "uint256"
            },
            {
              "internalType": "bytes",
              "name": "data",
              "type": "bytes"
            },
            {
              "internalType": "uint256",
              "name": "_nonce",
              "type": "uint256"
            }
          ],
          "indexed": false,
          "internalType": "struct YarLib.YarTX",
          "name": "yarTx",
          "type": "tuple"
        }
      ],
      "name": "Send",
      "type": "event"
    },
    {
      "inputs": [
        {
          "internalType": "address",
          "name": "sender",
          "type": "address"
        },
        {
          "internalType": "address",
          "name": "app",
          "type": "address"
        },
        {
          "internalType": "bytes32",
          "name": "yarTxHash",
          "type": "bytes32"
        }
      ],
      "name": "approvals",
      "outputs": [
        {
          "internalType": "bool",
          "name": "approved",
          "type": "bool"
        }
      ],
      "stateMutability": "view",
      "type": "function"
    },
    {
      "inputs": [
        {
          "internalType": "address",
          "name": "spender",
          "type": "address"
        },
        {
          "internalType": "uint256",
          "name": "amount",
          "type": "uint256"
        }
      ],
      "name": "approve",
      "outputs": [],
      "stateMutability": "nonpayable",
      "type": "function"
    },
    {
      "inputs": [
        {
          "internalType": "uint256",
          "name": "amount",
          "type": "uint256"
        }
      ],
      "name": "deposit",
      "outputs": [],
      "stateMutability": "payable",
      "type": "function"
    },
    {
      "inputs": [],
      "name": "feeToken",
      "outputs": [
        {
          "internalType": "address",
          "name": "",
          "type": "address"
        }
      ],
      "stateMutability": "view",
      "type": "function"
    },
    {
      "inputs": [],
      "name": "nonce",
      "outputs": [
        {
          "internalType": "uint256",
          "name": "",
          "type": "uint256"
        }
      ],
      "stateMutability": "view",
      "type": "function"
    },
    {
      "inputs": [],
      "name": "relayer",
      "outputs": [
        {
          "internalType": "address",
          "name": "",
          "type": "address"
        }
      ],
      "stateMutability": "view",
      "type": "function"
    },
    {
      "inputs": [
        {
          "components": [
            {
              "internalType": "uint256",
              "name": "initialChainId",
              "type": "uint256"
            },
            {
              "internalType": "address",
              "name": "sender",
              "type": "address"
            },
            {
              "internalType": "address",
              "name": "payer",
              "type": "address"
            },
            {
              "internalType": "uint256",
              "name": "targetChainId",
              "type": "uint256"
            },
            {
              "internalType": "address",
              "name": "target",
              "type": "address"
            },
            {
              "internalType": "uint256",
              "name": "value",
              "type": "uint256"
            },
            {
              "internalType": "bytes",
              "name": "data",
              "type": "bytes"
            },
            {
              "internalType": "uint256",
              "name": "_nonce",
              "type": "uint256"
            }
          ],
          "internalType": "struct YarLib.YarTX",
          "name": "yarTX",
          "type": "tuple"
        }
      ],
      "name": "send",
      "outputs": [
        {
          "components": [
            {
              "internalType": "uint256",
              "name": "initialChainId",
              "type": "uint256"
            },
            {
              "internalType": "address",
              "name": "sender",
              "type": "address"
            },
            {
              "internalType": "address",
              "name": "payer",
              "type": "address"
            },
            {
              "internalType": "uint256",
              "name": "targetChainId",
              "type": "uint256"
            },
            {
              "internalType": "address",
              "name": "target",
              "type": "address"
            },
            {
              "internalType": "uint256",
              "name": "value",
              "type": "uint256"
            },
            {
              "internalType": "bytes",
              "name": "data",
              "type": "bytes"
            },
            {
              "internalType": "uint256",
              "name": "_nonce",
              "type": "uint256"
            }
          ],
          "internalType": "struct YarLib.YarTX",
          "name": "",
          "type": "tuple"
        }
      ],
      "stateMutability": "nonpayable",
      "type": "function"
    }
  ],
  "transactionHash": "0x8b79d8cb80c229894764dc9d90d50e25a48cc828ea225f717c3f7266981852b5",
  "args": [
    "0x340afFe21AB391FE1C2C5AEBBB84BF5cF236205f",
    "0x0000000000000000000000000000000000000000"
  ],
  "numDeployments": 1,
  "solcInputHash": "bffee47c7354119c2efc51c832e721c8",
  "bytecode": "0x60803461008d57601f61095738819003918201601f19168301916001600160401b0383118484101761009257808492604094855283398101031261008d57610052602061004b836100a8565b92016100a8565b600080546001600160a01b039384166001600160a01b0319918216179091556001805492909316911617905560405161089a90816100bd8239f35b600080fd5b634e487b7160e01b600052604160045260246000fd5b51906001600160a01b038216820361008d5756fe6080604052600436101561001257600080fd5b6000803560e01c908163095ea7b31461008a575080634cb8028814610085578063647846a5146100805780638406c0791461007b578063affed0e014610076578063b6b55f25146100715763d36df8141461006c57600080fd5b610459565b6101e7565b6101c9565b6101a0565b610177565b610116565b346100e45760403660031901126100e4576100a36100e7565b336080524660a05260018060a01b031660c05260243560e0527fbdbc3a9424c1eba6e7ab27814f2dc9b66df2138a9912c0a89085e9967c105d71608080a180f35b80fd5b600435906001600160a01b03821682036100fd57565b600080fd5b35906001600160a01b03821682036100fd57565b346100fd5760603660031901126100fd5761012f6100e7565b6024356001600160a01b03818116918290036100fd5760209260ff92604092600092168252600385528282209082528452818120604435825284522054166040519015158152f35b346100fd5760003660031901126100fd576001546040516001600160a01b039091168152602090f35b346100fd5760003660031901126100fd576000546040516001600160a01b039091168152602090f35b346100fd5760003660031901126100fd576020600254604051908152f35b60203660031901126100fd57600154600435906001600160a01b03168061028d5750610214813414610528565b6000805481908190819085906001600160a01b03165af19061023461055e565b9115610284577f5548c837ab068cf56a2c2479df0882a4922fd203edb7517321831d95078c5f6291505b600154604080513381526001600160a01b039092166020830152810191909152606090a1005b50602081519101fd5b6000547f5548c837ab068cf56a2c2479df0882a4922fd203edb7517321831d95078c5f6292916102cb918391906001600160a01b031690339061058e565b61025e565b634e487b7160e01b600052604160045260246000fd5b610100810190811067ffffffffffffffff82111761030357604052565b6102d0565b90601f8019910116810190811067ffffffffffffffff82111761030357604052565b60405190610337826102e6565b565b67ffffffffffffffff811161030357601f01601f191660200190565b81601f820112156100fd5780359061036c82610339565b9261037a6040519485610308565b828452602083830101116100fd57816000926020809301838601378301015290565b919082519283825260005b8481106103c8575050826000602080949584010152601f8019910116010190565b6020818301810151848301820152016103a7565b602081528151602082015260018060a01b03806020840151166040830152604083015116606082015260608201516080820152610428608083015160a083019060018060a01b03169052565b60a082015160c082015260c082015160e061045061010092838386015261012085019061039c565b93015191015290565b346100fd576003196020368201126100fd5760043567ffffffffffffffff918282116100fd576101009082360301126100fd5761049461032a565b816004013581526104a760248301610102565b60208201526104b860448301610102565b6040820152606482013560608201526104d360848301610102565b608082015260a482013560a082015260c48201359283116100fd5760e4610518926105076105249560043691840101610355565b60c0840152013560e0820152610799565b604051918291826103dc565b0390f35b1561052f57565b60405162461bcd60e51b8152602060048201526007602482015266616d6f756e742160c81b6044820152606490fd5b3d15610589573d9061056f82610339565b9161057d6040519384610308565b82523d6000602084013e565b606090565b6040516323b872dd60e01b602082019081526001600160a01b039384166024830152939092166044830152606480830194909452928152916105f9906105d5608485610308565b60018060a01b031692600080938192519082875af16105f261055e565b9084610660565b908151918215159283610634575b5050506106115750565b604051635274afe760e01b81526001600160a01b03919091166004820152602490fd5b81929350906020918101031261065c5760200151908115918215036100e45750388080610607565b5080fd5b90610687575080511561067557805190602001fd5b604051630a12f52160e11b8152600490fd5b815115806106ba575b610698575090565b604051639996b31560e01b81526001600160a01b039091166004820152602490fd5b50803b15610690565b156106ca57565b60405162461bcd60e51b815260206004820152600760248201526673656e6465722160c81b6044820152606490fd5b1561070057565b60405162461bcd60e51b815260206004820152600f60248201526e696e697469616c436861696e49642160881b6044820152606490fd5b1561073e57565b60405162461bcd60e51b815260206004820152600e60248201526d746172676574436861696e49642160901b6044820152606490fd5b60001981146107835760010190565b634e487b7160e01b600052601160045260246000fd5b6040516107a5816102e6565b60e06000918281528260208201528260408201528260608201528260808201528260a0820152606060c082015201526107fa6107ea602083015160018060a01b031690565b6001600160a01b031633146106c3565b610806815146146106f9565b6108164660608301511415610737565b60025461082a61082582610774565b600255565b60e08201527fb23e42e3b9a2c096a21dd574429c86d3cd6640f93208daea5bd520fe7cf11b8b6040518061085e84826103dc565b0390a19056fea26469706673582212200b9086bb98994826f93ca0569e279902ec925d6012bc97d56fb3cd1b848158f364736f6c63430008140033",
  "devdoc": {
    "errors": {
      "AddressEmptyCode(address)": [
        {
          "details": "There's no code at `target` (it is not a contract)."
        }
      ],
      "AddressInsufficientBalance(address)": [
        {
          "details": "The ETH balance of the account is not enough to perform the operation."
        }
      ],
      "FailedInnerCall()": [
        {
          "details": "A call to an address target failed. The target may have reverted."
        }
      ],
      "SafeERC20FailedOperation(address)": [
        {
          "details": "An operation with an ERC20 token failed."
        }
      ]
    },
    "kind": "dev",
    "methods": {},
    "version": 1
  },
  "userdoc": {
    "kind": "user",
    "methods": {},
    "version": 1
  },
  "storageLayout": {
    "storage": [
      {
        "astId": 3285,
        "contract": "contracts/YarRequest.sol:YarRequest",
        "label": "relayer",
        "offset": 0,
        "slot": "0",
        "type": "t_address"
      },
      {
        "astId": 3287,
        "contract": "contracts/YarRequest.sol:YarRequest",
        "label": "feeToken",
        "offset": 0,
        "slot": "1",
        "type": "t_address"
      },
      {
        "astId": 3289,
        "contract": "contracts/YarRequest.sol:YarRequest",
        "label": "nonce",
        "offset": 0,
        "slot": "2",
        "type": "t_uint256"
      },
      {
        "astId": 3297,
        "contract": "contracts/YarRequest.sol:YarRequest",
        "label": "approvals",
        "offset": 0,
        "slot": "3",
        "type": "t_mapping(t_address,t_mapping(t_address,t_mapping(t_bytes32,t_bool)))"
      }
    ],
    "types": {
      "t_address": {
        "encoding": "inplace",
        "label": "address",
        "numberOfBytes": "20"
      },
      "t_bool": {
        "encoding": "inplace",
        "label": "bool",
        "numberOfBytes": "1"
      },
      "t_bytes32": {
        "encoding": "inplace",
        "label": "bytes32",
        "numberOfBytes": "32"
      },
      "t_mapping(t_address,t_mapping(t_address,t_mapping(t_bytes32,t_bool)))": {
        "encoding": "mapping",
        "key": "t_address",
        "label": "mapping(address => mapping(address => mapping(bytes32 => bool)))",
        "numberOfBytes": "32",
        "value": "t_mapping(t_address,t_mapping(t_bytes32,t_bool))"
      },
      "t_mapping(t_address,t_mapping(t_bytes32,t_bool))": {
        "encoding": "mapping",
        "key": "t_address",
        "label": "mapping(address => mapping(bytes32 => bool))",
        "numberOfBytes": "32",
        "value": "t_mapping(t_bytes32,t_bool)"
      },
      "t_mapping(t_bytes32,t_bool)": {
        "encoding": "mapping",
        "key": "t_bytes32",
        "label": "mapping(bytes32 => bool)",
        "numberOfBytes": "32",
        "value": "t_bool"
      },
      "t_uint256": {
        "encoding": "inplace",
        "label": "uint256",
        "numberOfBytes": "32"
      }
    }
  }
}