{
  "address": "0xe7f1725E7734CE288F8367e1Bb143E90bb3F0512",
  "abi": [
    {
      "inputs": [
        {
          "internalType": "address",
          "name": "intialYarConnector",
          "type": "address"
        },
        {
          "internalType": "uint256[]",
          "name": "initialChains",
          "type": "uint256[]"
        },
        {
          "internalType": "address[]",
          "name": "initialPeers",
          "type": "address[]"
        }
      ],
      "stateMutability": "nonpayable",
      "type": "constructor"
    },
    {
      "inputs": [
        {
          "internalType": "address",
          "name": "target",
          "type": "address"
        }
      ],
      "name": "AddressEmptyCode",
      "type": "error"
    },
    {
      "inputs": [
        {
          "internalType": "address",
          "name": "account",
          "type": "address"
        }
      ],
      "name": "AddressInsufficientBalance",
      "type": "error"
    },
    {
      "inputs": [],
      "name": "FailedInnerCall",
      "type": "error"
    },
    {
      "inputs": [
        {
          "internalType": "address",
          "name": "owner",
          "type": "address"
        }
      ],
      "name": "OwnableInvalidOwner",
      "type": "error"
    },
    {
      "inputs": [
        {
          "internalType": "address",
          "name": "account",
          "type": "address"
        }
      ],
      "name": "OwnableUnauthorizedAccount",
      "type": "error"
    },
    {
      "inputs": [
        {
          "internalType": "address",
          "name": "token",
          "type": "address"
        }
      ],
      "name": "SafeERC20FailedOperation",
      "type": "error"
    },
    {
      "anonymous": false,
      "inputs": [
        {
          "indexed": true,
          "internalType": "address",
          "name": "previousOwner",
          "type": "address"
        },
        {
          "indexed": true,
          "internalType": "address",
          "name": "newOwner",
          "type": "address"
        }
      ],
      "name": "OwnershipTransferred",
      "type": "event"
    },
    {
      "inputs": [
        {
          "internalType": "uint256[]",
          "name": "newChains",
          "type": "uint256[]"
        },
        {
          "internalType": "address[]",
          "name": "newPeers",
          "type": "address[]"
        }
      ],
      "name": "addPeers",
      "outputs": [],
      "stateMutability": "nonpayable",
      "type": "function"
    },
    {
      "inputs": [
        {
          "internalType": "uint256",
          "name": "",
          "type": "uint256"
        }
      ],
      "name": "messages",
      "outputs": [
        {
          "internalType": "string",
          "name": "",
          "type": "string"
        }
      ],
      "stateMutability": "view",
      "type": "function"
    },
    {
      "inputs": [],
      "name": "messagesCount",
      "outputs": [
        {
          "internalType": "uint256",
          "name": "",
          "type": "uint256"
        }
      ],
      "stateMutability": "view",
      "type": "function"
    },
    {
      "inputs": [],
      "name": "owner",
      "outputs": [
        {
          "internalType": "address",
          "name": "",
          "type": "address"
        }
      ],
      "stateMutability": "view",
      "type": "function"
    },
    {
      "inputs": [
        {
          "internalType": "uint256",
          "name": "chainId",
          "type": "uint256"
        },
        {
          "internalType": "address",
          "name": "peer",
          "type": "address"
        }
      ],
      "name": "peers",
      "outputs": [
        {
          "internalType": "bool",
          "name": "exists",
          "type": "bool"
        }
      ],
      "stateMutability": "view",
      "type": "function"
    },
    {
      "inputs": [
        {
          "internalType": "bytes",
          "name": "data",
          "type": "bytes"
        }
      ],
      "name": "recieveMessage",
      "outputs": [],
      "stateMutability": "nonpayable",
      "type": "function"
    },
    {
      "inputs": [],
      "name": "renounceOwnership",
      "outputs": [],
      "stateMutability": "nonpayable",
      "type": "function"
    },
    {
      "inputs": [
        {
          "internalType": "uint256",
          "name": "chainId",
          "type": "uint256"
        },
        {
          "internalType": "address",
          "name": "target",
          "type": "address"
        },
        {
          "internalType": "string",
          "name": "message",
          "type": "string"
        },
        {
          "internalType": "uint256",
          "name": "feeAmount",
          "type": "uint256"
        },
        {
          "internalType": "uint256",
          "name": "feeSignatureExpired",
          "type": "uint256"
        },
        {
          "internalType": "bytes",
          "name": "feeSignature",
          "type": "bytes"
        }
      ],
      "name": "sendMessage",
      "outputs": [],
      "stateMutability": "payable",
      "type": "function"
    },
    {
      "inputs": [
        {
          "internalType": "address",
          "name": "newOwner",
          "type": "address"
        }
      ],
      "name": "transferOwnership",
      "outputs": [],
      "stateMutability": "nonpayable",
      "type": "function"
    },
    {
      "inputs": [],
      "name": "yarConnector",
      "outputs": [
        {
          "internalType": "contract IYarConnector",
          "name": "",
          "type": "address"
        }
      ],
      "stateMutability": "view",
      "type": "function"
    }
  ],
  "transactionHash": "0x06f42aa87271e90cd1dd1e532d83b0a0953fe6faa36c26396117b5a684c010d3",
  "args": [
    "0x5FbDB2315678afecb367f032d93F642f64180aa3",
    [],
    []
  ],
  "numDeployments": 1,
  "solcInputHash": "86a65f8c0c02fc7a58454e1d1bdb32ee",
  "bytecode": "0x60406080815234620002a1576200108790813803806200001f81620002b7565b9384398201606083820312620002a1576200003a83620002f3565b602084810151919290916001600160401b0390818111620002a15786019582601f88011215620002a1578651966200007c620000768962000308565b620002b7565b9785808a838152019160051b83010191858311620002a15786809101915b838310620002a6575050505085810151918211620002a157019080601f83011215620002a1578151620000d1620000768262000308565b92848085848152019260051b820101928311620002a15784809101915b83831062000286575050505033156200026e5760008054336001600160a01b03198083168217845587519395936001600160a01b039390929084167f8be0079c531659141344cd1fd0a4f28419497f9722a3daafe3b4186f6b6457e08880a382600197169087541617865587518451036200022c57508651835103620001f757849684975b62000188575b8651610d3b90816200034c8239f35b8051881015620001f1576200019e888262000320565b5185526002835286852082620001b58a8762000320565b511686528352868520805460ff1916871790556000198814620001dd57968501968562000173565b634e487b7160e01b85526011600452602485fd5b62000179565b855162461bcd60e51b815260048101839052600e60248201526d636861696e732e6c656e6774682160901b6044820152606490fd5b62461bcd60e51b815260048101839052601560248201527f696e746961696c436861696e732e6c656e6774682100000000000000000000006044820152606490fd5b8351631e4fbdf760e01b815260006004820152602490fd5b81906200029384620002f3565b8152019101908490620000ee565b600080fd5b82518152918101918791016200009a565b6040519190601f01601f191682016001600160401b03811183821017620002dd57604052565b634e487b7160e01b600052604160045260246000fd5b51906001600160a01b0382168203620002a157565b6001600160401b038111620002dd5760051b60200190565b8051821015620003355760209160051b010190565b634e487b7160e01b600052603260045260246000fdfe608080604052600436101561001357600080fd5b600090813560e01c908163087ad83e14610723575080630d80fefd1461062a578063166b324514610472578063685252f314610449578063715018a6146103ef5780638da5cb5b146103c85780639b71653b146103aa578063abb833ee14610174578063dd20cd0a146101285763f2fde38b1461008f57600080fd5b34610125576020366003190112610125576004356001600160a01b0381811691829003610120576100be610c2e565b811561010757600054826bffffffffffffffffffffffff60a01b821617600055167f8be0079c531659141344cd1fd0a4f28419497f9722a3daafe3b4186f6b6457e0600080a380f35b604051631e4fbdf760e01b815260048101849052602490fd5b600080fd5b80fd5b5034610125576040366003190112610125576040610144610ad3565b9160043581526002602052209060018060a01b0316600052602052602060ff604060002054166040519015158152f35b5034610125576020806003193601126103685767ffffffffffffffff6004358181116103a6576101a8903690600401610ae9565b91909260019260018060a01b03845416330361036c578590850194828187031261036857803590848211610364570185601f820112156103685780356101ed81610c6e565b966101fb6040519889610b9e565b81885284828401011161036457808480930183890137860101526003546801000000000000000081101561033c5780846102389201600355610b17565b94909461035057805192831161033c576102528554610b64565b601f81116102f6575b5081601f84116001146102955750928293918392879461028a575b50501b916000199060031b1c191617905580f35b015192503880610276565b919083601f1981168789528489209489905b888383106102dc57505050106102c3575b505050811b01905580f35b015160001960f88460031b161c191690553880806102b8565b8587015188559096019594850194879350908101906102a7565b858752828720601f850160051c810191848610610332575b601f0160051c019085905b82811061032757505061025b565b888155018590610319565b909150819061030e565b634e487b7160e01b86526041600452602486fd5b634e487b7160e01b86526004869052602486fd5b8280fd5b5080fd5b60405162461bcd60e51b81526004810183905260126024820152716f6e6c7920796172436f6e6e6563746f722160701b6044820152606490fd5b8380fd5b50346101255780600319360112610125576020600354604051908152f35b5034610125578060031936011261012557546040516001600160a01b039091168152602090f35b5034610125578060031936011261012557610408610c2e565b600080546001600160a01b0319811682556001600160a01b03167f8be0079c531659141344cd1fd0a4f28419497f9722a3daafe3b4186f6b6457e08280a380f35b50346101255780600319360112610125576001546040516001600160a01b039091168152602090f35b50346101255760403660031901126101255760043567ffffffffffffffff918282116101255736602383011215610125578160040135926104b284610c16565b926104c06040519485610b9e565b8484526020908185016024809760051b830101913683116106165787849101915b83831061061a5750505050843591821161036457366023830112156103645781600401359161050f83610c16565b9261051d6040519485610b9e565b808452868385019160051b83010191368311610616578701905b8282106105f757505050610549610c2e565b83518251036105c357825b84518110156105bf576105678186610c5a565b51845260028252604084206001600160a01b036105848386610c5a565b511660005282526040600020600160ff1982541617905560001981146105ac57600101610554565b634e487b7160e01b845260116004528584fd5b8380f35b606490600e866040519262461bcd60e51b845260048401528201526d636861696e732e6c656e6774682160901b6044820152fd5b81356001600160a01b0381168103610120578152908301908301610537565b8580fd5b82358152918101918491016104e1565b503461012557602080600319360112610368576004356003548110156103645761065390610b17565b61070f576040518381949083549061066a82610b64565b948585526001928784821691826000146106eb5750506001146106af575b50505061069792500383610b9e565b6106ab604051928284938452830190610bd6565b0390f35b869350819291528282205b8583106106d35750506106979350820101388080610688565b805483890185015287945086939092019181016106ba565b93509450505061069794915060ff191682840152151560051b820101388080610688565b634e487b7160e01b83526004839052602483fd5b8260c036600319011261012557610738610ad3565b60443567ffffffffffffffff811161036457610758903690600401610ae9565b9160a43567ffffffffffffffff8111610acf57610779903690600401610ae9565b9390928660018060a01b036001541663647846a560e01b825281600460209a8b935afa908115610ac4578791610a87575b506001600160a01b031696871593841561099b576064353403610964578782819a9998995b87156108e7575b50506001546001600160a01b0316951590506108dc5761081282606435945b866040519788928484013781018a83820152038087520185610b9e565b843b156108d857604051638fba4b6160e01b815260048035908201526001600160a01b03909116602482015260c060448201529687958694859290819061085d9060c4860190610bd6565b92606435606486015260843560848601526003198585030160a4860152818452858401378181018401899052601f01601f1916010301925af180156108cd576108a4575080f35b67ffffffffffffffff81116108b95760405280f35b634e487b7160e01b82526041600452602482fd5b6040513d84823e3d90fd5b8680fd5b6108128288946107f5565b60015460405163095ea7b360e01b81526001600160a01b039091166004820152606435602482015292839160449183915af180156109595761092c575b8288916107d6565b61094b90833d8511610952575b6109438183610b9e565b810190610c8a565b5089610924565b503d610939565b6040513d8a823e3d90fd5b60405162461bcd60e51b815260048101839052600f60248201526e7472616e73666572416d6f756e742160881b6044820152606490fd5b6040516323b872dd60e01b838201908152336024830152306044830152606480358184015282529060a0810167ffffffffffffffff811182821017610a735760405251610a18918a918291828e5af13d15610a6b573d906109fb82610c6e565b91610a096040519384610b9e565b82523d8b8684013e5b8b610ca2565b805190838215159283610a52575b505050610a39578782819a9998996107cf565b604051635274afe760e01b8152600481018a9052602490fd5b610a629350820181019101610c8a565b158a8381610a26565b606090610a12565b634e487b7160e01b8b52604160045260248bfd5b90508781813d8311610abd575b610a9e8183610b9e565b810103126108d857516001600160a01b03811681036108d857886107aa565b503d610a94565b6040513d89823e3d90fd5b8480fd5b602435906001600160a01b038216820361012057565b9181601f840112156101205782359167ffffffffffffffff8311610120576020838186019501011161012057565b600354811015610b4e5760036000527fc2575a0e9e593c00f959f8c92f12db2869c3395a3b0502d05e2516446f71f85b0190600090565b634e487b7160e01b600052603260045260246000fd5b90600182811c92168015610b94575b6020831014610b7e57565b634e487b7160e01b600052602260045260246000fd5b91607f1691610b73565b90601f8019910116810190811067ffffffffffffffff821117610bc057604052565b634e487b7160e01b600052604160045260246000fd5b919082519283825260005b848110610c02575050826000602080949584010152601f8019910116010190565b602081830181015184830182015201610be1565b67ffffffffffffffff8111610bc05760051b60200190565b6000546001600160a01b03163303610c4257565b60405163118cdaa760e01b8152336004820152602490fd5b8051821015610b4e5760209160051b010190565b67ffffffffffffffff8111610bc057601f01601f191660200190565b90816020910312610120575180151581036101205790565b90610cc95750805115610cb757805190602001fd5b604051630a12f52160e11b8152600490fd5b81511580610cfc575b610cda575090565b604051639996b31560e01b81526001600160a01b039091166004820152602490fd5b50803b15610cd256fea26469706673582212208a2ffc069ea615164323a8e01bd96810375560903fecc7cd4a2db9584ff556b364736f6c63430008140033",
  "devdoc": {
    "errors": {
      "AddressEmptyCode(address)": [
        {
          "details": "There's no code at `target` (it is not a contract)."
        }
      ],
      "AddressInsufficientBalance(address)": [
        {
          "details": "The ETH balance of the account is not enough to perform the operation."
        }
      ],
      "FailedInnerCall()": [
        {
          "details": "A call to an address target failed. The target may have reverted."
        }
      ],
      "OwnableInvalidOwner(address)": [
        {
          "details": "The owner is not a valid owner account. (eg. `address(0)`)"
        }
      ],
      "OwnableUnauthorizedAccount(address)": [
        {
          "details": "The caller account is not authorized to perform an operation."
        }
      ],
      "SafeERC20FailedOperation(address)": [
        {
          "details": "An operation with an ERC20 token failed."
        }
      ]
    },
    "kind": "dev",
    "methods": {
      "owner()": {
        "details": "Returns the address of the current owner."
      },
      "renounceOwnership()": {
        "details": "Leaves the contract without owner. It will not be possible to call `onlyOwner` functions. Can only be called by the current owner. NOTE: Renouncing ownership will leave the contract without an owner, thereby disabling any functionality that is only available to the owner."
      },
      "transferOwnership(address)": {
        "details": "Transfers ownership of the contract to a new account (`newOwner`). Can only be called by the current owner."
      }
    },
    "version": 1
  },
  "userdoc": {
    "kind": "user",
    "methods": {},
    "version": 1
  },
  "storageLayout": {
    "storage": [
      {
        "astId": 1120,
        "contract": "contracts/apps/echo/YarEcho.sol:YarEcho",
        "label": "_owner",
        "offset": 0,
        "slot": "0",
        "type": "t_address"
      },
      {
        "astId": 5712,
        "contract": "contracts/apps/echo/YarEcho.sol:YarEcho",
        "label": "yarConnector",
        "offset": 0,
        "slot": "1",
        "type": "t_contract(IYarConnector)5987"
      },
      {
        "astId": 5718,
        "contract": "contracts/apps/echo/YarEcho.sol:YarEcho",
        "label": "peers",
        "offset": 0,
        "slot": "2",
        "type": "t_mapping(t_uint256,t_mapping(t_address,t_bool))"
      },
      {
        "astId": 5721,
        "contract": "contracts/apps/echo/YarEcho.sol:YarEcho",
        "label": "messages",
        "offset": 0,
        "slot": "3",
        "type": "t_array(t_string_storage)dyn_storage"
      }
    ],
    "types": {
      "t_address": {
        "encoding": "inplace",
        "label": "address",
        "numberOfBytes": "20"
      },
      "t_array(t_string_storage)dyn_storage": {
        "base": "t_string_storage",
        "encoding": "dynamic_array",
        "label": "string[]",
        "numberOfBytes": "32"
      },
      "t_bool": {
        "encoding": "inplace",
        "label": "bool",
        "numberOfBytes": "1"
      },
      "t_contract(IYarConnector)5987": {
        "encoding": "inplace",
        "label": "contract IYarConnector",
        "numberOfBytes": "20"
      },
      "t_mapping(t_address,t_bool)": {
        "encoding": "mapping",
        "key": "t_address",
        "label": "mapping(address => bool)",
        "numberOfBytes": "32",
        "value": "t_bool"
      },
      "t_mapping(t_uint256,t_mapping(t_address,t_bool))": {
        "encoding": "mapping",
        "key": "t_uint256",
        "label": "mapping(uint256 => mapping(address => bool))",
        "numberOfBytes": "32",
        "value": "t_mapping(t_address,t_bool)"
      },
      "t_string_storage": {
        "encoding": "bytes",
        "label": "string",
        "numberOfBytes": "32"
      },
      "t_uint256": {
        "encoding": "inplace",
        "label": "uint256",
        "numberOfBytes": "32"
      }
    }
  }
}