{
  "address": "0x9fE46736679d2D9a65F0992F2272dE9f3c7fa6e0",
  "abi": [
    {
      "inputs": [
        {
          "internalType": "address",
          "name": "initialRelayer",
          "type": "address"
        }
      ],
      "stateMutability": "nonpayable",
      "type": "constructor"
    },
    {
      "anonymous": false,
      "inputs": [
        {
          "indexed": false,
          "internalType": "uint256",
          "name": "transactionIndex",
          "type": "uint256"
        },
        {
          "indexed": false,
          "internalType": "address",
          "name": "peer",
          "type": "address"
        },
        {
          "indexed": false,
          "internalType": "uint256",
          "name": "initialChainId",
          "type": "uint256"
        },
        {
          "indexed": false,
          "internalType": "uint256",
          "name": "targetChainId",
          "type": "uint256"
        },
        {
          "indexed": false,
          "internalType": "address",
          "name": "target",
          "type": "address"
        },
        {
          "indexed": false,
          "internalType": "bytes",
          "name": "data",
          "type": "bytes"
        }
      ],
      "name": "AddPendingTransaction",
      "type": "event"
    },
    {
      "anonymous": false,
      "inputs": [
        {
          "indexed": false,
          "internalType": "uint256",
          "name": "transactionIndex",
          "type": "uint256"
        },
        {
          "indexed": false,
          "internalType": "enum YarHub.TransactionStatus",
          "name": "status",
          "type": "uint8"
        }
      ],
      "name": "UpdateTransactionStatus",
      "type": "event"
    },
    {
      "inputs": [
        {
          "internalType": "address",
          "name": "peer",
          "type": "address"
        },
        {
          "internalType": "uint256",
          "name": "initialChainId",
          "type": "uint256"
        },
        {
          "internalType": "uint256",
          "name": "targetChainId",
          "type": "uint256"
        },
        {
          "internalType": "address",
          "name": "target",
          "type": "address"
        },
        {
          "internalType": "bytes",
          "name": "data",
          "type": "bytes"
        }
      ],
      "name": "addPendingTransaction",
      "outputs": [],
      "stateMutability": "nonpayable",
      "type": "function"
    },
    {
      "inputs": [],
      "name": "relayer",
      "outputs": [
        {
          "internalType": "address",
          "name": "",
          "type": "address"
        }
      ],
      "stateMutability": "view",
      "type": "function"
    },
    {
      "inputs": [
        {
          "internalType": "uint256",
          "name": "transactionIndex",
          "type": "uint256"
        },
        {
          "internalType": "enum YarHub.TransactionStatus",
          "name": "status",
          "type": "uint8"
        }
      ],
      "name": "setTransactionStatus",
      "outputs": [],
      "stateMutability": "nonpayable",
      "type": "function"
    },
    {
      "inputs": [
        {
          "internalType": "uint256",
          "name": "",
          "type": "uint256"
        }
      ],
      "name": "transactions",
      "outputs": [
        {
          "internalType": "address",
          "name": "peer",
          "type": "address"
        },
        {
          "internalType": "uint256",
          "name": "initialChainId",
          "type": "uint256"
        },
        {
          "internalType": "uint256",
          "name": "targetChainId",
          "type": "uint256"
        },
        {
          "internalType": "address",
          "name": "target",
          "type": "address"
        },
        {
          "internalType": "bytes",
          "name": "data",
          "type": "bytes"
        },
        {
          "internalType": "enum YarHub.TransactionStatus",
          "name": "status",
          "type": "uint8"
        }
      ],
      "stateMutability": "view",
      "type": "function"
    }
  ],
  "transactionHash": "0xa1b363d7cfd52c209f675c9d7bef16ec7bc15900243b429bbf0dd0c70dc5252a",
  "args": [
    "0x70997970C51812dc3A010C7d01b50e0d17dc79C8"
  ],
  "numDeployments": 1,
  "solcInputHash": "86a65f8c0c02fc7a58454e1d1bdb32ee",
  "bytecode": "0x60803461007457601f6107fb38819003918201601f19168301916001600160401b038311848410176100795780849260209460405283398101031261007457516001600160a01b0381169081900361007457600080546001600160a01b03191691909117905560405161076b90816100908239f35b600080fd5b634e487b7160e01b600052604160045260246000fdfe6080604052600436101561001257600080fd5b60003560e01c806331ff88d21461027357806337b02c58146101ee5780638406c079146101c557639ace38c21461004857600080fd5b346101c0576020806003193601126101c05760043560019081548110156101c05761007290610626565b509160018060a01b03908184541693838101549260028201549060038301541691600481016040519687916000918154916100ac83610677565b9283865289838216918260001461019a575050600114610156575b505050916100e160059260ff949a989a96959603896106b1565b015416916040519687958652848601526040850152606084015260c060808401528351918260c085015260005b83811061013f57505060e0935061013190600085848601015260a08401906106d3565b601f01601f19168101030190f35b80860182015187820160e00152869450810161010e565b88935060009291925282600020916000925b828410610180575050508201016100e18260ff6100c7565b849295829585835492010152019101909287928a94610168565b60ff19168782015293151560051b860190930193506100e1925084915060ff90506100c7565b600080fd5b346101c05760003660031901126101c0576000546040516001600160a01b039091168152602090f35b346101c05760403660031901126101c05760043560243560038110156101c0577f861b0c8224acb6f191f1667e3ab36937ef45ee4bb0fdb9b5eae00767a9df84c49161027060409261024b60018060a01b036000541633146106e0565b61026181600561025a86610626565b500161071d565b835192835260208301906106d3565ba1005b346101c05760a03660031901126101c0576004356001600160a01b03811681036101c0576064356001600160a01b03811681036101c05767ffffffffffffffff608435116101c0573660236084350112156101c05767ffffffffffffffff60843560040135116101c057366024608435600401356084350101116101c05761030660018060a01b036000541633146106e0565b600154906040519260c0840184811067ffffffffffffffff8211176105fa5760409081526001600160a01b03828116865260243560208088019190915260443587840152908416606087015290519061036e9060046084350135601f01601f191601826106b1565b60843560048101358083529060240160208301376000602060843560040135830101526080850152600060a0850152680100000000000000008310156105fa57600183016001556103be83610626565b94909461061057805185546001600160a01b039182166001600160a01b031991821617875560208301516001880155604083015160028801556060830151600388018054919093169116179055608081015180519067ffffffffffffffff82116105fa5761042f6004880154610677565b601f81116105b3575b50602090601f83116001146105405760a093929160009183610535575b50508160011b916000199060031b1c19161760048701555b015193600385101561051f577f8e0bee570d18a89e53d0e48e7a65f53f990531936f91d35c939d71d7daabbfd29460056104a7920161071d565b604080519384526001600160a01b039182166020850152602480359185019190915260443560608501529116608083015260c060a08301819052608435600481013591840182905290910160e0830137600060e0608435600401358301015260e081601f19601f6084356004013501168101030190a1005b634e487b7160e01b600052602160045260246000fd5b015190508880610455565b906004880160005260206000209160005b601f198516811061059b575091839160019360a09695601f19811610610582575b505050811b01600487015561046d565b015160001960f88460031b161c19169055888080610572565b91926020600181928685015181550194019201610551565b600488016000526020600020601f840160051c8101602085106105f3575b601f830160051c820181106105e7575050610438565b600081556001016105d1565b50806105d1565b634e487b7160e01b600052604160045260246000fd5b634e487b7160e01b600052600060045260246000fd5b600154811015610661576006906001600052027fb10e2d527612073b26eecdfd717e6a320cf44b4afac2b0732d9fcbe2b7fa0cf60190600090565b634e487b7160e01b600052603260045260246000fd5b90600182811c921680156106a7575b602083101461069157565b634e487b7160e01b600052602260045260246000fd5b91607f1691610686565b90601f8019910116810190811067ffffffffffffffff8211176105fa57604052565b90600382101561051f5752565b156106e757565b60405162461bcd60e51b815260206004820152600e60248201526d6f6e6c79207265616c617965722160901b6044820152606490fd5b90600381101561051f5760ff8019835416911617905556fea2646970667358221220e139dd53e0c134fac53391a66c1670f8639fdfd814d35de50a449ff3f0d240f264736f6c63430008140033",
  "devdoc": {
    "kind": "dev",
    "methods": {},
    "version": 1
  },
  "userdoc": {
    "kind": "user",
    "methods": {},
    "version": 1
  },
  "storageLayout": {
    "storage": [
      {
        "astId": 4992,
        "contract": "contracts/YarHub.sol:YarHub",
        "label": "relayer",
        "offset": 0,
        "slot": "0",
        "type": "t_address"
      },
      {
        "astId": 5035,
        "contract": "contracts/YarHub.sol:YarHub",
        "label": "transactions",
        "offset": 0,
        "slot": "1",
        "type": "t_array(t_struct(Transaction)5010_storage)dyn_storage"
      }
    ],
    "types": {
      "t_address": {
        "encoding": "inplace",
        "label": "address",
        "numberOfBytes": "20"
      },
      "t_array(t_struct(Transaction)5010_storage)dyn_storage": {
        "base": "t_struct(Transaction)5010_storage",
        "encoding": "dynamic_array",
        "label": "struct YarHub.Transaction[]",
        "numberOfBytes": "32"
      },
      "t_bytes_storage": {
        "encoding": "bytes",
        "label": "bytes",
        "numberOfBytes": "32"
      },
      "t_enum(TransactionStatus)4996": {
        "encoding": "inplace",
        "label": "enum YarHub.TransactionStatus",
        "numberOfBytes": "1"
      },
      "t_struct(Transaction)5010_storage": {
        "encoding": "inplace",
        "label": "struct YarHub.Transaction",
        "members": [
          {
            "astId": 4998,
            "contract": "contracts/YarHub.sol:YarHub",
            "label": "peer",
            "offset": 0,
            "slot": "0",
            "type": "t_address"
          },
          {
            "astId": 5000,
            "contract": "contracts/YarHub.sol:YarHub",
            "label": "initialChainId",
            "offset": 0,
            "slot": "1",
            "type": "t_uint256"
          },
          {
            "astId": 5002,
            "contract": "contracts/YarHub.sol:YarHub",
            "label": "targetChainId",
            "offset": 0,
            "slot": "2",
            "type": "t_uint256"
          },
          {
            "astId": 5004,
            "contract": "contracts/YarHub.sol:YarHub",
            "label": "target",
            "offset": 0,
            "slot": "3",
            "type": "t_address"
          },
          {
            "astId": 5006,
            "contract": "contracts/YarHub.sol:YarHub",
            "label": "data",
            "offset": 0,
            "slot": "4",
            "type": "t_bytes_storage"
          },
          {
            "astId": 5009,
            "contract": "contracts/YarHub.sol:YarHub",
            "label": "status",
            "offset": 0,
            "slot": "5",
            "type": "t_enum(TransactionStatus)4996"
          }
        ],
        "numberOfBytes": "192"
      },
      "t_uint256": {
        "encoding": "inplace",
        "label": "uint256",
        "numberOfBytes": "32"
      }
    }
  }
}