{
  "address": "0xF45E0f4e67E07bCE2EFD185dFDaD8430A4183F67",
  "abi": [
    {
      "inputs": [
        {
          "internalType": "address",
          "name": "intialRelayer",
          "type": "address"
        }
      ],
      "stateMutability": "nonpayable",
      "type": "constructor"
    },
    {
      "inputs": [
        {
          "components": [
            {
              "internalType": "uint256",
              "name": "initialChainId",
              "type": "uint256"
            },
            {
              "internalType": "address",
              "name": "sender",
              "type": "address"
            },
            {
              "internalType": "address",
              "name": "payer",
              "type": "address"
            },
            {
              "internalType": "uint256",
              "name": "targetChainId",
              "type": "uint256"
            },
            {
              "internalType": "address",
              "name": "target",
              "type": "address"
            },
            {
              "internalType": "uint256",
              "name": "value",
              "type": "uint256"
            },
            {
              "internalType": "bytes",
              "name": "data",
              "type": "bytes"
            },
            {
              "internalType": "uint256",
              "name": "_nonce",
              "type": "uint256"
            }
          ],
          "internalType": "struct YarLib.YarTX",
          "name": "yarTx",
          "type": "tuple"
        }
      ],
      "name": "deliver",
      "outputs": [],
      "stateMutability": "payable",
      "type": "function"
    },
    {
      "inputs": [],
      "name": "relayer",
      "outputs": [
        {
          "internalType": "address",
          "name": "",
          "type": "address"
        }
      ],
      "stateMutability": "view",
      "type": "function"
    },
    {
      "inputs": [],
      "name": "trustedYarTx",
      "outputs": [
        {
          "components": [
            {
              "internalType": "uint256",
              "name": "initialChainId",
              "type": "uint256"
            },
            {
              "internalType": "address",
              "name": "sender",
              "type": "address"
            },
            {
              "internalType": "address",
              "name": "payer",
              "type": "address"
            },
            {
              "internalType": "uint256",
              "name": "targetChainId",
              "type": "uint256"
            },
            {
              "internalType": "address",
              "name": "target",
              "type": "address"
            },
            {
              "internalType": "uint256",
              "name": "value",
              "type": "uint256"
            },
            {
              "internalType": "bytes",
              "name": "data",
              "type": "bytes"
            },
            {
              "internalType": "uint256",
              "name": "_nonce",
              "type": "uint256"
            }
          ],
          "internalType": "struct YarLib.YarTX",
          "name": "",
          "type": "tuple"
        }
      ],
      "stateMutability": "view",
      "type": "function"
    }
  ],
  "transactionHash": "0xa95ebd6e5f3e5b62a1e9d7fbaa2f221c5d4e546281dd68dadd541fdf7af4a8f5",
  "args": [
    "0x340afFe21AB391FE1C2C5AEBBB84BF5cF236205f"
  ],
  "numDeployments": 1,
  "solcInputHash": "c3582e377a72a7ca2839bb0f7ba17958",
  "bytecode": "0x60803461007457601f61087838819003918201601f19168301916001600160401b038311848410176100795780849260209460405283398101031261007457516001600160a01b0381169081900361007457600080546001600160a01b0319169190911790556040516107e890816100908239f35b600080fd5b634e487b7160e01b600052604160045260246000fdfe6080604052600436101561001257600080fd5b6000803560e01c90816357f665861461004a575080638406c079146100455763f0db1fbf1461004057600080fd5b6101ed565b610102565b806003196020368201126100ff5760043567ffffffffffffffff81116100fb57610100816004019282360301126100fb57829161009160018060a01b0384541633146103ff565b6100c460a4830135916100a534841461043b565b6100ae816105e6565b60c46100bc60848601610474565b940190610488565b91906100d560405180948193610693565b03925af16100e16106a1565b90156100f357506100f06106e1565b80f35b602081519101fd5b5050fd5b50fd5b3461012b57600036600319011261012b576000546040516001600160a01b039091168152602090f35b600080fd5b919082519283825260005b84811061015c575050826000602080949584010152601f8019910116010190565b60208183018101518483018201520161013b565b602081528151602082015260018060a01b038060208401511660408301526040830151166060820152606082015160808201526101bc608083015160a083019060018060a01b03169052565b60a082015160c082015260c082015160e06101e4610100928383860152610120850190610130565b93015191015290565b3461012b576000806003193601126102af5760e060405161020d816102c8565b8281528260208201528260408201528260608201528260808201528260a0820152606060c082015201526102ab61024261030c565b60015481526002546001600160a01b031660208201526003546001600160a01b0316604082015260045460608201526005546001600160a01b0316608082015260065460a0820152610292610355565b60c082015260085460e082015260405191829182610170565b0390f35b80fd5b634e487b7160e01b600052604160045260246000fd5b610100810190811067ffffffffffffffff8211176102e557604052565b6102b2565b90601f8019910116810190811067ffffffffffffffff8211176102e557604052565b60405190610319826102c8565b565b90600182811c9216801561034b575b602083101461033557565b634e487b7160e01b600052602260045260246000fd5b91607f169161032a565b60405190600082600754916103698361031b565b808352926001908181169081156103dd5750600114610390575b50610319925003836102ea565b6007600090815291506000805160206107938339815191525b8483106103c25750610319935050810160200138610383565b81935090816020925483858a010152019101909185926103a9565b90506020925061031994915060ff191682840152151560051b82010138610383565b1561040657565b60405162461bcd60e51b815260206004820152600d60248201526c6f6e6c792072656c617965722160981b6044820152606490fd5b1561044257565b60405162461bcd60e51b815260206004820152600a6024820152696d73672e76616c75652160b01b6044820152606490fd5b356001600160a01b038116810361012b5790565b903590601e198136030182121561012b570180359067ffffffffffffffff821161012b5760200191813603831361012b57565b601f81116104c7575050565b60009060078252600080516020610793833981519152906020601f850160051c83019410610510575b601f0160051c01915b82811061050557505050565b8181556001016104f9565b90925082906104f0565b919067ffffffffffffffff81116102e55761053f8161053a60075461031b565b6104bb565b6000601f82116001146105795781929360009261056e575b50508160011b916000199060031b1c191617600755565b013590503880610557565b6007600052601f1982169360008051602061079383398151915291805b8681106105ce57508360019596106105b4575b505050811b01600755565b0135600019600384901b60f8161c191690553880806105a9565b90926020600181928686013581550194019101610596565b803560015560e0906001600160a01b038061060360208401610474565b16906bffffffffffffffffffffffff60a01b9182600254161760025561062b60408401610474565b16906003541617600355606081013560045561066e61064c60808301610474565b60018060a01b03166bffffffffffffffffffffffff60a01b6005541617600555565b60a081013560065561068c61068660c0830183610488565b9061051a565b0135600855565b908092918237016000815290565b3d156106dc573d9067ffffffffffffffff82116102e557604051916106d0601f8201601f1916602001846102ea565b82523d6000602084013e565b606090565b600090600191808355806002558060035580600455806005558060065561070960075461031b565b80610717575b506008559050565b601f81116001146107335750809192506007555b81903861070f565b601f600080516020610793833981519152910160051c81017fa66cc928b5edb82af9bd49922954155ab7b0942694bea4ce44661d9a8736c6895b8181106107885750508192935060078252816007555561072b565b838155850161076d56fea66cc928b5edb82af9bd49922954155ab7b0942694bea4ce44661d9a8736c688a264697066735822122001e7da49a22df3ea86a05431a33fbc8ddfdd77e2e8e36e278ca152ac1451ddfa64736f6c63430008140033",
  "devdoc": {
    "kind": "dev",
    "methods": {},
    "version": 1
  },
  "userdoc": {
    "kind": "user",
    "methods": {},
    "version": 1
  },
  "storageLayout": {
    "storage": [
      {
        "astId": 7116,
        "contract": "contracts/YarResponse.sol:YarResponse",
        "label": "relayer",
        "offset": 0,
        "slot": "0",
        "type": "t_address"
      },
      {
        "astId": 7119,
        "contract": "contracts/YarResponse.sol:YarResponse",
        "label": "_trustedYarTx",
        "offset": 0,
        "slot": "1",
        "type": "t_struct(YarTX)6919_storage"
      }
    ],
    "types": {
      "t_address": {
        "encoding": "inplace",
        "label": "address",
        "numberOfBytes": "20"
      },
      "t_bytes_storage": {
        "encoding": "bytes",
        "label": "bytes",
        "numberOfBytes": "32"
      },
      "t_struct(YarTX)6919_storage": {
        "encoding": "inplace",
        "label": "struct YarLib.YarTX",
        "members": [
          {
            "astId": 6904,
            "contract": "contracts/YarResponse.sol:YarResponse",
            "label": "initialChainId",
            "offset": 0,
            "slot": "0",
            "type": "t_uint256"
          },
          {
            "astId": 6906,
            "contract": "contracts/YarResponse.sol:YarResponse",
            "label": "sender",
            "offset": 0,
            "slot": "1",
            "type": "t_address"
          },
          {
            "astId": 6908,
            "contract": "contracts/YarResponse.sol:YarResponse",
            "label": "payer",
            "offset": 0,
            "slot": "2",
            "type": "t_address"
          },
          {
            "astId": 6910,
            "contract": "contracts/YarResponse.sol:YarResponse",
            "label": "targetChainId",
            "offset": 0,
            "slot": "3",
            "type": "t_uint256"
          },
          {
            "astId": 6912,
            "contract": "contracts/YarResponse.sol:YarResponse",
            "label": "target",
            "offset": 0,
            "slot": "4",
            "type": "t_address"
          },
          {
            "astId": 6914,
            "contract": "contracts/YarResponse.sol:YarResponse",
            "label": "value",
            "offset": 0,
            "slot": "5",
            "type": "t_uint256"
          },
          {
            "astId": 6916,
            "contract": "contracts/YarResponse.sol:YarResponse",
            "label": "data",
            "offset": 0,
            "slot": "6",
            "type": "t_bytes_storage"
          },
          {
            "astId": 6918,
            "contract": "contracts/YarResponse.sol:YarResponse",
            "label": "_nonce",
            "offset": 0,
            "slot": "7",
            "type": "t_uint256"
          }
        ],
        "numberOfBytes": "256"
      },
      "t_uint256": {
        "encoding": "inplace",
        "label": "uint256",
        "numberOfBytes": "32"
      }
    }
  }
}