{
  "address": "0x80057Bc403De775b06897043F3333E9989EB38b0",
  "abi": [
    {
      "inputs": [],
      "stateMutability": "nonpayable",
      "type": "constructor"
    },
    {
      "anonymous": false,
      "inputs": [
        {
          "indexed": false,
          "internalType": "address",
          "name": "previousAdmin",
          "type": "address"
        },
        {
          "indexed": false,
          "internalType": "address",
          "name": "newAdmin",
          "type": "address"
        }
      ],
      "name": "AdminChanged",
      "type": "event"
    },
    {
      "anonymous": false,
      "inputs": [
        {
          "indexed": true,
          "internalType": "address",
          "name": "beacon",
          "type": "address"
        }
      ],
      "name": "BeaconUpgraded",
      "type": "event"
    },
    {
      "anonymous": false,
      "inputs": [
        {
          "indexed": false,
          "internalType": "uint8",
          "name": "version",
          "type": "uint8"
        }
      ],
      "name": "Initialized",
      "type": "event"
    },
    {
      "anonymous": false,
      "inputs": [
        {
          "indexed": true,
          "internalType": "address",
          "name": "implementation",
          "type": "address"
        }
      ],
      "name": "Upgraded",
      "type": "event"
    },
    {
      "inputs": [],
      "name": "admins",
      "outputs": [
        {
          "internalType": "address",
          "name": "owner",
          "type": "address"
        },
        {
          "internalType": "address",
          "name": "transferApprover",
          "type": "address"
        },
        {
          "internalType": "address",
          "name": "transferValidator",
          "type": "address"
        }
      ],
      "stateMutability": "view",
      "type": "function"
    },
    {
      "inputs": [],
      "name": "feeToken",
      "outputs": [
        {
          "internalType": "address",
          "name": "",
          "type": "address"
        }
      ],
      "stateMutability": "view",
      "type": "function"
    },
    {
      "inputs": [
        {
          "components": [
            {
              "internalType": "address",
              "name": "owner",
              "type": "address"
            },
            {
              "internalType": "address",
              "name": "transferApprover",
              "type": "address"
            },
            {
              "internalType": "address",
              "name": "transferValidator",
              "type": "address"
            }
          ],
          "internalType": "struct AddressBook.Admins",
          "name": "_admins",
          "type": "tuple"
        },
        {
          "internalType": "address",
          "name": "_feeToken",
          "type": "address"
        }
      ],
      "name": "initialize",
      "outputs": [],
      "stateMutability": "nonpayable",
      "type": "function"
    },
    {
      "inputs": [],
      "name": "proxiableUUID",
      "outputs": [
        {
          "internalType": "bytes32",
          "name": "",
          "type": "bytes32"
        }
      ],
      "stateMutability": "view",
      "type": "function"
    },
    {
      "inputs": [
        {
          "internalType": "address",
          "name": "_account",
          "type": "address"
        }
      ],
      "name": "requireOnlyOwner",
      "outputs": [],
      "stateMutability": "view",
      "type": "function"
    },
    {
      "inputs": [
        {
          "internalType": "bytes32",
          "name": "_messageHash",
          "type": "bytes32"
        },
        {
          "internalType": "bytes",
          "name": "_signature",
          "type": "bytes"
        }
      ],
      "name": "requireTransferApprover",
      "outputs": [],
      "stateMutability": "view",
      "type": "function"
    },
    {
      "inputs": [
        {
          "internalType": "address",
          "name": "_account",
          "type": "address"
        }
      ],
      "name": "requireTransferValidator",
      "outputs": [],
      "stateMutability": "view",
      "type": "function"
    },
    {
      "inputs": [
        {
          "internalType": "address",
          "name": "_account",
          "type": "address"
        }
      ],
      "name": "setTransferApprover",
      "outputs": [],
      "stateMutability": "nonpayable",
      "type": "function"
    },
    {
      "inputs": [
        {
          "internalType": "address",
          "name": "_contract",
          "type": "address"
        }
      ],
      "name": "setTreasury",
      "outputs": [],
      "stateMutability": "nonpayable",
      "type": "function"
    },
    {
      "inputs": [],
      "name": "treasury",
      "outputs": [
        {
          "internalType": "address",
          "name": "",
          "type": "address"
        }
      ],
      "stateMutability": "view",
      "type": "function"
    },
    {
      "inputs": [
        {
          "internalType": "address",
          "name": "newImplementation",
          "type": "address"
        }
      ],
      "name": "upgradeTo",
      "outputs": [],
      "stateMutability": "nonpayable",
      "type": "function"
    },
    {
      "inputs": [
        {
          "internalType": "address",
          "name": "newImplementation",
          "type": "address"
        },
        {
          "internalType": "bytes",
          "name": "data",
          "type": "bytes"
        }
      ],
      "name": "upgradeToAndCall",
      "outputs": [],
      "stateMutability": "payable",
      "type": "function"
    }
  ],
  "transactionHash": "0xcac644d059601343ab55442ccbb07a25a95f4f9daf3b85054e358c689a43ffd5",
  "args": [],
  "numDeployments": 1,
  "solcInputHash": "117c4792434d831a7796f5bb4a26410c",
  "bytecode": "0x60a080604052346100dc57306080526000549060ff8260081c1661008a575060ff8082160361004f575b60405161109190816100e2823960805181818161046e0152818161056a01526109800152f35b60ff90811916176000557f7f26b83ff96e1f2b6a682f133852f6798a09c465da95921460cefb3847402498602060405160ff8152a138610029565b62461bcd60e51b815260206004820152602760248201527f496e697469616c697a61626c653a20636f6e747261637420697320696e697469604482015266616c697a696e6760c81b6064820152608490fd5b600080fdfe60406080815260048036101561001457600080fd5b600091823560e01c80633659cfe61461095a5780633f95188f146107ce5780634f1ef2861461051b57806352d1902d1461045957806361d027b314610430578063647846a514610407578063a5de3619146103c7578063d4b4ea9114610351578063d77a24a41461032c578063d8742568146102e8578063e7511e441461012f5763f0f44260146100a457600080fd5b3461012b57602036600319011261012b576100bd610c09565b606854926001600160a01b03928385166100e857505016906001600160601b0360a01b161760685580f35b906020606492519162461bcd60e51b8352820152601860248201527f747265617375727920616c7265616479207365747465642100000000000000006044820152fd5b8280fd5b503461012b578060031936011261012b57602490813567ffffffffffffffff8082116102b857366023830112156102b857818501359081116102b857368482840101116102b85760018060a01b03916101bd8360665416917f19457468657265756d205369676e6564204d6573736167653a0a33320000000089528735601c52603c89209387369201610c94565b6101c78184610f74565b60058196929610156102d65790899392911595866102ca575b50508415610238575b50505050156101f6578380f35b606492916020601792519362461bcd60e51b85528401528201527f6f6e6c79207472616e7366657220617070726f766572210000000000000000006044820152fd5b8293945085516102788161026a6020820194630b135d3f60e11b998a87528c8401528a60448401526064830190610eea565b03601f198101835282610c56565b51915afa90610285610e1d565b826102bc575b8261029c575b5050388581806101e9565b9091506020818051810103126102b85760200151143880610291565b8580fd5b91506020825110159161028b565b168214945038806101e0565b634e487b7160e01b8a5260218952878afd5b833461032957602036600319011261032957610302610c09565b61030b33610f2a565b60018060a01b03166001600160601b0360a01b606654161760665580f35b80fd5b83346103295760203660031901126103295761034e610349610c09565b610f2a565b80f35b503461012b57602036600319011261012b5761036b610c09565b6067546001600160a01b03908116911603610384578280f35b906020606492519162461bcd60e51b8352820152601860248201527f6f6e6c79207472616e736665722076616c696461746f722100000000000000006044820152fd5b83823461040357816003193601126104035760609060018060a01b03806065541691816066541691606754169181519384526020840152820152f35b5080fd5b83823461040357816003193601126104035760695490516001600160a01b039091168152602090f35b83823461040357816003193601126104035760685490516001600160a01b039091168152602090f35b509134610329578060031936011261032957507f00000000000000000000000000000000000000000000000000000000000000006001600160a01b031630036104b3576020825160008051602061103c8339815191528152f35b6020608492519162461bcd60e51b8352820152603860248201527f555550535570677261646561626c653a206d757374206e6f742062652063616c60448201527f6c6564207468726f7567682064656c656761746563616c6c00000000000000006064820152fd5b508060031936011261012b5761052f610c09565b9060243567ffffffffffffffff81116107ca57366023820112156107ca576105609036906024818701359101610c94565b6001600160a01b037f0000000000000000000000000000000000000000000000000000000000000000811692919061059a30851415610ccb565b6105b760008051602061103c833981519152948286541614610d2c565b6105c033610f2a565b7f4910fdfa16fed3260ed0e7147f7cc6da11a60208b5b9406d12a635614ffd91435460ff16156105f8575050505061034e9150610d8d565b8491929394168351946352d1902d60e01b865260209586818981865afa899181610797575b5061067c57855162461bcd60e51b8152808901889052602e60248201527f45524331393637557067726164653a206e657720696d706c656d656e7461746960448201526d6f6e206973206e6f74205555505360901b6064820152608490fd5b9691929495939603610742575090859161069584610d8d565b7fbc7cd75a20ee27fd9adebab32041f755214dbc6bffa90cc0225b39da2e5c2d3b8380a284511580159061073a575b6106d1575b505050505080f35b61072f948291660819985a5b195960ca1b8651966106ee88610c24565b602788527f416464726573733a206c6f772d6c6576656c2064656c65676174652063616c6c8389015287015281519101845af4610729610e1d565b91610e4d565b5038808083816106c9565b5060016106c4565b845162461bcd60e51b8152908101839052602960248201527f45524331393637557067726164653a20756e737570706f727465642070726f786044820152681a58589b195555525160ba1b6064820152608490fd5b9091508781813d83116107c3575b6107af8183610c56565b810103126107bf5751903861061d565b8980fd5b503d6107a5565b8480fd5b50903461012b573660031901608081126109565760601361012b576064356001600160a01b03818116918290036107ca5784549260ff8460081c161593848095610949575b8015610932575b156108d85760ff1981166001178755846108c7575b5035908082168092036102b8576001600160601b0360a01b918260655416176065556024358181168091036108c3578260665416176066556044359081168091036102b857816067541617606755606954161760695561088d575080f35b60207f7f26b83ff96e1f2b6a682f133852f6798a09c465da95921460cefb38474024989161ff001984541684555160018152a180f35b8680fd5b61ffff19166101011786553861082f565b855162461bcd60e51b8152602081840152602e60248201527f496e697469616c697a61626c653a20636f6e747261637420697320616c72656160448201526d191e481a5b9a5d1a585b1a5e995960921b6064820152608490fd5b50303b15801561081a5750600160ff82161461081a565b50600160ff821610610813565b8380fd5b503461012b5760208060031936011261095657610975610c09565b916001600160a01b037f00000000000000000000000000000000000000000000000000000000000000008116906109ae30831415610ccb565b6109cb60008051602061103c833981519152928284541614610d2c565b6109d433610f2a565b8251918483019183831067ffffffffffffffff841117610bf6578285528884527f4910fdfa16fed3260ed0e7147f7cc6da11a60208b5b9406d12a635614ffd91435460ff1615610a2e5750505050505061034e9150610d8d565b8693949596169085516352d1902d60e01b815287818a81865afa8a9181610bc3575b50610aaf57865162461bcd60e51b8152808a01899052602e60248201527f45524331393637557067726164653a206e657720696d706c656d656e7461746960448201526d6f6e206973206e6f74205555505360901b6064820152608490fd5b9791929395949703610b6e575090869291610ac985610d8d565b7fbc7cd75a20ee27fd9adebab32041f755214dbc6bffa90cc0225b39da2e5c2d3b8480a2855115801590610b67575b610b06575b50505050505080f35b610b5b95660819985a5b195960ca1b837f416464726573733a206c6f772d6c6576656c2064656c65676174652063616c6c86955198610b448a610c24565b60278a528901528701525190845af4610729610e1d565b50388080838180610afd565b5082610af8565b835162461bcd60e51b8152908101869052602960248201527f45524331393637557067726164653a20756e737570706f727465642070726f786044820152681a58589b195555525160ba1b6064820152608490fd5b9091508881813d8311610bef575b610bdb8183610c56565b81010312610beb57519038610a50565b8a80fd5b503d610bd1565b634e487b7160e01b895260418852602489fd5b600435906001600160a01b0382168203610c1f57565b600080fd5b6060810190811067ffffffffffffffff821117610c4057604052565b634e487b7160e01b600052604160045260246000fd5b90601f8019910116810190811067ffffffffffffffff821117610c4057604052565b67ffffffffffffffff8111610c4057601f01601f191660200190565b929192610ca082610c78565b91610cae6040519384610c56565b829481845281830111610c1f578281602093846000960137010152565b15610cd257565b60405162461bcd60e51b815260206004820152602c60248201527f46756e6374696f6e206d7573742062652063616c6c6564207468726f7567682060448201526b19195b1959d85d1958d85b1b60a21b6064820152608490fd5b15610d3357565b60405162461bcd60e51b815260206004820152602c60248201527f46756e6374696f6e206d7573742062652063616c6c6564207468726f7567682060448201526b6163746976652070726f787960a01b6064820152608490fd5b803b15610dc25760008051602061103c83398151915280546001600160a01b0319166001600160a01b03909216919091179055565b60405162461bcd60e51b815260206004820152602d60248201527f455243313936373a206e657720696d706c656d656e746174696f6e206973206e60448201526c1bdd08184818dbdb9d1c9858dd609a1b6064820152608490fd5b3d15610e48573d90610e2e82610c78565b91610e3c6040519384610c56565b82523d6000602084013e565b606090565b91929015610eaf5750815115610e61575090565b3b15610e6a5790565b60405162461bcd60e51b815260206004820152601d60248201527f416464726573733a2063616c6c20746f206e6f6e2d636f6e74726163740000006044820152606490fd5b825190915015610ec25750805190602001fd5b60405162461bcd60e51b815260206004820152908190610ee6906024830190610eea565b0390fd5b919082519283825260005b848110610f16575050826000602080949584010152601f8019910116010190565b602081830181015184830182015201610ef5565b6065546001600160a01b03908116911603610f4157565b60405162461bcd60e51b815260206004820152600b60248201526a6f6e6c79206f776e65722160a81b6044820152606490fd5b906041815114600014610fa257610f9e916020820151906060604084015193015160001a90610fac565b9091565b5050600090600290565b9291907f7fffffffffffffffffffffffffffffff5d576e7357a4501ddfe92f46681b20a0831161102f5791608094939160ff602094604051948552168484015260408301526060820152600093849182805260015afa156110225781516001600160a01b0381161561101c579190565b50600190565b50604051903d90823e3d90fd5b5050505060009060039056fe360894a13ba1a3210667c828492db98dca3e2076cc3735a920a3ca505d382bbca26469706673582212204290b2308b746c509681b8d7d52e25844e69f27435164a5b471919234a895ef264736f6c63430008120033",
  "devdoc": {
    "events": {
      "AdminChanged(address,address)": {
        "details": "Emitted when the admin account has changed."
      },
      "BeaconUpgraded(address)": {
        "details": "Emitted when the beacon is changed."
      },
      "Initialized(uint8)": {
        "details": "Triggered when the contract has been initialized or reinitialized."
      },
      "Upgraded(address)": {
        "details": "Emitted when the implementation is upgraded."
      }
    },
    "kind": "dev",
    "methods": {
      "proxiableUUID()": {
        "details": "Implementation of the ERC1822 {proxiableUUID} function. This returns the storage slot used by the implementation. It is used to validate the implementation's compatibility when performing an upgrade. IMPORTANT: A proxy pointing at a proxiable contract should not be considered proxiable itself, because this risks bricking a proxy that upgrades to it, by delegating to itself until out of gas. Thus it is critical that this function revert if invoked through a proxy. This is guaranteed by the `notDelegated` modifier."
      },
      "upgradeTo(address)": {
        "custom:oz-upgrades-unsafe-allow-reachable": "delegatecall",
        "details": "Upgrade the implementation of the proxy to `newImplementation`. Calls {_authorizeUpgrade}. Emits an {Upgraded} event."
      },
      "upgradeToAndCall(address,bytes)": {
        "custom:oz-upgrades-unsafe-allow-reachable": "delegatecall",
        "details": "Upgrade the implementation of the proxy to `newImplementation`, and subsequently execute the function call encoded in `data`. Calls {_authorizeUpgrade}. Emits an {Upgraded} event."
      }
    },
    "version": 1
  },
  "userdoc": {
    "kind": "user",
    "methods": {},
    "version": 1
  },
  "storageLayout": {
    "storage": [
      {
        "astId": 505,
        "contract": "contracts/AddressBook.sol:AddressBook",
        "label": "_initialized",
        "offset": 0,
        "slot": "0",
        "type": "t_uint8"
      },
      {
        "astId": 508,
        "contract": "contracts/AddressBook.sol:AddressBook",
        "label": "_initializing",
        "offset": 1,
        "slot": "0",
        "type": "t_bool"
      },
      {
        "astId": 487,
        "contract": "contracts/AddressBook.sol:AddressBook",
        "label": "__gap",
        "offset": 0,
        "slot": "1",
        "type": "t_array(t_uint256)50_storage"
      },
      {
        "astId": 803,
        "contract": "contracts/AddressBook.sol:AddressBook",
        "label": "__gap",
        "offset": 0,
        "slot": "51",
        "type": "t_array(t_uint256)50_storage"
      },
      {
        "astId": 5068,
        "contract": "contracts/AddressBook.sol:AddressBook",
        "label": "admins",
        "offset": 0,
        "slot": "101",
        "type": "t_struct(Admins)5065_storage"
      },
      {
        "astId": 5070,
        "contract": "contracts/AddressBook.sol:AddressBook",
        "label": "treasury",
        "offset": 0,
        "slot": "104",
        "type": "t_address"
      },
      {
        "astId": 5072,
        "contract": "contracts/AddressBook.sol:AddressBook",
        "label": "feeToken",
        "offset": 0,
        "slot": "105",
        "type": "t_address"
      }
    ],
    "types": {
      "t_address": {
        "encoding": "inplace",
        "label": "address",
        "numberOfBytes": "20"
      },
      "t_array(t_uint256)50_storage": {
        "base": "t_uint256",
        "encoding": "inplace",
        "label": "uint256[50]",
        "numberOfBytes": "1600"
      },
      "t_bool": {
        "encoding": "inplace",
        "label": "bool",
        "numberOfBytes": "1"
      },
      "t_struct(Admins)5065_storage": {
        "encoding": "inplace",
        "label": "struct AddressBook.Admins",
        "members": [
          {
            "astId": 5060,
            "contract": "contracts/AddressBook.sol:AddressBook",
            "label": "owner",
            "offset": 0,
            "slot": "0",
            "type": "t_address"
          },
          {
            "astId": 5062,
            "contract": "contracts/AddressBook.sol:AddressBook",
            "label": "transferApprover",
            "offset": 0,
            "slot": "1",
            "type": "t_address"
          },
          {
            "astId": 5064,
            "contract": "contracts/AddressBook.sol:AddressBook",
            "label": "transferValidator",
            "offset": 0,
            "slot": "2",
            "type": "t_address"
          }
        ],
        "numberOfBytes": "96"
      },
      "t_uint256": {
        "encoding": "inplace",
        "label": "uint256",
        "numberOfBytes": "32"
      },
      "t_uint8": {
        "encoding": "inplace",
        "label": "uint8",
        "numberOfBytes": "1"
      }
    }
  }
}