{
  "address": "0x84fcA6D37ff360A4af8885eAC33739F23f8CA9eC",
  "abi": [
    {
      "inputs": [],
      "stateMutability": "nonpayable",
      "type": "constructor"
    },
    {
      "anonymous": false,
      "inputs": [
        {
          "indexed": false,
          "internalType": "address",
          "name": "previousAdmin",
          "type": "address"
        },
        {
          "indexed": false,
          "internalType": "address",
          "name": "newAdmin",
          "type": "address"
        }
      ],
      "name": "AdminChanged",
      "type": "event"
    },
    {
      "anonymous": false,
      "inputs": [
        {
          "indexed": true,
          "internalType": "address",
          "name": "beacon",
          "type": "address"
        }
      ],
      "name": "BeaconUpgraded",
      "type": "event"
    },
    {
      "anonymous": false,
      "inputs": [
        {
          "indexed": false,
          "internalType": "uint8",
          "name": "version",
          "type": "uint8"
        }
      ],
      "name": "Initialized",
      "type": "event"
    },
    {
      "anonymous": false,
      "inputs": [
        {
          "indexed": true,
          "internalType": "address",
          "name": "implementation",
          "type": "address"
        }
      ],
      "name": "Upgraded",
      "type": "event"
    },
    {
      "inputs": [
        {
          "components": [
            {
              "internalType": "uint256",
              "name": "chainId",
              "type": "uint256"
            },
            {
              "internalType": "string",
              "name": "defaultRpcUrl",
              "type": "string"
            }
          ],
          "internalType": "struct BridgesConfig.Chain",
          "name": "_chain",
          "type": "tuple"
        }
      ],
      "name": "addChain",
      "outputs": [],
      "stateMutability": "nonpayable",
      "type": "function"
    },
    {
      "inputs": [],
      "name": "admins",
      "outputs": [
        {
          "internalType": "address",
          "name": "owner",
          "type": "address"
        }
      ],
      "stateMutability": "view",
      "type": "function"
    },
    {
      "inputs": [
        {
          "internalType": "string",
          "name": "typeName",
          "type": "string"
        }
      ],
      "name": "bridges",
      "outputs": [
        {
          "internalType": "uint256",
          "name": "tranferGasAmount",
          "type": "uint256"
        },
        {
          "internalType": "uint256",
          "name": "deployGasAmount",
          "type": "uint256"
        }
      ],
      "stateMutability": "view",
      "type": "function"
    },
    {
      "inputs": [
        {
          "internalType": "uint256",
          "name": "",
          "type": "uint256"
        }
      ],
      "name": "chains",
      "outputs": [
        {
          "internalType": "uint256",
          "name": "chainId",
          "type": "uint256"
        },
        {
          "internalType": "string",
          "name": "defaultRpcUrl",
          "type": "string"
        }
      ],
      "stateMutability": "view",
      "type": "function"
    },
    {
      "inputs": [],
      "name": "fees",
      "outputs": [
        {
          "internalType": "uint256",
          "name": "gasFeesMultiplier",
          "type": "uint256"
        },
        {
          "internalType": "uint256",
          "name": "bridgeFeesUSD",
          "type": "uint256"
        }
      ],
      "stateMutability": "view",
      "type": "function"
    },
    {
      "inputs": [
        {
          "components": [
            {
              "internalType": "uint256",
              "name": "chainId",
              "type": "uint256"
            },
            {
              "internalType": "string",
              "name": "defaultRpcUrl",
              "type": "string"
            }
          ],
          "internalType": "struct BridgesConfig.Chain[]",
          "name": "_chains",
          "type": "tuple[]"
        },
        {
          "components": [
            {
              "internalType": "address",
              "name": "owner",
              "type": "address"
            }
          ],
          "internalType": "struct BridgesConfig.Admins",
          "name": "_admins",
          "type": "tuple"
        },
        {
          "components": [
            {
              "internalType": "uint256",
              "name": "gasFeesMultiplier",
              "type": "uint256"
            },
            {
              "internalType": "uint256",
              "name": "bridgeFeesUSD",
              "type": "uint256"
            }
          ],
          "internalType": "struct BridgesConfig.Fees",
          "name": "_fees",
          "type": "tuple"
        },
        {
          "components": [
            {
              "internalType": "string",
              "name": "agregationServiceUrl",
              "type": "string"
            },
            {
              "internalType": "string",
              "name": "deployServiceUrl",
              "type": "string"
            }
          ],
          "internalType": "struct BridgesConfig.Meta",
          "name": "_meta",
          "type": "tuple"
        }
      ],
      "name": "initialize",
      "outputs": [],
      "stateMutability": "nonpayable",
      "type": "function"
    },
    {
      "inputs": [],
      "name": "meta",
      "outputs": [
        {
          "internalType": "string",
          "name": "agregationServiceUrl",
          "type": "string"
        },
        {
          "internalType": "string",
          "name": "deployServiceUrl",
          "type": "string"
        }
      ],
      "stateMutability": "view",
      "type": "function"
    },
    {
      "inputs": [],
      "name": "proxiableUUID",
      "outputs": [
        {
          "internalType": "bytes32",
          "name": "",
          "type": "bytes32"
        }
      ],
      "stateMutability": "view",
      "type": "function"
    },
    {
      "inputs": [
        {
          "internalType": "address",
          "name": "_account",
          "type": "address"
        }
      ],
      "name": "requireOnlyOwner",
      "outputs": [],
      "stateMutability": "view",
      "type": "function"
    },
    {
      "inputs": [
        {
          "components": [
            {
              "internalType": "address",
              "name": "owner",
              "type": "address"
            }
          ],
          "internalType": "struct BridgesConfig.Admins",
          "name": "_admins",
          "type": "tuple"
        }
      ],
      "name": "setAdmins",
      "outputs": [],
      "stateMutability": "nonpayable",
      "type": "function"
    },
    {
      "inputs": [
        {
          "internalType": "string",
          "name": "_typeName",
          "type": "string"
        },
        {
          "components": [
            {
              "internalType": "uint256",
              "name": "tranferGasAmount",
              "type": "uint256"
            },
            {
              "internalType": "uint256",
              "name": "deployGasAmount",
              "type": "uint256"
            }
          ],
          "internalType": "struct BridgesConfig.Bridge",
          "name": "_bridge",
          "type": "tuple"
        }
      ],
      "name": "setBridge",
      "outputs": [],
      "stateMutability": "nonpayable",
      "type": "function"
    },
    {
      "inputs": [
        {
          "components": [
            {
              "internalType": "uint256",
              "name": "gasFeesMultiplier",
              "type": "uint256"
            },
            {
              "internalType": "uint256",
              "name": "bridgeFeesUSD",
              "type": "uint256"
            }
          ],
          "internalType": "struct BridgesConfig.Fees",
          "name": "_fees",
          "type": "tuple"
        }
      ],
      "name": "setFees",
      "outputs": [],
      "stateMutability": "nonpayable",
      "type": "function"
    },
    {
      "inputs": [
        {
          "components": [
            {
              "internalType": "string",
              "name": "agregationServiceUrl",
              "type": "string"
            },
            {
              "internalType": "string",
              "name": "deployServiceUrl",
              "type": "string"
            }
          ],
          "internalType": "struct BridgesConfig.Meta",
          "name": "_meta",
          "type": "tuple"
        }
      ],
      "name": "setMeta",
      "outputs": [],
      "stateMutability": "nonpayable",
      "type": "function"
    },
    {
      "inputs": [
        {
          "internalType": "address",
          "name": "newImplementation",
          "type": "address"
        }
      ],
      "name": "upgradeTo",
      "outputs": [],
      "stateMutability": "nonpayable",
      "type": "function"
    },
    {
      "inputs": [
        {
          "internalType": "address",
          "name": "newImplementation",
          "type": "address"
        },
        {
          "internalType": "bytes",
          "name": "data",
          "type": "bytes"
        }
      ],
      "name": "upgradeToAndCall",
      "outputs": [],
      "stateMutability": "payable",
      "type": "function"
    }
  ],
  "transactionHash": "0xc50aef226e913acfb5150bb745246c2e3dbb04299df5e46ad23466a36a9f1370",
  "args": [],
  "numDeployments": 1,
  "solcInputHash": "117c4792434d831a7796f5bb4a26410c",
  "bytecode": "0x60a080604052346100dc57306080526000549060ff8260081c1661008a575060ff8082160361004f575b60405161194590816100e28239608051818181610695015281816107920152610a680152f35b60ff90811916176000557f7f26b83ff96e1f2b6a682f133852f6798a09c465da95921460cefb3847402498602060405160ff8152a138610029565b62461bcd60e51b815260206004820152602760248201527f496e697469616c697a61626c653a20636f6e747261637420697320696e697469604482015266616c697a696e6760c81b6064820152608490fd5b600080fdfe60406080815260048036101561001457600080fd5b600091823560e01c91826306f78604146112a357826313d202d214610df25782631a70bc3414610d6f5782631ccfadcb14610d4f5782632599d42814610d005782633659cfe614610a415782633f52c0f614610a1a5782634f1ef2861461074257826352d1902d14610681578263550325b51461055d5782636839f8d1146102cb575081639af1d35a146102a7578163a5de36191461027e578163c885044e146100ef575063d77a24a4146100c857600080fd5b346100ec5760203660031901126100ec576100e96100e461141b565b611865565b80f35b80fd5b90503461027a578160031936011261027a5780519180606a54908461011383611431565b91828252600193848116908160001461025b575060011461020f575b61013b9250038561134c565b8251918091606b549161014d83611431565b808652928281169081156101e5575060011461019c575b505050906101778161019893038261134c565b61018a835194848695865285019061146b565b90838203602085015261146b565b0390f35b9250606b83526000805160206118b08339815191525b8284106101cd57505050810160200161017782610198610164565b805460208587018101919091529093019281016101b2565b8695506101989693506020925061017794915060ff191682840152151560051b8201019293610164565b50606a8452908390836000805160206118f08339815191525b8284106102415750505090602061013b9282010161012f565b6020929450805483858b0101520191019091838793610228565b6020925061013b94915060ff191682840152151560051b82010161012f565b5080fd5b90503461027a578160031936011261027a5760675490516001600160a01b039091168152602090f35b82346100ec57806003193601126100ec575060685460695482519182526020820152f35b83346100ec576102da366113e9565b916102e433611865565b6102ee838061167f565b909367ffffffffffffffff9182811161054a578061030d606a54611431565b96601f978881116104f0575b50869088831160011461047d578792610472575b50508160011b916000199060031b1c191617606a555b6103526020918281019061167f565b939092841161045f5750610367606b54611431565b858111610416575b50839483116001146103aa575092829382939261039f575b50508160011b916000199060031b1c191617606b5580f35b013590508380610387565b601f198316946000805160206118b0833981519152929185905b8782106103fe5750508360019596106103e4575b505050811b01606b5580f35b0135600019600384901b60f8161c191690558380806103d8565b806001849682949587013581550195019201906103c4565b6000805160206118b08339815191528680860160051c820192848710610456575b0160051c01905b81811061044b575061036f565b85815560010161043e565b92508192610437565b634e487b7160e01b855260419052602484fd5b01359050878061032d565b606a88526000805160206118f0833981519152925090601f198416885b8181106104d857509084600195949392106104be575b505050811b01606a55610343565b0135600019600384901b60f8161c191690558780806104b0565b9193602060018192878701358155019501920161049a565b909150606a87526000805160206118f08339815191528880850160051c82019260208610610541575b9085949392910160051c01905b8181106105335750610319565b888155849350600101610526565b92508192610519565b634e487b7160e01b855260418452602485fd5b83823461027a576020928360031936011261067d573560665481101561067d5760668352600190811b917f46501879b8ca8525e8c2fd519e2fbfcfa2ebea26501294aa02cbfcfb12e94355837f46501879b8ca8525e8c2fd519e2fbfcfa2ebea26501294aa02cbfcfb12e943540154930185825193868354936105df85611431565b80885294838116908115610658575060011461061c575b83886101988989610609828f038361134c565b808051958695865285015283019061146b565b908094939850528683205b828410610645575050508201909301926106098561019884896105f6565b8054868501890152928701928101610627565b60ff1916858901525050505090151560051b83010193506106098561019884896105f6565b8280fd5b83346100ec57806003193601126100ec57507f00000000000000000000000000000000000000000000000000000000000000006001600160a01b031630036106da57602082516000805160206118d08339815191528152f35b6020608492519162461bcd60e51b8352820152603860248201527f555550535570677261646561626c653a206d757374206e6f742062652063616c60448201527f6c6564207468726f7567682064656c656761746563616c6c00000000000000006064820152fd5b91508060031936011261067d5761075761141b565b9060243567ffffffffffffffff8111610a165736602382011215610a1657610788903690602481870135910161138a565b6001600160a01b037f000000000000000000000000000000000000000000000000000000000000000081169291906107c230851415611490565b6107df6000805160206118d08339815191529482865416146114f1565b6107e833611865565b7f4910fdfa16fed3260ed0e7147f7cc6da11a60208b5b9406d12a635614ffd91435460ff161561082057505050506100e99150611552565b82516352d1902d60e01b81526020959394918416919086818981865afa8991816109e3575b506108a457855162461bcd60e51b8152808901889052602e60248201527f45524331393637557067726164653a206e657720696d706c656d656e7461746960448201526d6f6e206973206e6f74205555505360901b6064820152608490fd5b969192959493960361098e57506108ba85611552565b7fbc7cd75a20ee27fd9adebab32041f755214dbc6bffa90cc0225b39da2e5c2d3b8680a2825115801590610986575b6108f5575b5050505080f35b6109729385808351956109078761131a565b602787527f416464726573733a206c6f772d6c6576656c2064656c65676174652063616c6c86880152660819985a5b195960ca1b858801528581519101845af4913d1561097c573d61096461095b8261136e565b9251928361134c565b81528681943d92013e6115e2565b50388080806108ee565b50606092506115e2565b5060016108e9565b825162461bcd60e51b8152908101849052602960248201527f45524331393637557067726164653a20756e737570706f727465642070726f786044820152681a58589b195555525160ba1b6064820152608490fd5b9091508781813d8311610a0f575b6109fb818361134c565b81010312610a0b57519038610845565b8980fd5b503d6109f1565b8480fd5b91503461067d5736600319011261027a57610a3433611865565b3560685560243560695580f35b91503461067d57602080600319360112610cfc57610a5d61141b565b916001600160a01b037f00000000000000000000000000000000000000000000000000000000000000008116610a9530821415611490565b610ab26000805160206118d08339815191529183835416146114f1565b610abb33611865565b8251908482019282841067ffffffffffffffff851117610ce9578385528883527f4910fdfa16fed3260ed0e7147f7cc6da11a60208b5b9406d12a635614ffd91435460ff1615610b15575050505050506100e99150611552565b869293949596169085516352d1902d60e01b815287818a81865afa8a9181610cb6575b50610b9757865162461bcd60e51b8152808a01899052602e60248201527f45524331393637557067726164653a206e657720696d706c656d656e7461746960448201526d6f6e206973206e6f74205555505360901b6064820152608490fd5b979192939695949703610c615750610bae82611552565b7fbc7cd75a20ee27fd9adebab32041f755214dbc6bffa90cc0225b39da2e5c2d3b8780a285845115801590610c5a575b610bec575b50505050505080f35b80610c4e96845196610bfd8861131a565b602788527f416464726573733a206c6f772d6c6576656c2064656c65676174652063616c6c87890152660819985a5b195960ca1b868901525190845af4913d1561097c573d61096461095b8261136e565b50388080808085610be3565b5080610bde565b835162461bcd60e51b8152908101859052602960248201527f45524331393637557067726164653a20756e737570706f727465642070726f786044820152681a58589b195555525160ba1b6064820152608490fd5b9091508881813d8311610ce2575b610cce818361134c565b81010312610cde57519038610b38565b8a80fd5b503d610cc4565b634e487b7160e01b895260418852602489fd5b8380fd5b83903461027a57602036600319011261027a57610d1c33611865565b356001600160a01b038116810361027a57606780546001600160a01b0319166001600160a01b0390921691909117905580f35b83346100ec576100e9610d61366113e9565b610d6a33611865565b6116b2565b91503461067d57606036600319011261067d57813567ffffffffffffffff92838211610a165736602383011215610a1657810135928311610cfc573660248483010111610cfc5781602319360112610cfc5782602493602093610dd133611865565b51948593018337810160658152030190206024358155600160443591015580f35b9091503461067d576003199060a036830112610cfc5780359067ffffffffffffffff9081831161129f573660238401121561129f57828101359180831161129b57602436818560051b87010111611297576020958660231936011261129357876043193601126112935760843590838211610a0b5788828601918336030112610a0b5789549660ff8860081c161596878098611286575b801561126f575b1561121657600160ff198a1681178d559888611205575b50903681900360621901908c5b8381106111c157505084359150506001600160a01b0381168103610cde57606780546001600160a01b0319166001600160a01b03909216919091179055604435606855606435606955610f07818061167f565b8581949294116111af57908491610f1f606a54611431565b601f811161114d575b508c8d601f83116001146110d85790610f5d96836110cd575b5050600019600383901b1c1916908a1b17606a555b019061167f565b93909284116110bc5750508190610f75606b54611431565b601f811161105f575b508790601f8311600114610ff2578892610fe7575b5050600019600383901b1c191690831b17606b555b610fb0578380f35b7f7f26b83ff96e1f2b6a682f133852f6798a09c465da95921460cefb38474024989261ff0019855416855551908152a13880808380f35b013590503880610f93565b606b89528593506000805160206118b083398151915291601f1984168a5b89828210611049575050841161102f575b505050811b01606b55610fa8565b0135600019600384901b60f8161c19169055388080611021565b8385013586558997909501949283019201611010565b909150606b88526000805160206118b0833981519152601f840160051c8101918785106110b2575b84939291601f88920160051c01915b8281106110a4575050610f7e565b8a8155859450879101611096565b9091508190611087565b634e487b7160e01b89526041905287fd5b013590503880610f41565b606a8152601f198316968c93926000805160206118f0833981519152928f5b8a821061113357505083610f5d9910611119575b505050811b01606a55610f56565b0135600019600384901b60f8161c1916905538808061110b565b8383013585558b98508f969094019391820191018f6110f7565b90919250606a8d526000805160206118f0833981519152601f830160051c8101918c84106111a5575b8e8895949392601f8e930160051c0192905b83821061119757505050610f28565b81558895508c91018f611188565b9091508190611176565b634e487b7160e01b8c5260418752848cfd5b868160051b830101358381121561120157876111df918401016116b2565b60001981146111ef578a01610eb4565b634e487b7160e01b8e5260118952868efd5b8e80fd5b61ffff1916610101178c5538610ea7565b8a5162461bcd60e51b81528088018b9052602e818701527f496e697469616c697a61626c653a20636f6e747261637420697320616c72656160448201526d191e481a5b9a5d1a585b1a5e995960921b6064820152608490fd5b50303b158015610e905750600160ff8a1614610e90565b50600160ff8a1610610e89565b8880fd5b8780fd5b8680fd5b8580fd5b83346100ec5760203660031901126100ec5781359067ffffffffffffffff82116100ec57366023830112156100ec57506112eb6112fd9282602460209436930135910161138a565b818451938285809451938492016113c6565b810160658152030190206001815491015482519182526020820152f35b6060810190811067ffffffffffffffff82111761133657604052565b634e487b7160e01b600052604160045260246000fd5b90601f8019910116810190811067ffffffffffffffff82111761133657604052565b67ffffffffffffffff811161133657601f01601f191660200190565b9291926113968261136e565b916113a4604051938461134c565b8294818452818301116113c1578281602093846000960137010152565b600080fd5b60005b8381106113d95750506000910152565b81810151838201526020016113c9565b600319906020818301126113c1576004359167ffffffffffffffff83116113c157826040920301126113c15760040190565b600435906001600160a01b03821682036113c157565b90600182811c92168015611461575b602083101461144b57565b634e487b7160e01b600052602260045260246000fd5b91607f1691611440565b90602091611484815180928185528580860191016113c6565b601f01601f1916010190565b1561149757565b60405162461bcd60e51b815260206004820152602c60248201527f46756e6374696f6e206d7573742062652063616c6c6564207468726f7567682060448201526b19195b1959d85d1958d85b1b60a21b6064820152608490fd5b156114f857565b60405162461bcd60e51b815260206004820152602c60248201527f46756e6374696f6e206d7573742062652063616c6c6564207468726f7567682060448201526b6163746976652070726f787960a01b6064820152608490fd5b803b15611587576000805160206118d083398151915280546001600160a01b0319166001600160a01b03909216919091179055565b60405162461bcd60e51b815260206004820152602d60248201527f455243313936373a206e657720696d706c656d656e746174696f6e206973206e60448201526c1bdd08184818dbdb9d1c9858dd609a1b6064820152608490fd5b9192901561164457508151156115f6575090565b3b156115ff5790565b60405162461bcd60e51b815260206004820152601d60248201527f416464726573733a2063616c6c20746f206e6f6e2d636f6e74726163740000006044820152606490fd5b8251909150156116575750805190602001fd5b60405162461bcd60e51b81526020600482015290819061167b90602483019061146b565b0390fd5b903590601e19813603018212156113c1570180359067ffffffffffffffff82116113c1576020019181360383136113c157565b60665468010000000000000000811015611336576001908181018060665581101561184f577f46501879b8ca8525e8c2fd519e2fbfcfa2ebea26501294aa02cbfcfb12e9435560009160668352831b8435817f46501879b8ca8525e8c2fd519e2fbfcfa2ebea26501294aa02cbfcfb12e94354015501926117386020918281019061167f565b9267ffffffffffffffff841161183b576117528654611431565b601f81116117f5575b508092601f8511600114611794575091839491849394611789575b50501b916000199060031b1c1916179055565b013592503880611776565b86825280822093918591601f19831691905b888383106117db57505050106117c1575b505050811b019055565b0135600019600384901b60f8161c191690553880806117b7565b8686013588559096019593840193879350908101906117a6565b868252838220601f860160051c810191858710611831575b601f0160051c019086905b82811061182657505061175b565b838155018690611818565b909150819061180d565b634e487b7160e01b81526041600452602490fd5b634e487b7160e01b600052603260045260246000fd5b6067546001600160a01b0390811691160361187c57565b60405162461bcd60e51b815260206004820152600b60248201526a6f6e6c79206f776e65722160a81b6044820152606490fdfebd43cb8ece8cd1863bcd6082d65c5b0d25665b1ce17980f0da43c0ed545f98b4360894a13ba1a3210667c828492db98dca3e2076cc3735a920a3ca505d382bbc116fea137db6e131133e7f2bab296045d8f41cc5607279db17b218cab0929a51a2646970667358221220e95751aa0a10424b5833649ec7cf7b955678969069b00151c0eb2a727b3dff8864736f6c63430008120033",
  "devdoc": {
    "events": {
      "AdminChanged(address,address)": {
        "details": "Emitted when the admin account has changed."
      },
      "BeaconUpgraded(address)": {
        "details": "Emitted when the beacon is changed."
      },
      "Initialized(uint8)": {
        "details": "Triggered when the contract has been initialized or reinitialized."
      },
      "Upgraded(address)": {
        "details": "Emitted when the implementation is upgraded."
      }
    },
    "kind": "dev",
    "methods": {
      "proxiableUUID()": {
        "details": "Implementation of the ERC1822 {proxiableUUID} function. This returns the storage slot used by the implementation. It is used to validate the implementation's compatibility when performing an upgrade. IMPORTANT: A proxy pointing at a proxiable contract should not be considered proxiable itself, because this risks bricking a proxy that upgrades to it, by delegating to itself until out of gas. Thus it is critical that this function revert if invoked through a proxy. This is guaranteed by the `notDelegated` modifier."
      },
      "upgradeTo(address)": {
        "custom:oz-upgrades-unsafe-allow-reachable": "delegatecall",
        "details": "Upgrade the implementation of the proxy to `newImplementation`. Calls {_authorizeUpgrade}. Emits an {Upgraded} event."
      },
      "upgradeToAndCall(address,bytes)": {
        "custom:oz-upgrades-unsafe-allow-reachable": "delegatecall",
        "details": "Upgrade the implementation of the proxy to `newImplementation`, and subsequently execute the function call encoded in `data`. Calls {_authorizeUpgrade}. Emits an {Upgraded} event."
      }
    },
    "version": 1
  },
  "userdoc": {
    "kind": "user",
    "methods": {},
    "version": 1
  },
  "storageLayout": {
    "storage": [
      {
        "astId": 505,
        "contract": "contracts/BridgesConfig.sol:BridgesConfig",
        "label": "_initialized",
        "offset": 0,
        "slot": "0",
        "type": "t_uint8"
      },
      {
        "astId": 508,
        "contract": "contracts/BridgesConfig.sol:BridgesConfig",
        "label": "_initializing",
        "offset": 1,
        "slot": "0",
        "type": "t_bool"
      },
      {
        "astId": 487,
        "contract": "contracts/BridgesConfig.sol:BridgesConfig",
        "label": "__gap",
        "offset": 0,
        "slot": "1",
        "type": "t_array(t_uint256)50_storage"
      },
      {
        "astId": 803,
        "contract": "contracts/BridgesConfig.sol:BridgesConfig",
        "label": "__gap",
        "offset": 0,
        "slot": "51",
        "type": "t_array(t_uint256)50_storage"
      },
      {
        "astId": 6238,
        "contract": "contracts/BridgesConfig.sol:BridgesConfig",
        "label": "bridges",
        "offset": 0,
        "slot": "101",
        "type": "t_mapping(t_string_memory_ptr,t_struct(Bridge)6233_storage)"
      },
      {
        "astId": 6247,
        "contract": "contracts/BridgesConfig.sol:BridgesConfig",
        "label": "chains",
        "offset": 0,
        "slot": "102",
        "type": "t_array(t_struct(Chain)6243_storage)dyn_storage"
      },
      {
        "astId": 6253,
        "contract": "contracts/BridgesConfig.sol:BridgesConfig",
        "label": "admins",
        "offset": 0,
        "slot": "103",
        "type": "t_struct(Admins)6250_storage"
      },
      {
        "astId": 6261,
        "contract": "contracts/BridgesConfig.sol:BridgesConfig",
        "label": "fees",
        "offset": 0,
        "slot": "104",
        "type": "t_struct(Fees)6258_storage"
      },
      {
        "astId": 6269,
        "contract": "contracts/BridgesConfig.sol:BridgesConfig",
        "label": "meta",
        "offset": 0,
        "slot": "106",
        "type": "t_struct(Meta)6266_storage"
      }
    ],
    "types": {
      "t_address": {
        "encoding": "inplace",
        "label": "address",
        "numberOfBytes": "20"
      },
      "t_array(t_struct(Chain)6243_storage)dyn_storage": {
        "base": "t_struct(Chain)6243_storage",
        "encoding": "dynamic_array",
        "label": "struct BridgesConfig.Chain[]",
        "numberOfBytes": "32"
      },
      "t_array(t_uint256)50_storage": {
        "base": "t_uint256",
        "encoding": "inplace",
        "label": "uint256[50]",
        "numberOfBytes": "1600"
      },
      "t_bool": {
        "encoding": "inplace",
        "label": "bool",
        "numberOfBytes": "1"
      },
      "t_mapping(t_string_memory_ptr,t_struct(Bridge)6233_storage)": {
        "encoding": "mapping",
        "key": "t_string_memory_ptr",
        "label": "mapping(string => struct BridgesConfig.Bridge)",
        "numberOfBytes": "32",
        "value": "t_struct(Bridge)6233_storage"
      },
      "t_string_memory_ptr": {
        "encoding": "bytes",
        "label": "string",
        "numberOfBytes": "32"
      },
      "t_string_storage": {
        "encoding": "bytes",
        "label": "string",
        "numberOfBytes": "32"
      },
      "t_struct(Admins)6250_storage": {
        "encoding": "inplace",
        "label": "struct BridgesConfig.Admins",
        "members": [
          {
            "astId": 6249,
            "contract": "contracts/BridgesConfig.sol:BridgesConfig",
            "label": "owner",
            "offset": 0,
            "slot": "0",
            "type": "t_address"
          }
        ],
        "numberOfBytes": "32"
      },
      "t_struct(Bridge)6233_storage": {
        "encoding": "inplace",
        "label": "struct BridgesConfig.Bridge",
        "members": [
          {
            "astId": 6230,
            "contract": "contracts/BridgesConfig.sol:BridgesConfig",
            "label": "tranferGasAmount",
            "offset": 0,
            "slot": "0",
            "type": "t_uint256"
          },
          {
            "astId": 6232,
            "contract": "contracts/BridgesConfig.sol:BridgesConfig",
            "label": "deployGasAmount",
            "offset": 0,
            "slot": "1",
            "type": "t_uint256"
          }
        ],
        "numberOfBytes": "64"
      },
      "t_struct(Chain)6243_storage": {
        "encoding": "inplace",
        "label": "struct BridgesConfig.Chain",
        "members": [
          {
            "astId": 6240,
            "contract": "contracts/BridgesConfig.sol:BridgesConfig",
            "label": "chainId",
            "offset": 0,
            "slot": "0",
            "type": "t_uint256"
          },
          {
            "astId": 6242,
            "contract": "contracts/BridgesConfig.sol:BridgesConfig",
            "label": "defaultRpcUrl",
            "offset": 0,
            "slot": "1",
            "type": "t_string_storage"
          }
        ],
        "numberOfBytes": "64"
      },
      "t_struct(Fees)6258_storage": {
        "encoding": "inplace",
        "label": "struct BridgesConfig.Fees",
        "members": [
          {
            "astId": 6255,
            "contract": "contracts/BridgesConfig.sol:BridgesConfig",
            "label": "gasFeesMultiplier",
            "offset": 0,
            "slot": "0",
            "type": "t_uint256"
          },
          {
            "astId": 6257,
            "contract": "contracts/BridgesConfig.sol:BridgesConfig",
            "label": "bridgeFeesUSD",
            "offset": 0,
            "slot": "1",
            "type": "t_uint256"
          }
        ],
        "numberOfBytes": "64"
      },
      "t_struct(Meta)6266_storage": {
        "encoding": "inplace",
        "label": "struct BridgesConfig.Meta",
        "members": [
          {
            "astId": 6263,
            "contract": "contracts/BridgesConfig.sol:BridgesConfig",
            "label": "agregationServiceUrl",
            "offset": 0,
            "slot": "0",
            "type": "t_string_storage"
          },
          {
            "astId": 6265,
            "contract": "contracts/BridgesConfig.sol:BridgesConfig",
            "label": "deployServiceUrl",
            "offset": 0,
            "slot": "1",
            "type": "t_string_storage"
          }
        ],
        "numberOfBytes": "64"
      },
      "t_uint256": {
        "encoding": "inplace",
        "label": "uint256",
        "numberOfBytes": "32"
      },
      "t_uint8": {
        "encoding": "inplace",
        "label": "uint8",
        "numberOfBytes": "1"
      }
    }
  }
}