{
  "address": "0x16F9e79725718d055B0eAcAA5c14CD88a3C4e14b",
  "abi": [
    {
      "inputs": [
        {
          "internalType": "uint256",
          "name": "_requiredSigners",
          "type": "uint256"
        },
        {
          "internalType": "address[]",
          "name": "_signers",
          "type": "address[]"
        }
      ],
      "stateMutability": "nonpayable",
      "type": "constructor"
    },
    {
      "inputs": [
        {
          "internalType": "bytes32",
          "name": "messageHash",
          "type": "bytes32"
        },
        {
          "internalType": "address",
          "name": "signer",
          "type": "address"
        }
      ],
      "name": "alreadyVerified",
      "outputs": [
        {
          "internalType": "bool",
          "name": "",
          "type": "bool"
        }
      ],
      "stateMutability": "view",
      "type": "function"
    },
    {
      "inputs": [],
      "name": "requiredSignersCount",
      "outputs": [
        {
          "internalType": "uint256",
          "name": "",
          "type": "uint256"
        }
      ],
      "stateMutability": "view",
      "type": "function"
    },
    {
      "inputs": [
        {
          "internalType": "address",
          "name": "",
          "type": "address"
        }
      ],
      "name": "signers",
      "outputs": [
        {
          "internalType": "bool",
          "name": "",
          "type": "bool"
        }
      ],
      "stateMutability": "view",
      "type": "function"
    },
    {
      "inputs": [],
      "name": "signersCount",
      "outputs": [
        {
          "internalType": "uint256",
          "name": "",
          "type": "uint256"
        }
      ],
      "stateMutability": "view",
      "type": "function"
    },
    {
      "inputs": [
        {
          "internalType": "address[]",
          "name": "_signers",
          "type": "address[]"
        },
        {
          "internalType": "bytes[]",
          "name": "_signatures",
          "type": "bytes[]"
        },
        {
          "internalType": "address",
          "name": "_target",
          "type": "address"
        },
        {
          "internalType": "uint256",
          "name": "_value",
          "type": "uint256"
        },
        {
          "internalType": "bytes",
          "name": "_data",
          "type": "bytes"
        }
      ],
      "name": "submitTransaction",
      "outputs": [],
      "stateMutability": "payable",
      "type": "function"
    }
  ],
  "transactionHash": "0xb94ef144bb46462a3b3857361d8c54ff66903049d4ca9f5669092429f52c5150",
  "args": [
    1,
    [
      "0x8E016C3BaD9953f53c1f5EC56F98d243047b5B95"
    ]
  ],
  "numDeployments": 1,
  "solcInputHash": "a356a9c90ed5894267f8961b30cc53a2",
  "bytecode": "0x6040608081523461027257610af5908138038061001b8161028d565b93843982019181818403126102725780519160208083015160018060401b0393848211610272570194601f95818782011215610272578051948511610277578460051b90838061006c81850161028d565b809881520192820101928311610272578301905b8282106102535750505083156101fd57838351106101b0576000938455835b835181101561019d576001600160a01b03806100bb83876102b2565b51161561015b57806100cd83876102b2565b5116865260019081845260ff8588205416610126576100ec83876102b2565b51168652808352838620805460ff1916909117905560001981146101125760010161009f565b634e487b7160e01b85526011600452602485fd5b845162461bcd60e51b815260048101859052600e60248201526d7369676e6572206578697374732160901b6044820152606490fd5b6064838886519162461bcd60e51b8352600483015260248201527f5f7369676e65727320636f6e7461696e73207a65726f206164647265737321006044820152fd5b8284516002555161081890816102dd8239f35b608491519062461bcd60e51b82526004820152602260248201527f5f72657175697265645369676e657273203e205f7369676e6572732e6c656e676044820152610e8d60f31b6064820152fd5b608491519062461bcd60e51b82526004820152602b60248201527f5f72657175697265645369676e657273206d757374206265206772656174657260448201526a207468616e207a65726f2160a81b6064820152fd5b81516001600160a01b0381168103610272578152908301908301610080565b600080fd5b634e487b7160e01b600052604160045260246000fd5b6040519190601f01601f191682016001600160401b0381118382101761027757604052565b80518210156102c65760209160051b010190565b634e487b7160e01b600052603260045260246000fdfe608080604052600436101561001357600080fd5b60003560e01c908163081385ed146105cf57508063736c0d5b1461058c578063a3ec97a114610097578063cf6635a1146100795763e40956b11461005657600080fd5b34610074576000366003190112610074576020600254604051908152f35b600080fd5b34610074576000366003190112610074576020600054604051908152f35b60a03660031901126100745760043567ffffffffffffffff8111610074576100c390369060040161061d565b9060243567ffffffffffffffff8111610074576100e490369060040161061d565b91906044356001600160a01b0381169003610074576084359367ffffffffffffffff851161007457366023860112156100745767ffffffffffffffff85600401351161007457366024866004013587010111610074579291906040514660208201523060601b604082015263a3ec97a160e01b60548201526bffffffffffffffffffffffff1960443560601b166058820152606435606c820152856004013560248701608c8301376101ad608c828860040135810160008382015203606c81018452018261064e565b602081519101207f19457468657265756d205369676e6564204d6573736167653a0a333200000000600052601c52603c6000206000946000945b8186106102ac5787876000541161027457600080916040518181926004013560248201833760040135810183815203906064356044355af16102276106eb565b501561022f57005b60405162461bcd60e51b815260206004820152601960248201527f7472616e73616374696f6e2063616c6c206661696c75726521000000000000006044820152606490fd5b60405162461bcd60e51b815260206004820152601060248201526f72657175697265645369676e6572732160801b6044820152606490fd5b909192939495836000526003602052604060002060018060a01b036102da6102d58a878b6106ab565b6106bb565b1660005260205260ff60406000205416610547576102fc6102d58885896106ab565b82881015610531578760051b860135601e19873603018112156100745767ffffffffffffffff8188013511610074578087013536036020828901011361007457610348818801356106cf565b90610356604051928361064e565b878101803580845236910160200111610074576020816000928a013582828c0101838601378901358301015261038c818761071b565b600581949294101561051b57159283610505575b508215610439575b5050156104075760008481526003602052604090206103fd916103f7916001600160a01b036103db6102d58c898d6106ab565b166000526020526040600020600160ff19825416179055610686565b96610686565b94939291906101e7565b60405162461bcd60e51b815260206004820152600a6024820152697369676e61747572652160b01b6044820152606490fd5b90915060405191630b135d3f60e11b60208401528660248401526040604484015280519081606485015260005b8281106104ef575050916000929161049a608483858783819884010152601f8019910116810103606481018552018361064e565b602082519201905afa6104ab6106eb565b816104e1575b816104bf575b5089806103a8565b90506020818051810103126100745760200151630b135d3f60e11b14896104b7565b9050602081511015906104b1565b8060208092840101516084828801015201610466565b6001600160a01b0382811691161492508b6103a0565b634e487b7160e01b600052602160045260246000fd5b634e487b7160e01b600052603260045260246000fd5b60405162461bcd60e51b815260206004820152601760248201527f7369676e617475726520616c72656164792075736564210000000000000000006044820152606490fd5b34610074576020366003190112610074576004356001600160a01b03811690819003610074576000526001602052602060ff604060002054166040519015158152f35b34610074576040366003190112610074576024356001600160a01b03811691908290036100745760209160043560005260038352604060002090600052825260ff6040600020541615158152f35b9181601f840112156100745782359167ffffffffffffffff8311610074576020808501948460051b01011161007457565b90601f8019910116810190811067ffffffffffffffff82111761067057604052565b634e487b7160e01b600052604160045260246000fd5b60001981146106955760010190565b634e487b7160e01b600052601160045260246000fd5b91908110156105315760051b0190565b356001600160a01b03811681036100745790565b67ffffffffffffffff811161067057601f01601f191660200190565b3d15610716573d906106fc826106cf565b9161070a604051938461064e565b82523d6000602084013e565b606090565b90604181511460001461074957610745916020820151906060604084015193015160001a90610753565b9091565b5050600090600290565b9291907f7fffffffffffffffffffffffffffffff5d576e7357a4501ddfe92f46681b20a083116107d65791608094939160ff602094604051948552168484015260408301526060820152600093849182805260015afa156107c95781516001600160a01b038116156107c3579190565b50600190565b50604051903d90823e3d90fd5b5050505060009060039056fea2646970667358221220b950e1af2b188374b6e86335dd1a8e609093701e6be68b3b923955130ee76ab164736f6c63430008120033",
  "devdoc": {
    "kind": "dev",
    "methods": {},
    "version": 1
  },
  "userdoc": {
    "kind": "user",
    "methods": {
      "alreadyVerified(bytes32,address)": {
        "notice": "Signatures have already been registered"
      }
    },
    "version": 1
  },
  "storageLayout": {
    "storage": [
      {
        "astId": 15648,
        "contract": "contracts/MultisigWallet.sol:MultisigWallet",
        "label": "requiredSignersCount",
        "offset": 0,
        "slot": "0",
        "type": "t_uint256"
      },
      {
        "astId": 15652,
        "contract": "contracts/MultisigWallet.sol:MultisigWallet",
        "label": "signers",
        "offset": 0,
        "slot": "1",
        "type": "t_mapping(t_address,t_bool)"
      },
      {
        "astId": 15654,
        "contract": "contracts/MultisigWallet.sol:MultisigWallet",
        "label": "signersCount",
        "offset": 0,
        "slot": "2",
        "type": "t_uint256"
      },
      {
        "astId": 15661,
        "contract": "contracts/MultisigWallet.sol:MultisigWallet",
        "label": "alreadyVerified",
        "offset": 0,
        "slot": "3",
        "type": "t_mapping(t_bytes32,t_mapping(t_address,t_bool))"
      }
    ],
    "types": {
      "t_address": {
        "encoding": "inplace",
        "label": "address",
        "numberOfBytes": "20"
      },
      "t_bool": {
        "encoding": "inplace",
        "label": "bool",
        "numberOfBytes": "1"
      },
      "t_bytes32": {
        "encoding": "inplace",
        "label": "bytes32",
        "numberOfBytes": "32"
      },
      "t_mapping(t_address,t_bool)": {
        "encoding": "mapping",
        "key": "t_address",
        "label": "mapping(address => bool)",
        "numberOfBytes": "32",
        "value": "t_bool"
      },
      "t_mapping(t_bytes32,t_mapping(t_address,t_bool))": {
        "encoding": "mapping",
        "key": "t_bytes32",
        "label": "mapping(bytes32 => mapping(address => bool))",
        "numberOfBytes": "32",
        "value": "t_mapping(t_address,t_bool)"
      },
      "t_uint256": {
        "encoding": "inplace",
        "label": "uint256",
        "numberOfBytes": "32"
      }
    }
  }
}