{
  "address": "0xdcEADB6A2c0a0b30F80baf561f9165DE13dcbe4B",
  "abi": [
    {
      "inputs": [],
      "stateMutability": "nonpayable",
      "type": "constructor"
    },
    {
      "anonymous": false,
      "inputs": [
        {
          "indexed": false,
          "internalType": "address",
          "name": "previousAdmin",
          "type": "address"
        },
        {
          "indexed": false,
          "internalType": "address",
          "name": "newAdmin",
          "type": "address"
        }
      ],
      "name": "AdminChanged",
      "type": "event"
    },
    {
      "anonymous": false,
      "inputs": [
        {
          "indexed": true,
          "internalType": "address",
          "name": "beacon",
          "type": "address"
        }
      ],
      "name": "BeaconUpgraded",
      "type": "event"
    },
    {
      "anonymous": false,
      "inputs": [
        {
          "indexed": false,
          "internalType": "uint8",
          "name": "version",
          "type": "uint8"
        }
      ],
      "name": "Initialized",
      "type": "event"
    },
    {
      "anonymous": false,
      "inputs": [
        {
          "indexed": true,
          "internalType": "address",
          "name": "implementation",
          "type": "address"
        }
      ],
      "name": "Upgraded",
      "type": "event"
    },
    {
      "inputs": [],
      "name": "addressBook",
      "outputs": [
        {
          "internalType": "contract IAddressBook",
          "name": "",
          "type": "address"
        }
      ],
      "stateMutability": "view",
      "type": "function"
    },
    {
      "inputs": [
        {
          "internalType": "address",
          "name": "_addressBook",
          "type": "address"
        }
      ],
      "name": "initialize",
      "outputs": [],
      "stateMutability": "nonpayable",
      "type": "function"
    },
    {
      "inputs": [],
      "name": "proxiableUUID",
      "outputs": [
        {
          "internalType": "bytes32",
          "name": "",
          "type": "bytes32"
        }
      ],
      "stateMutability": "view",
      "type": "function"
    },
    {
      "inputs": [
        {
          "internalType": "address",
          "name": "newImplementation",
          "type": "address"
        }
      ],
      "name": "upgradeTo",
      "outputs": [],
      "stateMutability": "nonpayable",
      "type": "function"
    },
    {
      "inputs": [
        {
          "internalType": "address",
          "name": "newImplementation",
          "type": "address"
        },
        {
          "internalType": "bytes",
          "name": "data",
          "type": "bytes"
        }
      ],
      "name": "upgradeToAndCall",
      "outputs": [],
      "stateMutability": "payable",
      "type": "function"
    },
    {
      "inputs": [
        {
          "internalType": "address",
          "name": "_token",
          "type": "address"
        },
        {
          "internalType": "uint256",
          "name": "_amount",
          "type": "uint256"
        },
        {
          "internalType": "address",
          "name": "_recipient",
          "type": "address"
        }
      ],
      "name": "withdraw",
      "outputs": [],
      "stateMutability": "nonpayable",
      "type": "function"
    },
    {
      "stateMutability": "payable",
      "type": "receive"
    }
  ],
  "transactionHash": "0x57e326be4c6c4385822b64e5a0ce016ab2cf61bab5edcb79b5bdbe90fbaa58c6",
  "args": [],
  "numDeployments": 1,
  "solcInputHash": "117c4792434d831a7796f5bb4a26410c",
  "bytecode": "0x60a080604052346100dc57306080526000549060ff8260081c1661008a575060ff8082160361004f575b604051610e1b90816100e2823960805181818161041801528181610545015261081a0152f35b60ff90811916176000557f7f26b83ff96e1f2b6a682f133852f6798a09c465da95921460cefb3847402498602060405160ff8152a138610029565b62461bcd60e51b815260206004820152602760248201527f496e697469616c697a61626c653a20636f6e747261637420697320696e697469604482015266616c697a696e6760c81b6064820152608490fd5b600080fdfe60406080815260049081361015610020575b5050361561001e57600080fd5b005b600091823560e01c9081633659cfe6146107f25781634f1ef286146104c857816352d1902d1461040257816369328dec146101d3578163c4d66de814610096575063f5887cdd03610011573461009257816003193601126100925760655490516001600160a01b039091168152602090f35b5080fd5b9050346101cf5760203660031901126101cf576100b1610ad5565b835460ff8160081c1615928380946101c2575b80156101ab575b15610151575060ff198116600117855582610140575b5060018060a01b03166bffffffffffffffffffffffff60a01b606554161760655561010a575080f35b60207f7f26b83ff96e1f2b6a682f133852f6798a09c465da95921460cefb38474024989161ff001984541684555160018152a180f35b61ffff1916610101178455386100e1565b608490602086519162461bcd60e51b8352820152602e60248201527f496e697469616c697a61626c653a20636f6e747261637420697320616c72656160448201526d191e481a5b9a5d1a585b1a5e995960921b6064820152fd5b50303b1580156100cb5750600160ff8316146100cb565b50600160ff8316106100c4565b8280fd5b919050346101cf5760603660031901126101cf576101ef610ad5565b602491908235906044356001600160a01b03808216908183036103fd5788938160655416803b156103f957858a8a8a51809481936335de892960e21b835233908301525afa80156103ef579086916103db575b505016908161029d57505081809381925af161025c610cc1565b50156102685750505080f35b606492916020601092519362461bcd60e51b85528401528201526f7472616e73666572206661696c65642160801b6044820152fd5b91509150835192602084019163a9059cbb60e01b835286850152604484015260448352608083019267ffffffffffffffff818510818611176103c75760c08201908111858210176103c7578552602084527f5361666545524332303a206c6f772d6c6576656c2063616c6c206661696c656460a0820152516103319392918891829182855af161032b610cc1565b91610cf1565b80519081159182156103a0575b50501561034b5750505080f35b608492916020602a92519362461bcd60e51b85528401528201527f5361666545524332303a204552433230206f7065726174696f6e20646964206e6044820152691bdd081cdd58d8d9595960b21b6064820152fd5b81925090602091810103126103c3576020015180151581036103c357388061033e565b8480fd5b86604189634e487b7160e01b600052526000fd5b6103e490610aeb565b6103c3578438610242565b88513d88823e3d90fd5b8580fd5b600080fd5b905082346104c557806003193601126104c557507f00000000000000000000000000000000000000000000000000000000000000006001600160a01b0316300361045d5760208251600080516020610dc68339815191528152f35b6020608492519162461bcd60e51b8352820152603860248201527f555550535570677261646561626c653a206d757374206e6f742062652063616c60448201527f6c6564207468726f7567682064656c656761746563616c6c00000000000000006064820152fd5b80fd5b83915082600319360112610092576104de610ad5565b9060249384359067ffffffffffffffff82116103c357366023830112156103c357818301359161050d83610b53565b61051983519182610b31565b83815260209384820192368a83830101116107e0578189928b8893018637830101526001600160a01b037f000000000000000000000000000000000000000000000000000000000000000081169061057330831415610b6f565b610590600080516020610dc6833981519152928284541614610bd0565b8060655416803b156107ee57898b918751928380926335de892960e21b8252338d8301525afa80156107e457908a916107cc575b50507f4910fdfa16fed3260ed0e7147f7cc6da11a60208b5b9406d12a635614ffd91435460ff16156106055750505050505050610602919250610c31565b80f35b87939496989597169086516352d1902d60e01b815288818b81865afa6000918161079d575b5061068857875162461bcd60e51b8152808b018a9052602e818d01527f45524331393637557067726164653a206e657720696d706c656d656e7461746960448201526d6f6e206973206e6f74205555505360901b6064820152608490fd5b999193969498929599036107495750506106a184610c31565b7fbc7cd75a20ee27fd9adebab32041f755214dbc6bffa90cc0225b39da2e5c2d3b600080a2815115801590610741575b6106de575b505050505080f35b61073694600092660819985a5b195960ca1b837f416464726573733a206c6f772d6c6576656c2064656c65676174652063616c6c8695519861071f8a610b15565b60278a528901528701525190845af461032b610cc1565b5081808080806106d6565b5060016106d1565b835162461bcd60e51b81529182018790526029908201527f45524331393637557067726164653a20756e737570706f727465642070726f786044820152681a58589b195555525160ba1b6064820152608490fd5b90918a82813d83116107c5575b6107b48183610b31565b810103126104c5575051908c61062a565b503d6107aa565b6107d590610aeb565b6107e057888b6105c4565b8880fd5b86513d8c823e3d90fd5b8980fd5b919050346101cf57602080600319360112610ad15761080f610ad5565b916001600160a01b037f0000000000000000000000000000000000000000000000000000000000000000811661084730821415610b6f565b610864600080516020610dc6833981519152918383541614610bd0565b816065541687813b156104c55784516335de892960e21b8152338982015291829060249082905afa8015610ac757610ab4575b508251908482019282841067ffffffffffffffff851117610a9f578385528883527f4910fdfa16fed3260ed0e7147f7cc6da11a60208b5b9406d12a635614ffd91435460ff16156108f2575050505050506106029150610c31565b8693949596169085516352d1902d60e01b815287818a81865afa60009181610a70575b5061097457865162461bcd60e51b8152808a01899052602e60248201527f45524331393637557067726164653a206e657720696d706c656d656e7461746960448201526d6f6e206973206e6f74205555505360901b6064820152608490fd5b979192949795939503610a1b575061098b84610c31565b7fbc7cd75a20ee27fd9adebab32041f755214dbc6bffa90cc0225b39da2e5c2d3b600080a2815115801590610a13575b6109c757505050505080f35b610a0894600092660819985a5b195960ca1b837f416464726573733a206c6f772d6c6576656c2064656c65676174652063616c6c8695519861071f8a610b15565b5038808080806106d6565b5060006109bb565b825162461bcd60e51b8152908101869052602960248201527f45524331393637557067726164653a20756e737570706f727465642070726f786044820152681a58589b195555525160ba1b6064820152608490fd5b90918982813d8311610a98575b610a878183610b31565b810103126104c55750519038610915565b503d610a7d565b604188634e487b7160e01b6000525260246000fd5b610ac090979197610aeb565b9538610897565b84513d8a823e3d90fd5b8380fd5b600435906001600160a01b03821682036103fd57565b67ffffffffffffffff8111610aff57604052565b634e487b7160e01b600052604160045260246000fd5b6060810190811067ffffffffffffffff821117610aff57604052565b90601f8019910116810190811067ffffffffffffffff821117610aff57604052565b67ffffffffffffffff8111610aff57601f01601f191660200190565b15610b7657565b60405162461bcd60e51b815260206004820152602c60248201527f46756e6374696f6e206d7573742062652063616c6c6564207468726f7567682060448201526b19195b1959d85d1958d85b1b60a21b6064820152608490fd5b15610bd757565b60405162461bcd60e51b815260206004820152602c60248201527f46756e6374696f6e206d7573742062652063616c6c6564207468726f7567682060448201526b6163746976652070726f787960a01b6064820152608490fd5b803b15610c6657600080516020610dc683398151915280546001600160a01b0319166001600160a01b03909216919091179055565b60405162461bcd60e51b815260206004820152602d60248201527f455243313936373a206e657720696d706c656d656e746174696f6e206973206e60448201526c1bdd08184818dbdb9d1c9858dd609a1b6064820152608490fd5b3d15610cec573d90610cd282610b53565b91610ce06040519384610b31565b82523d6000602084013e565b606090565b91929015610d535750815115610d05575090565b3b15610d0e5790565b60405162461bcd60e51b815260206004820152601d60248201527f416464726573733a2063616c6c20746f206e6f6e2d636f6e74726163740000006044820152606490fd5b825190915015610d665750805190602001fd5b6040519062461bcd60e51b82528160208060048301528251908160248401526000935b828510610dac575050604492506000838284010152601f80199101168101030190fd5b8481018201518686016044015293810193859350610d8956fe360894a13ba1a3210667c828492db98dca3e2076cc3735a920a3ca505d382bbca26469706673582212209119e0bd7673525dafcdf468fb2197e88d478fe639440eec1ec4330b1332d47d64736f6c63430008120033",
  "devdoc": {
    "events": {
      "AdminChanged(address,address)": {
        "details": "Emitted when the admin account has changed."
      },
      "BeaconUpgraded(address)": {
        "details": "Emitted when the beacon is changed."
      },
      "Initialized(uint8)": {
        "details": "Triggered when the contract has been initialized or reinitialized."
      },
      "Upgraded(address)": {
        "details": "Emitted when the implementation is upgraded."
      }
    },
    "kind": "dev",
    "methods": {
      "proxiableUUID()": {
        "details": "Implementation of the ERC1822 {proxiableUUID} function. This returns the storage slot used by the implementation. It is used to validate the implementation's compatibility when performing an upgrade. IMPORTANT: A proxy pointing at a proxiable contract should not be considered proxiable itself, because this risks bricking a proxy that upgrades to it, by delegating to itself until out of gas. Thus it is critical that this function revert if invoked through a proxy. This is guaranteed by the `notDelegated` modifier."
      },
      "upgradeTo(address)": {
        "custom:oz-upgrades-unsafe-allow-reachable": "delegatecall",
        "details": "Upgrade the implementation of the proxy to `newImplementation`. Calls {_authorizeUpgrade}. Emits an {Upgraded} event."
      },
      "upgradeToAndCall(address,bytes)": {
        "custom:oz-upgrades-unsafe-allow-reachable": "delegatecall",
        "details": "Upgrade the implementation of the proxy to `newImplementation`, and subsequently execute the function call encoded in `data`. Calls {_authorizeUpgrade}. Emits an {Upgraded} event."
      }
    },
    "version": 1
  },
  "userdoc": {
    "kind": "user",
    "methods": {},
    "version": 1
  },
  "storageLayout": {
    "storage": [
      {
        "astId": 505,
        "contract": "contracts/Treasury.sol:Treasury",
        "label": "_initialized",
        "offset": 0,
        "slot": "0",
        "type": "t_uint8"
      },
      {
        "astId": 508,
        "contract": "contracts/Treasury.sol:Treasury",
        "label": "_initializing",
        "offset": 1,
        "slot": "0",
        "type": "t_bool"
      },
      {
        "astId": 487,
        "contract": "contracts/Treasury.sol:Treasury",
        "label": "__gap",
        "offset": 0,
        "slot": "1",
        "type": "t_array(t_uint256)50_storage"
      },
      {
        "astId": 803,
        "contract": "contracts/Treasury.sol:Treasury",
        "label": "__gap",
        "offset": 0,
        "slot": "51",
        "type": "t_array(t_uint256)50_storage"
      },
      {
        "astId": 6463,
        "contract": "contracts/Treasury.sol:Treasury",
        "label": "addressBook",
        "offset": 0,
        "slot": "101",
        "type": "t_contract(IAddressBook)6586"
      }
    ],
    "types": {
      "t_array(t_uint256)50_storage": {
        "base": "t_uint256",
        "encoding": "inplace",
        "label": "uint256[50]",
        "numberOfBytes": "1600"
      },
      "t_bool": {
        "encoding": "inplace",
        "label": "bool",
        "numberOfBytes": "1"
      },
      "t_contract(IAddressBook)6586": {
        "encoding": "inplace",
        "label": "contract IAddressBook",
        "numberOfBytes": "20"
      },
      "t_uint256": {
        "encoding": "inplace",
        "label": "uint256",
        "numberOfBytes": "32"
      },
      "t_uint8": {
        "encoding": "inplace",
        "label": "uint8",
        "numberOfBytes": "1"
      }
    }
  }
}