{
  "address": "0x695fbf59141886a427eF0dB5e7aE099934b31b4F",
  "abi": [
    {
      "inputs": [],
      "stateMutability": "nonpayable",
      "type": "constructor"
    },
    {
      "anonymous": false,
      "inputs": [
        {
          "indexed": false,
          "internalType": "address",
          "name": "previousAdmin",
          "type": "address"
        },
        {
          "indexed": false,
          "internalType": "address",
          "name": "newAdmin",
          "type": "address"
        }
      ],
      "name": "AdminChanged",
      "type": "event"
    },
    {
      "anonymous": false,
      "inputs": [
        {
          "indexed": true,
          "internalType": "address",
          "name": "beacon",
          "type": "address"
        }
      ],
      "name": "BeaconUpgraded",
      "type": "event"
    },
    {
      "anonymous": false,
      "inputs": [
        {
          "indexed": false,
          "internalType": "uint8",
          "name": "version",
          "type": "uint8"
        }
      ],
      "name": "Initialized",
      "type": "event"
    },
    {
      "anonymous": false,
      "inputs": [
        {
          "indexed": true,
          "internalType": "bytes32",
          "name": "transferId",
          "type": "bytes32"
        },
        {
          "indexed": false,
          "internalType": "uint256",
          "name": "externalNonce",
          "type": "uint256"
        },
        {
          "indexed": false,
          "internalType": "uint256",
          "name": "originalChain",
          "type": "uint256"
        },
        {
          "indexed": false,
          "internalType": "address",
          "name": "originalToken",
          "type": "address"
        },
        {
          "indexed": false,
          "internalType": "uint256",
          "name": "initialChain",
          "type": "uint256"
        },
        {
          "indexed": false,
          "internalType": "uint256",
          "name": "targetChain",
          "type": "uint256"
        },
        {
          "indexed": false,
          "internalType": "uint256",
          "name": "amount",
          "type": "uint256"
        },
        {
          "indexed": false,
          "internalType": "address",
          "name": "sender",
          "type": "address"
        },
        {
          "indexed": false,
          "internalType": "address",
          "name": "recipient",
          "type": "address"
        }
      ],
      "name": "TransferFromOtherChain",
      "type": "event"
    },
    {
      "anonymous": false,
      "inputs": [
        {
          "indexed": true,
          "internalType": "bytes32",
          "name": "transferId",
          "type": "bytes32"
        },
        {
          "indexed": false,
          "internalType": "uint256",
          "name": "nonce",
          "type": "uint256"
        },
        {
          "indexed": false,
          "internalType": "uint256",
          "name": "initialChain",
          "type": "uint256"
        },
        {
          "indexed": false,
          "internalType": "uint256",
          "name": "originalChain",
          "type": "uint256"
        },
        {
          "indexed": false,
          "internalType": "address",
          "name": "originalTokenAddress",
          "type": "address"
        },
        {
          "indexed": false,
          "internalType": "uint256",
          "name": "targetChain",
          "type": "uint256"
        },
        {
          "indexed": false,
          "internalType": "uint256",
          "name": "tokenAmount",
          "type": "uint256"
        },
        {
          "indexed": false,
          "internalType": "address",
          "name": "sender",
          "type": "address"
        },
        {
          "indexed": false,
          "internalType": "address",
          "name": "recipient",
          "type": "address"
        },
        {
          "indexed": false,
          "internalType": "string",
          "name": "tokenName",
          "type": "string"
        },
        {
          "indexed": false,
          "internalType": "string",
          "name": "tokenSymbol",
          "type": "string"
        },
        {
          "indexed": false,
          "internalType": "uint8",
          "name": "tokenDecimals",
          "type": "uint8"
        }
      ],
      "name": "TransferToOtherChain",
      "type": "event"
    },
    {
      "anonymous": false,
      "inputs": [
        {
          "indexed": true,
          "internalType": "address",
          "name": "implementation",
          "type": "address"
        }
      ],
      "name": "Upgraded",
      "type": "event"
    },
    {
      "inputs": [],
      "name": "addressBook",
      "outputs": [
        {
          "internalType": "contract IAddressBook",
          "name": "",
          "type": "address"
        }
      ],
      "stateMutability": "view",
      "type": "function"
    },
    {
      "inputs": [
        {
          "internalType": "bytes32",
          "name": "",
          "type": "bytes32"
        }
      ],
      "name": "alreadyVerified",
      "outputs": [
        {
          "internalType": "bool",
          "name": "",
          "type": "bool"
        }
      ],
      "stateMutability": "view",
      "type": "function"
    },
    {
      "inputs": [
        {
          "internalType": "uint256",
          "name": "_originalChain",
          "type": "uint256"
        },
        {
          "internalType": "address",
          "name": "_originalToken",
          "type": "address"
        },
        {
          "internalType": "address",
          "name": "_account",
          "type": "address"
        }
      ],
      "name": "balances",
      "outputs": [
        {
          "internalType": "uint256",
          "name": "",
          "type": "uint256"
        }
      ],
      "stateMutability": "view",
      "type": "function"
    },
    {
      "inputs": [],
      "name": "currentChain",
      "outputs": [
        {
          "internalType": "uint256",
          "name": "",
          "type": "uint256"
        }
      ],
      "stateMutability": "view",
      "type": "function"
    },
    {
      "inputs": [
        {
          "internalType": "uint256",
          "name": "_originalChain",
          "type": "uint256"
        },
        {
          "internalType": "address",
          "name": "_originalToken",
          "type": "address"
        }
      ],
      "name": "getIssuedTokenAddress",
      "outputs": [
        {
          "internalType": "address",
          "name": "",
          "type": "address"
        }
      ],
      "stateMutability": "view",
      "type": "function"
    },
    {
      "inputs": [
        {
          "internalType": "uint256",
          "name": "_nonce",
          "type": "uint256"
        },
        {
          "internalType": "uint256",
          "name": "_initialChain",
          "type": "uint256"
        }
      ],
      "name": "getTranferId",
      "outputs": [
        {
          "internalType": "bytes32",
          "name": "",
          "type": "bytes32"
        }
      ],
      "stateMutability": "pure",
      "type": "function"
    },
    {
      "inputs": [
        {
          "internalType": "uint256",
          "name": "_nonce",
          "type": "uint256"
        },
        {
          "internalType": "uint256",
          "name": "_initialChain",
          "type": "uint256"
        }
      ],
      "name": "getTransferId",
      "outputs": [
        {
          "internalType": "bytes32",
          "name": "",
          "type": "bytes32"
        }
      ],
      "stateMutability": "pure",
      "type": "function"
    },
    {
      "inputs": [],
      "name": "initBlock",
      "outputs": [
        {
          "internalType": "uint256",
          "name": "",
          "type": "uint256"
        }
      ],
      "stateMutability": "view",
      "type": "function"
    },
    {
      "inputs": [
        {
          "internalType": "address",
          "name": "_addressBook",
          "type": "address"
        },
        {
          "internalType": "bool",
          "name": "_isProxyChain",
          "type": "bool"
        },
        {
          "internalType": "string",
          "name": "_nativeName",
          "type": "string"
        },
        {
          "internalType": "string",
          "name": "_nativeSymbol",
          "type": "string"
        },
        {
          "internalType": "uint8",
          "name": "_nativeDecimals",
          "type": "uint8"
        },
        {
          "internalType": "uint256",
          "name": "_nativeTransferGasLimit",
          "type": "uint256"
        }
      ],
      "name": "initialize",
      "outputs": [],
      "stateMutability": "nonpayable",
      "type": "function"
    },
    {
      "inputs": [
        {
          "internalType": "address",
          "name": "_issuedToken",
          "type": "address"
        }
      ],
      "name": "isIssuedTokenPublished",
      "outputs": [
        {
          "internalType": "bool",
          "name": "",
          "type": "bool"
        }
      ],
      "stateMutability": "view",
      "type": "function"
    },
    {
      "inputs": [],
      "name": "isProxyChain",
      "outputs": [
        {
          "internalType": "bool",
          "name": "",
          "type": "bool"
        }
      ],
      "stateMutability": "view",
      "type": "function"
    },
    {
      "inputs": [],
      "name": "issuedTokenImplementation",
      "outputs": [
        {
          "internalType": "address",
          "name": "",
          "type": "address"
        }
      ],
      "stateMutability": "view",
      "type": "function"
    },
    {
      "inputs": [
        {
          "internalType": "address",
          "name": "",
          "type": "address"
        }
      ],
      "name": "issuedTokens",
      "outputs": [
        {
          "internalType": "bool",
          "name": "",
          "type": "bool"
        }
      ],
      "stateMutability": "view",
      "type": "function"
    },
    {
      "inputs": [],
      "name": "nativeDecimals",
      "outputs": [
        {
          "internalType": "uint8",
          "name": "",
          "type": "uint8"
        }
      ],
      "stateMutability": "view",
      "type": "function"
    },
    {
      "inputs": [],
      "name": "nativeName",
      "outputs": [
        {
          "internalType": "string",
          "name": "",
          "type": "string"
        }
      ],
      "stateMutability": "view",
      "type": "function"
    },
    {
      "inputs": [],
      "name": "nativeSymbol",
      "outputs": [
        {
          "internalType": "string",
          "name": "",
          "type": "string"
        }
      ],
      "stateMutability": "view",
      "type": "function"
    },
    {
      "inputs": [],
      "name": "nativeTransferGasLimit",
      "outputs": [
        {
          "internalType": "uint256",
          "name": "",
          "type": "uint256"
        }
      ],
      "stateMutability": "view",
      "type": "function"
    },
    {
      "inputs": [],
      "name": "nonce",
      "outputs": [
        {
          "internalType": "uint256",
          "name": "",
          "type": "uint256"
        }
      ],
      "stateMutability": "view",
      "type": "function"
    },
    {
      "inputs": [],
      "name": "proxiableUUID",
      "outputs": [
        {
          "internalType": "bytes32",
          "name": "",
          "type": "bytes32"
        }
      ],
      "stateMutability": "view",
      "type": "function"
    },
    {
      "inputs": [
        {
          "internalType": "uint256",
          "name": "",
          "type": "uint256"
        },
        {
          "internalType": "uint256",
          "name": "",
          "type": "uint256"
        }
      ],
      "name": "registeredNonces",
      "outputs": [
        {
          "internalType": "bool",
          "name": "",
          "type": "bool"
        }
      ],
      "stateMutability": "view",
      "type": "function"
    },
    {
      "inputs": [
        {
          "internalType": "bool",
          "name": "_value",
          "type": "bool"
        }
      ],
      "name": "setIsProxyChain",
      "outputs": [],
      "stateMutability": "nonpayable",
      "type": "function"
    },
    {
      "inputs": [
        {
          "internalType": "uint256",
          "name": "_externalNonce",
          "type": "uint256"
        },
        {
          "internalType": "uint256",
          "name": "_originalChain",
          "type": "uint256"
        },
        {
          "internalType": "address",
          "name": "_originalToken",
          "type": "address"
        },
        {
          "internalType": "uint256",
          "name": "_initialChain",
          "type": "uint256"
        },
        {
          "internalType": "uint256",
          "name": "_targetChain",
          "type": "uint256"
        },
        {
          "internalType": "uint256",
          "name": "_amount",
          "type": "uint256"
        },
        {
          "internalType": "address",
          "name": "_sender",
          "type": "address"
        },
        {
          "internalType": "address",
          "name": "_recipient",
          "type": "address"
        },
        {
          "components": [
            {
              "internalType": "string",
              "name": "name",
              "type": "string"
            },
            {
              "internalType": "string",
              "name": "symbol",
              "type": "string"
            },
            {
              "internalType": "uint8",
              "name": "decimals",
              "type": "uint8"
            }
          ],
          "internalType": "struct BridgeERC20.TokenInfo",
          "name": "_tokenInfo",
          "type": "tuple"
        }
      ],
      "name": "tranferFromOtherChain",
      "outputs": [],
      "stateMutability": "nonpayable",
      "type": "function"
    },
    {
      "inputs": [
        {
          "internalType": "address",
          "name": "_transferedToken",
          "type": "address"
        },
        {
          "internalType": "uint256",
          "name": "_amount",
          "type": "uint256"
        },
        {
          "internalType": "uint256",
          "name": "_targetChain",
          "type": "uint256"
        },
        {
          "internalType": "address",
          "name": "_recipient",
          "type": "address"
        },
        {
          "internalType": "address",
          "name": "_feeToken",
          "type": "address"
        },
        {
          "internalType": "uint256",
          "name": "_fees",
          "type": "uint256"
        },
        {
          "internalType": "uint256",
          "name": "_signatureExpired",
          "type": "uint256"
        },
        {
          "internalType": "bytes",
          "name": "_signature",
          "type": "bytes"
        }
      ],
      "name": "tranferToOtherChain",
      "outputs": [],
      "stateMutability": "payable",
      "type": "function"
    },
    {
      "inputs": [
        {
          "internalType": "address",
          "name": "newImplementation",
          "type": "address"
        }
      ],
      "name": "upgradeTo",
      "outputs": [],
      "stateMutability": "nonpayable",
      "type": "function"
    },
    {
      "inputs": [
        {
          "internalType": "address",
          "name": "newImplementation",
          "type": "address"
        },
        {
          "internalType": "bytes",
          "name": "data",
          "type": "bytes"
        }
      ],
      "name": "upgradeToAndCall",
      "outputs": [],
      "stateMutability": "payable",
      "type": "function"
    }
  ],
  "transactionHash": "0x4406350c72996ebc8b6de6c25da7d42998cf7787cad75b4708ff9bd9f7b1e4f1",
  "args": [],
  "numDeployments": 1,
  "solcInputHash": "b028a432ffc784d1bf19e743868a3529",
  "bytecode": "0x60a080604052346100dd57306080526000549060ff8260081c1661008b575060ff80821603610050575b604051614f7b9081620000e38239608051818181610fa0015281816110a901526115080152f35b60ff90811916176000557f7f26b83ff96e1f2b6a682f133852f6798a09c465da95921460cefb3847402498602060405160ff8152a138610029565b62461bcd60e51b815260206004820152602760248201527f496e697469616c697a61626c653a20636f6e747261637420697320696e697469604482015266616c697a696e6760c81b6064820152608490fd5b600080fdfe60808060405260043610156200001457600080fd5b600090813560e01c9081630a3defbc146200173357508063101c575a14620017085780633220186114620008ab5780633659cfe614620014df5780633d5006c314620014a05780633da998fa14620014085780633fd71fc014620013c8578063457322b9146200081657806348b4fa5814620013a35780634eb374eb146200136e5780634f1ef286146200105357806352d1902d1462000f8b5780635d05125b1462000f6b57806373151a2614620008d4578063768ea56a14620008b15780637782565d14620008ab5780637fedad55146200088a578063852331ae1462000859578063a0b498a41462000816578063affed0e014620007f6578063c8fa08fa146200075a578063d6317526146200073a578063dc4a4b051462000260578063dfe70cef146200017b5763f5887cdd146200014e57600080fd5b3462000178578060031936011262000178576065546040516001600160a01b039091168152602090f35b80fd5b503462000178578060031936011262000178576040516000606c54620001a18162002379565b80845290600190818116908115620002375750600114620001e9575b620001e584620001d081860382620022ff565b604051918291602083526020830190620024a5565b0390f35b606c6000908152925060008051602062004ee68339815191525b8284106200021e575050508101602001620001d082620001bd565b8054602085870181019190915290930192810162000203565b60ff191660208087019190915292151560051b85019092019250620001d09150839050620001bd565b5034620001785760c036600319011262000178576200027e62002223565b6024359081151580920362000735576001600160401b036044358181116200073157620002b0903690600401620024cc565b906064358181116200072d57620002cc903690600401620024cc565b906084359260ff8416809403620007295786549260ff8460081c1615958680976200071b575b801562000702575b15620006a65760019760ff1995888a888316178c5562000694575b5060018060a01b0390816001600160601b0360a01b931683606554161760655543606b5560ff87606754169116176067556040516118408082019082821088831117620006805790829162002d7a833903908bf0801562000675571690606a541617606a55815183811162000661578062000392606c5462002379565b93601f94858111620005ff575b506020908583116001146200058c578b9262000580575b5050600019600383901b1c191690881b17606c555b80519283116200056c57908291620003e5606d5462002379565b828111620004f7575b5060209183116001146200047357889262000467575b5050600019600383901b1c191690851b17606d555b606e541617606e5560a435606f5562000430575080f35b60207f7f26b83ff96e1f2b6a682f133852f6798a09c465da95921460cefb38474024989161ff00198454168455604051908152a180f35b01519050388062000404565b606d89528793507f5006b838207c6a9ae9b84d68f467dd4bb5c305fbfb6b04eab8faaabeec1e18d89190601f1984168a5b818110620004de57508411620004c4575b505050811b01606d5562000419565b015160001960f88460031b161c19169055388080620004b5565b8284015185558a969094019360209384019301620004a4565b90919250606d89527f5006b838207c6a9ae9b84d68f467dd4bb5c305fbfb6b04eab8faaabeec1e18d88380860160051c8201926020871062000562575b9186958b929594930160051c01915b82811062000553575050620003ee565b8b81558695508a910162000543565b9250819262000534565b634e487b7160e01b88526041600452602488fd5b015190503880620003b6565b606c8c528a935060008051602062004ee68339815191529190601f1984168d5b818110620005e657508411620005cc575b505050811b01606c55620003cb565b015160001960f88460031b161c19169055388080620005bd565b8284015185558d969094019360209384019301620005ac565b909150606c8b5260008051602062004ee68339815191528580850160051c8201926020861062000657575b918c91869594930160051c01915b828110620006485750506200039f565b8d81558594508c910162000638565b925081926200062a565b634e487b7160e01b89526041600452602489fd5b6040513d8c823e3d90fd5b634e487b7160e01b8d52604160045260248dfd5b61ffff1916610101178a553862000315565b60405162461bcd60e51b815260206004820152602e60248201527f496e697469616c697a61626c653a20636f6e747261637420697320616c72656160448201526d191e481a5b9a5d1a585b1a5e995960921b6064820152608490fd5b50303b158015620002fa5750600160ff861614620002fa565b50600160ff861610620002f2565b8680fd5b8580fd5b8480fd5b600080fd5b503462000178578060031936011262000178576020606f54604051908152f35b5034620001785760203660031901126200017857600435801515809103620007355760655482906001600160a01b0316803b15620007e75781602491604051928380926335de892960e21b82523360048301525afa8015620007eb57620007cf575b505060ff80196067541691161760675580f35b620007da906200229d565b620007e7578138620007bc565b5080fd5b6040513d84823e3d90fd5b503462000178578060031936011262000178576020606654604051908152f35b503462000178576020366003190112620001785760209060ff906040906001600160a01b036200084562002223565b168152606884522054166040519015158152f35b503462000178576020366003190112620001785760ff60406020926004358152607084522054166040519015158152f35b50346200017857806003193601126200017857620001e5620001d0620023b6565b6200227f565b50346200017857806003193601126200017857602060ff606e5416604051908152f35b5034620001785760031961012036820112620007e757620008f462002251565b9060c4356001600160a01b0381168103620007355760e435906001600160a01b0382168203620007355761010435926001600160401b0384116200072d576060908436030112620007315760655485906001600160a01b0316803b15620007e75760405163d4b4ea9160e01b81523360048201526024929182908290859082905afa8015620007eb5762000f53575b50506064358652606960205260408620600435875260205260ff60408720541662000f01576064358652606960205260408620600435875260205260408620600160ff19825416179055466064351462000eab57466084350362000c51578581359485461460001462000b735750506001600160a01b0385168062000af057508580808060a43560018060a01b038816606f54f162000a2162002643565b501562000aac575091610100917fe0740a4b2f96f73d6333882f9580492b96423abe89471513c9bdb41972e8f293935b62000a616064356004356200271b565b60408051600435815260208101959095526001600160a01b03978816908501526064356060850152608435608085015260a43560a085015290861660c0840152941660e0820152a280f35b606490601e6040519162461bcd60e51b8352602060048401528201527f6661696c6564207472616e73666572206e617469766520746f6b656e732100006044820152fd5b6040805163a9059cbb60e01b6020808301919091526001600160a01b03871694820194855260a435908501527fe0740a4b2f96f73d6333882f9580492b96423abe89471513c9bdb41972e8f293966101009690959094909362000b6d93909162000b67918491015b03601f198101845283620022ff565b6200283e565b62000a51565b9394939091506001600160a01b0362000b8d87866200298c565b1690818352606860205260ff6040842054161562000c39575b50803b15620007e7576040516340c10f1960e01b81526001600160a01b038616600482015260a43560248201529082908290604490829084905af18015620007eb5762000c1d575b5050907fe0740a4b2f96f73d6333882f9580492b96423abe89471513c9bdb41972e8f293926101009262000a51565b62000c2b909392936200229d565b620007315790843862000bee565b62000c4990600401878662002a6f565b503862000ba6565b9060ff606795939554161562000e6757856001600160a01b0362000c778585356200298c565b16808252606860205260ff6040832054161562000e4f575b60843584350362000dce57803b15620007e757604051632770a7eb60e21b815230600482015260a43560248201529082908290604490829084905af18015620007eb5762000db6575b505060ff62000da860008051602062004f26833981519152955b604462000d9862000d086064356004356200271b565b9962000d2f846004019162000d3962000d22848062002948565b9390948c89019062002948565b969097016200297d565b60408051600435815260643560208201529b35908c01526001600160a01b039b8c1660608c015260843560808c015260a43560a08c0152988b1660c08b015290991660e089015261016061010089018190529798899889019162002741565b9186830361012088015262002741565b91166101408301520390a280f35b62000dc1906200229d565b6200072d57853862000cd8565b83356064351462000df9575b505060ff62000da860008051602062004f268339815191529562000cf2565b803b15620007e7576040516340c10f1960e01b815230600482015260a43560248201529082908290604490829084905af18015620007eb571562000dda5762000e42906200229d565b6200072d57853862000dda565b62000e608660040186863562002a6f565b5062000c8f565b60405162461bcd60e51b815260206004820152601f818401527f42726964676545524332303a204f6e6c792070726f78792062726964676521006044820152606490fd5b60849060296040519162461bcd60e51b8352602060048401528201527f42726964676545524332303a20696e697469616c436861696e203d3d206375726044820152683932b73a21b430b4b760b91b6064820152fd5b60849060256040519162461bcd60e51b8352602060048401528201527f42726964676545524332303a206e6f6e636520616c72656164792072656769736044820152641d195c995960da1b6064820152fd5b62000f5e906200229d565b6200072d57853862000983565b503462000178578060031936011262000178576020606b54604051908152f35b503462000178578060031936011262000178577f00000000000000000000000000000000000000000000000000000000000000006001600160a01b0316300362000fe857602060405160008051602062004f068339815191528152f35b60405162461bcd60e51b815260206004820152603860248201527f555550535570677261646561626c653a206d757374206e6f742062652063616c60448201527f6c6564207468726f7567682064656c656761746563616c6c00000000000000006064820152608490fd5b50604036600319011262000178576200106b62002223565b6024356001600160401b0381116200136a57366023820112156200136a576200109f9036906024816004013591016200233d565b6001600160a01b037f00000000000000000000000000000000000000000000000000000000000000008116929190620010db30851415620024ed565b620010fb60008051602062004f068339815191529482865416146200254f565b848160655416803b15620007e75781602491604051928380926335de892960e21b82523360048301525afa8015620007eb5762001352575b50507f4910fdfa16fed3260ed0e7147f7cc6da11a60208b5b9406d12a635614ffd91435460ff1615620011715750506200116e9150620025b1565b80f35b82919216604051936352d1902d60e01b85526020948581600481865afa600091816200131d575b50620011fa5760405162461bcd60e51b815260048101879052602e60248201527f45524331393637557067726164653a206e657720696d706c656d656e7461746960448201526d6f6e206973206e6f74205555505360901b6064820152608490fd5b94939403620012c6576200120e82620025b1565b7fbc7cd75a20ee27fd9adebab32041f755214dbc6bffa90cc0225b39da2e5c2d3b600080a2825115801590620012bd575b6200124b575b50505080f35b600080620012b394604051946200126286620022e3565b602786527f416464726573733a206c6f772d6c6576656c2064656c65676174652063616c6c81870152660819985a5b195960ca1b604087015281519101845af4620012ac62002643565b9162002678565b5038808062001245565b5060016200123f565b60405162461bcd60e51b815260048101849052602960248201527f45524331393637557067726164653a20756e737570706f727465642070726f786044820152681a58589b195555525160ba1b6064820152608490fd5b90918782813d83116200134a575b620013378183620022ff565b8101031262000178575051903862001198565b503d6200132b565b6200135d906200229d565b6200073157843862001133565b8280fd5b5034620001785760ff6040602092620013873662002268565b9082526069855282822090825284522054166040519015158152f35b50346200017857806003193601126200017857602060ff606754166040519015158152f35b5034620001785760603660031901126200017857602062001400620013ec6200223a565b620013f662002251565b9060043562002c05565b604051908152f35b50346200017857806003193601126200017857606554604051634d4502c960e11b81529190602090839060049082906001600160a01b03165afa9081156200149457906200145c575b602090604051908152f35b506020813d82116200148b575b816200147860209383620022ff565b8101031262000735576020905162001451565b3d915062001469565b604051903d90823e3d90fd5b50346200017857604036600319011262000178576020620014cd620014c46200223a565b6004356200298c565b6040516001600160a01b039091168152f35b50346200017857602080600319360112620007e757620014fe62002223565b6001600160a01b037f000000000000000000000000000000000000000000000000000000000000000081166200153730821415620024ed565b6200155760008051602062004f068339815191529183835416146200254f565b848260655416803b15620007e75781602491604051928380926335de892960e21b82523360048301525afa8015620007eb57620016f0575b505060405191620015a083620022c7565b8583527f4910fdfa16fed3260ed0e7147f7cc6da11a60208b5b9406d12a635614ffd91435460ff1615620015dd575050506200116e9150620025b1565b83929316906040516352d1902d60e01b81528581600481865afa60009181620016bb575b50620016635760405162461bcd60e51b815260048101879052602e60248201527f45524331393637557067726164653a206e657720696d706c656d656e7461746960448201526d6f6e206973206e6f74205555505360901b6064820152608490fd5b94939403620012c6576200167782620025b1565b7fbc7cd75a20ee27fd9adebab32041f755214dbc6bffa90cc0225b39da2e5c2d3b600080a2825115801590620016b2576200124b5750505080f35b5060006200123f565b90918782813d8311620016e8575b620016d58183620022ff565b8101031262000178575051903862001601565b503d620016c9565b620016fb906200229d565b620007315784386200158f565b50346200017857806003193601126200017857606a546040516001600160a01b039091168152602090f35b9050610100366003190112620007e7576200174d62002223565b906064356001600160a01b03811690036200136a576084356001600160a01b03811690036200136a576001600160401b0360e435116200136a5736602360e4350112156200136a576001600160401b0360e43560040135116200136a5736602460e4356004013560e4350101116200136a5760243515620021e157506065546001600160a01b031660c4354211620021a7576040514660208201523060601b604082015263028f7bef60e21b60548201523360601b60588201526001600160601b03198360601b16606c820152602435608082015260443560a08201526001600160601b031960643560601b1660c08201526001600160601b031960843560601b1660d482015260a43560e882015261010860c435818301528152806101408101106001600160401b0361014083011117620021935761014081016040528051602082012090818552607060205260ff604086205416620021485750813b15620020d1576040516339d4479160e21b815281600482015260406024820152848180620018e96044820160e43560040135602460e4350162002741565b0381865afa80156200213d5762002127575b508352607060209081526040808520805460ff19166001179055516361d027b360e01b8152919082600481845afa91821562001c90578492620020de575b5060206004916040519283809263647846a560e01b82525afa90811562001c9057849162002098575b506001600160a01b03908116608435909116036200205e576084356001600160a01b03166200203c5760a43534036200200257828080809360a435905af1620019aa62002643565b501562001fbd575b6001600160a01b038116825260686020526040822054606654919060ff16600019831462001fa957600183016066551562001c9b57604051634c4f708d60e11b81529183836004816001600160a01b0386165afa92831562001c9057849385938680928194829162001bf1575b509392959187604435148062001be4575b1562001b4b576001600160a01b0381163b15620007e75760405163ab1a63cd60e01b8152336004820152306024808301919091523560448201529082908290606490829084906001600160a01b03165af18015620007eb5762001b2b575b505062000da8600194939262001b1b60008051602062004f268339815191529760ff945b62001ac0468a8a016200271b565b9a604051998a990189524660208a0152604089015260018060a01b03166060880152604435608088015260243560a08801523360c088015260018060a01b036064351660e088015261016080610100890152870190620024a5565b90858203610120870152620024a5565b62001b3a90959493956200229d565b620007295786389492939462001a8e565b6001600160a01b0381163b15620007e757604051632770a7eb60e21b815233600482015260248035908201529082908290604490829084906001600160a01b03165af18015620007eb5762001bc4575b505062000da8600194939262001b1b60008051602062004f268339815191529760ff9462001ab2565b62001bd390959493956200229d565b620007295786389492939462001b9b565b5060ff6067541662001a30565b96505050945050503d918285823e62001c0b8382620022ff565b60a0818481010312620007315780519062001c296020820162002762565b948660408301516001600160401b038111620007e75762001c509087850190850162002777565b9560608401516001600160401b0381116200136a5762001c7c60809162001c8493870190870162002777565b9401620027ea565b93969592933862001a1f565b6040513d86823e3d90fd5b469190806001600160a01b03811662001dd65750346024350362001d9b576040516000606c5462001ccc8162002379565b808452906001811690811562001d77575060011462001d2b575b509160ff62000da88362001d1060008051602062004f2683398151915297956001970382620022ff565b62001b1b62001d1e620023b6565b9184606e54169562001ab2565b606c6000908152915060008051602062004ee68339815191525b81831062001d5c575050810160200160ff62001ce6565b60018160209294939454838588010152019101919062001d45565b60ff191660208086019190915291151560051b8401909101915060ff905062001ce6565b60405162461bcd60e51b8152602060048201526013602482015272616d6f756e74203c206d73672e76616c75652160681b6044820152606490fd5b6040516306fdde0360e01b81529092919085816004816001600160a01b0388165afa86918162001f89575b5062001f83575060405162001e1681620022c7565b8581525b6040516395d89b4160e01b815286816004816001600160a01b0389165afa87918162001f5a575b5062001f53575060405162001e5681620022c7565b868152915b60405163313ce56760e01b81526020816004816001600160a01b038a165afa88918162001edf575b509362001b1b60008051602062004f26833981519152979460ff9462000da894600199981560001462001ed3575062001ecd89975b60243590309033908d8060a01b0316620027f9565b62001ab2565b62001ecd909762001eb8565b969395949091506020873d60201162001f4a575b8162001f0260209383620022ff565b8101031262001f465762001b1b60019660ff9462000da89462001f3560008051602062004f268339815191529b620027ea565b955093979850945094975062001e83565b8880fd5b3d915062001ef3565b9162001e5b565b62001f7b9192503d808a833e62001f728183620022ff565b810190620027c1565b903862001e41565b62001e1a565b62001fa19192503d8089833e62001f728183620022ff565b903862001e01565b634e487b7160e01b84526011600452602484fd5b60405162461bcd60e51b815260206004820152601d60248201527f6e617469766520746f6b656e207472616e73666572206661696c6564210000006044820152606490fd5b60405162461bcd60e51b81526020600482015260126024820152716d73672e76616c756520213d205f6665657360701b6044820152606490fd5b620020589060a43590336084356001600160a01b0316620027f9565b620019b2565b60405162461bcd60e51b815260206004820152601260248201527166656520746f6b656e206368616e6765642160701b6044820152606490fd5b90506020813d602011620020d5575b81620020b660209383620022ff565b81010312620020d157620020ca9062002762565b3862001962565b8380fd5b3d9150620020a7565b9091506020813d6020116200211e575b81620020fd60209383620022ff565b81010312620020d15760206200211560049262002762565b92915062001939565b3d9150620020ee565b62002135909491946200229d565b9238620018fb565b6040513d87823e3d90fd5b61014060649162461bcd60e51b82820152602061014482015260176101648201527f7369676e617475726520616c726561647920757365642100000000000000000061018482015201fd5b634e487b7160e01b84526041600452602484fd5b60405162461bcd60e51b81526020600482015260126024820152715f7369676e6174757265457870697265642160701b6044820152606490fd5b62461bcd60e51b815260206004820152601860248201527f42726964676545524332303a205f616d6f756e74203c203000000000000000006044820152606490fd5b600435906001600160a01b03821682036200073557565b602435906001600160a01b03821682036200073557565b604435906001600160a01b03821682036200073557565b604090600319011262000735576004359060243590565b346200073557602062001400620022963662002268565b906200271b565b6001600160401b038111620022b157604052565b634e487b7160e01b600052604160045260246000fd5b602081019081106001600160401b03821117620022b157604052565b606081019081106001600160401b03821117620022b157604052565b90601f801991011681019081106001600160401b03821117620022b157604052565b6001600160401b038111620022b157601f01601f191660200190565b9291926200234b8262002321565b916200235b6040519384620022ff565b82948184528183011162000735578281602093846000960137010152565b90600182811c92168015620023ab575b60208310146200239557565b634e487b7160e01b600052602260045260246000fd5b91607f169162002389565b60405190600082606d5491620023cc8362002379565b808352926001908181169081156200245c5750600114620023f9575b50620023f792500383620022ff565b565b606d600090815291507f5006b838207c6a9ae9b84d68f467dd4bb5c305fbfb6b04eab8faaabeec1e18d85b848310620024405750620023f7935050810160200138620023e8565b81935090816020925483858a0101520191019091859262002424565b905060209250620023f794915060ff191682840152151560051b82010138620023e8565b60005b838110620024945750506000910152565b818101518382015260200162002483565b90602091620024c08151809281855285808601910162002480565b601f01601f1916010190565b9080601f830112156200073557816020620024ea933591016200233d565b90565b15620024f557565b60405162461bcd60e51b815260206004820152602c60248201527f46756e6374696f6e206d7573742062652063616c6c6564207468726f7567682060448201526b19195b1959d85d1958d85b1b60a21b6064820152608490fd5b156200255757565b60405162461bcd60e51b815260206004820152602c60248201527f46756e6374696f6e206d7573742062652063616c6c6564207468726f7567682060448201526b6163746976652070726f787960a01b6064820152608490fd5b803b15620025e85760008051602062004f0683398151915280546001600160a01b0319166001600160a01b03909216919091179055565b60405162461bcd60e51b815260206004820152602d60248201527f455243313936373a206e657720696d706c656d656e746174696f6e206973206e60448201526c1bdd08184818dbdb9d1c9858dd609a1b6064820152608490fd5b3d1562002673573d90620026578262002321565b91620026676040519384620022ff565b82523d6000602084013e565b606090565b91929015620026dd57508151156200268e575090565b3b15620026985790565b60405162461bcd60e51b815260206004820152601d60248201527f416464726573733a2063616c6c20746f206e6f6e2d636f6e74726163740000006044820152606490fd5b825190915015620026f15750805190602001fd5b60405162461bcd60e51b81526020600482015290819062002717906024830190620024a5565b0390fd5b9060405190602082019283526040820152604081526200273b81620022e3565b51902090565b908060209392818452848401376000828201840152601f01601f1916010190565b51906001600160a01b03821682036200073557565b81601f8201121562000735578051620027908162002321565b92620027a06040519485620022ff565b818452602082840101116200073557620024ea916020808501910162002480565b90602082820312620007355781516001600160401b0381116200073557620024ea920162002777565b519060ff821682036200073557565b6040516323b872dd60e01b60208201526001600160a01b0392831660248201529290911660448301526064820192909252620023f79162000b67826084810162000b58565b60018060a01b03169060405160408101908082106001600160401b03831117620022b157620028ad916040526020938482527f5361666545524332303a206c6f772d6c6576656c2063616c6c206661696c6564858301526000808587829751910182855af1620012ac62002643565b80519182159184831562002921575b505050905015620028ca5750565b6084906040519062461bcd60e51b82526004820152602a60248201527f5361666545524332303a204552433230206f7065726174696f6e20646964206e6044820152691bdd081cdd58d8d9595960b21b6064820152fd5b919381809450010312620007e75782015190811515820362000178575080388084620028bc565b903590601e19813603018212156200073557018035906001600160401b03821162000735576020019181360383136200073557565b3560ff81168103620007355790565b604051620029cd81620029be6020958683019586909160349282526001600160601b03199060601b1660208201520190565b03601f198101835282620022ff565b519020610496604051620029e484830182620022ff565b81815283810191620045ba833962002a1d84604051809362002a0f8383019687925192839162002480565b8101038084520182620022ff565b5190206040519283019160ff60f81b83523060601b60218501526035840152605583015260558252608082018281106001600160401b03821117620022b157604052905190206001600160a01b031690565b60408051602081018381526bffffffffffffffffffffffff19606086901b1682840152603482529193601f19939092909162002aad605482620022ff565b5190209284519361049694858101958187106001600160401b03881117620022b15762004a50823980600096039086f591821562002bfb579062002b7e918660ff62002b6a60018060a01b038097169a8362002b5789606a54169962002b14848062002948565b909162002b2962000d2f602088018862002948565b98519d8e9a62cf530960e01b60208d015260248c01521660448a015260a060648a015260c489019162002741565b8681036023190160848801529162002741565b911660a483015203908101845283620022ff565b843b156200136a5762002bb49183918551938492839263c0d91eaf60e01b845260048401528760248401526044830190620024a5565b038183885af1801562002bf15762002bdf575b50828152606860205220805460ff1916600117905590565b62002bea906200229d565b3862002bc7565b83513d84823e3d90fd5b85513d86823e3d90fd5b9060018060a01b039283606554169160409384518094634d4502c960e11b825281600460209788935afa90811562002d6e5790829160009162002d38575b501462002cea57859162002c57916200298c565b1693846000526068835260ff8460002054161562002ce05760248392855196879384926370a0823160e01b84521660048301525afa91821562002cd6575060009162002ca4575b50905090565b82813d831162002cce575b62002cbb8183620022ff565b8101031262000178575051803862002c9e565b503d62002caf565b513d6000823e3d90fd5b5050505050600090565b5090939081169291908362002d0157505050503190565b82516370a0823160e01b81529416600485015290918190849060249082905afa91821562002cd6575060009162002ca45750905090565b91508582813d831162002d66575b62002d528183620022ff565b810103126200017857508190513862002c43565b503d62002d46565b86513d6000823e3d90fdfe608080604052346100c1576000549060ff8260081c1661006f575060ff80821603610034575b60405161177990816100c78239f35b60ff90811916176000557f7f26b83ff96e1f2b6a682f133852f6798a09c465da95921460cefb3847402498602060405160ff8152a138610025565b62461bcd60e51b815260206004820152602760248201527f496e697469616c697a61626c653a20636f6e747261637420697320696e697469604482015266616c697a696e6760c81b6064820152608490fd5b600080fdfe6080604052600436101561001257600080fd5b60003560e01c8062cf53091461093557806306fdde03146108a1578063095ea7b31461087b57806318160ddd1461085d57806323b872dd146107b5578063313ce56714610791578063395093511461074057806340c10f191461067757806352694c6b1461065b57806353638be51461063d57806370a0823114610603578063715018a6146105a65780638da5cb5b1461057d57806395d89b41146104c1578063989ee11a1461044d5780639dc29fac1461031d578063a457c2d714610276578063a9059cbb14610245578063ab1a63cd14610226578063dd62ed3e146101d5578063e8cfdce9146101a15763f2fde38b1461010d57600080fd5b3461019c57602036600319011261019c576101266110c2565b61012e61134d565b6001600160a01b0381161561014857610146906113a5565b005b60405162461bcd60e51b815260206004820152602660248201527f4f776e61626c653a206e6577206f776e657220697320746865207a65726f206160448201526564647265737360d01b6064820152608490fd5b600080fd5b3461019c57600036600319011261019c576101d16101bd6112b4565b604051918291602083526020830190611174565b0390f35b3461019c57604036600319011261019c576101ee6110c2565b6101f66110ac565b9060018060a01b038091166000526034602052604060002091166000526020526020604060002054604051908152f35b3461019c5761014661023736611199565b9161024061134d565b611411565b3461019c57604036600319011261019c5761026b6102616110c2565b6024359033611411565b602060405160018152f35b3461019c57604036600319011261019c5761028f6110c2565b60243590336000526034602052604060002060018060a01b038216600052602052604060002054918083106102ca5761026b92039033611581565b60405162461bcd60e51b815260206004820152602560248201527f45524332303a2064656372656173656420616c6c6f77616e63652062656c6f77604482015264207a65726f60d81b6064820152608490fd5b3461019c57604036600319011261019c576103366110c2565b6024359061034261134d565b6001600160a01b031680156103fe57806000526033602052604060002054918083106103ae576020817fddf252ad1be2c89b69c2b068fc378daa952ba7f163c4a11628f55a4df523b3ef92600095858752603384520360408620558060355403603555604051908152a3005b60405162461bcd60e51b815260206004820152602260248201527f45524332303a206275726e20616d6f756e7420657863656564732062616c616e604482015261636560f01b6064820152608490fd5b60405162461bcd60e51b815260206004820152602160248201527f45524332303a206275726e2066726f6d20746865207a65726f206164647265736044820152607360f81b6064820152608490fd5b3461019c57600036600319011261019c576097546098549061046d611208565b9160ff6104b361047b6112b4565b6104a5604051968796875260018060a01b038616602088015260a0604088015260a0870190611174565b908582036060870152611174565b9160a01c1660808301520390f35b3461019c57600036600319011261019c5760405160006037546104e3816111ce565b80845290600190818116908115610556575060011461050d575b6101d1846101bd818603826110d8565b6037600090815292506000805160206117048339815191525b82841061053e5750505081016020016101bd826104fd565b80546020858701810191909152909301928101610526565b60ff191660208087019190915292151560051b850190920192506101bd91508390506104fd565b3461019c57600036600319011261019c576065546040516001600160a01b039091168152602090f35b3461019c57600036600319011261019c576105bf61134d565b606580546001600160a01b031981169091556000906001600160a01b03167f8be0079c531659141344cd1fd0a4f28419497f9722a3daafe3b4186f6b6457e08280a3005b3461019c57602036600319011261019c576001600160a01b036106246110c2565b1660005260336020526020604060002054604051908152f35b3461019c57600036600319011261019c576020609754604051908152f35b3461019c57600036600319011261019c576101d16101bd611208565b3461019c57604036600319011261019c576106906110c2565b6024359061069c61134d565b6001600160a01b03169081156106fb577fddf252ad1be2c89b69c2b068fc378daa952ba7f163c4a11628f55a4df523b3ef6020826106de6000946035546113ee565b6035558484526033825260408420818154019055604051908152a3005b60405162461bcd60e51b815260206004820152601f60248201527f45524332303a206d696e7420746f20746865207a65726f2061646472657373006044820152606490fd5b3461019c57604036600319011261019c5761026b61075c6110c2565b336000526034602052604060002060018060a01b03821660005260205261078a6024356040600020546113ee565b9033611581565b3461019c57600036600319011261019c57602060ff60985460a01c16604051908152f35b3461019c576107c336611199565b9060018060a01b03831660005260346020526040600020336000526020526040600020549260001984036107fc575b61026b9350611411565b828410610818576108138361026b95033383611581565b6107f2565b60405162461bcd60e51b815260206004820152601d60248201527f45524332303a20696e73756666696369656e7420616c6c6f77616e63650000006044820152606490fd5b3461019c57600036600319011261019c576020603554604051908152f35b3461019c57604036600319011261019c5761026b6108976110c2565b6024359033611581565b3461019c57600036600319011261019c5760405160006036546108c3816111ce565b8084529060019081811690811561055657506001146108ec576101d1846101bd818603826110d8565b6036600090815292506000805160206116e48339815191525b82841061091d5750505081016020016101bd826104fd565b80546020858701810191909152909301928101610905565b3461019c5760a036600319011261019c5761094e6110ac565b60443567ffffffffffffffff811161019c5761096e9036906004016110fa565b9060643567ffffffffffffffff811161019c5761098f9036906004016110fa565b9060ff608435166084350361019c576000549060ff8260081c16159182809361109f575b8015611088575b1561102c5760ff1981166001176000558261101a575b50604051607960f81b90816020820152610a0860218288516109f88184840160208d01611151565b81010360018101845201826110d8565b604051916020830152610a396021838751610a298184840160208c01611151565b81010360018101855201836110d8565b610a5360ff60005460081c16610a4e81611683565b611683565b80519067ffffffffffffffff8211610d2c578190610a726036546111ce565b601f8111610fa6575b50602090601f8311600114610f2e57600092610f23575b50508160011b916000199060031b1c1916176036555b80519067ffffffffffffffff8211610d2c578190610ac76037546111ce565b601f8111610eaf575b50602090601f8311600114610e3757600092610e2c575b50508160011b916000199060031b1c1916176037555b610b1260ff60005460081c16610a4e81611683565b610b1b336113a5565b835167ffffffffffffffff8111610d2c57610b376099546111ce565b601f8111610dbf575b50602094601f8211600114610d4d57948192939495600092610d42575b50508160011b916000199060031b1c1916176099555b825167ffffffffffffffff8111610d2c57610b8f609a546111ce565b601f8111610cc7575b506020601f8211600114610c435781929394600092610c38575b50508160011b916000199060031b1c191617609a555b600435609755609880546001600160a81b0319166001600160a01b039092169190911760843560a01b60ff60a01b16179055610c0057005b61ff0019600054166000557f7f26b83ff96e1f2b6a682f133852f6798a09c465da95921460cefb3847402498602060405160018152a1005b015190508480610bb2565b601f19821690609a6000527f44da158ba27f9252712a74ff6a55c5d531f69609f1f6e7f17c4443a8e2089be49160005b818110610caf57509583600195969710610c96575b505050811b01609a55610bc8565b015160001960f88460031b161c19169055848080610c88565b9192602060018192868b015181550194019201610c73565b609a6000527f44da158ba27f9252712a74ff6a55c5d531f69609f1f6e7f17c4443a8e2089be4601f830160051c81019160208410610d22575b601f0160051c01905b818110610d165750610b98565b60008155600101610d09565b9091508190610d00565b634e487b7160e01b600052604160045260246000fd5b015190508580610b5d565b601f1982169560996000526000805160206117248339815191529160005b888110610da757508360019596979810610d8e575b505050811b01609955610b73565b015160001960f88460031b161c19169055858080610d80565b91926020600181928685015181550194019201610d6b565b6099600052601f820160051c600080516020611724833981519152019060208310610e16575b601f0160051c60008051602061172483398151915201905b818110610e0a5750610b40565b60008155600101610dfd565b6000805160206117248339815191529150610de5565b015190508680610ae7565b92506037600052600080516020611704833981519152906000935b601f1984168510610e94576001945083601f19811610610e7b575b505050811b01603755610afd565b015160001960f88460031b161c19169055868080610e6d565b81810151835560209485019460019093019290910190610e52565b9091506037600052601f830160051c6000805160206117048339815191520160208410610f0e575b908392915b601f820160051c600080516020611704833981519152018110610eff5750610ad0565b60008155849350600101610edc565b50600080516020611704833981519152610ed7565b015190508780610a92565b925060366000526000805160206116e4833981519152906000935b601f1984168510610f8b576001945083601f19811610610f72575b505050811b01603655610aa8565b015160001960f88460031b161c19169055878080610f64565b81810151835560209485019460019093019290910190610f49565b9091506036600052601f830160051c6000805160206116e48339815191520160208410611005575b908392915b601f820160051c6000805160206116e4833981519152018110610ff65750610a7b565b60008155849350600101610fd3565b506000805160206116e4833981519152610fce565b61ffff191661010117600055846109d0565b60405162461bcd60e51b815260206004820152602e60248201527f496e697469616c697a61626c653a20636f6e747261637420697320616c72656160448201526d191e481a5b9a5d1a585b1a5e995960921b6064820152608490fd5b50303b1580156109ba5750600160ff8216146109ba565b50600160ff8216106109b3565b602435906001600160a01b038216820361019c57565b600435906001600160a01b038216820361019c57565b90601f8019910116810190811067ffffffffffffffff821117610d2c57604052565b81601f8201121561019c5780359067ffffffffffffffff8211610d2c576040519261112f601f8401601f1916602001856110d8565b8284526020838301011161019c57816000926020809301838601378301015290565b60005b8381106111645750506000910152565b8181015183820152602001611154565b9060209161118d81518092818552858086019101611151565b601f01601f1916010190565b606090600319011261019c576001600160a01b0390600435828116810361019c5791602435908116810361019c579060443590565b90600182811c921680156111fe575b60208310146111e857565b634e487b7160e01b600052602260045260246000fd5b91607f16916111dd565b604051906000826099549161121c836111ce565b808352926001908181169081156112925750600114611245575b50611243925003836110d8565b565b6099600090815291506000805160206117248339815191525b8483106112775750611243935050810160200138611236565b81935090816020925483858a0101520191019091859261125e565b90506020925061124394915060ff191682840152151560051b82010138611236565b60405190600082609a54916112c8836111ce565b8083529260019081811690811561129257506001146112ee5750611243925003836110d8565b609a600090815291507f44da158ba27f9252712a74ff6a55c5d531f69609f1f6e7f17c4443a8e2089be45b8483106113325750611243935050810160200138611236565b81935090816020925483858a01015201910190918592611319565b6065546001600160a01b0316330361136157565b606460405162461bcd60e51b815260206004820152602060248201527f4f776e61626c653a2063616c6c6572206973206e6f7420746865206f776e65726044820152fd5b606580546001600160a01b039283166001600160a01b0319821681179092559091167f8be0079c531659141344cd1fd0a4f28419497f9722a3daafe3b4186f6b6457e0600080a3565b919082018092116113fb57565b634e487b7160e01b600052601160045260246000fd5b6001600160a01b0390811691821561152e57169182156114dd576000828152603360205260408120549180831061148957604082827fddf252ad1be2c89b69c2b068fc378daa952ba7f163c4a11628f55a4df523b3ef95876020965260338652038282205586815220818154019055604051908152a3565b60405162461bcd60e51b815260206004820152602660248201527f45524332303a207472616e7366657220616d6f756e7420657863656564732062604482015265616c616e636560d01b6064820152608490fd5b60405162461bcd60e51b815260206004820152602360248201527f45524332303a207472616e7366657220746f20746865207a65726f206164647260448201526265737360e81b6064820152608490fd5b60405162461bcd60e51b815260206004820152602560248201527f45524332303a207472616e736665722066726f6d20746865207a65726f206164604482015264647265737360d81b6064820152608490fd5b6001600160a01b0390811691821561163257169182156115e25760207f8c5be1e5ebec7d5bd14f71427d1e84f3dd0314c0f7b2291e5b200ac8c7c3b925918360005260348252604060002085600052825280604060002055604051908152a3565b60405162461bcd60e51b815260206004820152602260248201527f45524332303a20617070726f766520746f20746865207a65726f206164647265604482015261737360f01b6064820152608490fd5b60405162461bcd60e51b8152602060048201526024808201527f45524332303a20617070726f76652066726f6d20746865207a65726f206164646044820152637265737360e01b6064820152608490fd5b1561168a57565b60405162461bcd60e51b815260206004820152602b60248201527f496e697469616c697a61626c653a20636f6e7472616374206973206e6f74206960448201526a6e697469616c697a696e6760a81b6064820152608490fdfe4a11f94e20a93c79f6ec743a1954ec4fc2c08429ae2122118bf234b2185c81b842a7b7dd785cd69714a189dffb3fd7d7174edc9ece837694ce50f7078f7c31ae72a152ddfb8e864297c917af52ea6c1c68aead0fee1a62673fcc7e0c94979d00a264697066735822122012b2f2a2ffa02bdcbbdd6d592f924b2f64074de75824de137bbb62f7ff2e825164736f6c63430008120033608080604052346100165761047a908161001c8239f35b600080fdfe60806040526004361015610018575b3661011b5761011b565b6000803560e01c63c0d91eaf1461002f575061000e565b346100bb5760403660031901126100bb576004356001600160a01b03811681036100b35760243567ffffffffffffffff81116100b757366023820112156100b75780600401359183610088610083856100ff565b6100d4565b9284845236602486830101116100b357846100b0956024602093018387013784010152610167565b80f35b5080fd5b8280fd5b80fd5b634e487b7160e01b600052604160045260246000fd5b6040519190601f01601f1916820167ffffffffffffffff8111838210176100fa57604052565b6100be565b67ffffffffffffffff81116100fa57601f01601f191660200190565b7f360894a13ba1a3210667c828492db98dca3e2076cc3735a920a3ca505d382bbc54600090819081906001600160a01b0316368280378136915af43d82803e15610163573d90f35b3d90fd5b60ff6000541661027d57803b15610222577f360894a13ba1a3210667c828492db98dca3e2076cc3735a920a3ca505d382bbc80546001600160a01b0319166001600160a01b0383169081179091557fbc7cd75a20ee27fd9adebab32041f755214dbc6bffa90cc0225b39da2e5c2d3b600080a281511580159061021a575b610200575b50506101fe600160ff196000541617600055565b565b6102129161020c6102cc565b91610326565b5038806101ea565b5060006101e5565b60405162461bcd60e51b815260206004820152602d60248201527f455243313936373a206e657720696d706c656d656e746174696f6e206973206e60448201526c1bdd08184818dbdb9d1c9858dd609a1b6064820152608490fd5b60405162461bcd60e51b815260206004820152602160248201527f4552433139363750726f7879437265617465323a20616c726561647920696e696044820152601d60fa1b6064820152608490fd5b604051906060820182811067ffffffffffffffff8211176100fa5760405260278252660819985a5b195960ca1b6040837f416464726573733a206c6f772d6c6576656c2064656c65676174652063616c6c60208201520152565b60008061035b9493602081519101845af43d1561035e573d9161034b610083846100ff565b9283523d6000602085013e6103b2565b90565b6060916103b2565b1561036d57565b60405162461bcd60e51b815260206004820152601d60248201527f416464726573733a2063616c6c20746f206e6f6e2d636f6e74726163740000006044820152606490fd5b919290156103d257508151156103c6575090565b61035b903b1515610366565b8251909150156103e55750805190602001fd5b6040519062461bcd60e51b82528160208060048301528251908160248401526000935b82851061042b575050604492506000838284010152601f80199101168101030190fd5b848101820151868601604401529381019385935061040856fea2646970667358221220948f83a417c65504c9fd01cec9268a96d0a2641fdda28b515010e9079904dcbc64736f6c63430008120033608080604052346100165761047a908161001c8239f35b600080fdfe60806040526004361015610018575b3661011b5761011b565b6000803560e01c63c0d91eaf1461002f575061000e565b346100bb5760403660031901126100bb576004356001600160a01b03811681036100b35760243567ffffffffffffffff81116100b757366023820112156100b75780600401359183610088610083856100ff565b6100d4565b9284845236602486830101116100b357846100b0956024602093018387013784010152610167565b80f35b5080fd5b8280fd5b80fd5b634e487b7160e01b600052604160045260246000fd5b6040519190601f01601f1916820167ffffffffffffffff8111838210176100fa57604052565b6100be565b67ffffffffffffffff81116100fa57601f01601f191660200190565b7f360894a13ba1a3210667c828492db98dca3e2076cc3735a920a3ca505d382bbc54600090819081906001600160a01b0316368280378136915af43d82803e15610163573d90f35b3d90fd5b60ff6000541661027d57803b15610222577f360894a13ba1a3210667c828492db98dca3e2076cc3735a920a3ca505d382bbc80546001600160a01b0319166001600160a01b0383169081179091557fbc7cd75a20ee27fd9adebab32041f755214dbc6bffa90cc0225b39da2e5c2d3b600080a281511580159061021a575b610200575b50506101fe600160ff196000541617600055565b565b6102129161020c6102cc565b91610326565b5038806101ea565b5060006101e5565b60405162461bcd60e51b815260206004820152602d60248201527f455243313936373a206e657720696d706c656d656e746174696f6e206973206e60448201526c1bdd08184818dbdb9d1c9858dd609a1b6064820152608490fd5b60405162461bcd60e51b815260206004820152602160248201527f4552433139363750726f7879437265617465323a20616c726561647920696e696044820152601d60fa1b6064820152608490fd5b604051906060820182811067ffffffffffffffff8211176100fa5760405260278252660819985a5b195960ca1b6040837f416464726573733a206c6f772d6c6576656c2064656c65676174652063616c6c60208201520152565b60008061035b9493602081519101845af43d1561035e573d9161034b610083846100ff565b9283523d6000602085013e6103b2565b90565b6060916103b2565b1561036d57565b60405162461bcd60e51b815260206004820152601d60248201527f416464726573733a2063616c6c20746f206e6f6e2d636f6e74726163740000006044820152606490fd5b919290156103d257508151156103c6575090565b61035b903b1515610366565b8251909150156103e55750805190602001fd5b6040519062461bcd60e51b82528160208060048301528251908160248401526000935b82851061042b575050604492506000838284010152601f80199101168101030190fd5b848101820151868601604401529381019385935061040856fea2646970667358221220948f83a417c65504c9fd01cec9268a96d0a2641fdda28b515010e9079904dcbc64736f6c634300081200332b4a51ab505fc96a0952efda2ba61bcd3078d4c02c39a186ec16f21883fbe016360894a13ba1a3210667c828492db98dca3e2076cc3735a920a3ca505d382bbcc1f7f12b2dba24ff73c70a990165abd4e70dfdf3654e8cf744139fb4a4388e17a2646970667358221220f012087709691bd1631cd2402ca39a5e9c185726d9177b87771b77d9165a675564736f6c63430008120033",
  "devdoc": {
    "events": {
      "AdminChanged(address,address)": {
        "details": "Emitted when the admin account has changed."
      },
      "BeaconUpgraded(address)": {
        "details": "Emitted when the beacon is changed."
      },
      "Initialized(uint8)": {
        "details": "Triggered when the contract has been initialized or reinitialized."
      },
      "Upgraded(address)": {
        "details": "Emitted when the implementation is upgraded."
      }
    },
    "kind": "dev",
    "methods": {
      "proxiableUUID()": {
        "details": "Implementation of the ERC1822 {proxiableUUID} function. This returns the storage slot used by the implementation. It is used to validate the implementation's compatibility when performing an upgrade. IMPORTANT: A proxy pointing at a proxiable contract should not be considered proxiable itself, because this risks bricking a proxy that upgrades to it, by delegating to itself until out of gas. Thus it is critical that this function revert if invoked through a proxy. This is guaranteed by the `notDelegated` modifier."
      },
      "upgradeTo(address)": {
        "custom:oz-upgrades-unsafe-allow-reachable": "delegatecall",
        "details": "Upgrade the implementation of the proxy to `newImplementation`. Calls {_authorizeUpgrade}. Emits an {Upgraded} event."
      },
      "upgradeToAndCall(address,bytes)": {
        "custom:oz-upgrades-unsafe-allow-reachable": "delegatecall",
        "details": "Upgrade the implementation of the proxy to `newImplementation`, and subsequently execute the function call encoded in `data`. Calls {_authorizeUpgrade}. Emits an {Upgraded} event."
      }
    },
    "version": 1
  },
  "userdoc": {
    "kind": "user",
    "methods": {
      "alreadyVerified(bytes32)": {
        "notice": "Signatures have already been registered"
      }
    },
    "version": 1
  },
  "storageLayout": {
    "storage": [
      {
        "astId": 505,
        "contract": "contracts/BridgeERC20.sol:BridgeERC20",
        "label": "_initialized",
        "offset": 0,
        "slot": "0",
        "type": "t_uint8"
      },
      {
        "astId": 508,
        "contract": "contracts/BridgeERC20.sol:BridgeERC20",
        "label": "_initializing",
        "offset": 1,
        "slot": "0",
        "type": "t_bool"
      },
      {
        "astId": 487,
        "contract": "contracts/BridgeERC20.sol:BridgeERC20",
        "label": "__gap",
        "offset": 0,
        "slot": "1",
        "type": "t_array(t_uint256)50_storage"
      },
      {
        "astId": 803,
        "contract": "contracts/BridgeERC20.sol:BridgeERC20",
        "label": "__gap",
        "offset": 0,
        "slot": "51",
        "type": "t_array(t_uint256)50_storage"
      },
      {
        "astId": 5069,
        "contract": "contracts/BridgeERC20.sol:BridgeERC20",
        "label": "addressBook",
        "offset": 0,
        "slot": "101",
        "type": "t_contract(IAddressBook)6110"
      },
      {
        "astId": 5071,
        "contract": "contracts/BridgeERC20.sol:BridgeERC20",
        "label": "nonce",
        "offset": 0,
        "slot": "102",
        "type": "t_uint256"
      },
      {
        "astId": 5073,
        "contract": "contracts/BridgeERC20.sol:BridgeERC20",
        "label": "isProxyChain",
        "offset": 0,
        "slot": "103",
        "type": "t_bool"
      },
      {
        "astId": 5077,
        "contract": "contracts/BridgeERC20.sol:BridgeERC20",
        "label": "issuedTokens",
        "offset": 0,
        "slot": "104",
        "type": "t_mapping(t_address,t_bool)"
      },
      {
        "astId": 5083,
        "contract": "contracts/BridgeERC20.sol:BridgeERC20",
        "label": "registeredNonces",
        "offset": 0,
        "slot": "105",
        "type": "t_mapping(t_uint256,t_mapping(t_uint256,t_bool))"
      },
      {
        "astId": 5085,
        "contract": "contracts/BridgeERC20.sol:BridgeERC20",
        "label": "issuedTokenImplementation",
        "offset": 0,
        "slot": "106",
        "type": "t_address"
      },
      {
        "astId": 5087,
        "contract": "contracts/BridgeERC20.sol:BridgeERC20",
        "label": "initBlock",
        "offset": 0,
        "slot": "107",
        "type": "t_uint256"
      },
      {
        "astId": 5089,
        "contract": "contracts/BridgeERC20.sol:BridgeERC20",
        "label": "nativeName",
        "offset": 0,
        "slot": "108",
        "type": "t_string_storage"
      },
      {
        "astId": 5091,
        "contract": "contracts/BridgeERC20.sol:BridgeERC20",
        "label": "nativeSymbol",
        "offset": 0,
        "slot": "109",
        "type": "t_string_storage"
      },
      {
        "astId": 5093,
        "contract": "contracts/BridgeERC20.sol:BridgeERC20",
        "label": "nativeDecimals",
        "offset": 0,
        "slot": "110",
        "type": "t_uint8"
      },
      {
        "astId": 5095,
        "contract": "contracts/BridgeERC20.sol:BridgeERC20",
        "label": "nativeTransferGasLimit",
        "offset": 0,
        "slot": "111",
        "type": "t_uint256"
      },
      {
        "astId": 5100,
        "contract": "contracts/BridgeERC20.sol:BridgeERC20",
        "label": "alreadyVerified",
        "offset": 0,
        "slot": "112",
        "type": "t_mapping(t_bytes32,t_bool)"
      }
    ],
    "types": {
      "t_address": {
        "encoding": "inplace",
        "label": "address",
        "numberOfBytes": "20"
      },
      "t_array(t_uint256)50_storage": {
        "base": "t_uint256",
        "encoding": "inplace",
        "label": "uint256[50]",
        "numberOfBytes": "1600"
      },
      "t_bool": {
        "encoding": "inplace",
        "label": "bool",
        "numberOfBytes": "1"
      },
      "t_bytes32": {
        "encoding": "inplace",
        "label": "bytes32",
        "numberOfBytes": "32"
      },
      "t_contract(IAddressBook)6110": {
        "encoding": "inplace",
        "label": "contract IAddressBook",
        "numberOfBytes": "20"
      },
      "t_mapping(t_address,t_bool)": {
        "encoding": "mapping",
        "key": "t_address",
        "label": "mapping(address => bool)",
        "numberOfBytes": "32",
        "value": "t_bool"
      },
      "t_mapping(t_bytes32,t_bool)": {
        "encoding": "mapping",
        "key": "t_bytes32",
        "label": "mapping(bytes32 => bool)",
        "numberOfBytes": "32",
        "value": "t_bool"
      },
      "t_mapping(t_uint256,t_bool)": {
        "encoding": "mapping",
        "key": "t_uint256",
        "label": "mapping(uint256 => bool)",
        "numberOfBytes": "32",
        "value": "t_bool"
      },
      "t_mapping(t_uint256,t_mapping(t_uint256,t_bool))": {
        "encoding": "mapping",
        "key": "t_uint256",
        "label": "mapping(uint256 => mapping(uint256 => bool))",
        "numberOfBytes": "32",
        "value": "t_mapping(t_uint256,t_bool)"
      },
      "t_string_storage": {
        "encoding": "bytes",
        "label": "string",
        "numberOfBytes": "32"
      },
      "t_uint256": {
        "encoding": "inplace",
        "label": "uint256",
        "numberOfBytes": "32"
      },
      "t_uint8": {
        "encoding": "inplace",
        "label": "uint8",
        "numberOfBytes": "1"
      }
    }
  }
}