{
  "address": "0x2C63E1935722F13fd898e47fd94D5b75Bc9F9393",
  "abi": [
    {
      "inputs": [
        {
          "internalType": "address",
          "name": "intialYarRequest",
          "type": "address"
        },
        {
          "internalType": "address",
          "name": "intialYarResponse",
          "type": "address"
        }
      ],
      "stateMutability": "nonpayable",
      "type": "constructor"
    },
    {
      "inputs": [],
      "name": "bridgedTokenImplementation",
      "outputs": [
        {
          "internalType": "address",
          "name": "",
          "type": "address"
        }
      ],
      "stateMutability": "view",
      "type": "function"
    },
    {
      "inputs": [],
      "name": "chainId",
      "outputs": [
        {
          "internalType": "uint256",
          "name": "",
          "type": "uint256"
        }
      ],
      "stateMutability": "view",
      "type": "function"
    },
    {
      "inputs": [
        {
          "internalType": "uint256",
          "name": "originalChainId",
          "type": "uint256"
        },
        {
          "internalType": "address",
          "name": "originalToken",
          "type": "address"
        }
      ],
      "name": "getBridgedTokenAddress",
      "outputs": [
        {
          "internalType": "address",
          "name": "",
          "type": "address"
        }
      ],
      "stateMutability": "view",
      "type": "function"
    },
    {
      "inputs": [
        {
          "internalType": "uint256",
          "name": "_chainId",
          "type": "uint256"
        }
      ],
      "name": "getPeer",
      "outputs": [
        {
          "components": [
            {
              "internalType": "address",
              "name": "peerAddress",
              "type": "address"
            },
            {
              "internalType": "string",
              "name": "nativeSymbol",
              "type": "string"
            }
          ],
          "internalType": "struct YarBridge721.PeerInfo",
          "name": "",
          "type": "tuple"
        }
      ],
      "stateMutability": "view",
      "type": "function"
    },
    {
      "inputs": [
        {
          "internalType": "address",
          "name": "bridgedToken",
          "type": "address"
        }
      ],
      "name": "isBridgedToken",
      "outputs": [
        {
          "internalType": "bool",
          "name": "exists",
          "type": "bool"
        }
      ],
      "stateMutability": "view",
      "type": "function"
    },
    {
      "inputs": [
        {
          "internalType": "address",
          "name": "",
          "type": "address"
        },
        {
          "internalType": "address",
          "name": "",
          "type": "address"
        },
        {
          "internalType": "uint256",
          "name": "",
          "type": "uint256"
        },
        {
          "internalType": "bytes",
          "name": "",
          "type": "bytes"
        }
      ],
      "name": "onERC721Received",
      "outputs": [
        {
          "internalType": "bytes4",
          "name": "",
          "type": "bytes4"
        }
      ],
      "stateMutability": "pure",
      "type": "function"
    },
    {
      "inputs": [],
      "name": "owner",
      "outputs": [
        {
          "internalType": "address",
          "name": "",
          "type": "address"
        }
      ],
      "stateMutability": "view",
      "type": "function"
    },
    {
      "inputs": [
        {
          "internalType": "uint256",
          "name": "",
          "type": "uint256"
        }
      ],
      "name": "peers",
      "outputs": [
        {
          "internalType": "address",
          "name": "peerAddress",
          "type": "address"
        },
        {
          "internalType": "string",
          "name": "nativeSymbol",
          "type": "string"
        }
      ],
      "stateMutability": "view",
      "type": "function"
    },
    {
      "inputs": [
        {
          "internalType": "uint256",
          "name": "newChainId",
          "type": "uint256"
        },
        {
          "internalType": "address",
          "name": "newPeer",
          "type": "address"
        },
        {
          "internalType": "string",
          "name": "newPeerNativeSymbol",
          "type": "string"
        }
      ],
      "name": "setPeer",
      "outputs": [],
      "stateMutability": "nonpayable",
      "type": "function"
    },
    {
      "inputs": [
        {
          "internalType": "uint256",
          "name": "originalChainId",
          "type": "uint256"
        },
        {
          "internalType": "address",
          "name": "originalToken",
          "type": "address"
        },
        {
          "internalType": "uint256",
          "name": "tokenId",
          "type": "uint256"
        },
        {
          "internalType": "string",
          "name": "tokenName",
          "type": "string"
        },
        {
          "internalType": "string",
          "name": "tokenSymbol",
          "type": "string"
        },
        {
          "internalType": "string",
          "name": "tokenUri",
          "type": "string"
        },
        {
          "internalType": "address",
          "name": "recipient",
          "type": "address"
        }
      ],
      "name": "transferFrom",
      "outputs": [],
      "stateMutability": "nonpayable",
      "type": "function"
    },
    {
      "inputs": [
        {
          "internalType": "address",
          "name": "token",
          "type": "address"
        },
        {
          "internalType": "uint256",
          "name": "tokenId",
          "type": "uint256"
        },
        {
          "internalType": "uint256",
          "name": "targetChainId",
          "type": "uint256"
        },
        {
          "internalType": "address",
          "name": "recipient",
          "type": "address"
        }
      ],
      "name": "transferTo",
      "outputs": [
        {
          "components": [
            {
              "internalType": "uint256",
              "name": "initialChainId",
              "type": "uint256"
            },
            {
              "internalType": "address",
              "name": "sender",
              "type": "address"
            },
            {
              "internalType": "address",
              "name": "payer",
              "type": "address"
            },
            {
              "internalType": "uint256",
              "name": "targetChainId",
              "type": "uint256"
            },
            {
              "internalType": "address",
              "name": "target",
              "type": "address"
            },
            {
              "internalType": "uint256",
              "name": "value",
              "type": "uint256"
            },
            {
              "internalType": "bytes",
              "name": "data",
              "type": "bytes"
            },
            {
              "internalType": "uint256",
              "name": "_nonce",
              "type": "uint256"
            }
          ],
          "internalType": "struct YarLib.YarTX",
          "name": "",
          "type": "tuple"
        }
      ],
      "stateMutability": "nonpayable",
      "type": "function"
    },
    {
      "inputs": [],
      "name": "yarRequest",
      "outputs": [
        {
          "internalType": "address",
          "name": "",
          "type": "address"
        }
      ],
      "stateMutability": "view",
      "type": "function"
    },
    {
      "inputs": [],
      "name": "yarResponse",
      "outputs": [
        {
          "internalType": "address",
          "name": "",
          "type": "address"
        }
      ],
      "stateMutability": "view",
      "type": "function"
    }
  ],
  "transactionHash": "0x9888ee761097d6771319d2bba51ce5e632893990fcfde60c18c07ca20e9b84e7",
  "args": [
    "0x31A596C0B1258Eb6f4ABE2A5DC20507B83792C6c",
    "0xF45E0f4e67E07bCE2EFD185dFDaD8430A4183F67"
  ],
  "numDeployments": 1,
  "solcInputHash": "eebf34c3d08feb95b3c445e6e84674d6",
  "bytecode": "0x6080346100f8576001600160401b03601f620037c838819003918201601f1916840191838311858410176100e25780859260409485528339810103126100f857610054602061004d846100fd565b93016100fd565b600280546001600160a01b03199081166001600160a01b03958616179091556003805482169285169290921790915560405190929161206790818301908111838210176100e257829162001761833903906000f080156100d65716816004541617600455466001553390600054161760005560405161164f9081620001128239f35b6040513d6000823e3d90fd5b634e487b7160e01b600052604160045260246000fd5b600080fd5b51906001600160a01b03821682036100f85756fe608080604052600436101561001357600080fd5b600090813560e01c9081630a4c6b7e1461095157508063150b7a02146108fa57806367ebb6b2146108af5780637078944c146108865780638c69665e1461042d5780638da5cb5b146104065780639941138a146101f357806399f3f9f7146101ba5780639a8a05921461019c578063be4f3e8f14610143578063c287e57814610104578063e6a1496d146100db5763f4100f00146100b057600080fd5b346100d857806003193601126100d8576002546040516001600160a01b039091168152602090f35b80fd5b50346100d857806003193601126100d8576003546040516001600160a01b039091168152602090f35b50346100d85760203660031901126100d85760209060ff906040906001600160a01b0361012f610d77565b168152600584522054166040519015158152f35b50346100d85760203660031901126100d857600435815260066020526040902080546001600160a01b03169061017b90600101610f5e565b906101986040519283928352604060208401526040830190610dc6565b0390f35b50346100d857806003193601126100d8576020600154604051908152f35b50346100d85760403660031901126100d85760206101e16101d9610d8d565b6004356110a2565b6040516001600160a01b039091168152f35b50346100d85760603660031901126100d85761020d610d8d565b6001600160401b03906044358281116104025761022e903690600401610e5b565b84549193916001600160a01b0390811633036103cf57806040519461025286610f07565b1684528561025f83611004565b9561026d6040519788610f3d565b83875236848201116103cb57836020948592838a013787010152818401948552600435865260068252604086209351166bffffffffffffffffffffffff60a01b8454161783556001809301935180519283116103b7576102cd8554610e88565b601f8111610371575b5081601f841160011461031057509282939183928794610305575b50501b916000199060031b1c191617905580f35b0151925038806102f1565b919083601f1981168789528489209489905b88838310610357575050501061033e575b505050811b01905580f35b015160001960f88460031b161c19169055388080610333565b858701518855909601959485019487935090810190610322565b858752828720601f850160051c8101918486106103ad575b601f0160051c019085905b8281106103a25750506102d6565b888155018590610394565b9091508190610389565b634e487b7160e01b86526041600452602486fd5b5080fd5b60405162461bcd60e51b815260206004820152600b60248201526a6f6e6c79206f776e65722160a81b6044820152606490fd5b8380fd5b50346100d857806003193601126100d857546040516001600160a01b039091168152602090f35b50346100d85760e03660031901126100d857610447610d8d565b6001600160401b03919060643583811161088257610469903690600401610e5b565b60849291923585811161062557610484903690600401610e5b565b60a43587811161087e5761049c903690600401610e5b565b60c4359690949193906001600160a01b0388168803610879576003546001600160a01b03163381900361084057896004916040519283809263f0db1fbf60e01b82525afa9081156107ce578a9161081e575b5080516001600160a01b03906105039061101f565b511690602060018060a01b0391015116036107ed57600154600435036105a45750505050505082935060018060a01b0316803b156105a057604051632142170760e11b81523060048201526001600160a01b039092166024830152604480359083015282908290818381606481015b03925af180156105955761058557505080f35b61058e90610ef4565b6100d85780f35b6040513d84823e3d90fd5b5050fd5b94969593946001600160a01b036105bd866004356110a2565b1694858a52600560205260ff60408b20541615610629575b5050505050849550803b156106255761057293858094604051968795869485936334ff261960e21b855260018060a01b0316600485015260443560248501526060604485015260648401916112ab565b8480fd5b6040805160043560208201908152606084901b6bffffffffffffffffffffffff19169282019290925261066981605481015b03601f198101835282610f3d565b5190206040519b8c61034d810110908d61034d0111176107d9578a9b61034d6112cd82398061034d810103908cf580156107ce5761073e926107309160018060a01b03169660018060a01b03600454169561072160206106ca60043561101f565b0151604051630e11c70560e31b602082015260043560248201526001600160a01b03909716604488015260a060648801529598899661070d9060c4890190610dc6565b9060231995868984030160848a01526112ab565b928584030160a48601526112ab565b03601f198101845283610f3d565b823b156107ca57610773918891604051938492839263c0d91eaf60e01b84526004840152604060248401526044830190610dc6565b038183865af19081156107bf5787916107a7575b5052600560205260408520805460ff1916600117905538808080806105d5565b6107b090610ef4565b6107bb578538610787565b8580fd5b6040513d89823e3d90fd5b8780fd5b6040513d8c823e3d90fd5b634e487b7160e01b8b52604160045260248bfd5b60405162461bcd60e51b81526020600482015260096024820152686e6f7420706565722160b81b6044820152606490fd5b61083a91503d808c833e6108328183610f3d565b8101906111f0565b386104ee565b60405162461bcd60e51b81526020600482015260116024820152704f6e6c7920596172526573706f6e73652160781b6044820152606490fd5b600080fd5b8680fd5b8280fd5b50346100d857806003193601126100d8576004546040516001600160a01b039091168152602090f35b50346100d85760203660031901126100d85760206108ce60043561101f565b61019860405192839281845260018060a01b038151168285015201516040808401526060830190610dc6565b50346100d85760803660031901126100d857610914610d77565b5061091d610d8d565b506064356001600160401b0381116103cb5761093d903690600401610e5b565b5050604051630a85bd0160e11b8152602090f35b9050346103cb5760803660031901126103cb5761096c610d77565b604435916001600160a01b039160243591906064358481169081900361087e5761099583610ec2565b8683528660e060209482868201528260408201528260608201528260808201528260a0820152606060c08201520152848216936040516306fdde0360e01b81528881600481895afa899181610d5b575b50610d5557506040516109f781610f22565b888152905b6040516395d89b4160e01b815289816004818a5afa8a9181610d39575b50610d335750604051610a2b81610f22565b898152915b60405163c87b56dd60e01b8152600481018390528a816024818b5afa8b9181610d0e575b50610d085750604051610a6681610f22565b8a8152915b878b526005875260408b205460ff16958615610cff576040516306bc461b60e11b815288816004818d5afa908115610cf4578d91610cc3575b50965b15610cbd5750604051630e7c1cb560e01b815287816004818c5afa908115610c79578c91610c88575b50975b803b15610c8457604051632142170760e11b815233600482015230602482015260448101839052908c908290606490829084905af18015610c7957610c42575b5093610b888b9a9794610b9c94610b79610b668d9a968f9e9a610c039e9b6040519c8d9a8d634634b32f60e11b908d015260248c01521660448a0152606489015260e06084890152610104880190610dc6565b60231993848883030160a4890152610dc6565b918583030160c4860152610dc6565b9060e483015203601f198101845283610f3d565b6001549383610baa8261101f565b51169160405195610bba87610ec2565b86523090860152336040860152606085015260808401528460a084015260c08301528360e083015260025416906040519485809481936334db7e0560e21b835260048301610deb565b03925af190811561059557826101989392610c27575b505060405191829182610deb565b610c3b92503d8091833e6108328183610f3d565b3880610c19565b610c039895919996929a9794610b9c94610b79610b669e610c65610b8895610ef4565b9e5050945094979a92969991959850610b13565b6040513d8e823e3d90fd5b8b80fd5b90508781813d8311610cb6575b610c9f8183610f3d565b81010312610c8457610cb0906111dc565b38610ad0565b503d610c95565b97610ad3565b90508881813d8311610ced575b610cda8183610f3d565b81010312610ce9575138610aa4565b8c80fd5b503d610cd0565b6040513d8f823e3d90fd5b60015496610aa7565b91610a6b565b610d2c9192508c3d8091833e610d248183610f3d565b8101906111a6565b9038610a54565b91610a30565b610d4e9192503d808d833e610d248183610f3d565b9038610a19565b906109fc565b610d709192503d808c833e610d248183610f3d565b90386109e5565b600435906001600160a01b038216820361087957565b602435906001600160a01b038216820361087957565b60005b838110610db65750506000910152565b8181015183820152602001610da6565b90602091610ddf81518092818552858086019101610da3565b601f01601f1916010190565b602081528151602082015260018060a01b038060208401511660408301528060408401511660608301526060830151608083015260808301511660a082015260a082015160c082015260c082015160e0610e52610100928383860152610120850190610dc6565b93015191015290565b9181601f84011215610879578235916001600160401b038311610879576020838186019501011161087957565b90600182811c92168015610eb8575b6020831014610ea257565b634e487b7160e01b600052602260045260246000fd5b91607f1691610e97565b61010081019081106001600160401b03821117610ede57604052565b634e487b7160e01b600052604160045260246000fd5b6001600160401b038111610ede57604052565b604081019081106001600160401b03821117610ede57604052565b602081019081106001600160401b03821117610ede57604052565b90601f801991011681019081106001600160401b03821117610ede57604052565b9060405191826000825492610f7284610e88565b908184526001948581169081600014610fe15750600114610f9e575b5050610f9c92500383610f3d565b565b9093915060005260209081600020936000915b818310610fc9575050610f9c93508201013880610f8e565b85548884018501529485019487945091830191610fb1565b915050610f9c94506020925060ff191682840152151560051b8201013880610f8e565b6001600160401b038111610ede57601f01601f191660200190565b6060602060405161102f81610f07565b600081520152600052600660205260406000206040519061104f82610f07565b80546001600160a01b0390811683529061106b90600101610f5e565b602083015281511661109f575060405161108481610f07565b30815260405161109381610f22565b60008152602082015290565b90565b6040516110d78161065b6020958683019586909160349282526bffffffffffffffffffffffff199060601b1660208201520190565b51902061034d6040516110ec84830182610f3d565b818152838101916112cd833961112084604051809361111383830196879251928391610da3565b8101038084520182610f3d565b5190206040519283019160ff60f81b83523060601b60218501526035840152605583015260558252608082018281106001600160401b03821117610ede57604052905190206001600160a01b031690565b9092919261117e81611004565b9161118c6040519384610f3d565b829482845282820111610879576020610f9c930190610da3565b602081830312610879578051906001600160401b03821161087957019080601f8301121561087957815161109f92602001611171565b51906001600160a01b038216820361087957565b906020828203126108795781516001600160401b0392838211610879570161010081830312610879576040519261122684610ec2565b81518452611236602083016111dc565b6020850152611247604083016111dc565b604085015260608201516060850152611262608083016111dc565b608085015260a082015160a085015260c082015190811161087957810182601f820112156108795760e09281602061129c93519101611171565b60c0840152015160e082015290565b908060209392818452848401376000828201840152601f01601f191601019056fe6080806040523461001657610331908161001c8239f35b600080fdfe60806040526004361061010f576000803560e01c63c0d91eaf14610023575061010f565b346100af5760403660031901126100af576004356001600160a01b03811681036100a75760243567ffffffffffffffff81116100ab57366023820112156100ab578060040135918361007c610077856100f3565b6100c8565b9284845236602486830101116100a757846100a495602460209301838701378401015261015b565b80f35b5080fd5b8280fd5b80fd5b634e487b7160e01b600052604160045260246000fd5b6040519190601f01601f1916820167ffffffffffffffff8111838210176100ee57604052565b6100b2565b67ffffffffffffffff81116100ee57601f01601f191660200190565b7f360894a13ba1a3210667c828492db98dca3e2076cc3735a920a3ca505d382bbc54600090819081906001600160a01b0316368280378136915af43d82803e15610157573d90f35b3d90fd5b9060005460ff81166102295760ff1916600117600055813b15610208577f360894a13ba1a3210667c828492db98dca3e2076cc3735a920a3ca505d382bbc80546001600160a01b0319166001600160a01b0384169081179091557fbc7cd75a20ee27fd9adebab32041f755214dbc6bffa90cc0225b39da2e5c2d3b600080a28051156101ed576101ea9161025d565b50565b5050346101f657565b60405163b398979f60e01b8152600490fd5b604051634c9c8ce360e01b81526001600160a01b0383166004820152602490fd5b60405162461bcd60e51b815260206004820152600c60248201526b616c7265616479496e69742160a01b6044820152606490fd5b60008061029193602081519101845af43d15610294573d91610281610077846100f3565b9283523d6000602085013e610298565b90565b6060915b906102bf57508051156102ad57805190602001fd5b604051630a12f52160e11b8152600490fd5b815115806102f2575b6102d0575090565b604051639996b31560e01b81526001600160a01b039091166004820152602490fd5b50803b156102c856fea2646970667358221220e290ecc1e089760514aff988002864de709093e868dd9aa4bc700ec1eda2ca6864736f6c63430008140033a2646970667358221220c6dd4c5f96e91a97e207896165a3d437f4241eeddc4fb3a35db1cad4ddd1a89564736f6c63430008140033608080604052346100165761204b908161001c8239f35b600080fdfe608080604052600436101561001357600080fd5b60003560e01c90816301ffc9a7146116045750806306fdde0314611561578063081812fc14611516578063095ea7b31461142f5780630d788c36146114115780630e7c1cb5146113e85780631253c5461461058b57806323b872dd146113d157806342842e0e146113a357806342966c68146112de57806352694c6b146112c25780636352211e14611292578063708e38281461092a57806370a08231146108d5578063715018a61461086b5780638da5cb5b1461083557806395d89b4114610767578063989ee11a146106ea578063a22cb4651461064a578063b88d4fde146105b7578063c87b56dd1461058b578063d3fc98641461020b578063e43a938f146101ef578063e8cfdce9146101bb578063e985e9c51461016d5763f2fde38b1461013d57600080fd5b34610168576020366003190112610168576101666101596116af565b610161611a3e565b611a77565b005b600080fd5b34610168576040366003190112610168576101866116af565b6101976101916116c5565b91611b24565b9060018060a01b0316600052602052602060ff604060002054166040519015158152f35b34610168576000366003190112610168576101eb6101d7611896565b60405191829160208352602083019061166f565b0390f35b34610168576000366003190112610168576101eb6101d76117fd565b34610168576060366003190112610168576102246116af565b6024906001600160401b038235604435828111610168576102499036906004016119f6565b610254939193611a3e565b8260005260209360058552604060002092821161057657819061027784546116db565b601f8111610525575b50600090601f83116001146104bb576000926104b0575b50508160011b916000199060031b1c19161790555b6040516102b881611715565b600081526001600160a01b038481169490851561049857836000528386600080516020611f7683398151915292838852604060002054168015159384610479575b61030286611aeb565b600181540190558360005288526040600020826001600160601b0360a01b8254161790557fddf252ad1be2c89b69c2b068fc378daa952ba7f163c4a11628f55a4df523b3ef600080a4610461573b61035657005b826103909160405180938192630a85bd0160e11b9687845233600485015260008b850152604484015260806064840152608483019061166f565b03816000885af160009181610421575b506103f95750503d156103f2573d6103b781611a23565b906103c56040519283611730565b81523d60008383013e5b805191826103ef5750505060405190633250574960e11b82526004820152fd5b01fd5b60606103cf565b6001600160e01b03191603905061040c57005b60405190633250574960e11b82526004820152fd5b9091508381813d831161045a575b6104398183611730565b8101031261016857516001600160e01b0319811681036101685790866103a0565b503d61042f565b6040516339e3563760e11b8152600060048201528690fd5b61048284611d02565b61048b82611aeb565b80546000190190556102f9565b604051633250574960e11b8152600060048201528790fd5b013590508780610297565b909150601f1983169184600052866000209260005b8882821061050f5750509084600195949392106104f5575b505050811b0190556102ac565b0135600019600384901b60f8161c191690558780806104e8565b60018496829395870135815501950192016104d0565b9091508360005285600020601f840160051c81019187851061056c575b90601f859493920160051c01905b81811061055d5750610280565b60008155849350600101610550565b9091508190610542565b86634e487b7160e01b60005260416004526000fd5b346101685760203660031901126101685760043560005260056020526101eb6101d7604060002061191d565b34610168576080366003190112610168576105d06116af565b6105d86116c5565b90604435606435926001600160401b03841161016857366023850112156101685783600401359261060884611a23565b936106166040519586611730565b808552366024828801011161016857602081600092602461016699018389013786010152610645838383611b5d565b611d5e565b34610168576040366003190112610168576106636116af565b60243590811515809203610168576001600160a01b03169081156106d15761068a33611b24565b82600052602052604060002060ff1981541660ff83161790556040519081527f17307eab39ab6107e8899845ad3d59bd9653f200f220920489ca2b5937696c3160203392a3005b604051630b61174360e31b815260048101839052602490fd5b34610168576000366003190112610168576000546001546001600160a01b0316906101eb6107166117fd565b610759610721611751565b61074b61072c611896565b936040519788978852602088015260a0604088015260a087019061166f565b90858203606087015261166f565b90838203608085015261166f565b34610168576000366003190112610168576040516000600080516020611fd68339815191528054610797816116db565b8085529160019180831690811561080b57506001146107c1575b6101eb856101d781870382611730565b60009081529250600080516020611f368339815191525b8284106107f35750505081016020016101d7826101eb6107b1565b805460208587018101919091529093019281016107d8565b8695506101eb969350602092506101d794915060ff191682840152151560051b82010192936107b1565b3461016857600036600319011261016857600080516020611f56833981519152546040516001600160a01b039091168152602090f35b3461016857600036600319011261016857610884611a3e565b600080516020611f5683398151915280546001600160a01b031981169091556000906001600160a01b03167f8be0079c531659141344cd1fd0a4f28419497f9722a3daafe3b4186f6b6457e08280a3005b34610168576020366003190112610168576108ee6116af565b6001600160a01b0381161561091157610908602091611aeb565b54604051908152f35b6040516322718ad960e21b815260006004820152602490fd5b346101685760a0366003190112610168576109436116c5565b6044356001600160401b038111610168576109629036906004016119f6565b916064356001600160401b038111610168576109829036906004016119f6565b6084939193356001600160401b038111610168576109a49036906004016119f6565b91600080516020611fb683398151915254956001600160401b03871680159081611282575b6001149081611278575b15908161126f575b5061125d5760016001600160401b0319881617600080516020611fb68339815191525560ff8760401c1615611230575b8760405183836020830137610a7e82858301610a4d8a8584601d60f91b9485602082015260219687948583013701600083820152036001810187520185611730565b6040519485918a8a60208501378a8301906020820152818c8583013701600083820152036001810185520183611730565b610a86611ea6565b610a8e611ea6565b8051906001600160401b038211610df6578190610ab9600080516020611f16833981519152546116db565b601f81116111af575b50602090601f831160011461111d57600092611112575b50508160011b916000199060031b1c191617600080516020611f16833981519152555b8051906001600160401b038211610df6578190610b27600080516020611fd6833981519152546116db565b601f8111611091575b50602090601f8311600114610fff57600092610ff4575b50508160011b916000199060031b1c191617600080516020611fd6833981519152555b610b72611ea6565b610b7a611ea6565b610b8333611a77565b6001600160401b038211610df6578190610b9e6002546116db565b601f8111610f80575b50600090601f8311600114610f0b57600092610f00575b50508160011b916000199060031b1c1916176002555b6001600160401b038211610df6578190610bef6003546116db565b601f8111610e8c575b50600090601f8311600114610e1757600092610e0c575b50508160011b916000199060031b1c1916176003555b6001600160401b038411610df657610c3e6004546116db565b601f8111610d91575b50600090601f8511600114610d095760ff949160009183610cfe575b50508160011b916000199060031b1c1916176004555b60043560005560018060a01b03166001600160601b0360a01b600154161760015560401c1615610ca557005b68ff000000000000000019600080516020611fb68339815191525416600080516020611fb6833981519152557fc7f505b2f371ae2175ee4913f4499e1f2633a7b5936321eed1cdaeb6115181d2602060405160018152a1005b013590508580610c63565b601f1985169160046000527f8a35acfbc15ff81a39ae7d344fd709f28e8600b4aa8c65c6b64bfe7fe36bd19b9260005b818110610d79575091600193918760ff989410610d5f575b505050811b01600455610c79565b0135600019600384901b60f8161c19169055858080610d51565b91936020600181928787013581550195019201610d39565b60046000527f8a35acfbc15ff81a39ae7d344fd709f28e8600b4aa8c65c6b64bfe7fe36bd19b601f860160051c81019160208710610dec575b601f0160051c01905b818110610de05750610c47565b60008155600101610dd3565b9091508190610dca565b634e487b7160e01b600052604160045260246000fd5b013590508680610c0f565b600360009081529350600080516020611ef6833981519152915b601f1984168510610e74576001945083601f19811610610e5a575b505050811b01600355610c25565b0135600019600384901b60f8161c19169055868080610e4c565b81810135835560209485019460019093019201610e31565b9091506003600052601f830160051c600080516020611ef68339815191520160208410610eeb575b908392915b601f820160051c600080516020611ef6833981519152018110610edc5750610bf8565b60008155849350600101610eb9565b50600080516020611ef6833981519152610eb4565b013590508880610bbe565b600260009081529350600080516020611ed6833981519152915b601f1984168510610f68576001945083601f19811610610f4e575b505050811b01600255610bd4565b0135600019600384901b60f8161c19169055888080610f40565b81810135835560209485019460019093019201610f25565b9091506002600052601f830160051c600080516020611ed68339815191520160208410610fdf575b908392915b601f820160051c600080516020611ed6833981519152018110610fd05750610ba7565b60008155849350600101610fad565b50600080516020611ed6833981519152610fa8565b015190508a80610b47565b9250600080516020611fd6833981519152600052600080516020611f36833981519152906000935b601f1984168510611076576001945083601f1981161061105d575b505050811b01600080516020611fd683398151915255610b6a565b015160001960f88460031b161c191690558a8080611042565b81810151835560209485019460019093019290910190611027565b909150600080516020611fd6833981519152600052601f830160051c600080516020611f3683398151915201602084106110fd575b908392915b601f820160051c600080516020611f368339815191520181106110ee5750610b30565b600081558493506001016110cb565b50600080516020611f368339815191526110c6565b015190508b80610ad9565b9250600080516020611f16833981519152600052600080516020611ff6833981519152906000935b601f1984168510611194576001945083601f1981161061117b575b505050811b01600080516020611f1683398151915255610afc565b015160001960f88460031b161c191690558b8080611160565b81810151835560209485019460019093019290910190611145565b909150600080516020611f16833981519152600052601f830160051c600080516020611ff6833981519152016020841061121b575b908392915b601f820160051c600080516020611ff683398151915201811061120c5750610ac2565b600081558493506001016111e9565b50600080516020611ff68339815191526111e4565b68ffffffffffffffffff1987166801000000000000000117600080516020611fb683398151915255610a0b565b60405163f92ee8a960e01b8152600490fd5b905015896109db565b303b1591506109d3565b604089901c60ff161591506109c9565b346101685760203660031901126101685760206112b0600435611d2e565b6040516001600160a01b039091168152f35b34610168576000366003190112610168576101eb6101d7611751565b34610168576020366003190112610168576004356112fa611a3e565b80600052600080516020611f768339815191528060205281600060018060a01b036040822054168015938415611385575b8383526020526040822080546001600160a01b03191690557fddf252ad1be2c89b69c2b068fc378daa952ba7f163c4a11628f55a4df523b3ef8280a461136d57005b60249060405190637e27328960e01b82526004820152fd5b61138e84611d02565b61139782611aeb565b8319815401905561132b565b34610168576101666113b4366119c1565b90604051926113c284611715565b60008452610645838383611b5d565b34610168576101666113e2366119c1565b91611b5d565b34610168576000366003190112610168576001546040516001600160a01b039091168152602090f35b34610168576000366003190112610168576020600054604051908152f35b34610168576040366003190112610168576114486116af565b60243561145481611d2e565b33151580611503575b806114e3575b6114cb576001600160a01b039283169282918491167f8c5be1e5ebec7d5bd14f71427d1e84f3dd0314c0f7b2291e5b200ac8c7c3b925600080a46000908152600080516020611f968339815191526020526040902080546001600160a01b0319169091179055005b60405163a9fbf51f60e01b8152336004820152602490fd5b506114ed81611b24565b3360005260205260ff6040600020541615611463565b506001600160a01b03811633141561145d565b346101685760203660031901126101685760043561153381611d2e565b50600052600080516020611f96833981519152602052602060018060a01b0360406000205416604051908152f35b34610168576000366003190112610168576040516000600080516020611f168339815191528054611591816116db565b8085529160019180831690811561080b57506001146115ba576101eb856101d781870382611730565b60009081529250600080516020611ff68339815191525b8284106115ec5750505081016020016101d7826101eb6107b1565b805460208587018101919091529093019281016115d1565b34610168576020366003190112610168576004359063ffffffff60e01b8216809203610168576020916380ac58cd60e01b811490811561165e575b811561164d575b5015158152f35b6301ffc9a760e01b14905083611646565b635b5e139f60e01b8114915061163f565b919082519283825260005b84811061169b575050826000602080949584010152601f8019910116010190565b60208183018101518483018201520161167a565b600435906001600160a01b038216820361016857565b602435906001600160a01b038216820361016857565b90600182811c9216801561170b575b60208310146116f557565b634e487b7160e01b600052602260045260246000fd5b91607f16916116ea565b602081019081106001600160401b03821117610df657604052565b90601f801991011681019081106001600160401b03821117610df657604052565b6040519060008260025491611765836116db565b808352926001908181169081156117db575060011461178e575b5061178c92500383611730565b565b600260009081529150600080516020611ed68339815191525b8483106117c0575061178c93505081016020013861177f565b81935090816020925483858a010152019101909185926117a7565b90506020925061178c94915060ff191682840152151560051b8201013861177f565b6040519060008260045491611811836116db565b808352926001908181169081156117db5750600114611837575061178c92500383611730565b6004600090815291507f8a35acfbc15ff81a39ae7d344fd709f28e8600b4aa8c65c6b64bfe7fe36bd19b5b84831061187b575061178c93505081016020013861177f565b81935090816020925483858a01015201910190918592611862565b60405190600082600354916118aa836116db565b808352926001908181169081156117db57506001146118d0575061178c92500383611730565b600360009081529150600080516020611ef68339815191525b848310611902575061178c93505081016020013861177f565b81935090816020925483858a010152019101909185926118e9565b9060405191826000825492611931846116db565b90818452600194858116908160001461199e575060011461195b575b505061178c92500383611730565b9093915060005260209081600020936000915b81831061198657505061178c9350820101388061194d565b8554888401850152948501948794509183019161196e565b91505061178c94506020925060ff191682840152151560051b820101388061194d565b6060906003190112610168576001600160a01b0390600435828116810361016857916024359081168103610168579060443590565b9181601f84011215610168578235916001600160401b038311610168576020838186019501011161016857565b6001600160401b038111610df657601f01601f191660200190565b600080516020611f56833981519152546001600160a01b03163303611a5f57565b60405163118cdaa760e01b8152336004820152602490fd5b6001600160a01b03908116908115611ad257600080516020611f5683398151915280546001600160a01b031981168417909155167f8be0079c531659141344cd1fd0a4f28419497f9722a3daafe3b4186f6b6457e0600080a3565b604051631e4fbdf760e01b815260006004820152602490fd5b6001600160a01b031660009081527f80bb2b638cc20bc4d0a60d66940f3ab4a00c1d7b313497ca82fb0b4ab00793036020526040902090565b6001600160a01b031660009081527f80bb2b638cc20bc4d0a60d66940f3ab4a00c1d7b313497ca82fb0b4ab00793056020526040902090565b6001600160a01b0382811693918415611ce95782600095818752600080516020611f76833981519152958660205260409785898220541697889233151580611c43575b5090611bd27fddf252ad1be2c89b69c2b068fc378daa952ba7f163c4a11628f55a4df523b3ef939285611c2457611aeb565b8054600101905585825260205289812080546001600160a01b0319168517905580a41692838303611c035750505050565b6064945051926364283d7b60e01b8452600484015260248301526044820152fd5b611c2d88611d02565b611c3686611aeb565b8054600019019055611aeb565b9193509193945080611c9a575b15611c615791879187949338611ba0565b888789611c7e576024915190637e27328960e01b82526004820152fd5b604491519063177e802f60e01b82523360048301526024820152fd5b503388148015611ccd575b80611c505750868352600080516020611f9683398151915260205233868a8520541614611c50565b50611cd788611b24565b33845260205260ff8984205416611ca5565b604051633250574960e11b815260006004820152602490fd5b600052600080516020611f9683398151915260205260406000206001600160601b0360a01b8154169055565b6000818152600080516020611f7683398151915260205260409020546001600160a01b031690811561136d575090565b813b611d6b575b50505050565b604051630a85bd0160e11b8082523360048301526001600160a01b03928316602483015260448201949094526080606482015260209592909116939092908390611db990608483019061166f565b039285816000958187895af1849181611e62575b50611e2d575050503d600014611e25573d611de781611a23565b90611df56040519283611730565b81528091843d92013e5b80519283611e2057604051633250574960e11b815260048101849052602490fd5b019050fd5b506060611dff565b919450915063ffffffff60e01b1603611e4a575038808080611d65565b60249060405190633250574960e11b82526004820152fd5b9091508681813d8311611e9f575b611e7a8183611730565b81010312611e9b57516001600160e01b031981168103611e9b579038611dcd565b8480fd5b503d611e70565b60ff600080516020611fb68339815191525460401c1615611ec357565b604051631afcd79f60e31b8152600490fdfe405787fa12a823e0f2b7631cc41b3ba8828b3321ca811111fa75cd3aa3bb5acec2575a0e9e593c00f959f8c92f12db2869c3395a3b0502d05e2516446f71f85b80bb2b638cc20bc4d0a60d66940f3ab4a00c1d7b313497ca82fb0b4ab0079300f4bad0a69248f59680a4f2b3000328cec71a413447c96781cfe5996daa8c456e9016d09d72d40fdae2fd8ceac6b6234c7706214fd39c1cd1e609a0528c19930080bb2b638cc20bc4d0a60d66940f3ab4a00c1d7b313497ca82fb0b4ab007930280bb2b638cc20bc4d0a60d66940f3ab4a00c1d7b313497ca82fb0b4ab0079304f0c57e16840df040f15088dc2f81fe391c3923bec73e23a9662efc9c229c6a0080bb2b638cc20bc4d0a60d66940f3ab4a00c1d7b313497ca82fb0b4ab007930137c58c799b6609234b945e882912ee9ad34948a1dfaa20a97485e1a7752bbf81a2646970667358221220364a0facd698d9d9972406e895bd89407c1bd4e8a3a1d3bf99457df8f23abe9c64736f6c63430008140033",
  "devdoc": {
    "kind": "dev",
    "methods": {},
    "version": 1
  },
  "userdoc": {
    "kind": "user",
    "methods": {},
    "version": 1
  },
  "storageLayout": {
    "storage": [
      {
        "astId": 6758,
        "contract": "contracts/apps/bridge721/YarBridge721.sol:YarBridge721",
        "label": "owner",
        "offset": 0,
        "slot": "0",
        "type": "t_address"
      },
      {
        "astId": 6760,
        "contract": "contracts/apps/bridge721/YarBridge721.sol:YarBridge721",
        "label": "chainId",
        "offset": 0,
        "slot": "1",
        "type": "t_uint256"
      },
      {
        "astId": 6762,
        "contract": "contracts/apps/bridge721/YarBridge721.sol:YarBridge721",
        "label": "yarRequest",
        "offset": 0,
        "slot": "2",
        "type": "t_address"
      },
      {
        "astId": 6764,
        "contract": "contracts/apps/bridge721/YarBridge721.sol:YarBridge721",
        "label": "yarResponse",
        "offset": 0,
        "slot": "3",
        "type": "t_address"
      },
      {
        "astId": 6766,
        "contract": "contracts/apps/bridge721/YarBridge721.sol:YarBridge721",
        "label": "bridgedTokenImplementation",
        "offset": 0,
        "slot": "4",
        "type": "t_address"
      },
      {
        "astId": 6770,
        "contract": "contracts/apps/bridge721/YarBridge721.sol:YarBridge721",
        "label": "isBridgedToken",
        "offset": 0,
        "slot": "5",
        "type": "t_mapping(t_address,t_bool)"
      },
      {
        "astId": 6780,
        "contract": "contracts/apps/bridge721/YarBridge721.sol:YarBridge721",
        "label": "peers",
        "offset": 0,
        "slot": "6",
        "type": "t_mapping(t_uint256,t_struct(PeerInfo)6775_storage)"
      }
    ],
    "types": {
      "t_address": {
        "encoding": "inplace",
        "label": "address",
        "numberOfBytes": "20"
      },
      "t_bool": {
        "encoding": "inplace",
        "label": "bool",
        "numberOfBytes": "1"
      },
      "t_mapping(t_address,t_bool)": {
        "encoding": "mapping",
        "key": "t_address",
        "label": "mapping(address => bool)",
        "numberOfBytes": "32",
        "value": "t_bool"
      },
      "t_mapping(t_uint256,t_struct(PeerInfo)6775_storage)": {
        "encoding": "mapping",
        "key": "t_uint256",
        "label": "mapping(uint256 => struct YarBridge721.PeerInfo)",
        "numberOfBytes": "32",
        "value": "t_struct(PeerInfo)6775_storage"
      },
      "t_string_storage": {
        "encoding": "bytes",
        "label": "string",
        "numberOfBytes": "32"
      },
      "t_struct(PeerInfo)6775_storage": {
        "encoding": "inplace",
        "label": "struct YarBridge721.PeerInfo",
        "members": [
          {
            "astId": 6772,
            "contract": "contracts/apps/bridge721/YarBridge721.sol:YarBridge721",
            "label": "peerAddress",
            "offset": 0,
            "slot": "0",
            "type": "t_address"
          },
          {
            "astId": 6774,
            "contract": "contracts/apps/bridge721/YarBridge721.sol:YarBridge721",
            "label": "nativeSymbol",
            "offset": 0,
            "slot": "1",
            "type": "t_string_storage"
          }
        ],
        "numberOfBytes": "64"
      },
      "t_uint256": {
        "encoding": "inplace",
        "label": "uint256",
        "numberOfBytes": "32"
      }
    }
  }
}