{
  "address": "0xdC5b20009d1664E42299fE8316402358720A7bA0",
  "abi": [
    {
      "inputs": [
        {
          "internalType": "address",
          "name": "intialYarRequest",
          "type": "address"
        },
        {
          "internalType": "address",
          "name": "intialYarResponse",
          "type": "address"
        }
      ],
      "stateMutability": "nonpayable",
      "type": "constructor"
    },
    {
      "inputs": [],
      "name": "chainId",
      "outputs": [
        {
          "internalType": "uint256",
          "name": "",
          "type": "uint256"
        }
      ],
      "stateMutability": "view",
      "type": "function"
    },
    {
      "inputs": [
        {
          "internalType": "address",
          "name": "receiver",
          "type": "address"
        },
        {
          "internalType": "address",
          "name": "sender",
          "type": "address"
        },
        {
          "internalType": "uint256",
          "name": "offset",
          "type": "uint256"
        },
        {
          "internalType": "uint256",
          "name": "limit",
          "type": "uint256"
        }
      ],
      "name": "getMessages",
      "outputs": [
        {
          "components": [
            {
              "internalType": "address",
              "name": "sender",
              "type": "address"
            },
            {
              "internalType": "address",
              "name": "receiver",
              "type": "address"
            },
            {
              "internalType": "string",
              "name": "message",
              "type": "string"
            },
            {
              "internalType": "uint256",
              "name": "timestamp",
              "type": "uint256"
            }
          ],
          "internalType": "struct YarBridgeMessage.Message[]",
          "name": "",
          "type": "tuple[]"
        }
      ],
      "stateMutability": "view",
      "type": "function"
    },
    {
      "inputs": [
        {
          "internalType": "uint256",
          "name": "_chainId",
          "type": "uint256"
        }
      ],
      "name": "getPeer",
      "outputs": [
        {
          "internalType": "address",
          "name": "",
          "type": "address"
        }
      ],
      "stateMutability": "view",
      "type": "function"
    },
    {
      "inputs": [],
      "name": "messageCount",
      "outputs": [
        {
          "internalType": "uint256",
          "name": "",
          "type": "uint256"
        }
      ],
      "stateMutability": "view",
      "type": "function"
    },
    {
      "inputs": [
        {
          "internalType": "uint256",
          "name": "",
          "type": "uint256"
        }
      ],
      "name": "messages",
      "outputs": [
        {
          "internalType": "address",
          "name": "sender",
          "type": "address"
        },
        {
          "internalType": "address",
          "name": "receiver",
          "type": "address"
        },
        {
          "internalType": "string",
          "name": "message",
          "type": "string"
        },
        {
          "internalType": "uint256",
          "name": "timestamp",
          "type": "uint256"
        }
      ],
      "stateMutability": "view",
      "type": "function"
    },
    {
      "inputs": [],
      "name": "owner",
      "outputs": [
        {
          "internalType": "address",
          "name": "",
          "type": "address"
        }
      ],
      "stateMutability": "view",
      "type": "function"
    },
    {
      "inputs": [
        {
          "internalType": "uint256",
          "name": "chainId",
          "type": "uint256"
        }
      ],
      "name": "peers",
      "outputs": [
        {
          "internalType": "address",
          "name": "peer",
          "type": "address"
        }
      ],
      "stateMutability": "view",
      "type": "function"
    },
    {
      "inputs": [
        {
          "internalType": "address",
          "name": "sender",
          "type": "address"
        },
        {
          "internalType": "address",
          "name": "receiver",
          "type": "address"
        },
        {
          "internalType": "string",
          "name": "message",
          "type": "string"
        }
      ],
      "name": "sendFrom",
      "outputs": [],
      "stateMutability": "nonpayable",
      "type": "function"
    },
    {
      "inputs": [
        {
          "internalType": "uint256",
          "name": "targetChainId",
          "type": "uint256"
        },
        {
          "internalType": "address",
          "name": "receiver",
          "type": "address"
        },
        {
          "internalType": "string",
          "name": "message",
          "type": "string"
        }
      ],
      "name": "sendTo",
      "outputs": [
        {
          "components": [
            {
              "internalType": "uint256",
              "name": "initialChainId",
              "type": "uint256"
            },
            {
              "internalType": "address",
              "name": "sender",
              "type": "address"
            },
            {
              "internalType": "address",
              "name": "payer",
              "type": "address"
            },
            {
              "internalType": "uint256",
              "name": "targetChainId",
              "type": "uint256"
            },
            {
              "internalType": "address",
              "name": "target",
              "type": "address"
            },
            {
              "internalType": "uint256",
              "name": "value",
              "type": "uint256"
            },
            {
              "internalType": "bytes",
              "name": "data",
              "type": "bytes"
            },
            {
              "internalType": "uint256",
              "name": "_nonce",
              "type": "uint256"
            }
          ],
          "internalType": "struct YarLib.YarTX",
          "name": "",
          "type": "tuple"
        }
      ],
      "stateMutability": "nonpayable",
      "type": "function"
    },
    {
      "inputs": [
        {
          "internalType": "uint256",
          "name": "newChainId",
          "type": "uint256"
        },
        {
          "internalType": "address",
          "name": "newPeer",
          "type": "address"
        }
      ],
      "name": "setPeer",
      "outputs": [],
      "stateMutability": "nonpayable",
      "type": "function"
    },
    {
      "inputs": [],
      "name": "yarRequest",
      "outputs": [
        {
          "internalType": "address",
          "name": "",
          "type": "address"
        }
      ],
      "stateMutability": "view",
      "type": "function"
    },
    {
      "inputs": [],
      "name": "yarResponse",
      "outputs": [
        {
          "internalType": "address",
          "name": "",
          "type": "address"
        }
      ],
      "stateMutability": "view",
      "type": "function"
    }
  ],
  "transactionHash": "0xf032594e4d1862fcf932c109dbe990fb54db97446a37d24e3c2234befb8b1c34",
  "args": [
    "0x31A596C0B1258Eb6f4ABE2A5DC20507B83792C6c",
    "0xF45E0f4e67E07bCE2EFD185dFDaD8430A4183F67"
  ],
  "numDeployments": 1,
  "solcInputHash": "d3298a8a0f32c311c2b74a25d22af00e",
  "bytecode": "0x60803461009557601f610fac38819003918201601f19168301916001600160401b0383118484101761009a57808492604094855283398101031261009557610052602061004b836100b0565b92016100b0565b60018060a01b03908160018060a01b03199316836002541617600255168160035416176003554660015533906000541617600055604051610ee790816100c58239f35b600080fd5b634e487b7160e01b600052604160045260246000fd5b51906001600160a01b03821682036100955756fe6040608081526004908136101561001557600080fd5b600091823560e01c90816301af48d61461088f5781630d80fefd146108135781633dbcc8d1146107f457816367ebb6b2146107c05781638069c4971461073b578163863d1f20146104a95781638da5cb5b1461048157816398c2b2341461014f5781639a8a059214610130578163be4f3e8f146100fa57508063e6a1496d146100d25763f4100f00146100a757600080fd5b346100ce57816003193601126100ce5760025490516001600160a01b039091168152602090f35b5080fd5b50346100ce57816003193601126100ce5760035490516001600160a01b039091168152602090f35b90503461012c57602036600319011261012c57803583526020908152918190205490516001600160a01b039091168152f35b8280fd5b5050346100ce57816003193601126100ce576020906001549051908152f35b8383346100ce5760603660031901126100ce5761016a610a32565b90610173610a17565b9060443567ffffffffffffffff9586821161047d573660238301121561047d5781810135918783116104795760249036828583010111610475576003546001600160a01b03949085163381900361043f5790898594939288519687809263f0db1fbf60e01b82525afa948515610435578a95610411575b506101f58551610cf4565b8680602080980151169116036103e3579061022b918688519a6102178c610a7b565b168a5286868b019916895283369201610ad5565b948701948552606087019542875260055494680100000000000000008610156103d15761025f600196878101600555610bc4565b9990996103c05781905116906bffffffffffffffffffffffff60a01b91828b5416178a55868a0192511690825416179055600287019451918251998a116103af5750506102ac8454610c14565b601f8111610369575b5081601f891160011461030557509680928192889960039899946102fa575b50501b9160001990861b1c19161790555b519101556102f4600654610ea2565b60065580f35b0151925089806102d4565b909791601f198316988589528289209289905b8b821061035257505083600398999a1061033a575b505050811b0190556102e5565b015160001983881b60f8161c1916905587808061032d565b808785968294968601518155019501930190610318565b848852828820601f8a0160051c810191848b106103a5575b601f0160051c019084905b82811061039a5750506102b5565b89815501849061038c565b9091508190610381565b634e487b7160e01b89526041905287fd5b634e487b7160e01b8b528a8552838bfd5b634e487b7160e01b8a5260418452828afd5b865162461bcd60e51b8152808501869052600981850152686e6f7420706565722160b81b6044820152606490fd5b61042e9195503d808c833e6104268183610a97565b810190610d2d565b938b6101ea565b87513d8c823e3d90fd5b865162461bcd60e51b8152602081870152601181860152704f6e6c7920596172526573706f6e73652160781b6044820152606490fd5b8780fd5b8680fd5b8580fd5b5050346100ce57816003193601126100ce57905490516001600160a01b039091168152602090f35b839150346100ce576080928360031936011261012c576104c7610a32565b906104d0610a17565b90604435916006549384841015610702576064358401978885116106ef578589116106e6575b610503858a96979a610e10565b9361050d85610e33565b9461051a82519687610a97565b808652610529601f1991610e33565b01895b8181106106b157505061054089978b610e10565b6001600160a01b03938416979096905b61055a828d610e10565b881115610623576000198801888111610610578986600161057a84610bc4565b50015416036105d957906105996105936105b493610bc4565b50610e5f565b6105a3828a610e4b565b526105ae8189610e4b565b50610ea2565b965b80156105c6576000190196610550565b634e487b7160e01b8b5260118a5260248bfd5b856105e6829a939a610bc4565b505416868816146105f8575b506105b6565b97610599610593610609939a610bc4565b968c6105f2565b634e487b7160e01b8c5260118b5260248cfd5b8251602080825288518183018190528d9291600582901b8301870191818c01918489018b8a8c5b858a106106575788880389f35b909192939495968580600192603f198c82030188528a51908782511681528783830151168382015261069487830151878984015287830190610b2f565b91606080910151910152990195019901989291909594939561064a565b602090839c99989c516106c381610a7b565b8c8152828d818301528d60608088850152830152828a010152019a96979a61052c565b975084976104f6565b634e487b7160e01b885260118752602488fd5b825162461bcd60e51b815260208188015260136024820152724f6666736574206f7574206f662072616e676560681b6044820152606490fd5b90503461012c578160031936011261012c57610755610a17565b835490926001600160a01b03929091831633036107905780358552602052832091166bffffffffffffffffffffffff60a01b82541617905580f35b6020606492519162461bcd60e51b8352820152600b60248201526a6f6e6c79206f776e65722160a81b6044820152fd5b8284346107f15760203660031901126107f157506107e060209235610cf4565b90516001600160a01b039091168152f35b80fd5b5050346100ce57816003193601126100ce576020906006549051908152f35b839150346100ce5760203660031901126100ce5735906005548210156107f1575061083d90610bc4565b50805460018201546001600160a01b0390811693911691610885906080600361086860028401610c4e565b920154938051968796875260208701528501526080840190610b2f565b9060608301520390f35b9190503461012c57606036600319011261012c578135916108ae610a17565b60443567ffffffffffffffff811161047d573660238201121561047d5785926109cc96926109686108eb61095a9436906024818701359101610ad5565b8560e089516108f981610a48565b828152826020820152828b8201528260608201528260808201528260a0820152606060c082015201528751948591632630ac8d60e21b602084015233602484015260018060a01b038095166044840152606060648401526084830190610b2f565b03601f198101855284610a97565b600154928161097689610cf4565b8851998a9661098488610a48565b8752306020880152338a88015260608701521660808501528460a085015260c08401528360e084015260025416908386518099819582946334db7e0560e21b84528301610b54565b03925af1938415610a0b576109ec946109f0575b50505191829182610b54565b0390f35b610a03913d8091833e6104268183610a97565b5038806109e0565b509051903d90823e3d90fd5b602435906001600160a01b0382168203610a2d57565b600080fd5b600435906001600160a01b0382168203610a2d57565b610100810190811067ffffffffffffffff821117610a6557604052565b634e487b7160e01b600052604160045260246000fd5b6080810190811067ffffffffffffffff821117610a6557604052565b90601f8019910116810190811067ffffffffffffffff821117610a6557604052565b67ffffffffffffffff8111610a6557601f01601f191660200190565b929192610ae182610ab9565b91610aef6040519384610a97565b829481845281830111610a2d578281602093846000960137010152565b60005b838110610b1f5750506000910152565b8181015183820152602001610b0f565b90602091610b4881518092818552858086019101610b0c565b601f01601f1916010190565b602081528151602082015260018060a01b038060208401511660408301528060408401511660608301526060830151608083015260808301511660a082015260a082015160c082015260c082015160e0610bbb610100928383860152610120850190610b2f565b93015191015290565b600554811015610bfe57600560005260021b7f036b6384b5eca791c62761152d0c79bb0604c104a5fb6f4eb0703f3154bb3db00190600090565b634e487b7160e01b600052603260045260246000fd5b90600182811c92168015610c44575b6020831014610c2e57565b634e487b7160e01b600052602260045260246000fd5b91607f1691610c23565b9060405191826000825492610c6284610c14565b908184526001948581169081600014610cd15750600114610c8e575b5050610c8c92500383610a97565b565b9093915060005260209081600020936000915b818310610cb9575050610c8c93508201013880610c7e565b85548884018501529485019487945091830191610ca1565b915050610c8c94506020925060ff191682840152151560051b8201013880610c7e565b6000908152600460205260409020546001600160a01b031680610d1657503090565b90565b51906001600160a01b0382168203610a2d57565b906020908183820312610a2d57825167ffffffffffffffff93848211610a2d57019061010082820312610a2d5760405193610d6785610a48565b82518552610d76848401610d19565b84860152610d8660408401610d19565b604086015260608301516060860152610da160808401610d19565b608086015260a083015160a086015260c0830151908111610a2d5782019281601f85011215610a2d578351610dd581610ab9565b92610de36040519485610a97565b818452828287010111610a2d5760e09482610e019385019101610b0c565b60c0840152015160e082015290565b91908203918211610e1d57565b634e487b7160e01b600052601160045260246000fd5b67ffffffffffffffff8111610a655760051b60200190565b8051821015610bfe5760209160051b010190565b90604051610e6c81610a7b565b60606003829460018060a01b038082541685526001820154166020850152610e9660028201610c4e565b60408501520154910152565b6000198114610e1d576001019056fea2646970667358221220fa8d94546c8592c4a7704df096dc19f1a7d4f0ddbade8efed8a7f226319ec65864736f6c63430008140033",
  "devdoc": {
    "kind": "dev",
    "methods": {},
    "version": 1
  },
  "userdoc": {
    "kind": "user",
    "methods": {},
    "version": 1
  },
  "storageLayout": {
    "storage": [
      {
        "astId": 956,
        "contract": "contracts/apps/bridgeMessage/YarBridgeMessage.sol:YarBridgeMessage",
        "label": "owner",
        "offset": 0,
        "slot": "0",
        "type": "t_address"
      },
      {
        "astId": 958,
        "contract": "contracts/apps/bridgeMessage/YarBridgeMessage.sol:YarBridgeMessage",
        "label": "chainId",
        "offset": 0,
        "slot": "1",
        "type": "t_uint256"
      },
      {
        "astId": 960,
        "contract": "contracts/apps/bridgeMessage/YarBridgeMessage.sol:YarBridgeMessage",
        "label": "yarRequest",
        "offset": 0,
        "slot": "2",
        "type": "t_address"
      },
      {
        "astId": 962,
        "contract": "contracts/apps/bridgeMessage/YarBridgeMessage.sol:YarBridgeMessage",
        "label": "yarResponse",
        "offset": 0,
        "slot": "3",
        "type": "t_address"
      },
      {
        "astId": 966,
        "contract": "contracts/apps/bridgeMessage/YarBridgeMessage.sol:YarBridgeMessage",
        "label": "peers",
        "offset": 0,
        "slot": "4",
        "type": "t_mapping(t_uint256,t_address)"
      },
      {
        "astId": 1112,
        "contract": "contracts/apps/bridgeMessage/YarBridgeMessage.sol:YarBridgeMessage",
        "label": "messages",
        "offset": 0,
        "slot": "5",
        "type": "t_array(t_struct(Message)1108_storage)dyn_storage"
      },
      {
        "astId": 1114,
        "contract": "contracts/apps/bridgeMessage/YarBridgeMessage.sol:YarBridgeMessage",
        "label": "messageCount",
        "offset": 0,
        "slot": "6",
        "type": "t_uint256"
      }
    ],
    "types": {
      "t_address": {
        "encoding": "inplace",
        "label": "address",
        "numberOfBytes": "20"
      },
      "t_array(t_struct(Message)1108_storage)dyn_storage": {
        "base": "t_struct(Message)1108_storage",
        "encoding": "dynamic_array",
        "label": "struct YarBridgeMessage.Message[]",
        "numberOfBytes": "32"
      },
      "t_mapping(t_uint256,t_address)": {
        "encoding": "mapping",
        "key": "t_uint256",
        "label": "mapping(uint256 => address)",
        "numberOfBytes": "32",
        "value": "t_address"
      },
      "t_string_storage": {
        "encoding": "bytes",
        "label": "string",
        "numberOfBytes": "32"
      },
      "t_struct(Message)1108_storage": {
        "encoding": "inplace",
        "label": "struct YarBridgeMessage.Message",
        "members": [
          {
            "astId": 1101,
            "contract": "contracts/apps/bridgeMessage/YarBridgeMessage.sol:YarBridgeMessage",
            "label": "sender",
            "offset": 0,
            "slot": "0",
            "type": "t_address"
          },
          {
            "astId": 1103,
            "contract": "contracts/apps/bridgeMessage/YarBridgeMessage.sol:YarBridgeMessage",
            "label": "receiver",
            "offset": 0,
            "slot": "1",
            "type": "t_address"
          },
          {
            "astId": 1105,
            "contract": "contracts/apps/bridgeMessage/YarBridgeMessage.sol:YarBridgeMessage",
            "label": "message",
            "offset": 0,
            "slot": "2",
            "type": "t_string_storage"
          },
          {
            "astId": 1107,
            "contract": "contracts/apps/bridgeMessage/YarBridgeMessage.sol:YarBridgeMessage",
            "label": "timestamp",
            "offset": 0,
            "slot": "3",
            "type": "t_uint256"
          }
        ],
        "numberOfBytes": "128"
      },
      "t_uint256": {
        "encoding": "inplace",
        "label": "uint256",
        "numberOfBytes": "32"
      }
    }
  }
}