{
  "address": "0x26Fb2cF8725e2D57C4C7a77d72d78506AffC8C4B",
  "abi": [
    {
      "inputs": [
        {
          "internalType": "address",
          "name": "intialYarRequest",
          "type": "address"
        },
        {
          "internalType": "address",
          "name": "intialYarResponse",
          "type": "address"
        }
      ],
      "stateMutability": "nonpayable",
      "type": "constructor"
    },
    {
      "inputs": [],
      "name": "bridgedTokenImplementation",
      "outputs": [
        {
          "internalType": "address",
          "name": "",
          "type": "address"
        }
      ],
      "stateMutability": "view",
      "type": "function"
    },
    {
      "inputs": [],
      "name": "chainId",
      "outputs": [
        {
          "internalType": "uint256",
          "name": "",
          "type": "uint256"
        }
      ],
      "stateMutability": "view",
      "type": "function"
    },
    {
      "inputs": [
        {
          "internalType": "uint256",
          "name": "originalChainId",
          "type": "uint256"
        },
        {
          "internalType": "address",
          "name": "originalToken",
          "type": "address"
        }
      ],
      "name": "getBridgedTokenAddress",
      "outputs": [
        {
          "internalType": "address",
          "name": "",
          "type": "address"
        }
      ],
      "stateMutability": "view",
      "type": "function"
    },
    {
      "inputs": [
        {
          "internalType": "uint256",
          "name": "_chainId",
          "type": "uint256"
        }
      ],
      "name": "getPeer",
      "outputs": [
        {
          "internalType": "address",
          "name": "",
          "type": "address"
        }
      ],
      "stateMutability": "view",
      "type": "function"
    },
    {
      "inputs": [
        {
          "internalType": "address",
          "name": "bridgedToken",
          "type": "address"
        }
      ],
      "name": "isBridgedToken",
      "outputs": [
        {
          "internalType": "bool",
          "name": "exists",
          "type": "bool"
        }
      ],
      "stateMutability": "view",
      "type": "function"
    },
    {
      "inputs": [
        {
          "internalType": "address",
          "name": "",
          "type": "address"
        },
        {
          "internalType": "address",
          "name": "",
          "type": "address"
        },
        {
          "internalType": "uint256[]",
          "name": "",
          "type": "uint256[]"
        },
        {
          "internalType": "uint256[]",
          "name": "",
          "type": "uint256[]"
        },
        {
          "internalType": "bytes",
          "name": "",
          "type": "bytes"
        }
      ],
      "name": "onERC1155BatchReceived",
      "outputs": [
        {
          "internalType": "bytes4",
          "name": "",
          "type": "bytes4"
        }
      ],
      "stateMutability": "pure",
      "type": "function"
    },
    {
      "inputs": [
        {
          "internalType": "address",
          "name": "",
          "type": "address"
        },
        {
          "internalType": "address",
          "name": "",
          "type": "address"
        },
        {
          "internalType": "uint256",
          "name": "",
          "type": "uint256"
        },
        {
          "internalType": "uint256",
          "name": "",
          "type": "uint256"
        },
        {
          "internalType": "bytes",
          "name": "",
          "type": "bytes"
        }
      ],
      "name": "onERC1155Received",
      "outputs": [
        {
          "internalType": "bytes4",
          "name": "",
          "type": "bytes4"
        }
      ],
      "stateMutability": "pure",
      "type": "function"
    },
    {
      "inputs": [],
      "name": "owner",
      "outputs": [
        {
          "internalType": "address",
          "name": "",
          "type": "address"
        }
      ],
      "stateMutability": "view",
      "type": "function"
    },
    {
      "inputs": [
        {
          "internalType": "uint256",
          "name": "chainId",
          "type": "uint256"
        }
      ],
      "name": "peers",
      "outputs": [
        {
          "internalType": "address",
          "name": "peer",
          "type": "address"
        }
      ],
      "stateMutability": "view",
      "type": "function"
    },
    {
      "inputs": [
        {
          "internalType": "uint256",
          "name": "newChainId",
          "type": "uint256"
        },
        {
          "internalType": "address",
          "name": "newPeer",
          "type": "address"
        }
      ],
      "name": "setPeer",
      "outputs": [],
      "stateMutability": "nonpayable",
      "type": "function"
    },
    {
      "inputs": [
        {
          "internalType": "bytes4",
          "name": "interfaceID",
          "type": "bytes4"
        }
      ],
      "name": "supportsInterface",
      "outputs": [
        {
          "internalType": "bool",
          "name": "",
          "type": "bool"
        }
      ],
      "stateMutability": "pure",
      "type": "function"
    },
    {
      "inputs": [
        {
          "internalType": "uint256",
          "name": "originalChainId",
          "type": "uint256"
        },
        {
          "internalType": "address",
          "name": "originalToken",
          "type": "address"
        },
        {
          "internalType": "uint256",
          "name": "tokenId",
          "type": "uint256"
        },
        {
          "internalType": "uint256",
          "name": "amount",
          "type": "uint256"
        },
        {
          "internalType": "string",
          "name": "uri",
          "type": "string"
        },
        {
          "internalType": "address",
          "name": "recipient",
          "type": "address"
        }
      ],
      "name": "transferFrom",
      "outputs": [],
      "stateMutability": "nonpayable",
      "type": "function"
    },
    {
      "inputs": [
        {
          "internalType": "uint256",
          "name": "originalChainId",
          "type": "uint256"
        },
        {
          "internalType": "address",
          "name": "originalToken",
          "type": "address"
        },
        {
          "internalType": "uint256[]",
          "name": "tokenIds",
          "type": "uint256[]"
        },
        {
          "internalType": "uint256[]",
          "name": "amounts",
          "type": "uint256[]"
        },
        {
          "internalType": "string[]",
          "name": "uris",
          "type": "string[]"
        },
        {
          "internalType": "address",
          "name": "recipient",
          "type": "address"
        }
      ],
      "name": "transferFromBatch",
      "outputs": [],
      "stateMutability": "nonpayable",
      "type": "function"
    },
    {
      "inputs": [
        {
          "internalType": "address",
          "name": "token",
          "type": "address"
        },
        {
          "internalType": "uint256",
          "name": "tokenId",
          "type": "uint256"
        },
        {
          "internalType": "uint256",
          "name": "amount",
          "type": "uint256"
        },
        {
          "internalType": "uint256",
          "name": "targetChainId",
          "type": "uint256"
        },
        {
          "internalType": "address",
          "name": "recipient",
          "type": "address"
        }
      ],
      "name": "transferTo",
      "outputs": [
        {
          "components": [
            {
              "internalType": "uint256",
              "name": "initialChainId",
              "type": "uint256"
            },
            {
              "internalType": "address",
              "name": "sender",
              "type": "address"
            },
            {
              "internalType": "address",
              "name": "payer",
              "type": "address"
            },
            {
              "internalType": "uint256",
              "name": "targetChainId",
              "type": "uint256"
            },
            {
              "internalType": "address",
              "name": "target",
              "type": "address"
            },
            {
              "internalType": "uint256",
              "name": "value",
              "type": "uint256"
            },
            {
              "internalType": "bytes",
              "name": "data",
              "type": "bytes"
            },
            {
              "internalType": "uint256",
              "name": "_nonce",
              "type": "uint256"
            }
          ],
          "internalType": "struct YarLib.YarTX",
          "name": "",
          "type": "tuple"
        }
      ],
      "stateMutability": "nonpayable",
      "type": "function"
    },
    {
      "inputs": [
        {
          "internalType": "address",
          "name": "token",
          "type": "address"
        },
        {
          "internalType": "uint256[]",
          "name": "tokenIds",
          "type": "uint256[]"
        },
        {
          "internalType": "uint256[]",
          "name": "amounts",
          "type": "uint256[]"
        },
        {
          "internalType": "uint256",
          "name": "targetChainId",
          "type": "uint256"
        },
        {
          "internalType": "address",
          "name": "recipient",
          "type": "address"
        }
      ],
      "name": "transferToBatch",
      "outputs": [
        {
          "components": [
            {
              "internalType": "uint256",
              "name": "initialChainId",
              "type": "uint256"
            },
            {
              "internalType": "address",
              "name": "sender",
              "type": "address"
            },
            {
              "internalType": "address",
              "name": "payer",
              "type": "address"
            },
            {
              "internalType": "uint256",
              "name": "targetChainId",
              "type": "uint256"
            },
            {
              "internalType": "address",
              "name": "target",
              "type": "address"
            },
            {
              "internalType": "uint256",
              "name": "value",
              "type": "uint256"
            },
            {
              "internalType": "bytes",
              "name": "data",
              "type": "bytes"
            },
            {
              "internalType": "uint256",
              "name": "_nonce",
              "type": "uint256"
            }
          ],
          "internalType": "struct YarLib.YarTX",
          "name": "",
          "type": "tuple"
        }
      ],
      "stateMutability": "nonpayable",
      "type": "function"
    },
    {
      "inputs": [],
      "name": "yarRequest",
      "outputs": [
        {
          "internalType": "address",
          "name": "",
          "type": "address"
        }
      ],
      "stateMutability": "view",
      "type": "function"
    },
    {
      "inputs": [],
      "name": "yarResponse",
      "outputs": [
        {
          "internalType": "address",
          "name": "",
          "type": "address"
        }
      ],
      "stateMutability": "view",
      "type": "function"
    }
  ],
  "transactionHash": "0xccaef37d68fecea9bc4ade164c0b301e226b92ec5b53daefa5e3e84d22e93a6c",
  "args": [
    "0x31A596C0B1258Eb6f4ABE2A5DC20507B83792C6c",
    "0xF45E0f4e67E07bCE2EFD185dFDaD8430A4183F67"
  ],
  "numDeployments": 1,
  "solcInputHash": "36a606f7874322e786565fce59923324",
  "bytecode": "0x60803462000101576001600160401b03601f62003e2038819003918201601f191684019183831185841017620000eb57808592604094855283398101031262000101576200005b6020620000538462000106565b930162000106565b600280546001600160a01b03199081166001600160a01b0395861617909155600380548216928516929092179091556040519092916120399081830190811183821017620000eb57829162001de7833903906000f08015620000df57168160045416176004554660015533906000541617600055604051611ccb90816200011c8239f35b6040513d6000823e3d90fd5b634e487b7160e01b600052604160045260246000fd5b600080fd5b51906001600160a01b0382168203620001015756fe608080604052600436101561001357600080fd5b600090813560e01c90816301ffc9a71461118d5750806335fabbd814610fbb57806367ebb6b214610f9c5780637078944c14610f735780638069c49714610eea578063869d8cd914610b7d5780638a0f6873146105ff5780638da5cb5b146105d857806399f3f9f71461059f5780639a8a059214610581578063bbde7d781461028d578063bc197c81146101fd578063be4f3e8f146101ca578063c287e5781461018b578063e6a1496d14610162578063f23a6e61146101075763f4100f00146100dc57600080fd5b346101045780600319360112610104576002546040516001600160a01b039091168152602090f35b80fd5b50346101045760a03660031901126101045761012161120e565b5061012a6111e2565b506084356001600160401b03811161015e5761014a90369060040161123a565b505060405163f23a6e6160e01b8152602090f35b5080fd5b50346101045780600319360112610104576003546040516001600160a01b039091168152602090f35b50346101045760203660031901126101045760209060ff906040906001600160a01b036101b661120e565b168152600584522054166040519015158152f35b503461010457602036600319011261010457602090600435815260068252604060018060a01b0391205416604051908152f35b50346101045760a03660031901126101045761021761120e565b506102206111e2565b506001600160401b036044358181116102895761024190369060040161131f565b50506064358181116102895761025b90369060040161131f565b505060843590811161015e5761027590369060040161123a565b505060405163bc197c8160e01b8152602090f35b8280fd5b5034610104576003199060c036830112610104576004356102ac6111e2565b926001600160401b0360443581811161057d576102cd903690600401611402565b92606435828111610579576102e6903690600401611402565b6084358381116105755790610301600493923690850161131f565b989061030b6111f8565b9360018060a01b03968a886003541661032581331461175f565b60405163f0db1fbf60e01b815298899182905afa96871561056a578b97610546575b506103666103558851611460565b89806020809b01511691161461179f565b6001918254811460001461040d5750505050879850841692833b15610409578795866103cf81946103bf6040519b8c9a8b99631759616b60e11b8b523060048c01521660248a015260a060448a015260a48901906117f8565b90848883030160648901526117f8565b85810392830160848701525201925af180156103fe576103ee57505080f35b6103f79061134f565b6101045780f35b6040513d84823e3d90fd5b8780fd5b88610423869e99989c949a9397959b9683611485565b169c8d8d526005885260408d205460ff1615610535575b50508b3b156105315760405163a55784ef60e01b8152991660048a0152608060248a015292969594939261048791906104779060848b01906117f8565b90838a83030160448b01526117f8565b90878203016064880152828152818101828460051b83010196868a935b8685106104cf57505050505050505050818394818581819503925af180156103fe576103ee57505080f35b909192939495969798601f198282030185528935601e198436030181121561052d5783018781359101858211610529578136038113610529576105168b938a9384936117d7565b9b019501950193979695949291906104a4565b8d80fd5b8c80fd5b8a80fd5b61053e9161182c565b50388061043a565b6105639197503d808d833e61055b81836113ca565b810190611621565b9538610347565b6040513d8d823e3d90fd5b8680fd5b8580fd5b8480fd5b50346101045780600319360112610104576020600154604051908152f35b50346101045760403660031901126101045760206105c66105be6111e2565b600435611485565b6040516001600160a01b039091168152f35b5034610104578060031936011261010457546040516001600160a01b039091168152602090f35b50346101045760a03660031901126101045761061961120e565b6001600160401b0390602435828111610b795761063a90369060040161131f565b909260443590811161057d5761065490369060040161131f565b9161065d611224565b92610666611552565b5081151580610b70575b15610b4157865b828110610ac957506001600160a01b03851687526005602052604087205460ff16958615610ac0576040516306bc461b60e11b81526020816004816001600160a01b038b165afa908115610a78578991610a89575b50965b15610a8357604051630e7c1cb560e01b81526020816004816001600160a01b038b165afa908115610a78578991610a3e575b505b8861070d856113eb565b9761071b604051998a6113ca565b858952610727866113eb565b825b601f1982018110610a28575050815b86811061098057506001600160a01b0381163b1561015e57818461078e92888360206107a08d8c604051998a988997631759616b60e11b89523360048a01523060248a015260a060448a015260a489019161173b565b8681036003190160648801529161173b565b838103600319810160848601529083905201926001600160a01b03165af180156103fe57610964575b5060405163177bcfaf60e31b602082015260248101999099526001600160a01b03909116604489015260c060648901529594939261082492916108109160e48a019161173b565b9060231993848984030160848a015261173b565b908582030160a4860152825180825260208201916020808360051b83010195019286915b838310610931578780806108ee8c610877818d8d60018060a01b031660c483015203601f1981018352826113ca565b6001549060643561088781611460565b906040519361089585611378565b8452306020850152336040850152606084015260018060a01b031660808301528360a083015260c08201528260e082015260018060a01b0360025416906040519485809481936334db7e0560e21b8352600483016112af565b03925af19081156103fe57826109129392610916575b5050604051918291826112af565b0390f35b61092a92503d8091833e61055b81836113ca565b8280610904565b91939650919394602080610951600193601f198682030187528a5161128a565b9801930193019092889695949293610848565b6109709093929361134f565b61097c579088386107c9565b8880fd5b6109f1919250610991818887611701565b6040516303a24d0760e21b8152903560048201528c80826024816001600160a01b0389165afa90918282610a03575b50506109f957506040516109d381611394565b8c81526109e0828c611727565b526109eb818b611727565b506116dc565b908a91610738565b6109e0828c611727565b610a209293503d8091833e610a1881836113ca565b8101906115eb565b90388e6109c0565b60606020828d018101919091528d945001610729565b90506020813d602011610a70575b81610a59602093836113ca565b8101031261097c57610a6a90611591565b38610701565b3d9150610a4c565b6040513d8b823e3d90fd5b85610703565b90506020813d602011610ab8575b81610aa4602093836113ca565b81010312610ab35751386106cc565b600080fd5b3d9150610a97565b600154966106cf565b610ad4818386611701565b3515610ae857610ae3906116dc565b610677565b60405162461bcd60e51b815260206004820152602b60248201527f427269646765455243313135353a20616d6f756e747320636f6e7461696e732060448201526a7a65726f2076616c75652160a81b6064820152608490fd5b60405162461bcd60e51b81526020600482015260076024820152666c656e6774682160c81b6044820152606490fd5b50808214610670565b8380fd5b50346101045760a036600319011261010457610b9761120e565b60243560443591606435610ba9611224565b92610bb2611552565b508415610e9057859460018060a01b0391828516948588526020916005835260ff60408a2054169182600014610e87576040516306bc461b60e11b815284816004818c5afa90811561056a578b91610e56575b50925b15610e505750604051630e7c1cb560e01b815283816004818b5afa908115610e45578a91610e10575b50935b6040516303a24d0760e21b8152600481018390528a816024818c5afa8b9181610df3575b50610ded5750604051610c6a81611394565b8a8152915b883b1561053157604051637921219560e11b8152336004820152306024820152604481018290526064810183905260a06084820152600060a4820152988b908a9060c490829084905af198891561056a578b99610dcb575b509886610d13610d289482979694610d8d9c9d846040519b8c986306bf577b60e31b8c8b015260248a01521660448801526064870152608486015260c060a486015260e485019061128a565b911660c483015203601f1981018552846113ca565b60015494610d3581611460565b9160405196610d4388611378565b8752309087015233604087015260608601521660808401528460a084015260c08301528360e083015260025416906040519485809481936334db7e0560e21b8352600483016112af565b03925af19081156103fe57826109129392610db0575050604051918291826112af565b610dc492503d8091833e61055b81836113ca565b3880610904565b610dda9099919594929961134f565b610de957919296899738610cc7565b8980fd5b91610c6f565b610e099192508c3d8091833e610a1881836113ca565b9038610c58565b90508381813d8311610e3e575b610e2781836113ca565b81010312610de957610e3890611591565b38610c31565b503d610e1d565b6040513d8c823e3d90fd5b93610c34565b809b50858092503d8311610e80575b610e6f81836113ca565b81010312610ab3578a995138610c05565b503d610e65565b60015492610c08565b60405162461bcd60e51b815260206004820152602c60248201527f427269646765455243313135353a205f616d6f756e747320636f6e7461696e7360448201526b207a65726f2076616c75652160a01b6064820152608490fd5b503461010457604036600319011261010457610f046111e2565b81546001600160a01b039081163303610f4057600435835260066020526040832091166bffffffffffffffffffffffff60a01b82541617905580f35b60405162461bcd60e51b815260206004820152600b60248201526a6f6e6c79206f776e65722160a81b6044820152606490fd5b50346101045780600319360112610104576004546040516001600160a01b039091168152602090f35b50346101045760203660031901126101045760206105c6600435611460565b50346101045760c03660031901126101045780600435610fd96111e2565b60443591606435906084356001600160401b0381116105795761100090369060040161123a565b939061100a6111f8565b9460018060a01b0393600489866003541661102681331461175f565b60405163f0db1fbf60e01b815292839182905afa8015610e4557611066918b91611173575b508680602061105a8451611460565b9301511691161461179f565b60015481036110d65750505016803b1561057d57604051637921219560e11b81523060048201526001600160a01b039390931660248401526044830193909352606482015260a06084820152600060a4820152908290829060c490829084905af180156103fe576103ee57505080f35b846110e885839b9a999596989b611485565b1695868952600560205260ff60408a20541615611162575b5050843b1561057557869261114491604051998a988997889663bb7fde7160e01b8852166004870152602486015260448501526080606485015260848401916117d7565b03925af180156103fe57611156575080f35b61115f9061134f565b80f35b61116b9161182c565b503880611100565b61118791503d808d833e61055b81836113ca565b3861104b565b90503461015e57602036600319011261015e5760043563ffffffff60e01b8116809103610289576020925063d6c0879d60e01b81149081156111d1575b5015158152f35b6303a24d0760e21b149050386111ca565b602435906001600160a01b0382168203610ab357565b60a435906001600160a01b0382168203610ab357565b600435906001600160a01b0382168203610ab357565b608435906001600160a01b0382168203610ab357565b9181601f84011215610ab3578235916001600160401b038311610ab35760208381860195010111610ab357565b60005b83811061127a5750506000910152565b818101518382015260200161126a565b906020916112a381518092818552858086019101611267565b601f01601f1916010190565b602081528151602082015260018060a01b038060208401511660408301528060408401511660608301526060830151608083015260808301511660a082015260a082015160c082015260c082015160e061131661010092838386015261012085019061128a565b93015191015290565b9181601f84011215610ab3578235916001600160401b038311610ab3576020808501948460051b010111610ab357565b6001600160401b03811161136257604052565b634e487b7160e01b600052604160045260246000fd5b61010081019081106001600160401b0382111761136257604052565b602081019081106001600160401b0382111761136257604052565b608081019081106001600160401b0382111761136257604052565b90601f801991011681019081106001600160401b0382111761136257604052565b6001600160401b0381116113625760051b60200190565b81601f82011215610ab357803591611419836113eb565b9261142760405194856113ca565b808452602092838086019260051b820101928311610ab3578301905b828210611451575050505090565b81358152908301908301611443565b6000908152600660205260409020546001600160a01b03168061148257503090565b90565b6040516114c8816114ba6020958683019586909160349282526bffffffffffffffffffffffff199060601b1660208201520190565b03601f1981018352826113ca565b51902061034d6040516114dd848301826113ca565b81815283810191611949833961151184604051809361150483830196879251928391611267565b81010380845201826113ca565b5190206040519283019160ff60f81b83523060601b60218501526035840152605583015260558252611542826113af565b905190206001600160a01b031690565b6040519061155f82611378565b8160e06000918281528260208201528260408201528260608201528260808201528260a0820152606060c08201520152565b51906001600160a01b0382168203610ab357565b909291926001600160401b03811161136257604051916115cf601f8301601f1916602001846113ca565b829482845282820111610ab35760206115e9930190611267565b565b602081830312610ab3578051906001600160401b038211610ab357019080601f83011215610ab3578151611482926020016115a5565b90602082820312610ab35781516001600160401b0392838211610ab3570161010081830312610ab3576040519261165784611378565b8151845261166760208301611591565b602085015261167860408301611591565b60408501526060820151606085015261169360808301611591565b608085015260a082015160a085015260c0820151908111610ab357810182601f82011215610ab35760e0928160206116cd935191016115a5565b60c0840152015160e082015290565b60001981146116eb5760010190565b634e487b7160e01b600052601160045260246000fd5b91908110156117115760051b0190565b634e487b7160e01b600052603260045260246000fd5b80518210156117115760209160051b010190565b81835290916001600160fb1b038311610ab35760209260051b809284830137010190565b1561176657565b60405162461bcd60e51b81526020600482015260116024820152704f6e6c7920596172526573706f6e73652160781b6044820152606490fd5b156117a657565b60405162461bcd60e51b81526020600482015260096024820152686e6f7420706565722160b81b6044820152606490fd5b908060209392818452848401376000828201840152601f01601f1916010190565b90815180825260208080930193019160005b828110611818575050505090565b83518552938101939281019260010161180a565b6040805160208101838152606085901b6bffffffffffffffffffffffff1916828401529192919061186081605481016114ba565b5190209082519161034d92838101938185106001600160401b0386111761136257611949823980600094039084f593841561193e57600454845163da35a26f60e01b602082015260248101939093526001600160a01b03918216604480850191909152835294811694166118d3826113af565b843b15610289576119069183918551938492839263c0d91eaf60e01b84526004840152876024840152604483019061128a565b038183885af1801561193e5761192f575b50828152600560205220805460ff1916600117905590565b6119389061134f565b38611917565b83513d84823e3d90fdfe6080806040523461001657610331908161001c8239f35b600080fdfe60806040526004361061010f576000803560e01c63c0d91eaf14610023575061010f565b346100af5760403660031901126100af576004356001600160a01b03811681036100a75760243567ffffffffffffffff81116100ab57366023820112156100ab578060040135918361007c610077856100f3565b6100c8565b9284845236602486830101116100a757846100a495602460209301838701378401015261015b565b80f35b5080fd5b8280fd5b80fd5b634e487b7160e01b600052604160045260246000fd5b6040519190601f01601f1916820167ffffffffffffffff8111838210176100ee57604052565b6100b2565b67ffffffffffffffff81116100ee57601f01601f191660200190565b7f360894a13ba1a3210667c828492db98dca3e2076cc3735a920a3ca505d382bbc54600090819081906001600160a01b0316368280378136915af43d82803e15610157573d90f35b3d90fd5b9060005460ff81166102295760ff1916600117600055813b15610208577f360894a13ba1a3210667c828492db98dca3e2076cc3735a920a3ca505d382bbc80546001600160a01b0319166001600160a01b0384169081179091557fbc7cd75a20ee27fd9adebab32041f755214dbc6bffa90cc0225b39da2e5c2d3b600080a28051156101ed576101ea9161025d565b50565b5050346101f657565b60405163b398979f60e01b8152600490fd5b604051634c9c8ce360e01b81526001600160a01b0383166004820152602490fd5b60405162461bcd60e51b815260206004820152600c60248201526b616c7265616479496e69742160a01b6044820152606490fd5b60008061029193602081519101845af43d15610294573d91610281610077846100f3565b9283523d6000602085013e610298565b90565b6060915b906102bf57508051156102ad57805190602001fd5b604051630a12f52160e11b8152600490fd5b815115806102f2575b6102d0575090565b604051639996b31560e01b81526001600160a01b039091166004820152602490fd5b50803b156102c856fea2646970667358221220e290ecc1e089760514aff988002864de709093e868dd9aa4bc700ec1eda2ca6864736f6c63430008140033a2646970667358221220322f12481c251e4409649c8d6c5402f05912eaddcc118aadc3fd4a8c1c624a7964736f6c63430008140033608080604052346100165761201d908161001c8239f35b600080fdfe6080604052600436101561001257600080fd5b60003560e01c8062fdd58e1461015657806301ffc9a7146101515780630d788c361461014c5780630e7c1cb5146101475780630e89341c146101425780632eb2c2d61461013d5780634e1273f4146101385780636b20c45414610133578063715018a61461012e5780638da5cb5b1461012957806396d7e22914610124578063989ee11a1461011f578063a22cb4651461011a578063a55784ef14610115578063bb7fde7114610110578063da35a26f1461010b578063e985e9c514610106578063f242432a14610101578063f2fde38b146100fc5763f5298aca146100f757600080fd5b610e83565b610e5a565b610d61565b610d24565b610bef565b610b8a565b610a9b565b610a04565b6109d7565b6108fe565b610866565b6107f8565b61075e565b6106a5565b61052d565b610327565b6102aa565b61028c565b61021e565b6101a0565b600435906001600160a01b038216820361017157565b600080fd5b602435906001600160a01b038216820361017157565b35906001600160a01b038216820361017157565b346101715760403660031901126101715760206102036101be61015b565b6024356000527f88be536d5240c274a3b1d3a1be54482fd9caa294f08c62a7cde569f49a3c4500835260406000209060018060a01b0316600052602052604060002090565b54604051908152f35b6001600160e01b031981160361017157565b3461017157602036600319011261017157602060043561023d8161020c565b63ffffffff60e01b16636cdb3d1360e11b811490811561027b575b811561026a575b506040519015158152f35b6301ffc9a760e01b1490503861025f565b6303a24d0760e21b81149150610258565b34610171576000366003190112610171576020600054604051908152f35b34610171576000366003190112610171576001546040516001600160a01b039091168152602090f35b919082519283825260005b8481106102ff575050826000602080949584010152601f8019910116010190565b6020818301810151848301820152016102de565b9060206103249281815201906102d3565b90565b3461017157602080600319360112610171576000906004358252600281526040822090604051918381549061035b82611b10565b808652926001928084169081156103d05750600114610395575b61039186610385818a038261042a565b60405191829182610313565b0390f35b9080949650528483205b8284106103bd57505050816103919361038592820101933880610375565b805485850187015292850192810161039f565b60ff19168787015250505050151560051b8201019150610385816103913880610375565b634e487b7160e01b600052604160045260246000fd5b602081019081106001600160401b0382111761042557604052565b6103f4565b90601f801991011681019081106001600160401b0382111761042557604052565b6001600160401b0381116104255760051b60200190565b81601f82011215610171578035916104798361044b565b92610487604051948561042a565b808452602092838086019260051b820101928311610171578301905b8282106104b1575050505090565b813581529083019083016104a3565b6001600160401b03811161042557601f01601f191660200190565b9291926104e7826104c0565b916104f5604051938461042a565b829481845281830111610171578281602093846000960137010152565b9080601f8301121561017157816020610324933591016104db565b346101715760a03660031901126101715761054661015b565b61054e610176565b90604435916001600160401b03908184116101715761057260049436908601610462565b906064358381116101715761058a9036908701610462565b92608435908111610171576105a29036908701610512565b936001600160a01b03808216903382141580610631575b610604578316156105ec57156105d5576105d39550611409565b005b604051626a0d4560e21b8152600081880152602490fd5b604051632bfa23e760e11b8152600081890152602490fd5b6040805163711bec9160e11b815233818b019081526001600160a01b038616602082015290918291010390fd5b5060ff6106583361064186610fd0565b9060018060a01b0316600052602052604060002090565b5416156105b9565b90815180825260208080930193019160005b828110610680575050505090565b835185529381019392810192600101610672565b906020610324928181520190610660565b34610171576040366003190112610171576004356001600160401b0380821161017157366023830112156101715781600401356106e18161044b565b926106ef604051948561042a565b81845260209160248386019160051b8301019136831161017157602401905b8282106107475785602435868111610171576103919161073561073b923690600401610462565b906110a8565b60405191829182610694565b8380916107538461018c565b81520191019061070e565b346101715760603660031901126101715761077761015b565b6001600160401b0360243581811161017157610797903690600401610462565b90604435908111610171576107b0903690600401610462565b906107b9610ef4565b6001600160a01b038316156107e0576105d39260006040516107da8161040a565b52611153565b604051626a0d4560e21b815260006004820152602490fd5b346101715760008060031936011261086357610812610ef4565b600080516020611fa883398151915280546001600160a01b0319811690915581906001600160a01b03167f8be0079c531659141344cd1fd0a4f28419497f9722a3daafe3b4186f6b6457e08280a380f35b80fd5b3461017157600036600319011261017157600080516020611fa8833981519152546040516001600160a01b039091168152602090f35b602080820190808352835180925260408301928160408460051b8301019501936000915b8483106108d05750505050505090565b90919293949584806108ee600193603f198682030187528a516102d3565b98019301930191949392906108c0565b3461017157602080600319360112610171576004356001600160401b0381116101715761092f903690600401610462565b80519061093b8261044b565b92610949604051948561042a565b828452601f196109588461044b565b0160005b8181106109c85750505060005b82811061097e5760405180610391868261089c565b806109a86109a36109926109c3948661107e565b516000526002602052604060002090565b611cfc565b6109b2828761107e565b526109bd818661107e565b5061106a565b610969565b6060868201840152820161095c565b3461017157600036600319011261017157604060005460018060a01b036001541682519182526020820152f35b3461017157604036600319011261017157610a1d61015b565b602435801515809103610171576001600160a01b038216918215610a8357610a489061064133610fd0565b60ff1981541660ff83161790556040519081527f17307eab39ab6107e8899845ad3d59bd9653f200f220920489ca2b5937696c3160203392a3005b60405162ced3e160e81b815260006004820152602490fd5b3461017157608036600319011261017157610ab461015b565b6001600160401b03906024803583811161017157610ad6903690600401610462565b604492833585811161017157610af0903690600401610462565b92606435908682116101715736602383011215610171578160040135610b158161044b565b96610b23604051988961042a565b818852602098838a8a019360051b8601019436861161017157848101935b868510610b54576105d38b8b8b8b611ee2565b843583811161017157820136604382011215610171578c91610b7f83923690888b82013591016104db565b815201940193610b41565b3461017157608036600319011261017157610ba361015b565b606435906001600160401b039081831161017157366023840112156101715782600401359182116101715736602483850101116101715760246105d39301906044359060243590611da0565b3461017157604036600319011261017157610c08610176565b600080516020611fc883398151915254906001600160401b0360ff8360401c1615921680159081610d1c575b6001149081610d12575b159081610d09575b50610cf757600080516020611fc8833981519152805467ffffffffffffffff19166001179055610c7e9082610ccd575b600435611951565b610c8457005b600080516020611fc8833981519152805460ff60401b19169055604051600181527fc7f505b2f371ae2175ee4913f4499e1f2633a7b5936321eed1cdaeb6115181d290602090a1005b600080516020611fc8833981519152805460ff60401b191668010000000000000000179055610c76565b60405163f92ee8a960e01b8152600490fd5b90501538610c46565b303b159150610c3e565b839150610c34565b3461017157604036600319011261017157602060ff610d55610d4461015b565b610641610d4f610176565b91610fd0565b54166040519015158152f35b346101715760a036600319011261017157610d7a61015b565b610d82610176565b6084356001600160401b03811161017157610da1903690600401610512565b906001600160a01b03838116903382141580610e42575b610e1b57821615610e0257156107e0576105d392610dfa6064356044359160405192600184526020840152604083019160018352606084015260808301604052565b929091611409565b604051632bfa23e760e11b815260006004820152602490fd5b60405163711bec9160e11b81523360048201526001600160a01b0386166024820152604490fd5b5060ff610e523361064188610fd0565b541615610db8565b34610171576020366003190112610171576105d3610e7661015b565b610e7e610ef4565b610f2d565b3461017157606036600319011261017157610e9c61015b565b610ea4610ef4565b6001600160a01b038116156107e0576105d390610ee56044356024359160405192600184526020840152604083019160018352606084015260808301604052565b9160006040516107da8161040a565b600080516020611fa8833981519152546001600160a01b03163303610f1557565b60405163118cdaa760e01b8152336004820152602490fd5b6001600160a01b03908116908115610f8857600080516020611fa883398151915280546001600160a01b031981168417909155167f8be0079c531659141344cd1fd0a4f28419497f9722a3daafe3b4186f6b6457e0600080a3565b604051631e4fbdf760e01b815260006004820152602490fd5b6000527f88be536d5240c274a3b1d3a1be54482fd9caa294f08c62a7cde569f49a3c4500602052604060002090565b6001600160a01b031660009081527f88be536d5240c274a3b1d3a1be54482fd9caa294f08c62a7cde569f49a3c45016020526040902090565b611050916000527f88be536d5240c274a3b1d3a1be54482fd9caa294f08c62a7cde569f49a3c450060205260406000209060018060a01b0316600052602052604060002090565b5490565b634e487b7160e01b600052601160045260246000fd5b60001981146110795760010190565b611054565b80518210156110925760209160051b010190565b634e487b7160e01b600052603260045260246000fd5b919091805183518082036111315750508051906110c48261044b565b916110d2604051938461042a565b8083526110e1601f199161044b565b0190602091368385013760005b815181101561112957806111146111249260051b85808287010151918a01015190611009565b61111e828761107e565b5261106a565b6110ee565b509193505050565b604051635b05999160e01b815260048101919091526024810191909152604490fd5b929190805182519081810361113157505060005b815181101561120b57600581901b82810160209081015191850101516001600160a01b0387166111a2575b505061119d9061106a565b611167565b6111af8761064184610fa1565b548181106111d4578761064161119d9594936111cc930393610fa1565b559038611192565b6040516303dee4c560e01b81526001600160a01b038916600482015260248101919091526044810182905260648101839052608490fd5b509060009293916001815114841461126c576020908101519181015160408051938452918301526001600160a01b039092169133917fc3d58168c5ae7397731d063d5bbf3d657854427343f4c083240f7aacaa2d0f6291819081015b0390a4565b6040516001600160a01b039093169233927f4a39dc06d4c0dbc64b70af90fd698a233a518aa5d07e595d983b8c0526c8f7fb92829161126791836115f3565b90805183519081810361113157505060005b815181101561131e57600581901b82810160209081015191860101516112f7929185906001600160a01b0382166112fc575b50505061106a565b6112bd565b6113149161064161130c92610fa1565b9182546115e6565b90553884816112ef565b508051919392916001036113c0576020818101518382015160408051928352928201526001600160a01b0386169160009133917fc3d58168c5ae7397731d063d5bbf3d657854427343f4c083240f7aacaa2d0f6291a45b6001600160a01b03841661138a575b50505050565b80516001036113b157906020806113a89593015191015191336116d4565b38808080611384565b6113bb93336118e5565b6113a8565b6040516001600160a01b0385169060009033907f4a39dc06d4c0dbc64b70af90fd698a233a518aa5d07e595d983b8c0526c8f7fb90806114018888836115f3565b0390a4611375565b94919091815184519081810361113157505060005b82518110156114f057600581901b83810160209081015191870101516001600160a01b03929186908a851661147f575b6114609482166114655750505061106a565b61141e565b6114759161064161130c92610fa1565b90553885816112ef565b91929390506114918a61064184610fa1565b548381106114b95791879184611460969594036114b18d61064185610fa1565b55945061144e565b6040516303dee4c560e01b81526001600160a01b038c16600482015260248101919091526044810184905260648101839052608490fd5b50949193929093600185511460001461159b576020858101518382015160408051928352928201526001600160a01b03838116929086169133917fc3d58168c5ae7397731d063d5bbf3d657854427343f4c083240f7aacaa2d0f6291a45b6001600160a01b038116611564575b5050505050565b845160010361158a5760208061158096015192015192336117ce565b388080808061155d565b6115969491923361191a565b611580565b6040516001600160a01b03828116919085169033907f4a39dc06d4c0dbc64b70af90fd698a233a518aa5d07e595d983b8c0526c8f7fb90806115de888c836115f3565b0390a461154e565b9190820180921161107957565b909161160a61032493604084526040840190610660565b916020818403910152610660565b9081602091031261017157516103248161020c565b909260a0926103249594600180861b03168352600060208401526040830152606082015281608082015201906102d3565b919261032495949160a094600180871b0380921685521660208401526040830152606082015281608082015201906102d3565b6040519061169e8261040a565b60008252565b3d156116cf573d906116b5826104c0565b916116c3604051938461042a565b82523d6000602084013e565b606090565b9293919093843b6116e6575050505050565b602091611709604051948593849363f23a6e6160e01b988986526004860161162d565b038160006001600160a01b0388165af16000918161179e575b5061176157826117306116a4565b805191908261175a57604051632bfa23e760e11b81526001600160a01b0383166004820152602490fd5b9050602001fd5b6001600160e01b0319160361177b5750388080808061155d565b604051632bfa23e760e11b81526001600160a01b03919091166004820152602490fd5b6117c091925060203d81116117c7575b6117b8818361042a565b810190611618565b9038611722565b503d6117ae565b939290949194853b6117e3575b505050505050565b611806602093604051958694859463f23a6e6160e01b998a87526004870161165e565b038160006001600160a01b0388165af160009181611848575b5061182d57826117306116a4565b6001600160e01b0319160361177b57503880808080806117db565b61186191925060203d81116117c7576117b8818361042a565b903861181f565b9261189761032495936118a59360018060a01b031686526000602087015260a0604087015260a0860190610660565b908482036060860152610660565b9160808184039101526102d3565b93906103249593611897916118a59460018060a01b03809216885216602087015260a0604087015260a0860190610660565b9293919093843b6118f7575050505050565b602091611709604051948593849363bc197c8160e01b9889865260048601611868565b939290949194853b61192e57505050505050565b611806602093604051958694859463bc197c8160e01b998a8752600487016118b3565b9190604051926119608461040a565b6000845261196c611ae1565b611974611ae1565b83516001600160401b038111610425577f88be536d5240c274a3b1d3a1be54482fd9caa294f08c62a7cde569f49a3c4502906119b9816119b48454611b10565b611b4a565b602080601f8311600114611a2757508190611a1a9697600092611a1c575b50508160011b916000199060031b1c19161790555b6119f533611ad1565b60005560018060a01b03166bffffffffffffffffffffffff60a01b6001541617600155565b565b0151905038806119d7565b7f88be536d5240c274a3b1d3a1be54482fd9caa294f08c62a7cde569f49a3c45026000529196601f1988167ff429cb5e2ec84cbb765e76b31964a56ccde03e7a6122d6cc4afb19edc55edeed936000905b828210611ab9575050916001939189611a1a999a9410611aa0575b505050811b0190556119ec565b015160001960f88460031b161c19169055388080611a93565b80600186978294978701518155019601940190611a78565b611a1a90611add611ae1565b610e7e5b60ff600080516020611fc88339815191525460401c1615611afe57565b604051631afcd79f60e31b8152600490fd5b90600182811c92168015611b40575b6020831014611b2a57565b634e487b7160e01b600052602260045260246000fd5b91607f1691611b1f565b601f8111611b56575050565b6000907f88be536d5240c274a3b1d3a1be54482fd9caa294f08c62a7cde569f49a3c450282527ff429cb5e2ec84cbb765e76b31964a56ccde03e7a6122d6cc4afb19edc55edeed906020601f850160051c83019410611bd0575b601f0160051c01915b828110611bc557505050565b818155600101611bb9565b9092508290611bb0565b90601f8111611be857505050565b600091825260208220906020601f850160051c83019410611c24575b601f0160051c01915b828110611c1957505050565b818155600101611c0d565b9092508290611c04565b91909182516001600160401b03811161042557611c5581611c4f8454611b10565b84611bda565b602080601f8311600114611c91575081929394600092611c86575b50508160011b916000199060031b1c1916179055565b015190503880611c70565b90601f19831695611ca785600052602060002090565b926000905b888210611ce457505083600195969710611ccb575b505050811b019055565b015160001960f88460031b161c19169055388080611cc1565b80600185968294968601518155019501930190611cac565b9060405191826000825492611d1084611b10565b908184526001948581169081600014611d7d5750600114611d3a575b5050611a1a9250038361042a565b9093915060005260209081600020936000915b818310611d65575050611a1a93508201013880611d2c565b85548884018501529485019487945091830191611d4d565b915050611a1a94506020925060ff191682840152151560051b8201013880611d2c565b92949394611dac610ef4565b816000526020600281526040600020916001600160401b03881161042557611dde88611dd88554611b10565b85611bda565b600091601f8911600114611e2b5750968091611a1a9798600092611e20575b50508160011b916000199060031b1c19161790555b611e1a611691565b92611e9e565b013590503880611dfd565b91601f198916611e4085600052602060002090565b9382905b828210611e8657505091600193918a611a1a9a9b9410611e6c575b505050811b019055611e12565b0135600019600384901b60f8161c19169055388080611e5f565b80600185978294968801358155019601930190611e44565b919291906001600160a01b03821615610e0257611a1a93611edc60405192600184526020840152604083019160018352606084015260808301604052565b916112ab565b9190939293611eef610ef4565b8051825181149081611f81575b5015611f5257805160005b818110611f24575050611a1a939450611f1e611691565b92611f8c565b80611f48611f35611f4d938a61107e565b51611f43610992848861107e565b611c2e565b61106a565b611f07565b60405162461bcd60e51b81526020600482015260076024820152666c656e6774682160c81b6044820152606490fd5b905085511438611efc565b9291906001600160a01b03841615610e0257611a1a936112ab56fe9016d09d72d40fdae2fd8ceac6b6234c7706214fd39c1cd1e609a0528c199300f0c57e16840df040f15088dc2f81fe391c3923bec73e23a9662efc9c229c6a00a26469706673582212205bde82bc76a2d1c2f6c27148c8104654b1bd42bf9db78cc498f249f8b7dd05ce64736f6c63430008140033",
  "devdoc": {
    "kind": "dev",
    "methods": {},
    "version": 1
  },
  "userdoc": {
    "kind": "user",
    "methods": {},
    "version": 1
  },
  "storageLayout": {
    "storage": [
      {
        "astId": 9586,
        "contract": "contracts/apps/bridge1155/YarBridge1155.sol:YarBridge1155",
        "label": "owner",
        "offset": 0,
        "slot": "0",
        "type": "t_address"
      },
      {
        "astId": 9588,
        "contract": "contracts/apps/bridge1155/YarBridge1155.sol:YarBridge1155",
        "label": "chainId",
        "offset": 0,
        "slot": "1",
        "type": "t_uint256"
      },
      {
        "astId": 9590,
        "contract": "contracts/apps/bridge1155/YarBridge1155.sol:YarBridge1155",
        "label": "yarRequest",
        "offset": 0,
        "slot": "2",
        "type": "t_address"
      },
      {
        "astId": 9592,
        "contract": "contracts/apps/bridge1155/YarBridge1155.sol:YarBridge1155",
        "label": "yarResponse",
        "offset": 0,
        "slot": "3",
        "type": "t_address"
      },
      {
        "astId": 9594,
        "contract": "contracts/apps/bridge1155/YarBridge1155.sol:YarBridge1155",
        "label": "bridgedTokenImplementation",
        "offset": 0,
        "slot": "4",
        "type": "t_address"
      },
      {
        "astId": 9598,
        "contract": "contracts/apps/bridge1155/YarBridge1155.sol:YarBridge1155",
        "label": "isBridgedToken",
        "offset": 0,
        "slot": "5",
        "type": "t_mapping(t_address,t_bool)"
      },
      {
        "astId": 9602,
        "contract": "contracts/apps/bridge1155/YarBridge1155.sol:YarBridge1155",
        "label": "peers",
        "offset": 0,
        "slot": "6",
        "type": "t_mapping(t_uint256,t_address)"
      }
    ],
    "types": {
      "t_address": {
        "encoding": "inplace",
        "label": "address",
        "numberOfBytes": "20"
      },
      "t_bool": {
        "encoding": "inplace",
        "label": "bool",
        "numberOfBytes": "1"
      },
      "t_mapping(t_address,t_bool)": {
        "encoding": "mapping",
        "key": "t_address",
        "label": "mapping(address => bool)",
        "numberOfBytes": "32",
        "value": "t_bool"
      },
      "t_mapping(t_uint256,t_address)": {
        "encoding": "mapping",
        "key": "t_uint256",
        "label": "mapping(uint256 => address)",
        "numberOfBytes": "32",
        "value": "t_address"
      },
      "t_uint256": {
        "encoding": "inplace",
        "label": "uint256",
        "numberOfBytes": "32"
      }
    }
  }
}